{
  "_format": "hh-sol-artifact-1",
  "contractName": "insuredFlightsAgency",
  "sourceName": "contracts/InsuredFlights/InsuredFlightsAgency.sol",
  "abi": [
    {
      "inputs": [
        {
          "internalType": "uint256",
          "name": "_insurancePrice",
          "type": "uint256"
        }
      ],
      "stateMutability": "nonpayable",
      "type": "constructor"
    },
    {
      "anonymous": false,
      "inputs": [
        {
          "indexed": false,
          "internalType": "uint256",
          "name": "insuredFlightId",
          "type": "uint256"
        },
        {
          "indexed": false,
          "internalType": "address",
          "name": "passenger",
          "type": "address"
        },
        {
          "indexed": false,
          "internalType": "uint256",
          "name": "secretNumber",
          "type": "uint256"
        }
      ],
      "name": "FlightClaimed",
      "type": "event"
    },
    {
      "anonymous": false,
      "inputs": [
        {
          "indexed": false,
          "internalType": "uint256",
          "name": "insuredFlightId",
          "type": "uint256"
        },
        {
          "indexed": false,
          "internalType": "uint256",
          "name": "flightDelayedTime",
          "type": "uint256"
        },
        {
          "indexed": false,
          "internalType": "string",
          "name": "flightStatus",
          "type": "string"
        }
      ],
      "name": "FlightInfoUpdated",
      "type": "event"
    },
    {
      "anonymous": false,
      "inputs": [
        {
          "indexed": false,
          "internalType": "uint256",
          "name": "insuredFlightId",
          "type": "uint256"
        }
      ],
      "name": "FlightInsured",
      "type": "event"
    },
    {
      "inputs": [],
      "name": "INSURANCE_PRICE",
      "outputs": [
        {
          "internalType": "uint256",
          "name": "",
          "type": "uint256"
        }
      ],
      "stateMutability": "view",
      "type": "function"
    },
    {
      "inputs": [],
      "name": "_generator",
      "outputs": [
        {
          "internalType": "contract RandomNumberV2Interface",
          "name": "",
          "type": "address"
        }
      ],
      "stateMutability": "view",
      "type": "function"
    },
    {
      "inputs": [
        {
          "internalType": "uint256",
          "name": "",
          "type": "uint256"
        }
      ],
      "name": "_insuranceClaims",
      "outputs": [
        {
          "internalType": "string",
          "name": "aircraftName",
          "type": "string"
        },
        {
          "internalType": "uint256",
          "name": "amountClaimed",
          "type": "uint256"
        },
        {
          "internalType": "uint256",
          "name": "dateClaimed",
          "type": "uint256"
        },
        {
          "internalType": "address",
          "name": "insuree",
          "type": "address"
        },
        {
          "internalType": "uint256",
          "name": "insuranceId",
          "type": "uint256"
        }
      ],
      "stateMutability": "view",
      "type": "function"
    },
    {
      "inputs": [
        {
          "internalType": "uint256",
          "name": "",
          "type": "uint256"
        }
      ],
      "name": "_insuredFlight",
      "outputs": [
        {
          "internalType": "string",
          "name": "aircraftIcao",
          "type": "string"
        },
        {
          "internalType": "string",
          "name": "aircraftName",
          "type": "string"
        },
        {
          "internalType": "string",
          "name": "flightDate",
          "type": "string"
        },
        {
          "internalType": "string",
          "name": "departureAirport",
          "type": "string"
        },
        {
          "internalType": "string",
          "name": "arrivalAirport",
          "type": "string"
        },
        {
          "internalType": "uint256",
          "name": "flightDelayedTime",
          "type": "uint256"
        },
        {
          "internalType": "string",
          "name": "flightNo",
          "type": "string"
        },
        {
          "internalType": "uint256",
          "name": "flight_price",
          "type": "uint256"
        },
        {
          "internalType": "string",
          "name": "status",
          "type": "string"
        },
        {
          "internalType": "uint256",
          "name": "lastChecked",
          "type": "uint256"
        },
        {
          "internalType": "address",
          "name": "insurer",
          "type": "address"
        },
        {
          "internalType": "uint256",
          "name": "insuranceId",
          "type": "uint256"
        }
      ],
      "stateMutability": "view",
      "type": "function"
    },
    {
      "inputs": [],
      "name": "_maxNumber",
      "outputs": [
        {
          "internalType": "uint256",
          "name": "",
          "type": "uint256"
        }
      ],
      "stateMutability": "view",
      "type": "function"
    },
    {
      "inputs": [],
      "name": "_totalAmountInsurance",
      "outputs": [
        {
          "internalType": "uint256",
          "name": "",
          "type": "uint256"
        }
      ],
      "stateMutability": "view",
      "type": "function"
    },
    {
      "inputs": [
        {
          "components": [
            {
              "internalType": "string",
              "name": "aircraft_name",
              "type": "string"
            },
            {
              "internalType": "string",
              "name": "aircraft_reg",
              "type": "string"
            },
            {
              "internalType": "string",
              "name": "flight_no",
              "type": "string"
            },
            {
              "internalType": "string",
              "name": "flight_date",
              "type": "string"
            },
            {
              "internalType": "string",
              "name": "departure_airport",
              "type": "string"
            },
            {
              "internalType": "string",
              "name": "arrival_airport",
              "type": "string"
            },
            {
              "internalType": "uint256",
              "name": "flight_delayed_time",
              "type": "uint256"
            },
            {
              "internalType": "string",
              "name": "flight_status",
              "type": "string"
            }
          ],
          "internalType": "struct DataTransportObject",
          "name": "dto",
          "type": "tuple"
        }
      ],
      "name": "abiSignatureHack",
      "outputs": [],
      "stateMutability": "pure",
      "type": "function"
    },
    {
      "inputs": [
        {
          "components": [
            {
              "internalType": "bytes32[]",
              "name": "merkleProof",
              "type": "bytes32[]"
            },
            {
              "components": [
                {
                  "internalType": "bytes32",
                  "name": "attestationType",
                  "type": "bytes32"
                },
                {
                  "internalType": "bytes32",
                  "name": "sourceId",
                  "type": "bytes32"
                },
                {
                  "internalType": "uint64",
                  "name": "votingRound",
                  "type": "uint64"
                },
                {
                  "internalType": "uint64",
                  "name": "lowestUsedTimestamp",
                  "type": "uint64"
                },
                {
                  "components": [
                    {
                      "internalType": "string",
                      "name": "url",
                      "type": "string"
                    },
                    {
                      "internalType": "string",
                      "name": "httpMethod",
                      "type": "string"
                    },
                    {
                      "internalType": "string",
                      "name": "headers",
                      "type": "string"
                    },
                    {
                      "internalType": "string",
                      "name": "queryParams",
                      "type": "string"
                    },
                    {
                      "internalType": "string",
                      "name": "body",
                      "type": "string"
                    },
                    {
                      "internalType": "string",
                      "name": "postProcessJq",
                      "type": "string"
                    },
                    {
                      "internalType": "string",
                      "name": "abiSignature",
                      "type": "string"
                    }
                  ],
                  "internalType": "struct IWeb2Json.RequestBody",
                  "name": "requestBody",
                  "type": "tuple"
                },
                {
                  "components": [
                    {
                      "internalType": "bytes",
                      "name": "abiEncodedData",
                      "type": "bytes"
                    }
                  ],
                  "internalType": "struct IWeb2Json.ResponseBody",
                  "name": "responseBody",
                  "type": "tuple"
                }
              ],
              "internalType": "struct IWeb2Json.Response",
              "name": "data",
              "type": "tuple"
            }
          ],
          "internalType": "struct IWeb2Json.Proof",
          "name": "data",
          "type": "tuple"
        },
        {
          "internalType": "uint256",
          "name": "insuredFlightId",
          "type": "uint256"
        }
      ],
      "name": "checkFlightDelay",
      "outputs": [],
      "stateMutability": "nonpayable",
      "type": "function"
    },
    {
      "inputs": [
        {
          "internalType": "uint256",
          "name": "insuredFlightId",
          "type": "uint256"
        },
        {
          "internalType": "string",
          "name": "flight_no",
          "type": "string"
        },
        {
          "internalType": "uint256",
          "name": "predictedNumber",
          "type": "uint256"
        }
      ],
      "name": "claimInsurance",
      "outputs": [
        {
          "internalType": "uint256",
          "name": "secretNumber",
          "type": "uint256"
        },
        {
          "internalType": "bool",
          "name": "_predictedSuccess",
          "type": "bool"
        }
      ],
      "stateMutability": "nonpayable",
      "type": "function"
    },
    {
      "inputs": [],
      "name": "getAllClaims",
      "outputs": [
        {
          "components": [
            {
              "internalType": "string",
              "name": "aircraftName",
              "type": "string"
            },
            {
              "internalType": "uint256",
              "name": "amountClaimed",
              "type": "uint256"
            },
            {
              "internalType": "uint256",
              "name": "dateClaimed",
              "type": "uint256"
            },
            {
              "internalType": "address",
              "name": "insuree",
              "type": "address"
            },
            {
              "internalType": "uint256",
              "name": "insuranceId",
              "type": "uint256"
            }
          ],
          "internalType": "struct AllClaims[]",
          "name": "",
          "type": "tuple[]"
        }
      ],
      "stateMutability": "view",
      "type": "function"
    },
    {
      "inputs": [],
      "name": "getAllInsureFlights",
      "outputs": [
        {
          "components": [
            {
              "internalType": "string",
              "name": "aircraftIcao",
              "type": "string"
            },
            {
              "internalType": "string",
              "name": "aircraftName",
              "type": "string"
            },
            {
              "internalType": "string",
              "name": "flightDate",
              "type": "string"
            },
            {
              "internalType": "string",
              "name": "departureAirport",
              "type": "string"
            },
            {
              "internalType": "string",
              "name": "arrivalAirport",
              "type": "string"
            },
            {
              "internalType": "uint256",
              "name": "flightDelayedTime",
              "type": "uint256"
            },
            {
              "internalType": "string",
              "name": "flightNo",
              "type": "string"
            },
            {
              "components": [
                {
                  "internalType": "address",
                  "name": "wallet",
                  "type": "address"
                },
                {
                  "internalType": "string",
                  "name": "ticketType",
                  "type": "string"
                },
                {
                  "internalType": "uint256",
                  "name": "ticketPrice",
                  "type": "uint256"
                }
              ],
              "internalType": "struct Passenger[]",
              "name": "passengers",
              "type": "tuple[]"
            },
            {
              "internalType": "uint256",
              "name": "flight_price",
              "type": "uint256"
            },
            {
              "internalType": "string",
              "name": "status",
              "type": "string"
            },
            {
              "internalType": "uint256",
              "name": "lastChecked",
              "type": "uint256"
            },
            {
              "internalType": "address",
              "name": "insurer",
              "type": "address"
            },
            {
              "internalType": "uint256",
              "name": "insuranceId",
              "type": "uint256"
            }
          ],
          "internalType": "struct InsuredFlight[]",
          "name": "",
          "type": "tuple[]"
        }
      ],
      "stateMutability": "view",
      "type": "function"
    },
    {
      "inputs": [
        {
          "components": [
            {
              "internalType": "address",
              "name": "wallet",
              "type": "address"
            },
            {
              "internalType": "string",
              "name": "ticketType",
              "type": "string"
            },
            {
              "internalType": "uint256",
              "name": "ticketPrice",
              "type": "uint256"
            }
          ],
          "internalType": "struct Passenger[]",
          "name": "passengers",
          "type": "tuple[]"
        }
      ],
      "name": "getCostOfInsurance",
      "outputs": [
        {
          "internalType": "uint256",
          "name": "",
          "type": "uint256"
        }
      ],
      "stateMutability": "view",
      "type": "function"
    },
    {
      "inputs": [],
      "name": "getInsurancePrice",
      "outputs": [
        {
          "internalType": "uint256",
          "name": "",
          "type": "uint256"
        }
      ],
      "stateMutability": "view",
      "type": "function"
    },
    {
      "inputs": [],
      "name": "insuranceClaimsIds",
      "outputs": [
        {
          "internalType": "uint256",
          "name": "",
          "type": "uint256"
        }
      ],
      "stateMutability": "view",
      "type": "function"
    },
    {
      "inputs": [],
      "name": "insurance_delay_time",
      "outputs": [
        {
          "internalType": "uint256",
          "name": "",
          "type": "uint256"
        }
      ],
      "stateMutability": "view",
      "type": "function"
    },
    {
      "inputs": [
        {
          "internalType": "string",
          "name": "aircraft_icao",
          "type": "string"
        },
        {
          "internalType": "string",
          "name": "flight_no",
          "type": "string"
        },
        {
          "components": [
            {
              "internalType": "address",
              "name": "wallet",
              "type": "address"
            },
            {
              "internalType": "string",
              "name": "ticketType",
              "type": "string"
            },
            {
              "internalType": "uint256",
              "name": "ticketPrice",
              "type": "uint256"
            }
          ],
          "internalType": "struct Passenger[]",
          "name": "passengers",
          "type": "tuple[]"
        },
        {
          "components": [
            {
              "internalType": "bytes32[]",
              "name": "merkleProof",
              "type": "bytes32[]"
            },
            {
              "components": [
                {
                  "internalType": "bytes32",
                  "name": "attestationType",
                  "type": "bytes32"
                },
                {
                  "internalType": "bytes32",
                  "name": "sourceId",
                  "type": "bytes32"
                },
                {
                  "internalType": "uint64",
                  "name": "votingRound",
                  "type": "uint64"
                },
                {
                  "internalType": "uint64",
                  "name": "lowestUsedTimestamp",
                  "type": "uint64"
                },
                {
                  "components": [
                    {
                      "internalType": "string",
                      "name": "url",
                      "type": "string"
                    },
                    {
                      "internalType": "string",
                      "name": "httpMethod",
                      "type": "string"
                    },
                    {
                      "internalType": "string",
                      "name": "headers",
                      "type": "string"
                    },
                    {
                      "internalType": "string",
                      "name": "queryParams",
                      "type": "string"
                    },
                    {
                      "internalType": "string",
                      "name": "body",
                      "type": "string"
                    },
                    {
                      "internalType": "string",
                      "name": "postProcessJq",
                      "type": "string"
                    },
                    {
                      "internalType": "string",
                      "name": "abiSignature",
                      "type": "string"
                    }
                  ],
                  "internalType": "struct IWeb2Json.RequestBody",
                  "name": "requestBody",
                  "type": "tuple"
                },
                {
                  "components": [
                    {
                      "internalType": "bytes",
                      "name": "abiEncodedData",
                      "type": "bytes"
                    }
                  ],
                  "internalType": "struct IWeb2Json.ResponseBody",
                  "name": "responseBody",
                  "type": "tuple"
                }
              ],
              "internalType": "struct IWeb2Json.Response",
              "name": "data",
              "type": "tuple"
            }
          ],
          "internalType": "struct IWeb2Json.Proof",
          "name": "data",
          "type": "tuple"
        }
      ],
      "name": "insureFlight",
      "outputs": [
        {
          "components": [
            {
              "internalType": "string",
              "name": "aircraft_name",
              "type": "string"
            },
            {
              "internalType": "string",
              "name": "aircraft_reg",
              "type": "string"
            },
            {
              "internalType": "string",
              "name": "flight_no",
              "type": "string"
            },
            {
              "internalType": "string",
              "name": "flight_date",
              "type": "string"
            },
            {
              "internalType": "string",
              "name": "departure_airport",
              "type": "string"
            },
            {
              "internalType": "string",
              "name": "arrival_airport",
              "type": "string"
            },
            {
              "internalType": "uint256",
              "name": "flight_delayed_time",
              "type": "uint256"
            },
            {
              "internalType": "string",
              "name": "flight_status",
              "type": "string"
            }
          ],
          "internalType": "struct DataTransportObject",
          "name": "dto",
          "type": "tuple"
        }
      ],
      "stateMutability": "payable",
      "type": "function"
    },
    {
      "inputs": [],
      "name": "insuredFlightIds",
      "outputs": [
        {
          "internalType": "uint256",
          "name": "",
          "type": "uint256"
        }
      ],
      "stateMutability": "view",
      "type": "function"
    },
    {
      "inputs": [
        {
          "internalType": "uint256",
          "name": "",
          "type": "uint256"
        },
        {
          "internalType": "address",
          "name": "",
          "type": "address"
        }
      ],
      "name": "insuredFlightPassengersStatus",
      "outputs": [
        {
          "internalType": "bool",
          "name": "",
          "type": "bool"
        }
      ],
      "stateMutability": "view",
      "type": "function"
    },
    {
      "inputs": [],
      "name": "owner",
      "outputs": [
        {
          "internalType": "address",
          "name": "",
          "type": "address"
        }
      ],
      "stateMutability": "view",
      "type": "function"
    },
    {
      "inputs": [],
      "name": "recieve",
      "outputs": [],
      "stateMutability": "payable",
      "type": "function"
    },
    {
      "inputs": [
        {
          "internalType": "uint256",
          "name": "_insurancePrice",
          "type": "uint256"
        }
      ],
      "name": "setInsurancePrice",
      "outputs": [],
      "stateMutability": "nonpayable",
      "type": "function"
    },
    {
      "inputs": [
        {
          "internalType": "address",
          "name": "to",
          "type": "address"
        }
      ],
      "name": "transferAccumulatedFees",
      "outputs": [],
      "stateMutability": "nonpayable",
      "type": "function"
    }
  ],
  "bytecode": "0x608060405234801561001057600080fd5b5060405161412b38038061412b83398101604081905261002f916101f3565b6002819055601e600355600160008190558055600a80546001600160a01b0319163317905561005c61008a565b600980546001600160a01b0319166001600160a01b039290921691909117905561008461015b565b5061029c565b600073ad67fe66660fb8dfe9d6b1b4240d8650e30f60196001600160a01b031663159354a26040516020016100e1906020808252600e908201526d2930b73237b6a73ab6b132b92b1960911b604082015260600190565b604051602081830303815290604052805190602001206040518263ffffffff1660e01b815260040161011591815260200190565b602060405180830381865afa158015610132573d6000803e3d6000fd5b505050506040513d601f19601f82011682018060405250810190610156919061020c565b905090565b6009546040805163dbdff2c160e01b815290516000926001600160a01b03169163dbdff2c19160048083019260609291908290030181865afa1580156101a5573d6000803e3d6000fd5b505050506040513d601f19601f820116820180604052508101906101c9919061023c565b505090506014816101da919061027a565b6007805461ffff191661ffff9290921691909117905550565b60006020828403121561020557600080fd5b5051919050565b60006020828403121561021e57600080fd5b81516001600160a01b038116811461023557600080fd5b9392505050565b60008060006060848603121561025157600080fd5b835192506020840151801515811461026857600080fd5b80925050604084015190509250925092565b60008261029757634e487b7160e01b600052601260045260246000fd5b500690565b613e80806102ab6000396000f3fe6080604052600436106101355760003560e01c80638060156b116100ab578063a9e10bf21161006f578063a9e10bf214610182578063c517f06914610389578063cc75384a146103be578063e0d4153e146103de578063ec091c17146103f4578063fb458f9b1461041457600080fd5b80638060156b146102985780638289b588146102d05780638c774f151461031b5780638da5cb5b14610353578063945b53951461037357600080fd5b80633c9e6140116100fd5780633c9e6140146101d15780633f645bbc146101ef57806351116f47146102205780635b23c27d14610240578063771b00fd14610262578063791b5e0a1461027857600080fd5b806303a072431461013a5780631f69d1c11461016257806322526a5714610184578063293697521461019957806339025768146101bb575b600080fd5b34801561014657600080fd5b5061014f601481565b6040519081526020015b60405180910390f35b34801561016e57600080fd5b5061018261017d366004612b98565b61042a565b005b34801561019057600080fd5b5060025461014f565b3480156101a557600080fd5b506101ae6104de565b6040516101599190612c89565b3480156101c757600080fd5b5061014f60035481565b3480156101dd57600080fd5b506101826101ec366004612e01565b50565b3480156101fb57600080fd5b5061020f61020a366004612e3c565b610b41565b604051610159959493929190612e55565b34801561022c57600080fd5b5061014f61023b366004613099565b610c04565b34801561024c57600080fd5b50610255610c71565b60405161015991906130d5565b34801561026e57600080fd5b5061014f60085481565b34801561028457600080fd5b50610182610293366004613179565b610e0e565b3480156102a457600080fd5b506009546102b8906001600160a01b031681565b6040516001600160a01b039091168152602001610159565b3480156102dc57600080fd5b5061030b6102eb3660046131bd565b600660209081526000928352604080842090915290825290205460ff1681565b6040519015158152602001610159565b34801561032757600080fd5b5061033b610336366004612e3c565b61178d565b6040516101599c9b9a999897969594939291906131ed565b34801561035f57600080fd5b50600a546102b8906001600160a01b031681565b34801561037f57600080fd5b5061014f60015481565b34801561039557600080fd5b506103a96103a43660046132bd565b611ba9565b60408051928352901515602083015201610159565b6103d16103cc36600461330c565b61264f565b60405161015991906133b8565b3480156103ea57600080fd5b5061014f60005481565b34801561040057600080fd5b5061018261040f366004612e3c565b61290f565b34801561042057600080fd5b5061014f60025481565b600a546001600160a01b0316331461045d5760405162461bcd60e51b81526004016104549061349a565b60405180910390fd5b6001600160a01b0381166104a55760405162461bcd60e51b815260206004820152600f60248201526e496e76616c6964206164647265737360881b6044820152606401610454565b6040516001600160a01b038216904780156108fc02916000818181858888f193505050501580156104da573d6000803e3d6000fd5b5050565b6060600080546001600160401b038111156104fb576104fb612e95565b6040519080825280602002602001820160405280156105a057816020015b61058d604051806101a00160405280606081526020016060815260200160608152602001606081526020016060815260200160008152602001606081526020016060815260200160008152602001606081526020016000815260200160006001600160a01b03168152602001600081525090565b8152602001906001900390816105195790505b50905060005b600054811015610b3b576000818152600460205260409081902081516101a081019092528054829082906105d9906134db565b80601f0160208091040260200160405190810160405280929190818152602001828054610605906134db565b80156106525780601f1061062757610100808354040283529160200191610652565b820191906000526020600020905b81548152906001019060200180831161063557829003601f168201915b5050505050815260200160018201805461066b906134db565b80601f0160208091040260200160405190810160405280929190818152602001828054610697906134db565b80156106e45780601f106106b9576101008083540402835291602001916106e4565b820191906000526020600020905b8154815290600101906020018083116106c757829003601f168201915b505050505081526020016002820180546106fd906134db565b80601f0160208091040260200160405190810160405280929190818152602001828054610729906134db565b80156107765780601f1061074b57610100808354040283529160200191610776565b820191906000526020600020905b81548152906001019060200180831161075957829003601f168201915b5050505050815260200160038201805461078f906134db565b80601f01602080910402602001604051908101604052809291908181526020018280546107bb906134db565b80156108085780601f106107dd57610100808354040283529160200191610808565b820191906000526020600020905b8154815290600101906020018083116107eb57829003601f168201915b50505050508152602001600482018054610821906134db565b80601f016020809104026020016040519081016040528092919081815260200182805461084d906134db565b801561089a5780601f1061086f5761010080835404028352916020019161089a565b820191906000526020600020905b81548152906001019060200180831161087d57829003601f168201915b50505050508152602001600582015481526020016006820180546108bd906134db565b80601f01602080910402602001604051908101604052809291908181526020018280546108e9906134db565b80156109365780601f1061090b57610100808354040283529160200191610936565b820191906000526020600020905b81548152906001019060200180831161091957829003601f168201915b5050505050815260200160078201805480602002602001604051908101604052809291908181526020016000905b82821015610a4857600084815260209081902060408051606081019091526003850290910180546001600160a01b0316825260018101805492939192918401916109ad906134db565b80601f01602080910402602001604051908101604052809291908181526020018280546109d9906134db565b8015610a265780601f106109fb57610100808354040283529160200191610a26565b820191906000526020600020905b815481529060010190602001808311610a0957829003601f168201915b5050505050815260200160028201548152505081526020019060010190610964565b50505050815260200160088201548152602001600982018054610a6a906134db565b80601f0160208091040260200160405190810160405280929190818152602001828054610a96906134db565b8015610ae35780601f10610ab857610100808354040283529160200191610ae3565b820191906000526020600020905b815481529060010190602001808311610ac657829003601f168201915b5050509183525050600a8201546020820152600b8201546001600160a01b03166040820152600c909101546060909101528251839083908110610b2857610b2861350f565b60209081029190910101526001016105a6565b50919050565b600560205260009081526040902080548190610b5c906134db565b80601f0160208091040260200160405190810160405280929190818152602001828054610b88906134db565b8015610bd55780601f10610baa57610100808354040283529160200191610bd5565b820191906000526020600020905b815481529060010190602001808311610bb857829003601f168201915b505050600184015460028501546003860154600490960154949591949093506001600160a01b03909116915085565b600080805b8351811015610c5c576064848281518110610c2657610c2661350f565b602002602001015160400151600a610c3e919061353b565b610c489190613568565b610c52908361357c565b9150600101610c09565b50600254610c6a908261357c565b9392505050565b606060006001546001600160401b03811115610c8f57610c8f612e95565b604051908082528060200260200182016040528015610cfb57816020015b610ce86040518060a0016040528060608152602001600081526020016000815260200160006001600160a01b03168152602001600081525090565b815260200190600190039081610cad5790505b50905060005b600154811015610b3b5760008181526005602052604090819020815160a08101909252805482908290610d33906134db565b80601f0160208091040260200160405190810160405280929190818152602001828054610d5f906134db565b8015610dac5780601f10610d8157610100808354040283529160200191610dac565b820191906000526020600020905b815481529060010190602001808311610d8f57829003601f168201915b5050509183525050600182015460208201526002820154604082015260038201546001600160a01b031660608201526004909101546080909101528251839083908110610dfb57610dfb61350f565b6020908102919091010152600101610d01565b60008181526004602052604080822081516101a08101909252805482908290610e36906134db565b80601f0160208091040260200160405190810160405280929190818152602001828054610e62906134db565b8015610eaf5780601f10610e8457610100808354040283529160200191610eaf565b820191906000526020600020905b815481529060010190602001808311610e9257829003601f168201915b50505050508152602001600182018054610ec8906134db565b80601f0160208091040260200160405190810160405280929190818152602001828054610ef4906134db565b8015610f415780601f10610f1657610100808354040283529160200191610f41565b820191906000526020600020905b815481529060010190602001808311610f2457829003601f168201915b50505050508152602001600282018054610f5a906134db565b80601f0160208091040260200160405190810160405280929190818152602001828054610f86906134db565b8015610fd35780601f10610fa857610100808354040283529160200191610fd3565b820191906000526020600020905b815481529060010190602001808311610fb657829003601f168201915b50505050508152602001600382018054610fec906134db565b80601f0160208091040260200160405190810160405280929190818152602001828054611018906134db565b80156110655780601f1061103a57610100808354040283529160200191611065565b820191906000526020600020905b81548152906001019060200180831161104857829003601f168201915b5050505050815260200160048201805461107e906134db565b80601f01602080910402602001604051908101604052809291908181526020018280546110aa906134db565b80156110f75780601f106110cc576101008083540402835291602001916110f7565b820191906000526020600020905b8154815290600101906020018083116110da57829003601f168201915b505050505081526020016005820154815260200160068201805461111a906134db565b80601f0160208091040260200160405190810160405280929190818152602001828054611146906134db565b80156111935780601f1061116857610100808354040283529160200191611193565b820191906000526020600020905b81548152906001019060200180831161117657829003601f168201915b5050505050815260200160078201805480602002602001604051908101604052809291908181526020016000905b828210156112a557600084815260209081902060408051606081019091526003850290910180546001600160a01b03168252600181018054929391929184019161120a906134db565b80601f0160208091040260200160405190810160405280929190818152602001828054611236906134db565b80156112835780601f1061125857610100808354040283529160200191611283565b820191906000526020600020905b81548152906001019060200180831161126657829003601f168201915b50505050508152602001600282015481525050815260200190600101906111c1565b505050508152602001600882015481526020016009820180546112c7906134db565b80601f01602080910402602001604051908101604052809291908181526020018280546112f3906134db565b80156113405780601f1061131557610100808354040283529160200191611340565b820191906000526020600020905b81548152906001019060200180831161132357829003601f168201915b5050509183525050600a8201546020820152600b8201546001600160a01b03166040820152600c90910154606090910152600054610180820151919250116113be5760405162461bcd60e51b8152602060048201526011602482015270496e76616c696420496e737572616e636560781b6044820152606401610454565b8061016001516001600160a01b0316336001600160a01b031614806114165750336001600160a01b03168160e001516000815181106113ff576113ff61350f565b6020026020010151600001516001600160a01b0316145b8061142b5750600a546001600160a01b031633145b6114925760405162461bcd60e51b815260206004820152603260248201527f45697468657220496e7375726572206f722050617373656e6765722063616e20604482015271636865636b20666c696768742064656c617960701b6064820152608401610454565b604051681cd8da19591d5b195960ba1b6020820152602901604051602081830303815290604052805190602001208161012001516040516020016114d6919061358f565b60405160208183030381529060405280519060200120146115395760405162461bcd60e51b815260206004820152601d60248201527f466c696768742073746174757320616c726561647920757064617465640000006044820152606401610454565b6102588161014001514261154d91906135ab565b116115a95760405162461bcd60e51b815260206004820152602660248201527f466c6967687420636865636b206973206174203130206d696e7574657320696e6044820152651d195c9d985b60d21b6064820152608401610454565b6115b28361299d565b6115ee5760405162461bcd60e51b815260206004820152600d60248201526c24b73b30b634b210383937b7b360991b6044820152606401610454565b60006115fd60208501856135be565b61160b9060a08101906135d4565b61161590806135ea565b8101906116229190613637565b90506003548160c00151101580156116ec57506040516561637469766560d01b6020820152602601604051602081830303815290604052805190602001208160e00151604051602001611675919061358f565b604051602081830303815290604052805190602001201415806116ec5750604051651b185b99195960d21b6020820152602601604051602081830303815290604052805190602001208160e001516040516020016116d3919061358f565b6040516020818303038152906040528051906020012014155b1561172b5760e081015160008481526004602052604090206009019061171290826137d7565b5060c08101516000848152600460205260409020600501555b6000838152600460205260409081902042600a9091015560a083015161012084015191517fad522330e0a333ea20b30192e7bf44fd414759973e0d47d6e02d4b5f0e9ceae49261177f928792909190613896565b60405180910390a150505050565b6004602052600090815260409020805481906117a8906134db565b80601f01602080910402602001604051908101604052809291908181526020018280546117d4906134db565b80156118215780601f106117f657610100808354040283529160200191611821565b820191906000526020600020905b81548152906001019060200180831161180457829003601f168201915b505050505090806001018054611836906134db565b80601f0160208091040260200160405190810160405280929190818152602001828054611862906134db565b80156118af5780601f10611884576101008083540402835291602001916118af565b820191906000526020600020905b81548152906001019060200180831161189257829003601f168201915b5050505050908060020180546118c4906134db565b80601f01602080910402602001604051908101604052809291908181526020018280546118f0906134db565b801561193d5780601f106119125761010080835404028352916020019161193d565b820191906000526020600020905b81548152906001019060200180831161192057829003601f168201915b505050505090806003018054611952906134db565b80601f016020809104026020016040519081016040528092919081815260200182805461197e906134db565b80156119cb5780601f106119a0576101008083540402835291602001916119cb565b820191906000526020600020905b8154815290600101906020018083116119ae57829003601f168201915b5050505050908060040180546119e0906134db565b80601f0160208091040260200160405190810160405280929190818152602001828054611a0c906134db565b8015611a595780601f10611a2e57610100808354040283529160200191611a59565b820191906000526020600020905b815481529060010190602001808311611a3c57829003601f168201915b505050505090806005015490806006018054611a74906134db565b80601f0160208091040260200160405190810160405280929190818152602001828054611aa0906134db565b8015611aed5780601f10611ac257610100808354040283529160200191611aed565b820191906000526020600020905b815481529060010190602001808311611ad057829003601f168201915b505050505090806008015490806009018054611b08906134db565b80601f0160208091040260200160405190810160405280929190818152602001828054611b34906134db565b8015611b815780601f10611b5657610100808354040283529160200191611b81565b820191906000526020600020905b815481529060010190602001808311611b6457829003601f168201915b50505050600a830154600b840154600c90940154929390926001600160a01b0390911691508c565b600080600060046000878152602001908152602001600020604051806101a0016040529081600082018054611bdd906134db565b80601f0160208091040260200160405190810160405280929190818152602001828054611c09906134db565b8015611c565780601f10611c2b57610100808354040283529160200191611c56565b820191906000526020600020905b815481529060010190602001808311611c3957829003601f168201915b50505050508152602001600182018054611c6f906134db565b80601f0160208091040260200160405190810160405280929190818152602001828054611c9b906134db565b8015611ce85780601f10611cbd57610100808354040283529160200191611ce8565b820191906000526020600020905b815481529060010190602001808311611ccb57829003601f168201915b50505050508152602001600282018054611d01906134db565b80601f0160208091040260200160405190810160405280929190818152602001828054611d2d906134db565b8015611d7a5780601f10611d4f57610100808354040283529160200191611d7a565b820191906000526020600020905b815481529060010190602001808311611d5d57829003601f168201915b50505050508152602001600382018054611d93906134db565b80601f0160208091040260200160405190810160405280929190818152602001828054611dbf906134db565b8015611e0c5780601f10611de157610100808354040283529160200191611e0c565b820191906000526020600020905b815481529060010190602001808311611def57829003601f168201915b50505050508152602001600482018054611e25906134db565b80601f0160208091040260200160405190810160405280929190818152602001828054611e51906134db565b8015611e9e5780601f10611e7357610100808354040283529160200191611e9e565b820191906000526020600020905b815481529060010190602001808311611e8157829003601f168201915b5050505050815260200160058201548152602001600682018054611ec1906134db565b80601f0160208091040260200160405190810160405280929190818152602001828054611eed906134db565b8015611f3a5780601f10611f0f57610100808354040283529160200191611f3a565b820191906000526020600020905b815481529060010190602001808311611f1d57829003601f168201915b5050505050815260200160078201805480602002602001604051908101604052809291908181526020016000905b8282101561204c57600084815260209081902060408051606081019091526003850290910180546001600160a01b031682526001810180549293919291840191611fb1906134db565b80601f0160208091040260200160405190810160405280929190818152602001828054611fdd906134db565b801561202a5780601f10611fff5761010080835404028352916020019161202a565b820191906000526020600020905b81548152906001019060200180831161200d57829003601f168201915b5050505050815260200160028201548152505081526020019060010190611f68565b5050505081526020016008820154815260200160098201805461206e906134db565b80601f016020809104026020016040519081016040528092919081815260200182805461209a906134db565b80156120e75780601f106120bc576101008083540402835291602001916120e7565b820191906000526020600020905b8154815290600101906020018083116120ca57829003601f168201915b50505050508152602001600a8201548152602001600b820160009054906101000a90046001600160a01b03166001600160a01b03166001600160a01b03168152602001600c82015481525050905084604051602001612146919061358f565b604051602081830303815290604052805190602001208160c00151604051602001612171919061358f565b60405160208183030381529060405280519060200120146121d45760405162461bcd60e51b815260206004820152601760248201527f466c69676874204e6f20646f65736e2774206d617463680000000000000000006044820152606401610454565b6003548160a00151101561221f5760405162461bcd60e51b8152602060048201526012602482015271119b1a59da1d08139bdd0811195b185e595960721b6044820152606401610454565b600086815260066020908152604080832033845290915290205460ff166122a45760405162461bcd60e51b815260206004820152603360248201527f50617373656e676572206e6f7420696e7375726564204f5220496e737572616e60448201527218d948185b1c9958591e481c995919595b5959606a1b6064820152608401610454565b60008681526006602090815260408083203384529091528120805460ff1916905560075461ffff16935084156124805760075461ffff1685036123bd576000336001600160a01b03166064846101000151600a612301919061353b565b61230b9190613568565b604051600081818185875af1925050503d8060008114612347576040519150601f19603f3d011682016040523d82523d6000602084013e61234c565b606091505b505090508061238f5760405162461bcd60e51b815260206004820152600f60248201526e151c985b9cd9995c8819985a5b1959608a1b6044820152606401610454565b6064836101000151600a6123a3919061353b565b6123ad9190613568565b91506123b7612a19565b50612583565b60405160009033906706f05b59d3b20000908381818185875af1925050503d8060008114612407576040519150601f19603f3d011682016040523d82523d6000602084013e61240c565b606091505b50509050806124545760405162461bcd60e51b8152602060048201526014602482015273496e73756666696369656e742062616c616e636560601b6044820152606401610454565b6064836101000151600a612468919061353b565b6124729190613568565b9150600193506123b7612a19565b600085118015612496575060075461ffff168514155b15612583576000336001600160a01b031660026064856101000151600a6124bd919061353b565b6124c79190613568565b6124d19190613568565b604051600081818185875af1925050503d806000811461250d576040519150601f19603f3d011682016040523d82523d6000602084013e612512565b606091505b50509050806125555760405162461bcd60e51b815260206004820152600f60248201526e151c985b9cd9995c8819985a5b1959608a1b6044820152606401610454565b6064836101000151600a612569919061353b565b6125739190613568565b915060009350612581612a19565b505b602080830151600154600090815260059092526040909120906125a690826137d7565b5060018054600090815260056020526040808220830184905582548252808220426002909101558254825280822060030180546001600160a01b0319163317905582548252812060040189905581549190612600836138be565b9091555050604080518881523360208201529081018590527f1527a28ce4fd3db6312cdc84eb52b89b5da4269ae6a4f7b5854029a914425fb99060600160405180910390a15050935093915050565b61269760405180610100016040528060608152602001606081526020016060815260200160608152602001606081526020016060815260200160008152602001606081525090565b6000805b84518110156126ee5760648582815181106126b8576126b861350f565b602002602001015160400151600a6126d0919061353b565b6126da9190613568565b6126e4908361357c565b915060010161269b565b506126f884610c04565b34146127375760405162461bcd60e51b815260206004820152600e60248201526d125b9d985b1a5908185b5bdd5b9d60921b6044820152606401610454565b6127408361299d565b61277c5760405162461bcd60e51b815260206004820152600d60248201526c24b73b30b634b210383937b7b360991b6044820152606401610454565b600061278b60208501856135be565b6127999060a08101906135d4565b6127a390806135ea565b8101906127b091906138d7565b9050808060200190518101906127c69190613964565b92506127d560208501856135be565b6127e39060a08101906135d4565b6127ed90806135ea565b8101906127fa9190613637565b9250816008600082825461280e919061357c565b90915550600090505b85518110156128b55760046000805481526020019081526020016000206007018682815181106128495761284961350f565b602090810291909101810151825460018082018555600094855293839020825160039092020180546001600160a01b0319166001600160a01b0390921691909117815591810151909282019061289f90826137d7565b5060409190910151600290910155600101612817565b506000805490806128c5836138be565b91905055507fc8025f815ce5846bb23a1e70c00825ff76c450559769399af7e28de99a03405e6000546040516128fd91815260200190565b60405180910390a15050949350505050565b600a546001600160a01b031633146129395760405162461bcd60e51b81526004016104549061349a565b600081116129985760405162461bcd60e51b815260206004820152602660248201527f496e737572616e6365207072696365206d75737420626520677265617465722060448201526507468616e20360d41b6064820152608401610454565b600255565b60006129a7612ab1565b6001600160a01b031663d2d3a41f836040518263ffffffff1660e01b81526004016129d29190613d1c565b602060405180830381865afa1580156129ef573d6000803e3d6000fd5b505050506040513d601f19601f82011682018060405250810190612a139190613dc9565b92915050565b6009546040805163dbdff2c160e01b815290516000926001600160a01b03169163dbdff2c19160048083019260609291908290030181865afa158015612a63573d6000803e3d6000fd5b505050506040513d601f19601f82011682018060405250810190612a879190613de4565b50509050601481612a989190613e19565b6007805461ffff191661ffff9290921691909117905550565b600073ad67fe66660fb8dfe9d6b1b4240d8650e30f60196001600160a01b031663159354a2604051602001612b09906020808252600f908201526e233231ab32b934b334b1b0ba34b7b760891b604082015260600190565b604051602081830303815290604052805190602001206040518263ffffffff1660e01b8152600401612b3d91815260200190565b602060405180830381865afa158015612b5a573d6000803e3d6000fd5b505050506040513d601f19601f82011682018060405250810190612b7e9190613e2d565b905090565b6001600160a01b03811681146101ec57600080fd5b600060208284031215612baa57600080fd5b8135610c6a81612b83565b60005b83811015612bd0578181015183820152602001612bb8565b50506000910152565b60008151808452612bf1816020860160208601612bb5565b601f01601f19169290920160200192915050565b600082825180855260208086019550808260051b84010181860160005b84811015612c7c57858303601f19018952815180516001600160a01b0316845284810151606086860181905290612c5b82870182612bd9565b60409384015196909301959095525098840198925090830190600101612c22565b5090979650505050505050565b600060208083018184528085518083526040925060408601915060408160051b87010184880160005b83811015612df357603f1989840301855281516101a08151818652612cd982870182612bd9565b915050888201518582038a870152612cf18282612bd9565b9150508782015185820389870152612d098282612bd9565b91505060608083015186830382880152612d238382612bd9565b9250505060808083015186830382880152612d3e8382612bd9565b9250505060a080830151818701525060c08083015186830382880152612d648382612bd9565b9250505060e08083015186830382880152612d7f8382612c05565b925050506101008083015181870152506101208083015186830382880152612da78382612bd9565b9250505061014080830151818701525061016080830151612dd2828801826001600160a01b03169052565b50506101809182015194909101939093529386019390860190600101612cb2565b509098975050505050505050565b600060208284031215612e1357600080fd5b81356001600160401b03811115612e2957600080fd5b82016101008185031215610c6a57600080fd5b600060208284031215612e4e57600080fd5b5035919050565b60a081526000612e6860a0830188612bd9565b60208301969096525060408101939093526001600160a01b03919091166060830152608090910152919050565b634e487b7160e01b600052604160045260246000fd5b604051606081016001600160401b0381118282101715612ecd57612ecd612e95565b60405290565b60405161010081016001600160401b0381118282101715612ecd57612ecd612e95565b604051601f8201601f191681016001600160401b0381118282101715612f1e57612f1e612e95565b604052919050565b60006001600160401b03821115612f3f57612f3f612e95565b50601f01601f191660200190565b6000612f60612f5b84612f26565b612ef6565b9050828152838383011115612f7457600080fd5b828260208301376000602084830101529392505050565b600082601f830112612f9c57600080fd5b610c6a83833560208501612f4d565b600082601f830112612fbc57600080fd5b813560206001600160401b0380831115612fd857612fd8612e95565b8260051b612fe7838201612ef6565b938452858101830193838101908886111561300157600080fd5b84880192505b8583101561308d5782358481111561301f5760008081fd5b88016060818b03601f19018113156130375760008081fd5b61303f612eab565b8783013561304c81612b83565b8152604083810135888111156130625760008081fd5b6130708e8b83880101612f8b565b8a8401525091909201359082015282529184019190840190613007565b98975050505050505050565b6000602082840312156130ab57600080fd5b81356001600160401b038111156130c157600080fd5b6130cd84828501612fab565b949350505050565b600060208083018184528085518083526040925060408601915060408160051b87010184880160005b83811015612df357603f19898403018552815160a0815181865261312482870182612bd9565b838b0151878c0152898401518a8801526060808501516001600160a01b0316908801526080938401519390960192909252505093860193908601906001016130fe565b600060408284031215610b3b57600080fd5b6000806040838503121561318c57600080fd5b82356001600160401b038111156131a257600080fd5b6131ae85828601613167565b95602094909401359450505050565b600080604083850312156131d057600080fd5b8235915060208301356131e281612b83565b809150509250929050565b6101808152600061320261018083018f612bd9565b8281036020840152613214818f612bd9565b90508281036040840152613228818e612bd9565b9050828103606084015261323c818d612bd9565b90508281036080840152613250818c612bd9565b90508960a084015282810360c084015261326a818a612bd9565b90508760e08401528281036101008401526132858188612bd9565b915050846101208301526132a56101408301856001600160a01b03169052565b826101608301529d9c50505050505050505050505050565b6000806000606084860312156132d257600080fd5b8335925060208401356001600160401b038111156132ef57600080fd5b6132fb86828701612f8b565b925050604084013590509250925092565b6000806000806080858703121561332257600080fd5b84356001600160401b038082111561333957600080fd5b61334588838901612f8b565b9550602087013591508082111561335b57600080fd5b61336788838901612f8b565b9450604087013591508082111561337d57600080fd5b61338988838901612fab565b9350606087013591508082111561339f57600080fd5b506133ac87828801613167565b91505092959194509250565b60208152600082516101008060208501526133d7610120850183612bd9565b91506020850151601f19808685030160408701526133f58483612bd9565b935060408701519150808685030160608701526134128483612bd9565b9350606087015191508086850301608087015261342f8483612bd9565b935060808701519150808685030160a087015261344c8483612bd9565b935060a08701519150808685030160c08701526134698483612bd9565b935060c087015160e087015260e08701519150808685030183870152506134908382612bd9565b9695505050505050565b60208082526021908201527f4f6e6c79206f776e65722063616e2063616c6c20746869732066756e6374696f6040820152603760f91b606082015260800190565b600181811c908216806134ef57607f821691505b602082108103610b3b57634e487b7160e01b600052602260045260246000fd5b634e487b7160e01b600052603260045260246000fd5b634e487b7160e01b600052601160045260246000fd5b8082028115828204841417612a1357612a13613525565b634e487b7160e01b600052601260045260246000fd5b60008261357757613577613552565b500490565b80820180821115612a1357612a13613525565b600082516135a1818460208701612bb5565b9190910192915050565b81810381811115612a1357612a13613525565b6000823560be198336030181126135a157600080fd5b60008235601e198336030181126135a157600080fd5b6000808335601e1984360301811261360157600080fd5b8301803591506001600160401b0382111561361b57600080fd5b60200191503681900382131561363057600080fd5b9250929050565b60006020828403121561364957600080fd5b81356001600160401b038082111561366057600080fd5b90830190610100828603121561367557600080fd5b61367d612ed3565b82358281111561368c57600080fd5b61369887828601612f8b565b8252506020830135828111156136ad57600080fd5b6136b987828601612f8b565b6020830152506040830135828111156136d157600080fd5b6136dd87828601612f8b565b6040830152506060830135828111156136f557600080fd5b61370187828601612f8b565b60608301525060808301358281111561371957600080fd5b61372587828601612f8b565b60808301525060a08301358281111561373d57600080fd5b61374987828601612f8b565b60a08301525060c083013560c082015260e08301358281111561376b57600080fd5b61377787828601612f8b565b60e08301525095945050505050565b601f8211156137d2576000816000526020600020601f850160051c810160208610156137af5750805b601f850160051c820191505b818110156137ce578281556001016137bb565b5050505b505050565b81516001600160401b038111156137f0576137f0612e95565b613804816137fe84546134db565b84613786565b602080601f83116001811461383957600084156138215750858301515b600019600386901b1c1916600185901b1785556137ce565b600085815260208120601f198616915b8281101561386857888601518255948401946001909101908401613849565b50858210156138865787850151600019600388901b60f8161c191681555b5050505050600190811b01905550565b8381528260208201526060604082015260006138b56060830184612bd9565b95945050505050565b6000600182016138d0576138d0613525565b5060010190565b6000602082840312156138e957600080fd5b81356001600160401b038111156138ff57600080fd5b8201601f8101841361391057600080fd5b6130cd84823560208401612f4d565b600082601f83011261393057600080fd5b815161393e612f5b82612f26565b81815284602083860101111561395357600080fd5b6130cd826020830160208701612bb5565b60006020828403121561397657600080fd5b81516001600160401b038082111561398d57600080fd5b9083019061010082860312156139a257600080fd5b6139aa612ed3565b8251828111156139b957600080fd5b6139c58782860161391f565b8252506020830151828111156139da57600080fd5b6139e68782860161391f565b6020830152506040830151828111156139fe57600080fd5b613a0a8782860161391f565b604083015250606083015182811115613a2257600080fd5b613a2e8782860161391f565b606083015250608083015182811115613a4657600080fd5b613a528782860161391f565b60808301525060a083015182811115613a6a57600080fd5b613a768782860161391f565b60a08301525060c083015160c082015260e083015182811115613a9857600080fd5b6137778782860161391f565b6000823560be19833603018112613aba57600080fd5b90910192915050565b80356001600160401b0381168114613ada57600080fd5b919050565b6000808335601e19843603018112613af657600080fd5b83016020810192503590506001600160401b03811115613b1557600080fd5b80360382131561363057600080fd5b81835281816020850137506000828201602090810191909152601f909101601f19169091010190565b60008235601e19833603018112613aba57600080fd5b6000613b6f8283613adf565b602085526138b5602086018284613b24565b80358252602081013560208301526000613b9d60408301613ac3565b6001600160401b03808216604086015280613bba60608601613ac3565b1660608601525050608082013560de19833603018112613bd957600080fd5b60c060808501528201613bec8180613adf565b60e060c0870152613c026101a087018284613b24565b915050613c126020830183613adf565b60bf19808885030160e0890152613c2a848385613b24565b9350613c396040860186613adf565b935091508088850301610100890152613c53848484613b24565b9350613c626060860186613adf565b935091508088850301610120890152613c7c848484613b24565b9350613c8b6080860186613adf565b935091508088850301610140890152613ca5848484613b24565b9350613cb460a0860186613adf565b935091508088850301610160890152613cce848484613b24565b9350613cdd60c0860186613adf565b9550925080888503016101808901525050613cf9828483613b24565b92505050613d0a60a0840184613b4d565b84820360a08601526138b58282613b63565b6020815260008235601e19843603018112613d3657600080fd5b83016020810190356001600160401b03811115613d5257600080fd5b8060051b803603831315613d6557600080fd5b60406020860152606085018290526001600160fb1b03821115613d8757600080fd5b8083608087013784019150613da190506020850185613aa4565b60608483030160408501526138b56080830182613b81565b80518015158114613ada57600080fd5b600060208284031215613ddb57600080fd5b610c6a82613db9565b600080600060608486031215613df957600080fd5b83519250613e0960208501613db9565b9150604084015190509250925092565b600082613e2857613e28613552565b500690565b600060208284031215613e3f57600080fd5b8151610c6a81612b8356fea2646970667358221220425ee6d74d1082487a717422748812664529ccc6e73ebf6aa5627b93ce9695df64736f6c63430008190033",
  "linkReferences": {},
  "deployedLinkReferences": {}
}