{
  "_format": "hh-sol-artifact-1",
  "contractName": "insuredFlightsAgency",
  "sourceName": "contracts/InsuredFlights/InsuredFlightsAgency.sol",
  "abi": [
    {
      "inputs": [
        {
          "internalType": "uint256",
          "name": "_insurancePrice",
          "type": "uint256"
        }
      ],
      "stateMutability": "nonpayable",
      "type": "constructor"
    },
    {
      "anonymous": false,
      "inputs": [
        {
          "indexed": false,
          "internalType": "uint256",
          "name": "insuredFlightId",
          "type": "uint256"
        },
        {
          "indexed": false,
          "internalType": "address",
          "name": "passenger",
          "type": "address"
        }
      ],
      "name": "FlightClaimed",
      "type": "event"
    },
    {
      "anonymous": false,
      "inputs": [
        {
          "indexed": false,
          "internalType": "uint256",
          "name": "insuredFlightId",
          "type": "uint256"
        },
        {
          "indexed": false,
          "internalType": "uint256",
          "name": "flightDelayedTime",
          "type": "uint256"
        },
        {
          "indexed": false,
          "internalType": "string",
          "name": "flightStatus",
          "type": "string"
        }
      ],
      "name": "FlightInfoUpdated",
      "type": "event"
    },
    {
      "anonymous": false,
      "inputs": [
        {
          "indexed": false,
          "internalType": "uint256",
          "name": "insuredFlightId",
          "type": "uint256"
        }
      ],
      "name": "FlightInsured",
      "type": "event"
    },
    {
      "inputs": [],
      "name": "INSURANCE_PRICE",
      "outputs": [
        {
          "internalType": "uint256",
          "name": "",
          "type": "uint256"
        }
      ],
      "stateMutability": "view",
      "type": "function"
    },
    {
      "inputs": [],
      "name": "_generator",
      "outputs": [
        {
          "internalType": "contract RandomNumberV2Interface",
          "name": "",
          "type": "address"
        }
      ],
      "stateMutability": "view",
      "type": "function"
    },
    {
      "inputs": [
        {
          "internalType": "uint256",
          "name": "",
          "type": "uint256"
        }
      ],
      "name": "_insuredFlight",
      "outputs": [
        {
          "internalType": "string",
          "name": "aircraftIcao",
          "type": "string"
        },
        {
          "internalType": "string",
          "name": "aircraftName",
          "type": "string"
        },
        {
          "internalType": "string",
          "name": "flightDate",
          "type": "string"
        },
        {
          "internalType": "string",
          "name": "departureAirport",
          "type": "string"
        },
        {
          "internalType": "string",
          "name": "arrivalAirport",
          "type": "string"
        },
        {
          "internalType": "uint256",
          "name": "flightDelayedTime",
          "type": "uint256"
        },
        {
          "internalType": "string",
          "name": "flightNo",
          "type": "string"
        },
        {
          "internalType": "uint256",
          "name": "flight_price",
          "type": "uint256"
        },
        {
          "internalType": "string",
          "name": "status",
          "type": "string"
        },
        {
          "internalType": "uint256",
          "name": "lastChecked",
          "type": "uint256"
        },
        {
          "internalType": "address",
          "name": "insurer",
          "type": "address"
        },
        {
          "internalType": "uint256",
          "name": "insuranceId",
          "type": "uint256"
        }
      ],
      "stateMutability": "view",
      "type": "function"
    },
    {
      "inputs": [],
      "name": "_maxNumber",
      "outputs": [
        {
          "internalType": "uint256",
          "name": "",
          "type": "uint256"
        }
      ],
      "stateMutability": "view",
      "type": "function"
    },
    {
      "inputs": [
        {
          "components": [
            {
              "internalType": "string",
              "name": "aircraft_name",
              "type": "string"
            },
            {
              "internalType": "string",
              "name": "aircraft_reg",
              "type": "string"
            },
            {
              "internalType": "string",
              "name": "flight_no",
              "type": "string"
            },
            {
              "internalType": "string",
              "name": "flight_date",
              "type": "string"
            },
            {
              "internalType": "string",
              "name": "departure_airport",
              "type": "string"
            },
            {
              "internalType": "string",
              "name": "arrival_airport",
              "type": "string"
            },
            {
              "internalType": "uint256",
              "name": "flight_delayed_time",
              "type": "uint256"
            },
            {
              "internalType": "string",
              "name": "flight_status",
              "type": "string"
            }
          ],
          "internalType": "struct DataTransportObject",
          "name": "dto",
          "type": "tuple"
        }
      ],
      "name": "abiSignatureHack",
      "outputs": [],
      "stateMutability": "pure",
      "type": "function"
    },
    {
      "inputs": [
        {
          "components": [
            {
              "internalType": "bytes32[]",
              "name": "merkleProof",
              "type": "bytes32[]"
            },
            {
              "components": [
                {
                  "internalType": "bytes32",
                  "name": "attestationType",
                  "type": "bytes32"
                },
                {
                  "internalType": "bytes32",
                  "name": "sourceId",
                  "type": "bytes32"
                },
                {
                  "internalType": "uint64",
                  "name": "votingRound",
                  "type": "uint64"
                },
                {
                  "internalType": "uint64",
                  "name": "lowestUsedTimestamp",
                  "type": "uint64"
                },
                {
                  "components": [
                    {
                      "internalType": "string",
                      "name": "url",
                      "type": "string"
                    },
                    {
                      "internalType": "string",
                      "name": "postprocessJq",
                      "type": "string"
                    },
                    {
                      "internalType": "string",
                      "name": "abi_signature",
                      "type": "string"
                    }
                  ],
                  "internalType": "struct IJsonApi.RequestBody",
                  "name": "requestBody",
                  "type": "tuple"
                },
                {
                  "components": [
                    {
                      "internalType": "bytes",
                      "name": "abi_encoded_data",
                      "type": "bytes"
                    }
                  ],
                  "internalType": "struct IJsonApi.ResponseBody",
                  "name": "responseBody",
                  "type": "tuple"
                }
              ],
              "internalType": "struct IJsonApi.Response",
              "name": "data",
              "type": "tuple"
            }
          ],
          "internalType": "struct IJsonApi.Proof",
          "name": "data",
          "type": "tuple"
        },
        {
          "internalType": "uint256",
          "name": "insuredFlightId",
          "type": "uint256"
        }
      ],
      "name": "checkFlightDelay",
      "outputs": [],
      "stateMutability": "nonpayable",
      "type": "function"
    },
    {
      "inputs": [
        {
          "internalType": "uint256",
          "name": "insuredFlightId",
          "type": "uint256"
        },
        {
          "internalType": "address",
          "name": "passenger",
          "type": "address"
        }
      ],
      "name": "checkFlightInsured",
      "outputs": [
        {
          "internalType": "bool",
          "name": "status",
          "type": "bool"
        }
      ],
      "stateMutability": "view",
      "type": "function"
    },
    {
      "inputs": [
        {
          "internalType": "uint256",
          "name": "insuredFlightId",
          "type": "uint256"
        },
        {
          "internalType": "string",
          "name": "flight_no",
          "type": "string"
        },
        {
          "internalType": "uint256",
          "name": "predictedNumber",
          "type": "uint256"
        }
      ],
      "name": "claimInsurance",
      "outputs": [
        {
          "internalType": "uint256",
          "name": "secretNumber",
          "type": "uint256"
        },
        {
          "internalType": "bool",
          "name": "_predictedSuccess",
          "type": "bool"
        }
      ],
      "stateMutability": "nonpayable",
      "type": "function"
    },
    {
      "inputs": [],
      "name": "getAllInsureFlights",
      "outputs": [
        {
          "components": [
            {
              "internalType": "string",
              "name": "aircraftIcao",
              "type": "string"
            },
            {
              "internalType": "string",
              "name": "aircraftName",
              "type": "string"
            },
            {
              "internalType": "string",
              "name": "flightDate",
              "type": "string"
            },
            {
              "internalType": "string",
              "name": "departureAirport",
              "type": "string"
            },
            {
              "internalType": "string",
              "name": "arrivalAirport",
              "type": "string"
            },
            {
              "internalType": "uint256",
              "name": "flightDelayedTime",
              "type": "uint256"
            },
            {
              "internalType": "string",
              "name": "flightNo",
              "type": "string"
            },
            {
              "internalType": "address[]",
              "name": "passengers",
              "type": "address[]"
            },
            {
              "internalType": "uint256",
              "name": "flight_price",
              "type": "uint256"
            },
            {
              "internalType": "string",
              "name": "status",
              "type": "string"
            },
            {
              "internalType": "uint256",
              "name": "lastChecked",
              "type": "uint256"
            },
            {
              "internalType": "address",
              "name": "insurer",
              "type": "address"
            },
            {
              "internalType": "uint256",
              "name": "insuranceId",
              "type": "uint256"
            }
          ],
          "internalType": "struct InsuredFlight[]",
          "name": "",
          "type": "tuple[]"
        }
      ],
      "stateMutability": "view",
      "type": "function"
    },
    {
      "inputs": [
        {
          "internalType": "uint256",
          "name": "flight_price",
          "type": "uint256"
        },
        {
          "internalType": "address[]",
          "name": "passengers",
          "type": "address[]"
        }
      ],
      "name": "getCostOfInsurance",
      "outputs": [
        {
          "internalType": "uint256",
          "name": "",
          "type": "uint256"
        }
      ],
      "stateMutability": "view",
      "type": "function"
    },
    {
      "inputs": [],
      "name": "getInsurancePrice",
      "outputs": [
        {
          "internalType": "uint256",
          "name": "",
          "type": "uint256"
        }
      ],
      "stateMutability": "view",
      "type": "function"
    },
    {
      "inputs": [
        {
          "internalType": "uint256",
          "name": "insuredFlightId",
          "type": "uint256"
        }
      ],
      "name": "getInsuredFlight",
      "outputs": [
        {
          "components": [
            {
              "internalType": "string",
              "name": "aircraftIcao",
              "type": "string"
            },
            {
              "internalType": "string",
              "name": "aircraftName",
              "type": "string"
            },
            {
              "internalType": "string",
              "name": "flightDate",
              "type": "string"
            },
            {
              "internalType": "string",
              "name": "departureAirport",
              "type": "string"
            },
            {
              "internalType": "string",
              "name": "arrivalAirport",
              "type": "string"
            },
            {
              "internalType": "uint256",
              "name": "flightDelayedTime",
              "type": "uint256"
            },
            {
              "internalType": "string",
              "name": "flightNo",
              "type": "string"
            },
            {
              "internalType": "address[]",
              "name": "passengers",
              "type": "address[]"
            },
            {
              "internalType": "uint256",
              "name": "flight_price",
              "type": "uint256"
            },
            {
              "internalType": "string",
              "name": "status",
              "type": "string"
            },
            {
              "internalType": "uint256",
              "name": "lastChecked",
              "type": "uint256"
            },
            {
              "internalType": "address",
              "name": "insurer",
              "type": "address"
            },
            {
              "internalType": "uint256",
              "name": "insuranceId",
              "type": "uint256"
            }
          ],
          "internalType": "struct InsuredFlight",
          "name": "",
          "type": "tuple"
        }
      ],
      "stateMutability": "view",
      "type": "function"
    },
    {
      "inputs": [],
      "name": "insurance_delay_time",
      "outputs": [
        {
          "internalType": "uint256",
          "name": "",
          "type": "uint256"
        }
      ],
      "stateMutability": "view",
      "type": "function"
    },
    {
      "inputs": [
        {
          "internalType": "string",
          "name": "aircraft_icao",
          "type": "string"
        },
        {
          "internalType": "string",
          "name": "flight_no",
          "type": "string"
        },
        {
          "internalType": "address[]",
          "name": "passengers",
          "type": "address[]"
        },
        {
          "internalType": "uint256",
          "name": "flight_price",
          "type": "uint256"
        },
        {
          "components": [
            {
              "internalType": "bytes32[]",
              "name": "merkleProof",
              "type": "bytes32[]"
            },
            {
              "components": [
                {
                  "internalType": "bytes32",
                  "name": "attestationType",
                  "type": "bytes32"
                },
                {
                  "internalType": "bytes32",
                  "name": "sourceId",
                  "type": "bytes32"
                },
                {
                  "internalType": "uint64",
                  "name": "votingRound",
                  "type": "uint64"
                },
                {
                  "internalType": "uint64",
                  "name": "lowestUsedTimestamp",
                  "type": "uint64"
                },
                {
                  "components": [
                    {
                      "internalType": "string",
                      "name": "url",
                      "type": "string"
                    },
                    {
                      "internalType": "string",
                      "name": "postprocessJq",
                      "type": "string"
                    },
                    {
                      "internalType": "string",
                      "name": "abi_signature",
                      "type": "string"
                    }
                  ],
                  "internalType": "struct IJsonApi.RequestBody",
                  "name": "requestBody",
                  "type": "tuple"
                },
                {
                  "components": [
                    {
                      "internalType": "bytes",
                      "name": "abi_encoded_data",
                      "type": "bytes"
                    }
                  ],
                  "internalType": "struct IJsonApi.ResponseBody",
                  "name": "responseBody",
                  "type": "tuple"
                }
              ],
              "internalType": "struct IJsonApi.Response",
              "name": "data",
              "type": "tuple"
            }
          ],
          "internalType": "struct IJsonApi.Proof",
          "name": "data",
          "type": "tuple"
        }
      ],
      "name": "insureFlight",
      "outputs": [],
      "stateMutability": "payable",
      "type": "function"
    },
    {
      "inputs": [],
      "name": "insuredFlightIds",
      "outputs": [
        {
          "internalType": "uint256",
          "name": "",
          "type": "uint256"
        }
      ],
      "stateMutability": "view",
      "type": "function"
    },
    {
      "inputs": [
        {
          "internalType": "uint256",
          "name": "",
          "type": "uint256"
        },
        {
          "internalType": "address",
          "name": "",
          "type": "address"
        }
      ],
      "name": "insuredFlightPassengersStatus",
      "outputs": [
        {
          "internalType": "bool",
          "name": "",
          "type": "bool"
        }
      ],
      "stateMutability": "view",
      "type": "function"
    },
    {
      "inputs": [],
      "name": "owner",
      "outputs": [
        {
          "internalType": "address",
          "name": "",
          "type": "address"
        }
      ],
      "stateMutability": "view",
      "type": "function"
    },
    {
      "inputs": [],
      "name": "recieve",
      "outputs": [],
      "stateMutability": "payable",
      "type": "function"
    },
    {
      "inputs": [
        {
          "internalType": "uint256",
          "name": "_insurancePrice",
          "type": "uint256"
        }
      ],
      "name": "setInsurancePrice",
      "outputs": [],
      "stateMutability": "nonpayable",
      "type": "function"
    },
    {
      "inputs": [
        {
          "internalType": "address",
          "name": "to",
          "type": "address"
        }
      ],
      "name": "transferAccumulatedFees",
      "outputs": [],
      "stateMutability": "nonpayable",
      "type": "function"
    },
    {
      "inputs": [
        {
          "internalType": "address",
          "name": "newOwner",
          "type": "address"
        }
      ],
      "name": "transferOwnership",
      "outputs": [],
      "stateMutability": "nonpayable",
      "type": "function"
    }
  ],
  "bytecode": "0x608060405234801561001057600080fd5b506040516139cb3803806139cb83398101604081905261002f91610201565b6001818155601e600255600055600680546001600160a01b0319163317905561005661008d565b600580546001600160a01b0392909216620100000262010000600160b01b031990921691909117905561008761015e565b506102aa565b600073ad67fe66660fb8dfe9d6b1b4240d8650e30f60196001600160a01b031663159354a26040516020016100e4906020808252600e908201526d2930b73237b6a73ab6b132b92b1960911b604082015260600190565b604051602081830303815290604052805190602001206040518263ffffffff1660e01b815260040161011891815260200190565b602060405180830381865afa158015610135573d6000803e3d6000fd5b505050506040513d601f19601f82011682018060405250810190610159919061021a565b905090565b6000600560029054906101000a90046001600160a01b03166001600160a01b031663dbdff2c16040518163ffffffff1660e01b8152600401606060405180830381865afa1580156101b3573d6000803e3d6000fd5b505050506040513d601f19601f820116820180604052508101906101d7919061024a565b505090506014816101e89190610288565b6005805461ffff191661ffff9290921691909117905550565b60006020828403121561021357600080fd5b5051919050565b60006020828403121561022c57600080fd5b81516001600160a01b038116811461024357600080fd5b9392505050565b60008060006060848603121561025f57600080fd5b835192506020840151801515811461027657600080fd5b80925050604084015190509250925092565b6000826102a557634e487b7160e01b600052601260045260246000fd5b500690565b613712806102b96000396000f3fe60806040526004361061012a5760003560e01c80638c774f15116100ab578063c679aef21161006f578063c679aef21461035a578063ca37a9d714610387578063e0d4153e1461039a578063ec091c17146103b0578063f2fde38b146103d0578063fb458f9b146103f057600080fd5b80638c774f15146102ad5780638da5cb5b146102e55780639fe716af14610305578063a9e10bf2146101a7578063c517f0691461032557600080fd5b806339025768116100f257806339025768146101e05780633c9e6140146101f65780638060156b146102145780638289b58814610252578063876050c61461028d57600080fd5b806303a072431461012f578063115e4a41146101575780631f69d1c11461018757806322526a57146101a957806329369752146101be575b600080fd5b34801561013b57600080fd5b50610144601481565b6040519081526020015b60405180910390f35b34801561016357600080fd5b50610177610172366004612b84565b610406565b604051901515815260200161014e565b34801561019357600080fd5b506101a76101a2366004612bb0565b610433565b005b3480156101b557600080fd5b50600154610144565b3480156101ca57600080fd5b506101d36104e7565b60405161014e9190612d84565b3480156101ec57600080fd5b5061014460025481565b34801561020257600080fd5b506101a7610211366004612de8565b50565b34801561022057600080fd5b5060055461023a906201000090046001600160a01b031681565b6040516001600160a01b03909116815260200161014e565b34801561025e57600080fd5b5061017761026d366004612b84565b600460209081526000928352604080842090915290825290205460ff1681565b34801561029957600080fd5b506101446102a8366004612f18565b610a2f565b3480156102b957600080fd5b506102cd6102c8366004612f5e565b610a69565b60405161014e9c9b9a99989796959493929190612f77565b3480156102f157600080fd5b5060065461023a906001600160a01b031681565b34801561031157600080fd5b506101a7610320366004613059565b610e85565b34801561033157600080fd5b5061034561034036600461310c565b6116e1565b6040805192835290151560208301520161014e565b34801561036657600080fd5b5061037a610375366004612f5e565b61203a565b60405161014e919061315b565b6101a761039536600461316e565b612547565b3480156103a657600080fd5b5061014460005481565b3480156103bc57600080fd5b506101a76103cb366004612f5e565b612900565b3480156103dc57600080fd5b506101a76103eb366004612bb0565b61298e565b3480156103fc57600080fd5b5061014460015481565b60008281526004602090815260408083206001600160a01b038516845290915290205460ff165b92915050565b6006546001600160a01b031633146104665760405162461bcd60e51b815260040161045d90613224565b60405180910390fd5b6001600160a01b0381166104ae5760405162461bcd60e51b815260206004820152600f60248201526e496e76616c6964206164647265737360881b604482015260640161045d565b6040516001600160a01b038216904780156108fc02916000818181858888f193505050501580156104e3573d6000803e3d6000fd5b5050565b6060600080546001600160401b0381111561050457610504612e23565b60405190808252806020026020018201604052801561053d57816020015b61052a612a7d565b8152602001906001900390816105225790505b50905060005b600054811015610a29576000818152600360205260409081902081516101a0810190925280548290829061057690613265565b80601f01602080910402602001604051908101604052809291908181526020018280546105a290613265565b80156105ef5780601f106105c4576101008083540402835291602001916105ef565b820191906000526020600020905b8154815290600101906020018083116105d257829003601f168201915b5050505050815260200160018201805461060890613265565b80601f016020809104026020016040519081016040528092919081815260200182805461063490613265565b80156106815780601f1061065657610100808354040283529160200191610681565b820191906000526020600020905b81548152906001019060200180831161066457829003601f168201915b5050505050815260200160028201805461069a90613265565b80601f01602080910402602001604051908101604052809291908181526020018280546106c690613265565b80156107135780601f106106e857610100808354040283529160200191610713565b820191906000526020600020905b8154815290600101906020018083116106f657829003601f168201915b5050505050815260200160038201805461072c90613265565b80601f016020809104026020016040519081016040528092919081815260200182805461075890613265565b80156107a55780601f1061077a576101008083540402835291602001916107a5565b820191906000526020600020905b81548152906001019060200180831161078857829003601f168201915b505050505081526020016004820180546107be90613265565b80601f01602080910402602001604051908101604052809291908181526020018280546107ea90613265565b80156108375780601f1061080c57610100808354040283529160200191610837565b820191906000526020600020905b81548152906001019060200180831161081a57829003601f168201915b505050505081526020016005820154815260200160068201805461085a90613265565b80601f016020809104026020016040519081016040528092919081815260200182805461088690613265565b80156108d35780601f106108a8576101008083540402835291602001916108d3565b820191906000526020600020905b8154815290600101906020018083116108b657829003601f168201915b505050505081526020016007820180548060200260200160405190810160405280929190818152602001828054801561093557602002820191906000526020600020905b81546001600160a01b03168152600190910190602001808311610917575b505050505081526020016008820154815260200160098201805461095890613265565b80601f016020809104026020016040519081016040528092919081815260200182805461098490613265565b80156109d15780601f106109a6576101008083540402835291602001916109d1565b820191906000526020600020905b8154815290600101906020018083116109b457829003601f168201915b5050509183525050600a8201546020820152600b8201546001600160a01b03166040820152600c909101546060909101528251839083908110610a1657610a16613299565b6020908102919091010152600101610543565b50919050565b60006001546064848451610a4391906132c5565b610a4e90600a6132c5565b610a5891906132f2565b610a629190613306565b9392505050565b600360205260009081526040902080548190610a8490613265565b80601f0160208091040260200160405190810160405280929190818152602001828054610ab090613265565b8015610afd5780601f10610ad257610100808354040283529160200191610afd565b820191906000526020600020905b815481529060010190602001808311610ae057829003601f168201915b505050505090806001018054610b1290613265565b80601f0160208091040260200160405190810160405280929190818152602001828054610b3e90613265565b8015610b8b5780601f10610b6057610100808354040283529160200191610b8b565b820191906000526020600020905b815481529060010190602001808311610b6e57829003601f168201915b505050505090806002018054610ba090613265565b80601f0160208091040260200160405190810160405280929190818152602001828054610bcc90613265565b8015610c195780601f10610bee57610100808354040283529160200191610c19565b820191906000526020600020905b815481529060010190602001808311610bfc57829003601f168201915b505050505090806003018054610c2e90613265565b80601f0160208091040260200160405190810160405280929190818152602001828054610c5a90613265565b8015610ca75780601f10610c7c57610100808354040283529160200191610ca7565b820191906000526020600020905b815481529060010190602001808311610c8a57829003601f168201915b505050505090806004018054610cbc90613265565b80601f0160208091040260200160405190810160405280929190818152602001828054610ce890613265565b8015610d355780601f10610d0a57610100808354040283529160200191610d35565b820191906000526020600020905b815481529060010190602001808311610d1857829003601f168201915b505050505090806005015490806006018054610d5090613265565b80601f0160208091040260200160405190810160405280929190818152602001828054610d7c90613265565b8015610dc95780601f10610d9e57610100808354040283529160200191610dc9565b820191906000526020600020905b815481529060010190602001808311610dac57829003601f168201915b505050505090806008015490806009018054610de490613265565b80601f0160208091040260200160405190810160405280929190818152602001828054610e1090613265565b8015610e5d5780601f10610e3257610100808354040283529160200191610e5d565b820191906000526020600020905b815481529060010190602001808311610e4057829003601f168201915b50505050600a830154600b840154600c90940154929390926001600160a01b0390911691508c565b60008181526003602052604080822081516101a08101909252805482908290610ead90613265565b80601f0160208091040260200160405190810160405280929190818152602001828054610ed990613265565b8015610f265780601f10610efb57610100808354040283529160200191610f26565b820191906000526020600020905b815481529060010190602001808311610f0957829003601f168201915b50505050508152602001600182018054610f3f90613265565b80601f0160208091040260200160405190810160405280929190818152602001828054610f6b90613265565b8015610fb85780601f10610f8d57610100808354040283529160200191610fb8565b820191906000526020600020905b815481529060010190602001808311610f9b57829003601f168201915b50505050508152602001600282018054610fd190613265565b80601f0160208091040260200160405190810160405280929190818152602001828054610ffd90613265565b801561104a5780601f1061101f5761010080835404028352916020019161104a565b820191906000526020600020905b81548152906001019060200180831161102d57829003601f168201915b5050505050815260200160038201805461106390613265565b80601f016020809104026020016040519081016040528092919081815260200182805461108f90613265565b80156110dc5780601f106110b1576101008083540402835291602001916110dc565b820191906000526020600020905b8154815290600101906020018083116110bf57829003601f168201915b505050505081526020016004820180546110f590613265565b80601f016020809104026020016040519081016040528092919081815260200182805461112190613265565b801561116e5780601f106111435761010080835404028352916020019161116e565b820191906000526020600020905b81548152906001019060200180831161115157829003601f168201915b505050505081526020016005820154815260200160068201805461119190613265565b80601f01602080910402602001604051908101604052809291908181526020018280546111bd90613265565b801561120a5780601f106111df5761010080835404028352916020019161120a565b820191906000526020600020905b8154815290600101906020018083116111ed57829003601f168201915b505050505081526020016007820180548060200260200160405190810160405280929190818152602001828054801561126c57602002820191906000526020600020905b81546001600160a01b0316815260019091019060200180831161124e575b505050505081526020016008820154815260200160098201805461128f90613265565b80601f01602080910402602001604051908101604052809291908181526020018280546112bb90613265565b80156113085780601f106112dd57610100808354040283529160200191611308565b820191906000526020600020905b8154815290600101906020018083116112eb57829003601f168201915b5050509183525050600a8201546020820152600b8201546001600160a01b03166040820152600c90910154606090910152610140810151909150610258906113509042613319565b116113ac5760405162461bcd60e51b815260206004820152602660248201527f466c6967687420636865636b206973206174203130206d696e7574657320696e6044820152651d195c9d985b60d21b606482015260840161045d565b60006113bb602085018561332c565b6113c99060a081019061334c565b6113d39080613362565b8101906113e091906133af565b90506000548261018001511061142c5760405162461bcd60e51b8152602060048201526011602482015270496e76616c696420496e737572616e636560781b604482015260640161045d565b604051681cd8da19591d5b195960ba1b60208201526029016040516020818303038152906040528051906020012082610120015160405160200161147091906134fe565b60405160208183030381529060405280519060200120146114d35760405162461bcd60e51b815260206004820152601d60248201527f466c696768742073746174757320616c72656164792075706461746564000000604482015260640161045d565b8161016001516001600160a01b0316336001600160a01b031614806115115750600083815260046020908152604080832033845290915290205460ff165b6115785760405162461bcd60e51b815260206004820152603260248201527f45697468657220496e7375726572206f722050617373656e6765722063616e20604482015271636865636b20666c696768742064656c617960701b606482015260840161045d565b6002548160c001511015801561164057506040516561637469766560d01b6020820152602601604051602081830303815290604052805190602001208160e001516040516020016115c991906134fe565b604051602081830303815290604052805190602001201415806116405750604051651b185b99195960d21b6020820152602601604051602081830303815290604052805190602001208160e0015160405160200161162791906134fe565b6040516020818303038152906040528051906020012014155b1561167f5760e08101516000848152600360205260409020600901906116669082613561565b5060c08101516000848152600360205260409020600501555b6000838152600360205260409081902042600a9091015560a083015161012084015191517fad522330e0a333ea20b30192e7bf44fd414759973e0d47d6e02d4b5f0e9ceae4926116d3928792909190613620565b60405180910390a150505050565b600080600060036000878152602001908152602001600020604051806101a001604052908160008201805461171590613265565b80601f016020809104026020016040519081016040528092919081815260200182805461174190613265565b801561178e5780601f106117635761010080835404028352916020019161178e565b820191906000526020600020905b81548152906001019060200180831161177157829003601f168201915b505050505081526020016001820180546117a790613265565b80601f01602080910402602001604051908101604052809291908181526020018280546117d390613265565b80156118205780601f106117f557610100808354040283529160200191611820565b820191906000526020600020905b81548152906001019060200180831161180357829003601f168201915b5050505050815260200160028201805461183990613265565b80601f016020809104026020016040519081016040528092919081815260200182805461186590613265565b80156118b25780601f10611887576101008083540402835291602001916118b2565b820191906000526020600020905b81548152906001019060200180831161189557829003601f168201915b505050505081526020016003820180546118cb90613265565b80601f01602080910402602001604051908101604052809291908181526020018280546118f790613265565b80156119445780601f1061191957610100808354040283529160200191611944565b820191906000526020600020905b81548152906001019060200180831161192757829003601f168201915b5050505050815260200160048201805461195d90613265565b80601f016020809104026020016040519081016040528092919081815260200182805461198990613265565b80156119d65780601f106119ab576101008083540402835291602001916119d6565b820191906000526020600020905b8154815290600101906020018083116119b957829003601f168201915b50505050508152602001600582015481526020016006820180546119f990613265565b80601f0160208091040260200160405190810160405280929190818152602001828054611a2590613265565b8015611a725780601f10611a4757610100808354040283529160200191611a72565b820191906000526020600020905b815481529060010190602001808311611a5557829003601f168201915b5050505050815260200160078201805480602002602001604051908101604052809291908181526020018280548015611ad457602002820191906000526020600020905b81546001600160a01b03168152600190910190602001808311611ab6575b5050505050815260200160088201548152602001600982018054611af790613265565b80601f0160208091040260200160405190810160405280929190818152602001828054611b2390613265565b8015611b705780601f10611b4557610100808354040283529160200191611b70565b820191906000526020600020905b815481529060010190602001808311611b5357829003601f168201915b50505050508152602001600a8201548152602001600b820160009054906101000a90046001600160a01b03166001600160a01b03166001600160a01b03168152602001600c82015481525050905084604051602001611bcf91906134fe565b604051602081830303815290604052805190602001208160c00151604051602001611bfa91906134fe565b6040516020818303038152906040528051906020012014611c5d5760405162461bcd60e51b815260206004820152601760248201527f466c69676874204e6f20646f65736e2774206d61746368000000000000000000604482015260640161045d565b600086815260046020908152604080832033845290915290205460ff16611ce25760405162461bcd60e51b815260206004820152603360248201527f50617373656e676572206e6f7420696e7375726564204f5220496e737572616e60448201527218d948185b1c9958591e481c995919595b5959606a1b606482015260840161045d565b6002548160a001511015611d2d5760405162461bcd60e51b8152602060048201526012602482015271119b1a59da1d08139bdd0811195b185e595960721b604482015260640161045d565b60008681526004602090815260408083203384529091529020805460ff1916905560055461ffff1692508315801590611d6b575060055461ffff1684145b15611ea6576000336001600160a01b03166064836101000151600a611d9091906132c5565b611d9a91906132f2565b604051600081818185875af1925050503d8060008114611dd6576040519150601f19603f3d011682016040523d82523d6000602084013e611ddb565b606091505b5050905080611dfc5760405162461bcd60e51b815260040161045d90613648565b60405160009033906706f05b59d3b20000908381818185875af1925050503d8060008114611e46576040519150601f19603f3d011682016040523d82523d6000602084013e611e4b565b606091505b5050905080611e935760405162461bcd60e51b8152602060048201526014602482015273496e73756666696369656e742062616c616e636560601b604482015260640161045d565b60019350611e9f6129da565b5050611ff9565b600084118015611ebc575060055461ffff168414155b15611f6b576000336001600160a01b031660026064846101000151600a611ee391906132c5565b611eed91906132f2565b611ef791906132f2565b604051600081818185875af1925050503d8060008114611f33576040519150601f19603f3d011682016040523d82523d6000602084013e611f38565b606091505b5050905080611f595760405162461bcd60e51b815260040161045d90613648565b60009250611f656129da565b50611ff9565b6000336001600160a01b03166064836101000151600a611f8b91906132c5565b611f9591906132f2565b604051600081818185875af1925050503d8060008114611fd1576040519150601f19603f3d011682016040523d82523d6000602084013e611fd6565b606091505b5050905080611ff75760405162461bcd60e51b815260040161045d90613648565b505b604080518781523360208201527fb10ac085223df27be865333b92ef6fed3d39f43691e4f13b018108fbcd8d1b40910160405180910390a150935093915050565b612042612a7d565b600054821061208c5760405162461bcd60e51b8152602060048201526016602482015275125b9d985b1a59081a5b9cdd5c995908199b1a59da1d60521b604482015260640161045d565b6000828152600360205260409081902081516101a081019092528054829082906120b590613265565b80601f01602080910402602001604051908101604052809291908181526020018280546120e190613265565b801561212e5780601f106121035761010080835404028352916020019161212e565b820191906000526020600020905b81548152906001019060200180831161211157829003601f168201915b5050505050815260200160018201805461214790613265565b80601f016020809104026020016040519081016040528092919081815260200182805461217390613265565b80156121c05780601f10612195576101008083540402835291602001916121c0565b820191906000526020600020905b8154815290600101906020018083116121a357829003601f168201915b505050505081526020016002820180546121d990613265565b80601f016020809104026020016040519081016040528092919081815260200182805461220590613265565b80156122525780601f1061222757610100808354040283529160200191612252565b820191906000526020600020905b81548152906001019060200180831161223557829003601f168201915b5050505050815260200160038201805461226b90613265565b80601f016020809104026020016040519081016040528092919081815260200182805461229790613265565b80156122e45780601f106122b9576101008083540402835291602001916122e4565b820191906000526020600020905b8154815290600101906020018083116122c757829003601f168201915b505050505081526020016004820180546122fd90613265565b80601f016020809104026020016040519081016040528092919081815260200182805461232990613265565b80156123765780601f1061234b57610100808354040283529160200191612376565b820191906000526020600020905b81548152906001019060200180831161235957829003601f168201915b505050505081526020016005820154815260200160068201805461239990613265565b80601f01602080910402602001604051908101604052809291908181526020018280546123c590613265565b80156124125780601f106123e757610100808354040283529160200191612412565b820191906000526020600020905b8154815290600101906020018083116123f557829003601f168201915b505050505081526020016007820180548060200260200160405190810160405280929190818152602001828054801561247457602002820191906000526020600020905b81546001600160a01b03168152600190910190602001808311612456575b505050505081526020016008820154815260200160098201805461249790613265565b80601f01602080910402602001604051908101604052809291908181526020018280546124c390613265565b80156125105780601f106124e557610100808354040283529160200191612510565b820191906000526020600020905b8154815290600101906020018083116124f357829003601f168201915b5050509183525050600a8201546020820152600b8201546001600160a01b03166040820152600c9091015460609091015292915050565b600154606483855161255991906132c5565b61256490600a6132c5565b61256e91906132f2565b6125789190613306565b34146125b75760405162461bcd60e51b815260206004820152600e60248201526d125b9d985b1a5908185b5bdd5b9d60921b604482015260640161045d565b60006125c6602083018361332c565b6125d49060a081019061334c565b6125de9080613362565b8101906125eb91906133af565b604051681cd8da19591d5b195960ba1b6020820152909150602901604051602081830303815290604052805190602001208160e0015160405160200161263191906134fe565b60405160208183030381529060405280519060200120146126a75760405162461bcd60e51b815260206004820152602a60248201527f466c69676874204e6f20646f65736e2774206d617463682061207363686564756044820152691b195908199b1a59da1d60b21b606482015260840161045d565b60005b8451811015612714576000805481526004602052604081208651600192908890859081106126da576126da613299565b6020908102919091018101516001600160a01b03168252810191909152604001600020805460ff19169115159190911790556001016126aa565b50604051806101a001604052808781526020018260000151815260200182606001518152602001826080015181526020018260a0015181526020018260c0015181526020018681526020018581526020018481526020018260e001518152602001428152602001336001600160a01b03168152602001600054815250600360008054815260200190815260200160002060008201518160000190816127b99190613561565b50602082015160018201906127ce9082613561565b50604082015160028201906127e39082613561565b50606082015160038201906127f89082613561565b506080820151600482019061280d9082613561565b5060a0820151600582015560c0820151600682019061282c9082613561565b5060e08201518051612848916007840191602090910190612aee565b50610100820151600882015561012082015160098201906128699082613561565b50610140820151600a820155610160820151600b820180546001600160a01b0319166001600160a01b0390921691909117905561018090910151600c909101556000805490806128b883613671565b91905055507fc8025f815ce5846bb23a1e70c00825ff76c450559769399af7e28de99a03405e6000546040516128f091815260200190565b60405180910390a1505050505050565b6006546001600160a01b0316331461292a5760405162461bcd60e51b815260040161045d90613224565b600081116129895760405162461bcd60e51b815260206004820152602660248201527f496e737572616e6365207072696365206d75737420626520677265617465722060448201526507468616e20360d41b606482015260840161045d565b600155565b6006546001600160a01b031633146129b85760405162461bcd60e51b815260040161045d90613224565b600680546001600160a01b0319166001600160a01b0392909216919091179055565b6000600560029054906101000a90046001600160a01b03166001600160a01b031663dbdff2c16040518163ffffffff1660e01b8152600401606060405180830381865afa158015612a2f573d6000803e3d6000fd5b505050506040513d601f19601f82011682018060405250810190612a53919061368a565b50509050601481612a6491906136c8565b6005805461ffff191661ffff9290921691909117905550565b604051806101a00160405280606081526020016060815260200160608152602001606081526020016060815260200160008152602001606081526020016060815260200160008152602001606081526020016000815260200160006001600160a01b03168152602001600081525090565b828054828255906000526020600020908101928215612b43579160200282015b82811115612b4357825182546001600160a01b0319166001600160a01b03909116178255602090920191600190910190612b0e565b50612b4f929150612b53565b5090565b5b80821115612b4f5760008155600101612b54565b80356001600160a01b0381168114612b7f57600080fd5b919050565b60008060408385031215612b9757600080fd5b82359150612ba760208401612b68565b90509250929050565b600060208284031215612bc257600080fd5b610a6282612b68565b60005b83811015612be6578181015183820152602001612bce565b50506000910152565b60008151808452612c07816020860160208601612bcb565b601f01601f19169290920160200192915050565b60008151808452602080850194506020840160005b83811015612c555781516001600160a01b031687529582019590820190600101612c30565b509495945050505050565b60006101a08251818552612c7682860182612bef565b91505060208301518482036020860152612c908282612bef565b91505060408301518482036040860152612caa8282612bef565b91505060608301518482036060860152612cc48282612bef565b91505060808301518482036080860152612cde8282612bef565b91505060a083015160a085015260c083015184820360c0860152612d028282612bef565b91505060e083015184820360e0860152612d1c8282612c1b565b9150506101008084015181860152506101208084015185830382870152612d438382612bef565b9250505061014080840151818601525061016080840151612d6e828701826001600160a01b03169052565b5050610180928301519390920192909252919050565b600060208083016020845280855180835260408601915060408160051b87010192506020870160005b82811015612ddb57603f19888603018452612dc9858351612c60565b94509285019290850190600101612dad565b5092979650505050505050565b600060208284031215612dfa57600080fd5b81356001600160401b03811115612e1057600080fd5b82016101008185031215610a6257600080fd5b634e487b7160e01b600052604160045260246000fd5b60405161010081016001600160401b0381118282101715612e5c57612e5c612e23565b60405290565b604051601f8201601f191681016001600160401b0381118282101715612e8a57612e8a612e23565b604052919050565b600082601f830112612ea357600080fd5b813560206001600160401b03821115612ebe57612ebe612e23565b8160051b612ecd828201612e62565b9283528481018201928281019087851115612ee757600080fd5b83870192505b84831015612f0d57612efe83612b68565b82529183019190830190612eed565b979650505050505050565b60008060408385031215612f2b57600080fd5b8235915060208301356001600160401b03811115612f4857600080fd5b612f5485828601612e92565b9150509250929050565b600060208284031215612f7057600080fd5b5035919050565b61018081526000612f8c61018083018f612bef565b8281036020840152612f9e818f612bef565b90508281036040840152612fb2818e612bef565b90508281036060840152612fc6818d612bef565b90508281036080840152612fda818c612bef565b90508960a084015282810360c0840152612ff4818a612bef565b90508760e084015282810361010084015261300f8188612bef565b9150508461012083015261302f6101408301856001600160a01b03169052565b826101608301529d9c50505050505050505050505050565b600060408284031215610a2957600080fd5b6000806040838503121561306c57600080fd5b82356001600160401b0381111561308257600080fd5b61308e85828601613047565b95602094909401359450505050565b600082601f8301126130ae57600080fd5b81356001600160401b038111156130c7576130c7612e23565b6130da601f8201601f1916602001612e62565b8181528460208386010111156130ef57600080fd5b816020850160208301376000918101602001919091529392505050565b60008060006060848603121561312157600080fd5b8335925060208401356001600160401b0381111561313e57600080fd5b61314a8682870161309d565b925050604084013590509250925092565b602081526000610a626020830184612c60565b600080600080600060a0868803121561318657600080fd5b85356001600160401b038082111561319d57600080fd5b6131a989838a0161309d565b965060208801359150808211156131bf57600080fd5b6131cb89838a0161309d565b955060408801359150808211156131e157600080fd5b6131ed89838a01612e92565b945060608801359350608088013591508082111561320a57600080fd5b5061321788828901613047565b9150509295509295909350565b60208082526021908201527f4f6e6c79206f776e65722063616e2063616c6c20746869732066756e6374696f6040820152603760f91b606082015260800190565b600181811c9082168061327957607f821691505b602082108103610a2957634e487b7160e01b600052602260045260246000fd5b634e487b7160e01b600052603260045260246000fd5b634e487b7160e01b600052601160045260246000fd5b808202811582820484141761042d5761042d6132af565b634e487b7160e01b600052601260045260246000fd5b600082613301576133016132dc565b500490565b8082018082111561042d5761042d6132af565b8181038181111561042d5761042d6132af565b6000823560be1983360301811261334257600080fd5b9190910192915050565b60008235601e1983360301811261334257600080fd5b6000808335601e1984360301811261337957600080fd5b8301803591506001600160401b0382111561339357600080fd5b6020019150368190038213156133a857600080fd5b9250929050565b6000602082840312156133c157600080fd5b81356001600160401b03808211156133d857600080fd5b9083019061010082860312156133ed57600080fd5b6133f5612e39565b82358281111561340457600080fd5b6134108782860161309d565b82525060208301358281111561342557600080fd5b6134318782860161309d565b60208301525060408301358281111561344957600080fd5b6134558782860161309d565b60408301525060608301358281111561346d57600080fd5b6134798782860161309d565b60608301525060808301358281111561349157600080fd5b61349d8782860161309d565b60808301525060a0830135828111156134b557600080fd5b6134c18782860161309d565b60a08301525060c083013560c082015260e0830135828111156134e357600080fd5b6134ef8782860161309d565b60e08301525095945050505050565b60008251613342818460208701612bcb565b601f82111561355c576000816000526020600020601f850160051c810160208610156135395750805b601f850160051c820191505b8181101561355857828155600101613545565b5050505b505050565b81516001600160401b0381111561357a5761357a612e23565b61358e816135888454613265565b84613510565b602080601f8311600181146135c357600084156135ab5750858301515b600019600386901b1c1916600185901b178555613558565b600085815260208120601f198616915b828110156135f2578886015182559484019460019091019084016135d3565b50858210156136105787850151600019600388901b60f8161c191681555b5050505050600190811b01905550565b83815282602082015260606040820152600061363f6060830184612bef565b95945050505050565b6020808252600f908201526e151c985b9cd9995c8819985a5b1959608a1b604082015260600190565b600060018201613683576136836132af565b5060010190565b60008060006060848603121561369f57600080fd5b83519250602084015180151581146136b657600080fd5b80925050604084015190509250925092565b6000826136d7576136d76132dc565b50069056fea2646970667358221220d026b00fbda92aaf786de2676265b99f55bbfe315569c90fcf6e4735cd69ffee64736f6c63430008190033",
  "linkReferences": {},
  "deployedLinkReferences": {}
}