{
  "_format": "hh-sol-artifact-1",
  "contractName": "insuredFlightsAgency",
  "sourceName": "contracts/InsuredFlights/InsuredFlightsAgency.sol",
  "abi": [
    {
      "inputs": [
        {
          "internalType": "uint256",
          "name": "_insurancePrice",
          "type": "uint256"
        }
      ],
      "stateMutability": "nonpayable",
      "type": "constructor"
    },
    {
      "anonymous": false,
      "inputs": [
        {
          "indexed": false,
          "internalType": "uint256",
          "name": "insuredFlightId",
          "type": "uint256"
        },
        {
          "indexed": false,
          "internalType": "address",
          "name": "passenger",
          "type": "address"
        },
        {
          "indexed": false,
          "internalType": "uint256",
          "name": "secretNumber",
          "type": "uint256"
        }
      ],
      "name": "FlightClaimed",
      "type": "event"
    },
    {
      "anonymous": false,
      "inputs": [
        {
          "indexed": false,
          "internalType": "uint256",
          "name": "insuredFlightId",
          "type": "uint256"
        },
        {
          "indexed": false,
          "internalType": "uint256",
          "name": "flightDelayedTime",
          "type": "uint256"
        },
        {
          "indexed": false,
          "internalType": "string",
          "name": "flightStatus",
          "type": "string"
        }
      ],
      "name": "FlightInfoUpdated",
      "type": "event"
    },
    {
      "anonymous": false,
      "inputs": [
        {
          "indexed": false,
          "internalType": "uint256",
          "name": "insuredFlightId",
          "type": "uint256"
        }
      ],
      "name": "FlightInsured",
      "type": "event"
    },
    {
      "inputs": [],
      "name": "INSURANCE_PRICE",
      "outputs": [
        {
          "internalType": "uint256",
          "name": "",
          "type": "uint256"
        }
      ],
      "stateMutability": "view",
      "type": "function"
    },
    {
      "inputs": [
        {
          "components": [
            {
              "internalType": "bytes32[]",
              "name": "merkleProof",
              "type": "bytes32[]"
            },
            {
              "components": [
                {
                  "internalType": "bytes32",
                  "name": "attestationType",
                  "type": "bytes32"
                },
                {
                  "internalType": "bytes32",
                  "name": "sourceId",
                  "type": "bytes32"
                },
                {
                  "internalType": "uint64",
                  "name": "votingRound",
                  "type": "uint64"
                },
                {
                  "internalType": "uint64",
                  "name": "lowestUsedTimestamp",
                  "type": "uint64"
                },
                {
                  "components": [
                    {
                      "internalType": "string",
                      "name": "url",
                      "type": "string"
                    },
                    {
                      "internalType": "string",
                      "name": "httpMethod",
                      "type": "string"
                    },
                    {
                      "internalType": "string",
                      "name": "headers",
                      "type": "string"
                    },
                    {
                      "internalType": "string",
                      "name": "queryParams",
                      "type": "string"
                    },
                    {
                      "internalType": "string",
                      "name": "body",
                      "type": "string"
                    },
                    {
                      "internalType": "string",
                      "name": "postProcessJq",
                      "type": "string"
                    },
                    {
                      "internalType": "string",
                      "name": "abiSignature",
                      "type": "string"
                    }
                  ],
                  "internalType": "struct IWeb2Json.RequestBody",
                  "name": "requestBody",
                  "type": "tuple"
                },
                {
                  "components": [
                    {
                      "internalType": "bytes",
                      "name": "abiEncodedData",
                      "type": "bytes"
                    }
                  ],
                  "internalType": "struct IWeb2Json.ResponseBody",
                  "name": "responseBody",
                  "type": "tuple"
                }
              ],
              "internalType": "struct IWeb2Json.Response",
              "name": "data",
              "type": "tuple"
            }
          ],
          "internalType": "struct IWeb2Json.Proof",
          "name": "data",
          "type": "tuple"
        },
        {
          "internalType": "uint256",
          "name": "insuredFlightId",
          "type": "uint256"
        }
      ],
      "name": "_applyUpdate",
      "outputs": [],
      "stateMutability": "nonpayable",
      "type": "function"
    },
    {
      "inputs": [],
      "name": "_generator",
      "outputs": [
        {
          "internalType": "contract RandomNumberV2Interface",
          "name": "",
          "type": "address"
        }
      ],
      "stateMutability": "view",
      "type": "function"
    },
    {
      "inputs": [
        {
          "internalType": "uint256",
          "name": "",
          "type": "uint256"
        }
      ],
      "name": "_insuranceClaims",
      "outputs": [
        {
          "internalType": "uint256",
          "name": "amountClaimed",
          "type": "uint256"
        },
        {
          "internalType": "uint256",
          "name": "dateClaimed",
          "type": "uint256"
        },
        {
          "internalType": "address",
          "name": "insuree",
          "type": "address"
        },
        {
          "internalType": "uint256",
          "name": "insuranceId",
          "type": "uint256"
        }
      ],
      "stateMutability": "view",
      "type": "function"
    },
    {
      "inputs": [
        {
          "internalType": "uint256",
          "name": "",
          "type": "uint256"
        },
        {
          "internalType": "uint256",
          "name": "",
          "type": "uint256"
        }
      ],
      "name": "_insuranceFlightPassengers",
      "outputs": [
        {
          "internalType": "address",
          "name": "wallet",
          "type": "address"
        },
        {
          "internalType": "string",
          "name": "ticketType",
          "type": "string"
        },
        {
          "internalType": "uint256",
          "name": "ticketPrice",
          "type": "uint256"
        }
      ],
      "stateMutability": "view",
      "type": "function"
    },
    {
      "inputs": [
        {
          "internalType": "uint256",
          "name": "",
          "type": "uint256"
        }
      ],
      "name": "_insuredFlight",
      "outputs": [
        {
          "internalType": "string",
          "name": "aircraftIcao",
          "type": "string"
        },
        {
          "internalType": "string",
          "name": "aircraftName",
          "type": "string"
        },
        {
          "internalType": "string",
          "name": "flightDate",
          "type": "string"
        },
        {
          "internalType": "string",
          "name": "departureAirport",
          "type": "string"
        },
        {
          "internalType": "string",
          "name": "arrivalAirport",
          "type": "string"
        },
        {
          "internalType": "uint256",
          "name": "flightDelayedTime",
          "type": "uint256"
        },
        {
          "internalType": "string",
          "name": "flightNo",
          "type": "string"
        },
        {
          "internalType": "uint256",
          "name": "passengers",
          "type": "uint256"
        },
        {
          "internalType": "string",
          "name": "status",
          "type": "string"
        },
        {
          "internalType": "uint256",
          "name": "lastChecked",
          "type": "uint256"
        },
        {
          "internalType": "address",
          "name": "insurer",
          "type": "address"
        },
        {
          "internalType": "uint256",
          "name": "insuranceId",
          "type": "uint256"
        }
      ],
      "stateMutability": "view",
      "type": "function"
    },
    {
      "inputs": [
        {
          "internalType": "uint256",
          "name": "",
          "type": "uint256"
        }
      ],
      "name": "_insuredFlightPrice",
      "outputs": [
        {
          "internalType": "uint256",
          "name": "",
          "type": "uint256"
        }
      ],
      "stateMutability": "view",
      "type": "function"
    },
    {
      "inputs": [],
      "name": "_maxNumber",
      "outputs": [
        {
          "internalType": "uint256",
          "name": "",
          "type": "uint256"
        }
      ],
      "stateMutability": "view",
      "type": "function"
    },
    {
      "inputs": [],
      "name": "_totalAmountInsurance",
      "outputs": [
        {
          "internalType": "uint256",
          "name": "",
          "type": "uint256"
        }
      ],
      "stateMutability": "view",
      "type": "function"
    },
    {
      "inputs": [
        {
          "components": [
            {
              "internalType": "string",
              "name": "aircraft_name",
              "type": "string"
            },
            {
              "internalType": "string",
              "name": "aircraft_reg",
              "type": "string"
            },
            {
              "internalType": "string",
              "name": "flight_no",
              "type": "string"
            },
            {
              "internalType": "string",
              "name": "flight_date",
              "type": "string"
            },
            {
              "internalType": "string",
              "name": "departure_airport",
              "type": "string"
            },
            {
              "internalType": "string",
              "name": "arrival_airport",
              "type": "string"
            },
            {
              "internalType": "uint256",
              "name": "flight_delayed_time",
              "type": "uint256"
            },
            {
              "internalType": "string",
              "name": "flight_status",
              "type": "string"
            }
          ],
          "internalType": "struct DataTransportObject",
          "name": "dto",
          "type": "tuple"
        }
      ],
      "name": "abiSignatureHack",
      "outputs": [],
      "stateMutability": "pure",
      "type": "function"
    },
    {
      "inputs": [
        {
          "internalType": "uint256",
          "name": "insuredFlightId",
          "type": "uint256"
        },
        {
          "internalType": "string",
          "name": "flight_no",
          "type": "string"
        },
        {
          "internalType": "uint256",
          "name": "predictedNumber",
          "type": "uint256"
        }
      ],
      "name": "claimInsurance",
      "outputs": [
        {
          "internalType": "uint256",
          "name": "",
          "type": "uint256"
        },
        {
          "internalType": "bool",
          "name": "",
          "type": "bool"
        }
      ],
      "stateMutability": "nonpayable",
      "type": "function"
    },
    {
      "inputs": [
        {
          "components": [
            {
              "internalType": "address",
              "name": "wallet",
              "type": "address"
            },
            {
              "internalType": "string",
              "name": "ticketType",
              "type": "string"
            },
            {
              "internalType": "uint256",
              "name": "ticketPrice",
              "type": "uint256"
            }
          ],
          "internalType": "struct Passenger[]",
          "name": "passengers",
          "type": "tuple[]"
        }
      ],
      "name": "getCostOfInsurance",
      "outputs": [
        {
          "internalType": "uint256",
          "name": "",
          "type": "uint256"
        }
      ],
      "stateMutability": "view",
      "type": "function"
    },
    {
      "inputs": [
        {
          "internalType": "uint256",
          "name": "_flightId",
          "type": "uint256"
        }
      ],
      "name": "getFlightPassengers",
      "outputs": [
        {
          "components": [
            {
              "internalType": "address",
              "name": "wallet",
              "type": "address"
            },
            {
              "internalType": "string",
              "name": "ticketType",
              "type": "string"
            },
            {
              "internalType": "uint256",
              "name": "ticketPrice",
              "type": "uint256"
            }
          ],
          "internalType": "struct Passenger[]",
          "name": "",
          "type": "tuple[]"
        }
      ],
      "stateMutability": "view",
      "type": "function"
    },
    {
      "inputs": [
        {
          "internalType": "uint256",
          "name": "_insuredClaimId",
          "type": "uint256"
        }
      ],
      "name": "getInsuranceClaim",
      "outputs": [
        {
          "internalType": "uint256",
          "name": "amountClaimed",
          "type": "uint256"
        },
        {
          "internalType": "uint256",
          "name": "dateClaimed",
          "type": "uint256"
        },
        {
          "internalType": "address",
          "name": "insuree",
          "type": "address"
        },
        {
          "internalType": "uint256",
          "name": "insuranceId",
          "type": "uint256"
        }
      ],
      "stateMutability": "view",
      "type": "function"
    },
    {
      "inputs": [],
      "name": "getInsuranceClaimsCount",
      "outputs": [
        {
          "internalType": "uint256",
          "name": "",
          "type": "uint256"
        }
      ],
      "stateMutability": "view",
      "type": "function"
    },
    {
      "inputs": [],
      "name": "getInsurancePrice",
      "outputs": [
        {
          "internalType": "uint256",
          "name": "",
          "type": "uint256"
        }
      ],
      "stateMutability": "view",
      "type": "function"
    },
    {
      "inputs": [
        {
          "internalType": "uint256",
          "name": "insuredFlightId",
          "type": "uint256"
        }
      ],
      "name": "getInsureFlight",
      "outputs": [
        {
          "internalType": "string",
          "name": "aircraftIcao",
          "type": "string"
        },
        {
          "internalType": "string",
          "name": "aircraftName",
          "type": "string"
        },
        {
          "internalType": "string",
          "name": "flightDate",
          "type": "string"
        },
        {
          "internalType": "string",
          "name": "departureAirport",
          "type": "string"
        },
        {
          "internalType": "string",
          "name": "arrivalAirport",
          "type": "string"
        },
        {
          "internalType": "uint256",
          "name": "flightDelayedTime",
          "type": "uint256"
        },
        {
          "internalType": "string",
          "name": "flightNo",
          "type": "string"
        },
        {
          "internalType": "uint256",
          "name": "passengers",
          "type": "uint256"
        },
        {
          "internalType": "string",
          "name": "status",
          "type": "string"
        },
        {
          "internalType": "uint256",
          "name": "lastChecked",
          "type": "uint256"
        },
        {
          "internalType": "address",
          "name": "insurer",
          "type": "address"
        },
        {
          "internalType": "uint256",
          "name": "insuranceId",
          "type": "uint256"
        }
      ],
      "stateMutability": "view",
      "type": "function"
    },
    {
      "inputs": [],
      "name": "getInsuredFlightsCount",
      "outputs": [
        {
          "internalType": "uint256",
          "name": "",
          "type": "uint256"
        }
      ],
      "stateMutability": "view",
      "type": "function"
    },
    {
      "inputs": [],
      "name": "insuranceClaimsIds",
      "outputs": [
        {
          "internalType": "uint256",
          "name": "",
          "type": "uint256"
        }
      ],
      "stateMutability": "view",
      "type": "function"
    },
    {
      "inputs": [],
      "name": "insurance_delay_time",
      "outputs": [
        {
          "internalType": "uint256",
          "name": "",
          "type": "uint256"
        }
      ],
      "stateMutability": "view",
      "type": "function"
    },
    {
      "inputs": [
        {
          "internalType": "string",
          "name": "aircraft_icao",
          "type": "string"
        },
        {
          "internalType": "string",
          "name": "flight_no",
          "type": "string"
        },
        {
          "components": [
            {
              "internalType": "address",
              "name": "wallet",
              "type": "address"
            },
            {
              "internalType": "string",
              "name": "ticketType",
              "type": "string"
            },
            {
              "internalType": "uint256",
              "name": "ticketPrice",
              "type": "uint256"
            }
          ],
          "internalType": "struct Passenger[]",
          "name": "passengers",
          "type": "tuple[]"
        },
        {
          "components": [
            {
              "internalType": "bytes32[]",
              "name": "merkleProof",
              "type": "bytes32[]"
            },
            {
              "components": [
                {
                  "internalType": "bytes32",
                  "name": "attestationType",
                  "type": "bytes32"
                },
                {
                  "internalType": "bytes32",
                  "name": "sourceId",
                  "type": "bytes32"
                },
                {
                  "internalType": "uint64",
                  "name": "votingRound",
                  "type": "uint64"
                },
                {
                  "internalType": "uint64",
                  "name": "lowestUsedTimestamp",
                  "type": "uint64"
                },
                {
                  "components": [
                    {
                      "internalType": "string",
                      "name": "url",
                      "type": "string"
                    },
                    {
                      "internalType": "string",
                      "name": "httpMethod",
                      "type": "string"
                    },
                    {
                      "internalType": "string",
                      "name": "headers",
                      "type": "string"
                    },
                    {
                      "internalType": "string",
                      "name": "queryParams",
                      "type": "string"
                    },
                    {
                      "internalType": "string",
                      "name": "body",
                      "type": "string"
                    },
                    {
                      "internalType": "string",
                      "name": "postProcessJq",
                      "type": "string"
                    },
                    {
                      "internalType": "string",
                      "name": "abiSignature",
                      "type": "string"
                    }
                  ],
                  "internalType": "struct IWeb2Json.RequestBody",
                  "name": "requestBody",
                  "type": "tuple"
                },
                {
                  "components": [
                    {
                      "internalType": "bytes",
                      "name": "abiEncodedData",
                      "type": "bytes"
                    }
                  ],
                  "internalType": "struct IWeb2Json.ResponseBody",
                  "name": "responseBody",
                  "type": "tuple"
                }
              ],
              "internalType": "struct IWeb2Json.Response",
              "name": "data",
              "type": "tuple"
            }
          ],
          "internalType": "struct IWeb2Json.Proof",
          "name": "data",
          "type": "tuple"
        }
      ],
      "name": "insureFlight",
      "outputs": [],
      "stateMutability": "payable",
      "type": "function"
    },
    {
      "inputs": [],
      "name": "insuredFlightIds",
      "outputs": [
        {
          "internalType": "uint256",
          "name": "",
          "type": "uint256"
        }
      ],
      "stateMutability": "view",
      "type": "function"
    },
    {
      "inputs": [
        {
          "internalType": "uint256",
          "name": "",
          "type": "uint256"
        },
        {
          "internalType": "address",
          "name": "",
          "type": "address"
        }
      ],
      "name": "insuredFlightPassengersStatus",
      "outputs": [
        {
          "internalType": "bool",
          "name": "",
          "type": "bool"
        }
      ],
      "stateMutability": "view",
      "type": "function"
    },
    {
      "inputs": [],
      "name": "owner",
      "outputs": [
        {
          "internalType": "address",
          "name": "",
          "type": "address"
        }
      ],
      "stateMutability": "view",
      "type": "function"
    },
    {
      "inputs": [
        {
          "internalType": "uint256",
          "name": "_insurancePrice",
          "type": "uint256"
        }
      ],
      "name": "setInsurancePrice",
      "outputs": [],
      "stateMutability": "nonpayable",
      "type": "function"
    },
    {
      "inputs": [
        {
          "internalType": "address",
          "name": "to",
          "type": "address"
        }
      ],
      "name": "transferAccumulatedFees",
      "outputs": [],
      "stateMutability": "nonpayable",
      "type": "function"
    },
    {
      "stateMutability": "payable",
      "type": "receive"
    }
  ],
  "bytecode": "0x608060405234801561001057600080fd5b5060405161332638038061332683398101604081905261002f916101ea565b6002819055601e600355600c80546001600160a01b03191633179055610053610081565b600b80546001600160a01b0319166001600160a01b039290921691909117905561007b610152565b50610293565b600073ad67fe66660fb8dfe9d6b1b4240d8650e30f60196001600160a01b031663159354a26040516020016100d8906020808252600e908201526d2930b73237b6a73ab6b132b92b1960911b604082015260600190565b604051602081830303815290604052805190602001206040518263ffffffff1660e01b815260040161010c91815260200190565b602060405180830381865afa158015610129573d6000803e3d6000fd5b505050506040513d601f19601f8201168201806040525081019061014d9190610203565b905090565b600b546040805163dbdff2c160e01b815290516000926001600160a01b03169163dbdff2c19160048083019260609291908290030181865afa15801561019c573d6000803e3d6000fd5b505050506040513d601f19601f820116820180604052508101906101c09190610233565b505090506014816101d19190610271565b6009805461ffff191661ffff9290921691909117905550565b6000602082840312156101fc57600080fd5b5051919050565b60006020828403121561021557600080fd5b81516001600160a01b038116811461022c57600080fd5b9392505050565b60008060006060848603121561024857600080fd5b835192506020840151801515811461025f57600080fd5b80925050604084015190509250925092565b60008261028e57634e487b7160e01b600052601260045260246000fd5b500690565b613084806102a26000396000f3fe6080604052600436106101855760003560e01c80638289b588116100d1578063c76fe1181161008a578063e95e70b411610064578063e95e70b4146104dd578063ea0b60e61461050a578063ec091c1714610539578063fb458f9b1461055957600080fd5b8063c76fe11814610494578063cc75384a146104b4578063e0d4153e146104c757600080fd5b80638289b5881461039e5780638c774f15146103e95780638da5cb5b14610409578063945b539514610429578063a6c6b0cc1461043f578063c517f0691461045f57600080fd5b8063390257681161013e57806351116f471161011857806351116f471461031b578063621690df1461033b578063771b00fd146103505780638060156b1461036657600080fd5b8063390257681461026a5780633c9e6140146102805780633f645bbc1461029e57600080fd5b806303a07243146101915780630d96f5f5146101b95780631a889b8d146101f15780631f69d1c114610206578063210d595b1461022857806322526a571461025557600080fd5b3661018c57005b600080fd5b34801561019d57600080fd5b506101a6601481565b6040519081526020015b60405180910390f35b3480156101c557600080fd5b506101d96101d4366004612138565b61056f565b6040516101b09c9b9a999897969594939291906121a1565b3480156101fd57600080fd5b506001546101a6565b34801561021257600080fd5b50610226610221366004612286565b610a41565b005b34801561023457600080fd5b506101a6610243366004612138565b60056020526000908152604090205481565b34801561026157600080fd5b506002546101a6565b34801561027657600080fd5b506101a660035481565b34801561028c57600080fd5b5061022661029b3660046122a3565b50565b3480156102aa57600080fd5b506102ec6102b9366004612138565b6006602052600090815260409020805460018201546002830154600390930154919290916001600160a01b039091169084565b6040516101b0949392919093845260208401929092526001600160a01b03166040830152606082015260800190565b34801561032757600080fd5b506101a66103363660046124cc565b610aec565b34801561034757600080fd5b506000546101a6565b34801561035c57600080fd5b506101a6600a5481565b34801561037257600080fd5b50600b54610386906001600160a01b031681565b6040516001600160a01b0390911681526020016101b0565b3480156103aa57600080fd5b506103d96103b9366004612508565b600860209081526000928352604080842090915290825290205460ff1681565b60405190151581526020016101b0565b3480156103f557600080fd5b506101d9610404366004612138565b610b59565b34801561041557600080fd5b50600c54610386906001600160a01b031681565b34801561043557600080fd5b506101a660015481565b34801561044b57600080fd5b506102ec61045a366004612138565b610f75565b34801561046b57600080fd5b5061047f61047a366004612538565b61100e565b604080519283529015156020830152016101b0565b3480156104a057600080fd5b506102266104af36600461259f565b611031565b6102266104c23660046125e3565b61149c565b3480156104d357600080fd5b506101a660005481565b3480156104e957600080fd5b506104fd6104f8366004612138565b611666565b6040516101b0919061268f565b34801561051657600080fd5b5061052a61052536600461271d565b61178a565b6040516101b09392919061273f565b34801561054557600080fd5b50610226610554366004612138565b611860565b34801561056557600080fd5b506101a660025481565b606080606080606060006060600060606000806000808d11801561059557506000548d11155b6105e65760405162461bcd60e51b815260206004820152601e60248201527f4e6f20696e737572656420666c6967687420776974682073756368206964000060448201526064015b60405180910390fd5b6000600460008f81526020019081526020016000209050806000018160010182600201836003018460040185600501548660060187600701548860080189600901548a600a0160009054906101000a90046001600160a01b03168b600b01548b805461065190612773565b80601f016020809104026020016040519081016040528092919081815260200182805461067d90612773565b80156106ca5780601f1061069f576101008083540402835291602001916106ca565b820191906000526020600020905b8154815290600101906020018083116106ad57829003601f168201915b50505050509b508a80546106dd90612773565b80601f016020809104026020016040519081016040528092919081815260200182805461070990612773565b80156107565780601f1061072b57610100808354040283529160200191610756565b820191906000526020600020905b81548152906001019060200180831161073957829003601f168201915b50505050509a5089805461076990612773565b80601f016020809104026020016040519081016040528092919081815260200182805461079590612773565b80156107e25780601f106107b7576101008083540402835291602001916107e2565b820191906000526020600020905b8154815290600101906020018083116107c557829003601f168201915b505050505099508880546107f590612773565b80601f016020809104026020016040519081016040528092919081815260200182805461082190612773565b801561086e5780601f106108435761010080835404028352916020019161086e565b820191906000526020600020905b81548152906001019060200180831161085157829003601f168201915b5050505050985087805461088190612773565b80601f01602080910402602001604051908101604052809291908181526020018280546108ad90612773565b80156108fa5780601f106108cf576101008083540402835291602001916108fa565b820191906000526020600020905b8154815290600101906020018083116108dd57829003601f168201915b5050505050975085805461090d90612773565b80601f016020809104026020016040519081016040528092919081815260200182805461093990612773565b80156109865780601f1061095b57610100808354040283529160200191610986565b820191906000526020600020905b81548152906001019060200180831161096957829003601f168201915b5050505050955083805461099990612773565b80601f01602080910402602001604051908101604052809291908181526020018280546109c590612773565b8015610a125780601f106109e757610100808354040283529160200191610a12565b820191906000526020600020905b8154815290600101906020018083116109f557829003601f168201915b505050505093509c509c509c509c509c509c509c509c509c509c509c509c505091939597999b5091939597999b565b600c546001600160a01b03163314610a6b5760405162461bcd60e51b81526004016105dd906127a7565b6001600160a01b038116610ab35760405162461bcd60e51b815260206004820152600f60248201526e496e76616c6964206164647265737360881b60448201526064016105dd565b6040516001600160a01b038216904780156108fc02916000818181858888f19350505050158015610ae8573d6000803e3d6000fd5b5050565b600080805b8351811015610b44576064848281518110610b0e57610b0e6127e8565b602002602001015160400151600a610b269190612814565b610b309190612841565b610b3a9083612855565b9150600101610af1565b50600254610b529082612855565b9392505050565b600460205260009081526040902080548190610b7490612773565b80601f0160208091040260200160405190810160405280929190818152602001828054610ba090612773565b8015610bed5780601f10610bc257610100808354040283529160200191610bed565b820191906000526020600020905b815481529060010190602001808311610bd057829003601f168201915b505050505090806001018054610c0290612773565b80601f0160208091040260200160405190810160405280929190818152602001828054610c2e90612773565b8015610c7b5780601f10610c5057610100808354040283529160200191610c7b565b820191906000526020600020905b815481529060010190602001808311610c5e57829003601f168201915b505050505090806002018054610c9090612773565b80601f0160208091040260200160405190810160405280929190818152602001828054610cbc90612773565b8015610d095780601f10610cde57610100808354040283529160200191610d09565b820191906000526020600020905b815481529060010190602001808311610cec57829003601f168201915b505050505090806003018054610d1e90612773565b80601f0160208091040260200160405190810160405280929190818152602001828054610d4a90612773565b8015610d975780601f10610d6c57610100808354040283529160200191610d97565b820191906000526020600020905b815481529060010190602001808311610d7a57829003601f168201915b505050505090806004018054610dac90612773565b80601f0160208091040260200160405190810160405280929190818152602001828054610dd890612773565b8015610e255780601f10610dfa57610100808354040283529160200191610e25565b820191906000526020600020905b815481529060010190602001808311610e0857829003601f168201915b505050505090806005015490806006018054610e4090612773565b80601f0160208091040260200160405190810160405280929190818152602001828054610e6c90612773565b8015610eb95780601f10610e8e57610100808354040283529160200191610eb9565b820191906000526020600020905b815481529060010190602001808311610e9c57829003601f168201915b505050505090806007015490806008018054610ed490612773565b80601f0160208091040260200160405190810160405280929190818152602001828054610f0090612773565b8015610f4d5780601f10610f2257610100808354040283529160200191610f4d565b820191906000526020600020905b815481529060010190602001808311610f3057829003601f168201915b505050506009830154600a840154600b90940154929390926001600160a01b0390911691508c565b600080600080600085118015610f8d57506001548511155b610fd95760405162461bcd60e51b815260206004820152601f60248201527f4e6f20696e737572616e636520636c61696d207769746820737563682069640060448201526064016105dd565b505050600091825250600660205260409020805460018201546002830154600390930154919390926001600160a01b03169190565b60008061101b85856118ee565b6110258584611a74565b91509150935093915050565b6000818152600460205260409020600b01541580159061106357506000805482825260046020526040909120600b0154105b6110a35760405162461bcd60e51b8152602060048201526011602482015270496e76616c696420496e737572616e636560781b60448201526064016105dd565b6000818152600460205260409020600a01546001600160a01b03163314806111195750600081815260076020526040902054158015906111195750600081815260076020526040812080543392906110fd576110fd6127e8565b60009182526020909120600390910201546001600160a01b0316145b8061112e5750600c546001600160a01b031633145b6111955760405162461bcd60e51b815260206004820152603260248201527f45697468657220496e7375726572206f722050617373656e6765722063616e20604482015271636865636b20666c696768742064656c617960701b60648201526084016105dd565b7f6b5d3a2590399d029e42f38701ccbff2ae97111c4fb79a26cb3cadd8295de3a4600460008381526020019081526020016000206008016040516111d991906128db565b60405180910390201461122e5760405162461bcd60e51b815260206004820152601d60248201527f466c696768742073746174757320616c7265616479207570646174656400000060448201526064016105dd565b6000818152600460205260409020600901546102589061124e90426128e7565b116112aa5760405162461bcd60e51b815260206004820152602660248201527f466c6967687420636865636b206973206174203130206d696e7574657320696e6044820152651d195c9d985b60d21b60648201526084016105dd565b6112b382611c32565b6112ef5760405162461bcd60e51b815260206004820152600d60248201526c24b73b30b634b210383937b7b360991b60448201526064016105dd565b60006112fe60208401846128fa565b61130c9060a081019061291a565b6113169080612930565b9050116113525760405162461bcd60e51b815260206004820152600a602482015269456d707479206461746160b01b60448201526064016105dd565b600061136160208401846128fa565b61136f9060a081019061291a565b6113799080612930565b8101906113869190612976565b90506003548160c00151101580156113c957507f9651c33eb23976f7c15240e86443dc2ded40546fa9ba457a14abab4090e023b58160e001518051906020012014155b801561140057507fe65c7acc8e7a283a20ab50c3226bc3bf6664a65e41f8eda762213d674c0829628160e001518051906020012014155b1561143f5760e08101516000838152600460205260409020600801906114269082612b16565b5060c08101516000838152600460205260409020600501555b60008281526004602052604090819020426009820155600581015491517fad522330e0a333ea20b30192e7bf44fd414759973e0d47d6e02d4b5f0e9ceae49261148f928692600890910190612bd5565b60405180910390a1505050565b6114a582610aec565b34146114e45760405162461bcd60e51b815260206004820152600e60248201526d125b9d985b1a5908185b5bdd5b9d60921b60448201526064016105dd565b6114ed81611c32565b6115295760405162461bcd60e51b815260206004820152600d60248201526c24b73b30b634b210383937b7b360991b60448201526064016105dd565b600061153860208301836128fa565b6115469060a081019061291a565b6115509080612930565b90501161158c5760405162461bcd60e51b815260206004820152600a602482015269456d707479206461746160b01b60448201526064016105dd565b600061159b60208301836128fa565b6115a99060a081019061291a565b6115b39080612930565b8101906115c09190612976565b6040805180820190915260098152681cd8da19591d5b195960ba1b60209182015260e082015180519101209091507f6b5d3a2590399d029e42f38701ccbff2ae97111c4fb79a26cb3cadd8295de3a4146116535760405162461bcd60e51b8152602060048201526014602482015273119b1a59da1d081b9bdd081cd8da19591d5b195960621b60448201526064016105dd565b61165f85858386611cae565b5050505050565b606060076000838152602001908152602001600020805480602002602001604051908101604052809291908181526020016000905b8282101561177f57600084815260209081902060408051606081019091526003850290910180546001600160a01b0316825260018101805492939192918401916116e490612773565b80601f016020809104026020016040519081016040528092919081815260200182805461171090612773565b801561175d5780601f106117325761010080835404028352916020019161175d565b820191906000526020600020905b81548152906001019060200180831161174057829003601f168201915b505050505081526020016002820154815250508152602001906001019061169b565b505050509050919050565b600760205281600052604060002081815481106117a657600080fd5b6000918252602090912060039091020180546001820180546001600160a01b0390921694509192506117d790612773565b80601f016020809104026020016040519081016040528092919081815260200182805461180390612773565b80156118505780601f1061182557610100808354040283529160200191611850565b820191906000526020600020905b81548152906001019060200180831161183357829003601f168201915b5050505050908060020154905083565b600c546001600160a01b0316331461188a5760405162461bcd60e51b81526004016105dd906127a7565b600081116118e95760405162461bcd60e51b815260206004820152602660248201527f496e737572616e6365207072696365206d75737420626520677265617465722060448201526507468616e20360d41b60648201526084016105dd565b600255565b806040516020016118ff9190612c74565b60408051601f1981840301815282825280516020918201206000868152600483529290922091926119349260060191016128db565b60405160208183030381529060405280519060200120146119975760405162461bcd60e51b815260206004820152601760248201527f466c69676874204e6f20646f65736e2774206d6174636800000000000000000060448201526064016105dd565b60035460008381526004602052604090206005015410156119ef5760405162461bcd60e51b8152602060048201526012602482015271119b1a59da1d08139bdd0811195b185e595960721b60448201526064016105dd565b600082815260086020908152604080832033845290915290205460ff16610ae85760405162461bcd60e51b815260206004820152603360248201527f50617373656e676572206e6f7420696e7375726564204f5220496e737572616e60448201527218d948185b1c9958591e481c995919595b5959606a1b60648201526084016105dd565b60008281526008602090815260408083203384529091528120805460ff1916905560018054829182611aa583612c86565b909155505060095460008581526005602052604081205461ffff90921691606490611ad190600a612814565b611adb9190612841565b9050600085600003611b2457336108fc611af6600285612841565b6040518115909202916000818181858888f19350505050158015611b1e573d6000803e3d6000fd5b50611b94565b828603611b6257604051339083156108fc029084906000818181858888f19350505050158015611b58573d6000803e3d6000fd5b5060019050611b94565b60405133906000906706f05b59d3b200009082818181858883f19350505050158015611b92573d6000803e3d6000fd5b505b600180546000908152600660205260408082208590558254825280822042908401558254825280822060020180546001600160a01b031916331790559154815220600301879055611be3611fce565b604080518881523360208201529081018490527f1527a28ce4fd3db6312cdc84eb52b89b5da4269ae6a4f7b5854029a914425fb99060600160405180910390a1919350909150505b9250929050565b6000611c3c612066565b6001600160a01b0316630aa05fe3836040518263ffffffff1660e01b8152600401611c679190612f20565b602060405180830381865afa158015611c84573d6000803e3d6000fd5b505050506040513d601f19601f82011682018060405250810190611ca89190612fcd565b92915050565b600080549080611cbd83612c86565b909155505060008054808252600460205260408220909190611cdf8782612b16565b508351600083815260046020526040902060010190611cfe9082612b16565b506060840151600083815260046020526040902060020190611d209082612b16565b506080840151600083815260046020526040902060030190611d429082612b16565b5060a084015160008381526004602081905260409091200190611d659082612b16565b5060c084015160008381526004602052604090206005810191909155600601611d8e8682612b16565b5082516000838152600460205260409020600781019190915560e0850151600890910190611dbc9082612b16565b506000828152600460205260408120426009820155600a810180546001600160a01b03191633179055600b018390555b8351811015611f7a5760008381526007602052604090208451859083908110611e1757611e176127e8565b602090810291909101810151825460018082018555600094855293839020825160039092020180546001600160a01b0319166001600160a01b03909216919091178155918101519092820190611e6d9082612b16565b5060409182015160029091015560008481526008602052908120855160019290879085908110611e9f57611e9f6127e8565b6020026020010151600001516001600160a01b03166001600160a01b0316815260200190815260200160002060006101000a81548160ff0219169083151502179055506064848281518110611ef657611ef66127e8565b602002602001015160400151600a611f0e9190612814565b611f189190612841565b600a6000828254611f299190612855565b925050819055506064848281518110611f4457611f446127e8565b602002602001015160400151600a611f5c9190612814565b611f669190612841565b611f709083612855565b9150600101611dec565b5060008281526005602052604090819020829055517fc8025f815ce5846bb23a1e70c00825ff76c450559769399af7e28de99a03405e90611fbe9084815260200190565b60405180910390a1505050505050565b600b546040805163dbdff2c160e01b815290516000926001600160a01b03169163dbdff2c19160048083019260609291908290030181865afa158015612018573d6000803e3d6000fd5b505050506040513d601f19601f8201168201806040525081019061203c9190612fe8565b5050905060148161204d919061301d565b6009805461ffff191661ffff9290921691909117905550565b600073ad67fe66660fb8dfe9d6b1b4240d8650e30f60196001600160a01b031663159354a26040516020016120be906020808252600f908201526e233231ab32b934b334b1b0ba34b7b760891b604082015260600190565b604051602081830303815290604052805190602001206040518263ffffffff1660e01b81526004016120f291815260200190565b602060405180830381865afa15801561210f573d6000803e3d6000fd5b505050506040513d601f19601f820116820180604052508101906121339190613031565b905090565b60006020828403121561214a57600080fd5b5035919050565b60005b8381101561216c578181015183820152602001612154565b50506000910152565b6000815180845261218d816020860160208601612151565b601f01601f19169290920160200192915050565b610180815260006121b661018083018f612175565b82810360208401526121c8818f612175565b905082810360408401526121dc818e612175565b905082810360608401526121f0818d612175565b90508281036080840152612204818c612175565b90508960a084015282810360c084015261221e818a612175565b90508760e08401528281036101008401526122398188612175565b915050846101208301526122596101408301856001600160a01b03169052565b826101608301529d9c50505050505050505050505050565b6001600160a01b038116811461029b57600080fd5b60006020828403121561229857600080fd5b8135610b5281612271565b6000602082840312156122b557600080fd5b81356001600160401b038111156122cb57600080fd5b82016101008185031215610b5257600080fd5b634e487b7160e01b600052604160045260246000fd5b604051606081016001600160401b0381118282101715612316576123166122de565b60405290565b60405161010081016001600160401b0381118282101715612316576123166122de565b604051601f8201601f191681016001600160401b0381118282101715612367576123676122de565b604052919050565b600082601f83011261238057600080fd5b81356001600160401b03811115612399576123996122de565b6123ac601f8201601f191660200161233f565b8181528460208386010111156123c157600080fd5b816020850160208301376000918101602001919091529392505050565b600082601f8301126123ef57600080fd5b813560206001600160401b038083111561240b5761240b6122de565b8260051b61241a83820161233f565b938452858101830193838101908886111561243457600080fd5b84880192505b858310156124c0578235848111156124525760008081fd5b88016060818b03601f190181131561246a5760008081fd5b6124726122f4565b8783013561247f81612271565b8152604083810135888111156124955760008081fd5b6124a38e8b8388010161236f565b8a840152509190920135908201528252918401919084019061243a565b98975050505050505050565b6000602082840312156124de57600080fd5b81356001600160401b038111156124f457600080fd5b612500848285016123de565b949350505050565b6000806040838503121561251b57600080fd5b82359150602083013561252d81612271565b809150509250929050565b60008060006060848603121561254d57600080fd5b8335925060208401356001600160401b0381111561256a57600080fd5b6125768682870161236f565b925050604084013590509250925092565b60006040828403121561259957600080fd5b50919050565b600080604083850312156125b257600080fd5b82356001600160401b038111156125c857600080fd5b6125d485828601612587565b95602094909401359450505050565b600080600080608085870312156125f957600080fd5b84356001600160401b038082111561261057600080fd5b61261c8883890161236f565b9550602087013591508082111561263257600080fd5b61263e8883890161236f565b9450604087013591508082111561265457600080fd5b612660888389016123de565b9350606087013591508082111561267657600080fd5b5061268387828801612587565b91505092959194509250565b600060208083018184528085518083526040925060408601915060408160051b87010184880160005b8381101561270f57888303603f19018552815180516001600160a01b03168452878101516060898601819052906126f182870182612175565b928901519589019590955250948701949250908601906001016126b8565b509098975050505050505050565b6000806040838503121561273057600080fd5b50508035926020909101359150565b6001600160a01b038416815260606020820181905260009061276390830185612175565b9050826040830152949350505050565b600181811c9082168061278757607f821691505b60208210810361259957634e487b7160e01b600052602260045260246000fd5b60208082526021908201527f4f6e6c79206f776e65722063616e2063616c6c20746869732066756e6374696f6040820152603760f91b606082015260800190565b634e487b7160e01b600052603260045260246000fd5b634e487b7160e01b600052601160045260246000fd5b8082028115828204841417611ca857611ca86127fe565b634e487b7160e01b600052601260045260246000fd5b6000826128505761285061282b565b500490565b80820180821115611ca857611ca86127fe565b6000815461287581612773565b6001828116801561288d57600181146128a2576128d1565b60ff19841687528215158302870194506128d1565b8560005260208060002060005b858110156128c85781548a8201529084019082016128af565b50505082870194505b5050505092915050565b6000610b528284612868565b81810381811115611ca857611ca86127fe565b6000823560be1983360301811261291057600080fd5b9190910192915050565b60008235601e1983360301811261291057600080fd5b6000808335601e1984360301811261294757600080fd5b8301803591506001600160401b0382111561296157600080fd5b602001915036819003821315611c2b57600080fd5b60006020828403121561298857600080fd5b81356001600160401b038082111561299f57600080fd5b9083019061010082860312156129b457600080fd5b6129bc61231c565b8235828111156129cb57600080fd5b6129d78782860161236f565b8252506020830135828111156129ec57600080fd5b6129f88782860161236f565b602083015250604083013582811115612a1057600080fd5b612a1c8782860161236f565b604083015250606083013582811115612a3457600080fd5b612a408782860161236f565b606083015250608083013582811115612a5857600080fd5b612a648782860161236f565b60808301525060a083013582811115612a7c57600080fd5b612a888782860161236f565b60a08301525060c083013560c082015260e083013582811115612aaa57600080fd5b612ab68782860161236f565b60e08301525095945050505050565b601f821115612b11576000816000526020600020601f850160051c81016020861015612aee5750805b601f850160051c820191505b81811015612b0d57828155600101612afa565b5050505b505050565b81516001600160401b03811115612b2f57612b2f6122de565b612b4381612b3d8454612773565b84612ac5565b602080601f831160018114612b785760008415612b605750858301515b600019600386901b1c1916600185901b178555612b0d565b600085815260208120601f198616915b82811015612ba757888601518255948401946001909101908401612b88565b5085821015612bc55787850151600019600388901b60f8161c191681555b5050505050600190811b01905550565b838152600060208460208401526060604084015260008454612bf681612773565b8060608701526080600180841660008114612c185760018114612c3457612c64565b60ff19851660808a0152608084151560051b8a01019550612c64565b89600052602060002060005b85811015612c5b5781548b8201860152908301908801612c40565b8a016080019650505b50939a9950505050505050505050565b60008251612910818460208701612151565b600060018201612c9857612c986127fe565b5060010190565b6000823560be19833603018112612cb557600080fd5b90910192915050565b80356001600160401b0381168114612cd557600080fd5b919050565b6000808335601e19843603018112612cf157600080fd5b83016020810192503590506001600160401b03811115612d1057600080fd5b803603821315611c2b57600080fd5b81835281816020850137506000828201602090810191909152601f909101601f19169091010190565b60008235601e19833603018112612cb557600080fd5b6000612d6a8283612cda565b60208552612d7c602086018284612d1f565b95945050505050565b80358252602081013560208301526000612da160408301612cbe565b6001600160401b03808216604086015280612dbe60608601612cbe565b1660608601525050608082013560de19833603018112612ddd57600080fd5b60c060808501528201612df08180612cda565b60e060c0870152612e066101a087018284612d1f565b915050612e166020830183612cda565b60bf19808885030160e0890152612e2e848385612d1f565b9350612e3d6040860186612cda565b935091508088850301610100890152612e57848484612d1f565b9350612e666060860186612cda565b935091508088850301610120890152612e80848484612d1f565b9350612e8f6080860186612cda565b935091508088850301610140890152612ea9848484612d1f565b9350612eb860a0860186612cda565b935091508088850301610160890152612ed2848484612d1f565b9350612ee160c0860186612cda565b9550925080888503016101808901525050612efd828483612d1f565b92505050612f0e60a0840184612d48565b84820360a0860152612d7c8282612d5e565b6020815260008235601e19843603018112612f3a57600080fd5b83016020810190356001600160401b03811115612f5657600080fd5b8060051b803603831315612f6957600080fd5b60406020860152606085018290526001600160fb1b03821115612f8b57600080fd5b8083608087013784019150612fa590506020850185612c9f565b6060848303016040850152612d7c6080830182612d85565b80518015158114612cd557600080fd5b600060208284031215612fdf57600080fd5b610b5282612fbd565b600080600060608486031215612ffd57600080fd5b8351925061300d60208501612fbd565b9150604084015190509250925092565b60008261302c5761302c61282b565b500690565b60006020828403121561304357600080fd5b8151610b528161227156fea26469706673582212209b6c3c27367a30661651980a2c9505b1d6f2db91765d1433eab43460a0dcb0fd64736f6c63430008190033",
  "linkReferences": {},
  "deployedLinkReferences": {}
}