{
  "_format": "hh-sol-artifact-1",
  "contractName": "insuredFlightsAgency",
  "sourceName": "contracts/InsuredFlights/InsuredFlightsAgency.sol",
  "abi": [
    {
      "inputs": [
        {
          "internalType": "uint256",
          "name": "_insurancePrice",
          "type": "uint256"
        }
      ],
      "stateMutability": "nonpayable",
      "type": "constructor"
    },
    {
      "anonymous": false,
      "inputs": [
        {
          "indexed": false,
          "internalType": "uint256",
          "name": "insuredFlightId",
          "type": "uint256"
        },
        {
          "indexed": false,
          "internalType": "address",
          "name": "passenger",
          "type": "address"
        },
        {
          "indexed": false,
          "internalType": "uint256",
          "name": "secretNumber",
          "type": "uint256"
        }
      ],
      "name": "FlightClaimed",
      "type": "event"
    },
    {
      "anonymous": false,
      "inputs": [
        {
          "indexed": false,
          "internalType": "uint256",
          "name": "insuredFlightId",
          "type": "uint256"
        },
        {
          "indexed": false,
          "internalType": "uint256",
          "name": "flightDelayedTime",
          "type": "uint256"
        },
        {
          "indexed": false,
          "internalType": "string",
          "name": "flightStatus",
          "type": "string"
        }
      ],
      "name": "FlightInfoUpdated",
      "type": "event"
    },
    {
      "anonymous": false,
      "inputs": [
        {
          "indexed": false,
          "internalType": "uint256",
          "name": "insuredFlightId",
          "type": "uint256"
        }
      ],
      "name": "FlightInsured",
      "type": "event"
    },
    {
      "inputs": [],
      "name": "INSURANCE_PRICE",
      "outputs": [
        {
          "internalType": "uint256",
          "name": "",
          "type": "uint256"
        }
      ],
      "stateMutability": "view",
      "type": "function"
    },
    {
      "inputs": [
        {
          "components": [
            {
              "internalType": "bytes32[]",
              "name": "merkleProof",
              "type": "bytes32[]"
            },
            {
              "components": [
                {
                  "internalType": "bytes32",
                  "name": "attestationType",
                  "type": "bytes32"
                },
                {
                  "internalType": "bytes32",
                  "name": "sourceId",
                  "type": "bytes32"
                },
                {
                  "internalType": "uint64",
                  "name": "votingRound",
                  "type": "uint64"
                },
                {
                  "internalType": "uint64",
                  "name": "lowestUsedTimestamp",
                  "type": "uint64"
                },
                {
                  "components": [
                    {
                      "internalType": "string",
                      "name": "url",
                      "type": "string"
                    },
                    {
                      "internalType": "string",
                      "name": "httpMethod",
                      "type": "string"
                    },
                    {
                      "internalType": "string",
                      "name": "headers",
                      "type": "string"
                    },
                    {
                      "internalType": "string",
                      "name": "queryParams",
                      "type": "string"
                    },
                    {
                      "internalType": "string",
                      "name": "body",
                      "type": "string"
                    },
                    {
                      "internalType": "string",
                      "name": "postProcessJq",
                      "type": "string"
                    },
                    {
                      "internalType": "string",
                      "name": "abiSignature",
                      "type": "string"
                    }
                  ],
                  "internalType": "struct IWeb2Json.RequestBody",
                  "name": "requestBody",
                  "type": "tuple"
                },
                {
                  "components": [
                    {
                      "internalType": "bytes",
                      "name": "abiEncodedData",
                      "type": "bytes"
                    }
                  ],
                  "internalType": "struct IWeb2Json.ResponseBody",
                  "name": "responseBody",
                  "type": "tuple"
                }
              ],
              "internalType": "struct IWeb2Json.Response",
              "name": "data",
              "type": "tuple"
            }
          ],
          "internalType": "struct IWeb2Json.Proof",
          "name": "data",
          "type": "tuple"
        },
        {
          "internalType": "uint256",
          "name": "insuredFlightId",
          "type": "uint256"
        }
      ],
      "name": "_applyUpdate",
      "outputs": [],
      "stateMutability": "nonpayable",
      "type": "function"
    },
    {
      "inputs": [],
      "name": "_generator",
      "outputs": [
        {
          "internalType": "contract RandomNumberV2Interface",
          "name": "",
          "type": "address"
        }
      ],
      "stateMutability": "view",
      "type": "function"
    },
    {
      "inputs": [
        {
          "internalType": "uint256",
          "name": "",
          "type": "uint256"
        }
      ],
      "name": "_insuranceClaims",
      "outputs": [
        {
          "internalType": "uint256",
          "name": "amountClaimed",
          "type": "uint256"
        },
        {
          "internalType": "uint256",
          "name": "dateClaimed",
          "type": "uint256"
        },
        {
          "internalType": "address",
          "name": "insuree",
          "type": "address"
        },
        {
          "internalType": "uint256",
          "name": "insuranceId",
          "type": "uint256"
        }
      ],
      "stateMutability": "view",
      "type": "function"
    },
    {
      "inputs": [
        {
          "internalType": "uint256",
          "name": "",
          "type": "uint256"
        },
        {
          "internalType": "uint256",
          "name": "",
          "type": "uint256"
        }
      ],
      "name": "_insuranceFlightPassengers",
      "outputs": [
        {
          "internalType": "address",
          "name": "wallet",
          "type": "address"
        },
        {
          "internalType": "string",
          "name": "ticketType",
          "type": "string"
        },
        {
          "internalType": "uint256",
          "name": "ticketPrice",
          "type": "uint256"
        }
      ],
      "stateMutability": "view",
      "type": "function"
    },
    {
      "inputs": [
        {
          "internalType": "uint256",
          "name": "",
          "type": "uint256"
        }
      ],
      "name": "_insuredFlight",
      "outputs": [
        {
          "internalType": "string",
          "name": "aircraftIcao",
          "type": "string"
        },
        {
          "internalType": "string",
          "name": "aircraftName",
          "type": "string"
        },
        {
          "internalType": "string",
          "name": "flightDate",
          "type": "string"
        },
        {
          "internalType": "string",
          "name": "departureAirport",
          "type": "string"
        },
        {
          "internalType": "string",
          "name": "arrivalAirport",
          "type": "string"
        },
        {
          "internalType": "uint256",
          "name": "flightDelayedTime",
          "type": "uint256"
        },
        {
          "internalType": "string",
          "name": "flightNo",
          "type": "string"
        },
        {
          "internalType": "uint256",
          "name": "passengers",
          "type": "uint256"
        },
        {
          "internalType": "string",
          "name": "status",
          "type": "string"
        },
        {
          "internalType": "uint256",
          "name": "lastChecked",
          "type": "uint256"
        },
        {
          "internalType": "address",
          "name": "insurer",
          "type": "address"
        },
        {
          "internalType": "uint256",
          "name": "insuranceId",
          "type": "uint256"
        }
      ],
      "stateMutability": "view",
      "type": "function"
    },
    {
      "inputs": [
        {
          "internalType": "uint256",
          "name": "",
          "type": "uint256"
        }
      ],
      "name": "_insuredFlightPrice",
      "outputs": [
        {
          "internalType": "uint256",
          "name": "",
          "type": "uint256"
        }
      ],
      "stateMutability": "view",
      "type": "function"
    },
    {
      "inputs": [],
      "name": "_maxNumber",
      "outputs": [
        {
          "internalType": "uint256",
          "name": "",
          "type": "uint256"
        }
      ],
      "stateMutability": "view",
      "type": "function"
    },
    {
      "inputs": [],
      "name": "_totalAmountInsurance",
      "outputs": [
        {
          "internalType": "uint256",
          "name": "",
          "type": "uint256"
        }
      ],
      "stateMutability": "view",
      "type": "function"
    },
    {
      "inputs": [
        {
          "components": [
            {
              "internalType": "string",
              "name": "aircraft_name",
              "type": "string"
            },
            {
              "internalType": "string",
              "name": "aircraft_reg",
              "type": "string"
            },
            {
              "internalType": "string",
              "name": "flight_no",
              "type": "string"
            },
            {
              "internalType": "string",
              "name": "flight_date",
              "type": "string"
            },
            {
              "internalType": "string",
              "name": "departure_airport",
              "type": "string"
            },
            {
              "internalType": "string",
              "name": "arrival_airport",
              "type": "string"
            },
            {
              "internalType": "uint256",
              "name": "flight_delayed_time",
              "type": "uint256"
            },
            {
              "internalType": "string",
              "name": "flight_status",
              "type": "string"
            }
          ],
          "internalType": "struct DataTransportObject",
          "name": "dto",
          "type": "tuple"
        }
      ],
      "name": "abiSignatureHack",
      "outputs": [],
      "stateMutability": "pure",
      "type": "function"
    },
    {
      "inputs": [
        {
          "internalType": "uint256",
          "name": "insuredFlightId",
          "type": "uint256"
        },
        {
          "internalType": "string",
          "name": "flight_no",
          "type": "string"
        },
        {
          "internalType": "uint256",
          "name": "predictedNumber",
          "type": "uint256"
        }
      ],
      "name": "claimInsurance",
      "outputs": [
        {
          "internalType": "uint256",
          "name": "",
          "type": "uint256"
        },
        {
          "internalType": "bool",
          "name": "",
          "type": "bool"
        }
      ],
      "stateMutability": "nonpayable",
      "type": "function"
    },
    {
      "inputs": [],
      "name": "getAllClaims",
      "outputs": [
        {
          "components": [
            {
              "internalType": "uint256",
              "name": "amountClaimed",
              "type": "uint256"
            },
            {
              "internalType": "uint256",
              "name": "dateClaimed",
              "type": "uint256"
            },
            {
              "internalType": "address",
              "name": "insuree",
              "type": "address"
            },
            {
              "internalType": "uint256",
              "name": "insuranceId",
              "type": "uint256"
            }
          ],
          "internalType": "struct AllClaims[]",
          "name": "",
          "type": "tuple[]"
        }
      ],
      "stateMutability": "view",
      "type": "function"
    },
    {
      "inputs": [],
      "name": "getAllInsureFlights",
      "outputs": [
        {
          "components": [
            {
              "internalType": "string",
              "name": "aircraftIcao",
              "type": "string"
            },
            {
              "internalType": "string",
              "name": "aircraftName",
              "type": "string"
            },
            {
              "internalType": "string",
              "name": "flightDate",
              "type": "string"
            },
            {
              "internalType": "string",
              "name": "departureAirport",
              "type": "string"
            },
            {
              "internalType": "string",
              "name": "arrivalAirport",
              "type": "string"
            },
            {
              "internalType": "uint256",
              "name": "flightDelayedTime",
              "type": "uint256"
            },
            {
              "internalType": "string",
              "name": "flightNo",
              "type": "string"
            },
            {
              "internalType": "uint256",
              "name": "passengers",
              "type": "uint256"
            },
            {
              "internalType": "string",
              "name": "status",
              "type": "string"
            },
            {
              "internalType": "uint256",
              "name": "lastChecked",
              "type": "uint256"
            },
            {
              "internalType": "address",
              "name": "insurer",
              "type": "address"
            },
            {
              "internalType": "uint256",
              "name": "insuranceId",
              "type": "uint256"
            }
          ],
          "internalType": "struct InsuredFlight[]",
          "name": "",
          "type": "tuple[]"
        }
      ],
      "stateMutability": "view",
      "type": "function"
    },
    {
      "inputs": [
        {
          "components": [
            {
              "internalType": "address",
              "name": "wallet",
              "type": "address"
            },
            {
              "internalType": "string",
              "name": "ticketType",
              "type": "string"
            },
            {
              "internalType": "uint256",
              "name": "ticketPrice",
              "type": "uint256"
            }
          ],
          "internalType": "struct Passenger[]",
          "name": "passengers",
          "type": "tuple[]"
        }
      ],
      "name": "getCostOfInsurance",
      "outputs": [
        {
          "internalType": "uint256",
          "name": "",
          "type": "uint256"
        }
      ],
      "stateMutability": "view",
      "type": "function"
    },
    {
      "inputs": [
        {
          "internalType": "uint256",
          "name": "_flightId",
          "type": "uint256"
        }
      ],
      "name": "getFlightPassengers",
      "outputs": [
        {
          "components": [
            {
              "internalType": "address",
              "name": "wallet",
              "type": "address"
            },
            {
              "internalType": "string",
              "name": "ticketType",
              "type": "string"
            },
            {
              "internalType": "uint256",
              "name": "ticketPrice",
              "type": "uint256"
            }
          ],
          "internalType": "struct Passenger[]",
          "name": "",
          "type": "tuple[]"
        }
      ],
      "stateMutability": "view",
      "type": "function"
    },
    {
      "inputs": [],
      "name": "getInsurancePrice",
      "outputs": [
        {
          "internalType": "uint256",
          "name": "",
          "type": "uint256"
        }
      ],
      "stateMutability": "view",
      "type": "function"
    },
    {
      "inputs": [],
      "name": "insuranceClaimsIds",
      "outputs": [
        {
          "internalType": "uint256",
          "name": "",
          "type": "uint256"
        }
      ],
      "stateMutability": "view",
      "type": "function"
    },
    {
      "inputs": [],
      "name": "insurance_delay_time",
      "outputs": [
        {
          "internalType": "uint256",
          "name": "",
          "type": "uint256"
        }
      ],
      "stateMutability": "view",
      "type": "function"
    },
    {
      "inputs": [
        {
          "internalType": "string",
          "name": "aircraft_icao",
          "type": "string"
        },
        {
          "internalType": "string",
          "name": "flight_no",
          "type": "string"
        },
        {
          "components": [
            {
              "internalType": "address",
              "name": "wallet",
              "type": "address"
            },
            {
              "internalType": "string",
              "name": "ticketType",
              "type": "string"
            },
            {
              "internalType": "uint256",
              "name": "ticketPrice",
              "type": "uint256"
            }
          ],
          "internalType": "struct Passenger[]",
          "name": "passengers",
          "type": "tuple[]"
        },
        {
          "components": [
            {
              "internalType": "bytes32[]",
              "name": "merkleProof",
              "type": "bytes32[]"
            },
            {
              "components": [
                {
                  "internalType": "bytes32",
                  "name": "attestationType",
                  "type": "bytes32"
                },
                {
                  "internalType": "bytes32",
                  "name": "sourceId",
                  "type": "bytes32"
                },
                {
                  "internalType": "uint64",
                  "name": "votingRound",
                  "type": "uint64"
                },
                {
                  "internalType": "uint64",
                  "name": "lowestUsedTimestamp",
                  "type": "uint64"
                },
                {
                  "components": [
                    {
                      "internalType": "string",
                      "name": "url",
                      "type": "string"
                    },
                    {
                      "internalType": "string",
                      "name": "httpMethod",
                      "type": "string"
                    },
                    {
                      "internalType": "string",
                      "name": "headers",
                      "type": "string"
                    },
                    {
                      "internalType": "string",
                      "name": "queryParams",
                      "type": "string"
                    },
                    {
                      "internalType": "string",
                      "name": "body",
                      "type": "string"
                    },
                    {
                      "internalType": "string",
                      "name": "postProcessJq",
                      "type": "string"
                    },
                    {
                      "internalType": "string",
                      "name": "abiSignature",
                      "type": "string"
                    }
                  ],
                  "internalType": "struct IWeb2Json.RequestBody",
                  "name": "requestBody",
                  "type": "tuple"
                },
                {
                  "components": [
                    {
                      "internalType": "bytes",
                      "name": "abiEncodedData",
                      "type": "bytes"
                    }
                  ],
                  "internalType": "struct IWeb2Json.ResponseBody",
                  "name": "responseBody",
                  "type": "tuple"
                }
              ],
              "internalType": "struct IWeb2Json.Response",
              "name": "data",
              "type": "tuple"
            }
          ],
          "internalType": "struct IWeb2Json.Proof",
          "name": "data",
          "type": "tuple"
        }
      ],
      "name": "insureFlight",
      "outputs": [],
      "stateMutability": "payable",
      "type": "function"
    },
    {
      "inputs": [],
      "name": "insuredFlightIds",
      "outputs": [
        {
          "internalType": "uint256",
          "name": "",
          "type": "uint256"
        }
      ],
      "stateMutability": "view",
      "type": "function"
    },
    {
      "inputs": [
        {
          "internalType": "uint256",
          "name": "",
          "type": "uint256"
        },
        {
          "internalType": "address",
          "name": "",
          "type": "address"
        }
      ],
      "name": "insuredFlightPassengersStatus",
      "outputs": [
        {
          "internalType": "bool",
          "name": "",
          "type": "bool"
        }
      ],
      "stateMutability": "view",
      "type": "function"
    },
    {
      "inputs": [],
      "name": "owner",
      "outputs": [
        {
          "internalType": "address",
          "name": "",
          "type": "address"
        }
      ],
      "stateMutability": "view",
      "type": "function"
    },
    {
      "inputs": [
        {
          "internalType": "uint256",
          "name": "_insurancePrice",
          "type": "uint256"
        }
      ],
      "name": "setInsurancePrice",
      "outputs": [],
      "stateMutability": "nonpayable",
      "type": "function"
    },
    {
      "inputs": [
        {
          "internalType": "address",
          "name": "to",
          "type": "address"
        }
      ],
      "name": "transferAccumulatedFees",
      "outputs": [],
      "stateMutability": "nonpayable",
      "type": "function"
    },
    {
      "stateMutability": "payable",
      "type": "receive"
    }
  ],
  "bytecode": "0x608060405234801561001057600080fd5b506040516135b83803806135b883398101604081905261002f916101f3565b6002819055601e600355600160008190558055600c80546001600160a01b0319163317905561005c61008a565b600b80546001600160a01b0319166001600160a01b039290921691909117905561008461015b565b5061029c565b600073ad67fe66660fb8dfe9d6b1b4240d8650e30f60196001600160a01b031663159354a26040516020016100e1906020808252600e908201526d2930b73237b6a73ab6b132b92b1960911b604082015260600190565b604051602081830303815290604052805190602001206040518263ffffffff1660e01b815260040161011591815260200190565b602060405180830381865afa158015610132573d6000803e3d6000fd5b505050506040513d601f19601f82011682018060405250810190610156919061020c565b905090565b600b546040805163dbdff2c160e01b815290516000926001600160a01b03169163dbdff2c19160048083019260609291908290030181865afa1580156101a5573d6000803e3d6000fd5b505050506040513d601f19601f820116820180604052508101906101c9919061023c565b505090506014816101da919061027a565b6009805461ffff191661ffff9290921691909117905550565b60006020828403121561020557600080fd5b5051919050565b60006020828403121561021e57600080fd5b81516001600160a01b038116811461023557600080fd5b9392505050565b60008060006060848603121561025157600080fd5b835192506020840151801515811461026857600080fd5b80925050604084015190509250925092565b60008261029757634e487b7160e01b600052601260045260246000fd5b500690565b61330d806102ab6000396000f3fe60806040526004361061014f5760003560e01c80638289b588116100b6578063cc75384a1161006f578063cc75384a14610458578063e0d4153e1461046b578063e95e70b414610481578063ea0b60e6146104ae578063ec091c17146104dd578063fb458f9b146104fd57600080fd5b80638289b5881461034a5780638c774f15146103955780638da5cb5b146103cd578063945b5395146103ed578063c517f06914610403578063c76fe1181461043857600080fd5b80633c9e6140116101085780633c9e61401461021f5780633f645bbc1461023d57806351116f47146102ba5780635b23c27d146102da578063771b00fd146102fc5780638060156b1461031257600080fd5b806303a072431461015b5780631f69d1c114610183578063210d595b146101a557806322526a57146101d257806329369752146101e7578063390257681461020957600080fd5b3661015657005b600080fd5b34801561016757600080fd5b50610170601481565b6040519081526020015b60405180910390f35b34801561018f57600080fd5b506101a361019e366004612221565b610513565b005b3480156101b157600080fd5b506101706101c036600461223e565b60056020526000908152604090205481565b3480156101de57600080fd5b50600254610170565b3480156101f357600080fd5b506101fc6105c7565b60405161017a91906122a7565b34801561021557600080fd5b5061017060035481565b34801561022b57600080fd5b506101a361023a366004612403565b50565b34801561024957600080fd5b5061028b61025836600461223e565b6006602052600090815260409020805460018201546002830154600390930154919290916001600160a01b039091169084565b60405161017a949392919093845260208401929092526001600160a01b03166040830152606082015260800190565b3480156102c657600080fd5b506101706102d536600461262c565b610b27565b3480156102e657600080fd5b506102ef610b94565b60405161017a9190612668565b34801561030857600080fd5b50610170600a5481565b34801561031e57600080fd5b50600b54610332906001600160a01b031681565b6040516001600160a01b03909116815260200161017a565b34801561035657600080fd5b506103856103653660046126d5565b600860209081526000928352604080842090915290825290205460ff1681565b604051901515815260200161017a565b3480156103a157600080fd5b506103b56103b036600461223e565b610caa565b60405161017a9c9b9a99989796959493929190612705565b3480156103d957600080fd5b50600c54610332906001600160a01b031681565b3480156103f957600080fd5b5061017060015481565b34801561040f57600080fd5b5061042361041e3660046127d5565b6110c6565b6040805192835290151560208301520161017a565b34801561044457600080fd5b506101a3610453366004612836565b6110e9565b6101a361046636600461287a565b611554565b34801561047757600080fd5b5061017060005481565b34801561048d57600080fd5b506104a161049c36600461223e565b611747565b60405161017a9190612926565b3480156104ba57600080fd5b506104ce6104c93660046129a6565b61186b565b60405161017a939291906129c8565b3480156104e957600080fd5b506101a36104f836600461223e565b611941565b34801561050957600080fd5b5061017060025481565b600c546001600160a01b031633146105465760405162461bcd60e51b815260040161053d906129fc565b60405180910390fd5b6001600160a01b03811661058e5760405162461bcd60e51b815260206004820152600f60248201526e496e76616c6964206164647265737360881b604482015260640161053d565b6040516001600160a01b038216904780156108fc02916000818181858888f193505050501580156105c3573d6000803e3d6000fd5b5050565b6060600060016000546105da9190612a53565b6001600160401b038111156105f1576105f161243e565b60405190808252806020026020018201604052801561068f57816020015b61067c6040518061018001604052806060815260200160608152602001606081526020016060815260200160608152602001600081526020016060815260200160008152602001606081526020016000815260200160006001600160a01b03168152602001600081525090565b81526020019060019003908161060f5790505b50905060015b600054811015610b215760008181526004602052604090819020815161018081019092528054829082906106c890612a66565b80601f01602080910402602001604051908101604052809291908181526020018280546106f490612a66565b80156107415780601f1061071657610100808354040283529160200191610741565b820191906000526020600020905b81548152906001019060200180831161072457829003601f168201915b5050505050815260200160018201805461075a90612a66565b80601f016020809104026020016040519081016040528092919081815260200182805461078690612a66565b80156107d35780601f106107a8576101008083540402835291602001916107d3565b820191906000526020600020905b8154815290600101906020018083116107b657829003601f168201915b505050505081526020016002820180546107ec90612a66565b80601f016020809104026020016040519081016040528092919081815260200182805461081890612a66565b80156108655780601f1061083a57610100808354040283529160200191610865565b820191906000526020600020905b81548152906001019060200180831161084857829003601f168201915b5050505050815260200160038201805461087e90612a66565b80601f01602080910402602001604051908101604052809291908181526020018280546108aa90612a66565b80156108f75780601f106108cc576101008083540402835291602001916108f7565b820191906000526020600020905b8154815290600101906020018083116108da57829003601f168201915b5050505050815260200160048201805461091090612a66565b80601f016020809104026020016040519081016040528092919081815260200182805461093c90612a66565b80156109895780601f1061095e57610100808354040283529160200191610989565b820191906000526020600020905b81548152906001019060200180831161096c57829003601f168201915b50505050508152602001600582015481526020016006820180546109ac90612a66565b80601f01602080910402602001604051908101604052809291908181526020018280546109d890612a66565b8015610a255780601f106109fa57610100808354040283529160200191610a25565b820191906000526020600020905b815481529060010190602001808311610a0857829003601f168201915b5050505050815260200160078201548152602001600882018054610a4890612a66565b80601f0160208091040260200160405190810160405280929190818152602001828054610a7490612a66565b8015610ac15780601f10610a9657610100808354040283529160200191610ac1565b820191906000526020600020905b815481529060010190602001808311610aa457829003601f168201915b505050918352505060098201546020820152600a8201546001600160a01b03166040820152600b9091015460609091015282610afe600184612a53565b81518110610b0e57610b0e612a9a565b6020908102919091010152600101610695565b50919050565b600080805b8351811015610b7f576064848281518110610b4957610b49612a9a565b602002602001015160400151600a610b619190612ab0565b610b6b9190612add565b610b759083612af1565b9150600101610b2c565b50600254610b8d9082612af1565b9392505050565b6060600060018054610ba69190612a53565b6001600160401b03811115610bbd57610bbd61243e565b604051908082528060200260200182016040528015610c2257816020015b610c0f6040518060800160405280600081526020016000815260200160006001600160a01b03168152602001600081525090565b815260200190600190039081610bdb5790505b50905060015b600154811015610b21576000818152600660209081526040918290208251608081018452815481526001808301549382019390935260028201546001600160a01b0316938101939093526003015460608301528390610c879084612a53565b81518110610c9757610c97612a9a565b6020908102919091010152600101610c28565b600460205260009081526040902080548190610cc590612a66565b80601f0160208091040260200160405190810160405280929190818152602001828054610cf190612a66565b8015610d3e5780601f10610d1357610100808354040283529160200191610d3e565b820191906000526020600020905b815481529060010190602001808311610d2157829003601f168201915b505050505090806001018054610d5390612a66565b80601f0160208091040260200160405190810160405280929190818152602001828054610d7f90612a66565b8015610dcc5780601f10610da157610100808354040283529160200191610dcc565b820191906000526020600020905b815481529060010190602001808311610daf57829003601f168201915b505050505090806002018054610de190612a66565b80601f0160208091040260200160405190810160405280929190818152602001828054610e0d90612a66565b8015610e5a5780601f10610e2f57610100808354040283529160200191610e5a565b820191906000526020600020905b815481529060010190602001808311610e3d57829003601f168201915b505050505090806003018054610e6f90612a66565b80601f0160208091040260200160405190810160405280929190818152602001828054610e9b90612a66565b8015610ee85780601f10610ebd57610100808354040283529160200191610ee8565b820191906000526020600020905b815481529060010190602001808311610ecb57829003601f168201915b505050505090806004018054610efd90612a66565b80601f0160208091040260200160405190810160405280929190818152602001828054610f2990612a66565b8015610f765780601f10610f4b57610100808354040283529160200191610f76565b820191906000526020600020905b815481529060010190602001808311610f5957829003601f168201915b505050505090806005015490806006018054610f9190612a66565b80601f0160208091040260200160405190810160405280929190818152602001828054610fbd90612a66565b801561100a5780601f10610fdf5761010080835404028352916020019161100a565b820191906000526020600020905b815481529060010190602001808311610fed57829003601f168201915b50505050509080600701549080600801805461102590612a66565b80601f016020809104026020016040519081016040528092919081815260200182805461105190612a66565b801561109e5780601f106110735761010080835404028352916020019161109e565b820191906000526020600020905b81548152906001019060200180831161108157829003601f168201915b505050506009830154600a840154600b90940154929390926001600160a01b0390911691508c565b6000806110d385856119cf565b6110dd8584611b55565b91509150935093915050565b6000818152600460205260409020600b01541580159061111b57506000805482825260046020526040909120600b0154105b61115b5760405162461bcd60e51b8152602060048201526011602482015270496e76616c696420496e737572616e636560781b604482015260640161053d565b6000818152600460205260409020600a01546001600160a01b03163314806111d15750600081815260076020526040902054158015906111d15750600081815260076020526040812080543392906111b5576111b5612a9a565b60009182526020909120600390910201546001600160a01b0316145b806111e65750600c546001600160a01b031633145b61124d5760405162461bcd60e51b815260206004820152603260248201527f45697468657220496e7375726572206f722050617373656e6765722063616e20604482015271636865636b20666c696768742064656c617960701b606482015260840161053d565b7f6b5d3a2590399d029e42f38701ccbff2ae97111c4fb79a26cb3cadd8295de3a4600460008381526020019081526020016000206008016040516112919190612b77565b6040518091039020146112e65760405162461bcd60e51b815260206004820152601d60248201527f466c696768742073746174757320616c72656164792075706461746564000000604482015260640161053d565b600081815260046020526040902060090154610258906113069042612a53565b116113625760405162461bcd60e51b815260206004820152602660248201527f466c6967687420636865636b206973206174203130206d696e7574657320696e6044820152651d195c9d985b60d21b606482015260840161053d565b61136b82611d0f565b6113a75760405162461bcd60e51b815260206004820152600d60248201526c24b73b30b634b210383937b7b360991b604482015260640161053d565b60006113b66020840184612b83565b6113c49060a0810190612ba3565b6113ce9080612bb9565b90501161140a5760405162461bcd60e51b815260206004820152600a602482015269456d707479206461746160b01b604482015260640161053d565b60006114196020840184612b83565b6114279060a0810190612ba3565b6114319080612bb9565b81019061143e9190612bff565b90506003548160c001511015801561148157507f9651c33eb23976f7c15240e86443dc2ded40546fa9ba457a14abab4090e023b58160e001518051906020012014155b80156114b857507fe65c7acc8e7a283a20ab50c3226bc3bf6664a65e41f8eda762213d674c0829628160e001518051906020012014155b156114f75760e08101516000838152600460205260409020600801906114de9082612d9f565b5060c08101516000838152600460205260409020600501555b60008281526004602052604090819020426009820155600581015491517fad522330e0a333ea20b30192e7bf44fd414759973e0d47d6e02d4b5f0e9ceae492611547928692600890910190612e5e565b60405180910390a1505050565b61155d82610b27565b341461159c5760405162461bcd60e51b815260206004820152600e60248201526d125b9d985b1a5908185b5bdd5b9d60921b604482015260640161053d565b6115a581611d0f565b6115e15760405162461bcd60e51b815260206004820152600d60248201526c24b73b30b634b210383937b7b360991b604482015260640161053d565b60006115f06020830183612b83565b6115fe9060a0810190612ba3565b6116089080612bb9565b9050116116445760405162461bcd60e51b815260206004820152600a602482015269456d707479206461746160b01b604482015260640161053d565b60006116536020830183612b83565b6116619060a0810190612ba3565b61166b9080612bb9565b8101906116789190612bff565b604051681cd8da19591d5b195960ba1b6020820152909150602901604051602081830303815290604052805190602001208160e001516040516020016116be9190612efd565b60405160208183030381529060405280519060200120146117345760405162461bcd60e51b815260206004820152602a60248201527f466c69676874204e6f20646f65736e2774206d617463682061207363686564756044820152691b195908199b1a59da1d60b21b606482015260840161053d565b61174085858386611d8b565b5050505050565b606060076000838152602001908152602001600020805480602002602001604051908101604052809291908181526020016000905b8282101561186057600084815260209081902060408051606081019091526003850290910180546001600160a01b0316825260018101805492939192918401916117c590612a66565b80601f01602080910402602001604051908101604052809291908181526020018280546117f190612a66565b801561183e5780601f106118135761010080835404028352916020019161183e565b820191906000526020600020905b81548152906001019060200180831161182157829003601f168201915b505050505081526020016002820154815250508152602001906001019061177c565b505050509050919050565b6007602052816000526040600020818154811061188757600080fd5b6000918252602090912060039091020180546001820180546001600160a01b0390921694509192506118b890612a66565b80601f01602080910402602001604051908101604052809291908181526020018280546118e490612a66565b80156119315780601f1061190657610100808354040283529160200191611931565b820191906000526020600020905b81548152906001019060200180831161191457829003601f168201915b5050505050908060020154905083565b600c546001600160a01b0316331461196b5760405162461bcd60e51b815260040161053d906129fc565b600081116119ca5760405162461bcd60e51b815260206004820152602660248201527f496e737572616e6365207072696365206d75737420626520677265617465722060448201526507468616e20360d41b606482015260840161053d565b600255565b806040516020016119e09190612efd565b60408051601f198184030181528282528051602091820120600086815260048352929092209192611a15926006019101612b77565b6040516020818303038152906040528051906020012014611a785760405162461bcd60e51b815260206004820152601760248201527f466c69676874204e6f20646f65736e2774206d61746368000000000000000000604482015260640161053d565b6003546000838152600460205260409020600501541015611ad05760405162461bcd60e51b8152602060048201526012602482015271119b1a59da1d08139bdd0811195b185e595960721b604482015260640161053d565b600082815260086020908152604080832033845290915290205460ff166105c35760405162461bcd60e51b815260206004820152603360248201527f50617373656e676572206e6f7420696e7375726564204f5220496e737572616e60448201527218d948185b1c9958591e481c995919595b5959606a1b606482015260840161053d565b60008281526008602090815260408083203384528252808320805460ff191690556009548584526005909252822054829161ffff16908290606490611b9b90600a612ab0565b611ba59190612add565b9050600085600003611bee57336108fc611bc0600285612add565b6040518115909202916000818181858888f19350505050158015611be8573d6000803e3d6000fd5b50611c5e565b828603611c2c57604051339083156108fc029084906000818181858888f19350505050158015611c22573d6000803e3d6000fd5b5060019050611c5e565b60405133906000906706f05b59d3b200009082818181858883f19350505050158015611c5c573d6000803e3d6000fd5b505b600180546000908152600660205260408082208590558254825280822042908401558254825280822060020180546001600160a01b0319163317905582548252812060030189905581549190611cb383612f0f565b9190505550611cc06120a2565b604080518881523360208201529081018490527f1527a28ce4fd3db6312cdc84eb52b89b5da4269ae6a4f7b5854029a914425fb99060600160405180910390a1919350909150505b9250929050565b6000611d1961213a565b6001600160a01b0316630aa05fe3836040518263ffffffff1660e01b8152600401611d4491906131a9565b602060405180830381865afa158015611d61573d6000803e3d6000fd5b505050506040513d601f19601f82011682018060405250810190611d859190613256565b92915050565b60008054808252600460205260408220909190611da88782612d9f565b508351600083815260046020526040902060010190611dc79082612d9f565b506060840151600083815260046020526040902060020190611de99082612d9f565b506080840151600083815260046020526040902060030190611e0b9082612d9f565b5060a084015160008381526004602081905260409091200190611e2e9082612d9f565b5060c084015160008381526004602052604090206005810191909155600601611e578682612d9f565b5082516000838152600460205260409020600781019190915560e0850151600890910190611e859082612d9f565b506000828152600460205260408120426009820155600a810180546001600160a01b03191633179055600b018390555b83518110156120435760008381526007602052604090208451859083908110611ee057611ee0612a9a565b602090810291909101810151825460018082018555600094855293839020825160039092020180546001600160a01b0319166001600160a01b03909216919091178155918101519092820190611f369082612d9f565b5060409182015160029091015560008481526008602052908120855160019290879085908110611f6857611f68612a9a565b6020026020010151600001516001600160a01b03166001600160a01b0316815260200190815260200160002060006101000a81548160ff0219169083151502179055506064848281518110611fbf57611fbf612a9a565b602002602001015160400151600a611fd79190612ab0565b611fe19190612add565b600a6000828254611ff29190612af1565b92505081905550606484828151811061200d5761200d612a9a565b602002602001015160400151600a6120259190612ab0565b61202f9190612add565b6120399083612af1565b9150600101611eb5565b5060008281526005602052604081208290558054908061206283612f0f565b90915550506040518281527fc8025f815ce5846bb23a1e70c00825ff76c450559769399af7e28de99a03405e9060200160405180910390a1505050505050565b600b546040805163dbdff2c160e01b815290516000926001600160a01b03169163dbdff2c19160048083019260609291908290030181865afa1580156120ec573d6000803e3d6000fd5b505050506040513d601f19601f820116820180604052508101906121109190613271565b5050905060148161212191906132a6565b6009805461ffff191661ffff9290921691909117905550565b600073ad67fe66660fb8dfe9d6b1b4240d8650e30f60196001600160a01b031663159354a2604051602001612192906020808252600f908201526e233231ab32b934b334b1b0ba34b7b760891b604082015260600190565b604051602081830303815290604052805190602001206040518263ffffffff1660e01b81526004016121c691815260200190565b602060405180830381865afa1580156121e3573d6000803e3d6000fd5b505050506040513d601f19601f8201168201806040525081019061220791906132ba565b905090565b6001600160a01b038116811461023a57600080fd5b60006020828403121561223357600080fd5b8135610b8d8161220c565b60006020828403121561225057600080fd5b5035919050565b60005b8381101561227257818101518382015260200161225a565b50506000910152565b60008151808452612293816020860160208601612257565b601f01601f19169290920160200192915050565b600060208083018184528085518083526040925060408601915060408160051b87010184880160005b838110156123f557603f19898403018552815161018081518186526122f78287018261227b565b915050888201518582038a87015261230f828261227b565b9150508782015185820389870152612327828261227b565b91505060608083015186830382880152612341838261227b565b925050506080808301518683038288015261235c838261227b565b9250505060a080830151818701525060c08083015186830382880152612382838261227b565b9250505060e080830151818701525061010080830151868303828801526123a9838261227b565b92505050610120808301518187015250610140808301516123d4828801826001600160a01b03169052565b505061016091820151949091019390935293860193908601906001016122d0565b509098975050505050505050565b60006020828403121561241557600080fd5b81356001600160401b0381111561242b57600080fd5b82016101008185031215610b8d57600080fd5b634e487b7160e01b600052604160045260246000fd5b604051606081016001600160401b03811182821017156124765761247661243e565b60405290565b60405161010081016001600160401b03811182821017156124765761247661243e565b604051601f8201601f191681016001600160401b03811182821017156124c7576124c761243e565b604052919050565b600082601f8301126124e057600080fd5b81356001600160401b038111156124f9576124f961243e565b61250c601f8201601f191660200161249f565b81815284602083860101111561252157600080fd5b816020850160208301376000918101602001919091529392505050565b600082601f83011261254f57600080fd5b813560206001600160401b038083111561256b5761256b61243e565b8260051b61257a83820161249f565b938452858101830193838101908886111561259457600080fd5b84880192505b85831015612620578235848111156125b25760008081fd5b88016060818b03601f19018113156125ca5760008081fd5b6125d2612454565b878301356125df8161220c565b8152604083810135888111156125f55760008081fd5b6126038e8b838801016124cf565b8a840152509190920135908201528252918401919084019061259a565b98975050505050505050565b60006020828403121561263e57600080fd5b81356001600160401b0381111561265457600080fd5b6126608482850161253e565b949350505050565b602080825282518282018190526000919060409081850190868401855b828110156126c8578151805185528681015187860152858101516001600160a01b0316868601526060908101519085015260809093019290850190600101612685565b5091979650505050505050565b600080604083850312156126e857600080fd5b8235915060208301356126fa8161220c565b809150509250929050565b6101808152600061271a61018083018f61227b565b828103602084015261272c818f61227b565b90508281036040840152612740818e61227b565b90508281036060840152612754818d61227b565b90508281036080840152612768818c61227b565b90508960a084015282810360c0840152612782818a61227b565b90508760e084015282810361010084015261279d818861227b565b915050846101208301526127bd6101408301856001600160a01b03169052565b826101608301529d9c50505050505050505050505050565b6000806000606084860312156127ea57600080fd5b8335925060208401356001600160401b0381111561280757600080fd5b612813868287016124cf565b925050604084013590509250925092565b600060408284031215610b2157600080fd5b6000806040838503121561284957600080fd5b82356001600160401b0381111561285f57600080fd5b61286b85828601612824565b95602094909401359450505050565b6000806000806080858703121561289057600080fd5b84356001600160401b03808211156128a757600080fd5b6128b3888389016124cf565b955060208701359150808211156128c957600080fd5b6128d5888389016124cf565b945060408701359150808211156128eb57600080fd5b6128f78883890161253e565b9350606087013591508082111561290d57600080fd5b5061291a87828801612824565b91505092959194509250565b600060208083018184528085518083526040925060408601915060408160051b87010184880160005b838110156123f557888303603f19018552815180516001600160a01b03168452878101516060898601819052906129888287018261227b565b9289015195890195909552509487019492509086019060010161294f565b600080604083850312156129b957600080fd5b50508035926020909101359150565b6001600160a01b03841681526060602082018190526000906129ec9083018561227b565b9050826040830152949350505050565b60208082526021908201527f4f6e6c79206f776e65722063616e2063616c6c20746869732066756e6374696f6040820152603760f91b606082015260800190565b634e487b7160e01b600052601160045260246000fd5b81810381811115611d8557611d85612a3d565b600181811c90821680612a7a57607f821691505b602082108103610b2157634e487b7160e01b600052602260045260246000fd5b634e487b7160e01b600052603260045260246000fd5b8082028115828204841417611d8557611d85612a3d565b634e487b7160e01b600052601260045260246000fd5b600082612aec57612aec612ac7565b500490565b80820180821115611d8557611d85612a3d565b60008154612b1181612a66565b60018281168015612b295760018114612b3e57612b6d565b60ff1984168752821515830287019450612b6d565b8560005260208060002060005b85811015612b645781548a820152908401908201612b4b565b50505082870194505b5050505092915050565b6000610b8d8284612b04565b6000823560be19833603018112612b9957600080fd5b9190910192915050565b60008235601e19833603018112612b9957600080fd5b6000808335601e19843603018112612bd057600080fd5b8301803591506001600160401b03821115612bea57600080fd5b602001915036819003821315611d0857600080fd5b600060208284031215612c1157600080fd5b81356001600160401b0380821115612c2857600080fd5b908301906101008286031215612c3d57600080fd5b612c4561247c565b823582811115612c5457600080fd5b612c60878286016124cf565b825250602083013582811115612c7557600080fd5b612c81878286016124cf565b602083015250604083013582811115612c9957600080fd5b612ca5878286016124cf565b604083015250606083013582811115612cbd57600080fd5b612cc9878286016124cf565b606083015250608083013582811115612ce157600080fd5b612ced878286016124cf565b60808301525060a083013582811115612d0557600080fd5b612d11878286016124cf565b60a08301525060c083013560c082015260e083013582811115612d3357600080fd5b612d3f878286016124cf565b60e08301525095945050505050565b601f821115612d9a576000816000526020600020601f850160051c81016020861015612d775750805b601f850160051c820191505b81811015612d9657828155600101612d83565b5050505b505050565b81516001600160401b03811115612db857612db861243e565b612dcc81612dc68454612a66565b84612d4e565b602080601f831160018114612e015760008415612de95750858301515b600019600386901b1c1916600185901b178555612d96565b600085815260208120601f198616915b82811015612e3057888601518255948401946001909101908401612e11565b5085821015612e4e5787850151600019600388901b60f8161c191681555b5050505050600190811b01905550565b838152600060208460208401526060604084015260008454612e7f81612a66565b8060608701526080600180841660008114612ea15760018114612ebd57612eed565b60ff19851660808a0152608084151560051b8a01019550612eed565b89600052602060002060005b85811015612ee45781548b8201860152908301908801612ec9565b8a016080019650505b50939a9950505050505050505050565b60008251612b99818460208701612257565b600060018201612f2157612f21612a3d565b5060010190565b6000823560be19833603018112612f3e57600080fd5b90910192915050565b80356001600160401b0381168114612f5e57600080fd5b919050565b6000808335601e19843603018112612f7a57600080fd5b83016020810192503590506001600160401b03811115612f9957600080fd5b803603821315611d0857600080fd5b81835281816020850137506000828201602090810191909152601f909101601f19169091010190565b60008235601e19833603018112612f3e57600080fd5b6000612ff38283612f63565b60208552613005602086018284612fa8565b95945050505050565b8035825260208101356020830152600061302a60408301612f47565b6001600160401b0380821660408601528061304760608601612f47565b1660608601525050608082013560de1983360301811261306657600080fd5b60c0608085015282016130798180612f63565b60e060c087015261308f6101a087018284612fa8565b91505061309f6020830183612f63565b60bf19808885030160e08901526130b7848385612fa8565b93506130c66040860186612f63565b9350915080888503016101008901526130e0848484612fa8565b93506130ef6060860186612f63565b935091508088850301610120890152613109848484612fa8565b93506131186080860186612f63565b935091508088850301610140890152613132848484612fa8565b935061314160a0860186612f63565b93509150808885030161016089015261315b848484612fa8565b935061316a60c0860186612f63565b9550925080888503016101808901525050613186828483612fa8565b9250505061319760a0840184612fd1565b84820360a08601526130058282612fe7565b6020815260008235601e198436030181126131c357600080fd5b83016020810190356001600160401b038111156131df57600080fd5b8060051b8036038313156131f257600080fd5b60406020860152606085018290526001600160fb1b0382111561321457600080fd5b808360808701378401915061322e90506020850185612f28565b6060848303016040850152613005608083018261300e565b80518015158114612f5e57600080fd5b60006020828403121561326857600080fd5b610b8d82613246565b60008060006060848603121561328657600080fd5b8351925061329660208501613246565b9150604084015190509250925092565b6000826132b5576132b5612ac7565b500690565b6000602082840312156132cc57600080fd5b8151610b8d8161220c56fea2646970667358221220723cbdbdb820c51d21389a444d6e6eefebdbe98f4bf91311e96d53bb90089b1764736f6c63430008190033",
  "linkReferences": {},
  "deployedLinkReferences": {}
}