{
  "_format": "hh-sol-artifact-1",
  "contractName": "insuredFlightsAgency",
  "sourceName": "contracts/InsuredFlights/InsuredFlightsAgency.sol",
  "abi": [
    {
      "inputs": [
        {
          "internalType": "uint256",
          "name": "_insurancePrice",
          "type": "uint256"
        }
      ],
      "stateMutability": "nonpayable",
      "type": "constructor"
    },
    {
      "anonymous": false,
      "inputs": [
        {
          "indexed": false,
          "internalType": "uint256",
          "name": "insuredFlightId",
          "type": "uint256"
        },
        {
          "indexed": false,
          "internalType": "address",
          "name": "passenger",
          "type": "address"
        },
        {
          "indexed": false,
          "internalType": "uint256",
          "name": "secretNumber",
          "type": "uint256"
        }
      ],
      "name": "FlightClaimed",
      "type": "event"
    },
    {
      "anonymous": false,
      "inputs": [
        {
          "indexed": false,
          "internalType": "uint256",
          "name": "insuredFlightId",
          "type": "uint256"
        },
        {
          "indexed": false,
          "internalType": "uint256",
          "name": "flightDelayedTime",
          "type": "uint256"
        },
        {
          "indexed": false,
          "internalType": "string",
          "name": "flightStatus",
          "type": "string"
        }
      ],
      "name": "FlightInfoUpdated",
      "type": "event"
    },
    {
      "anonymous": false,
      "inputs": [
        {
          "indexed": false,
          "internalType": "uint256",
          "name": "insuredFlightId",
          "type": "uint256"
        }
      ],
      "name": "FlightInsured",
      "type": "event"
    },
    {
      "inputs": [],
      "name": "INSURANCE_PRICE",
      "outputs": [
        {
          "internalType": "uint256",
          "name": "",
          "type": "uint256"
        }
      ],
      "stateMutability": "view",
      "type": "function"
    },
    {
      "inputs": [],
      "name": "_generator",
      "outputs": [
        {
          "internalType": "contract RandomNumberV2Interface",
          "name": "",
          "type": "address"
        }
      ],
      "stateMutability": "view",
      "type": "function"
    },
    {
      "inputs": [
        {
          "internalType": "uint256",
          "name": "",
          "type": "uint256"
        }
      ],
      "name": "_insuranceClaims",
      "outputs": [
        {
          "internalType": "string",
          "name": "aircraftName",
          "type": "string"
        },
        {
          "internalType": "uint256",
          "name": "amountClaimed",
          "type": "uint256"
        },
        {
          "internalType": "uint256",
          "name": "dateClaimed",
          "type": "uint256"
        },
        {
          "internalType": "address",
          "name": "insuree",
          "type": "address"
        },
        {
          "internalType": "uint256",
          "name": "insuranceId",
          "type": "uint256"
        }
      ],
      "stateMutability": "view",
      "type": "function"
    },
    {
      "inputs": [
        {
          "internalType": "uint256",
          "name": "",
          "type": "uint256"
        }
      ],
      "name": "_insuredFlight",
      "outputs": [
        {
          "internalType": "string",
          "name": "aircraftIcao",
          "type": "string"
        },
        {
          "internalType": "string",
          "name": "aircraftName",
          "type": "string"
        },
        {
          "internalType": "string",
          "name": "flightDate",
          "type": "string"
        },
        {
          "internalType": "string",
          "name": "departureAirport",
          "type": "string"
        },
        {
          "internalType": "string",
          "name": "arrivalAirport",
          "type": "string"
        },
        {
          "internalType": "uint256",
          "name": "flightDelayedTime",
          "type": "uint256"
        },
        {
          "internalType": "string",
          "name": "flightNo",
          "type": "string"
        },
        {
          "internalType": "uint256",
          "name": "flight_price",
          "type": "uint256"
        },
        {
          "internalType": "string",
          "name": "status",
          "type": "string"
        },
        {
          "internalType": "uint256",
          "name": "lastChecked",
          "type": "uint256"
        },
        {
          "internalType": "address",
          "name": "insurer",
          "type": "address"
        },
        {
          "internalType": "uint256",
          "name": "insuranceId",
          "type": "uint256"
        }
      ],
      "stateMutability": "view",
      "type": "function"
    },
    {
      "inputs": [],
      "name": "_maxNumber",
      "outputs": [
        {
          "internalType": "uint256",
          "name": "",
          "type": "uint256"
        }
      ],
      "stateMutability": "view",
      "type": "function"
    },
    {
      "inputs": [],
      "name": "_totalAmountInsurance",
      "outputs": [
        {
          "internalType": "uint256",
          "name": "",
          "type": "uint256"
        }
      ],
      "stateMutability": "view",
      "type": "function"
    },
    {
      "inputs": [
        {
          "components": [
            {
              "internalType": "string",
              "name": "aircraft_name",
              "type": "string"
            },
            {
              "internalType": "string",
              "name": "aircraft_reg",
              "type": "string"
            },
            {
              "internalType": "string",
              "name": "flight_no",
              "type": "string"
            },
            {
              "internalType": "string",
              "name": "flight_date",
              "type": "string"
            },
            {
              "internalType": "string",
              "name": "departure_airport",
              "type": "string"
            },
            {
              "internalType": "string",
              "name": "arrival_airport",
              "type": "string"
            },
            {
              "internalType": "uint256",
              "name": "flight_delayed_time",
              "type": "uint256"
            },
            {
              "internalType": "string",
              "name": "flight_status",
              "type": "string"
            }
          ],
          "internalType": "struct DataTransportObject",
          "name": "dto",
          "type": "tuple"
        }
      ],
      "name": "abiSignatureHack",
      "outputs": [],
      "stateMutability": "pure",
      "type": "function"
    },
    {
      "inputs": [
        {
          "components": [
            {
              "internalType": "bytes32[]",
              "name": "merkleProof",
              "type": "bytes32[]"
            },
            {
              "components": [
                {
                  "internalType": "bytes32",
                  "name": "attestationType",
                  "type": "bytes32"
                },
                {
                  "internalType": "bytes32",
                  "name": "sourceId",
                  "type": "bytes32"
                },
                {
                  "internalType": "uint64",
                  "name": "votingRound",
                  "type": "uint64"
                },
                {
                  "internalType": "uint64",
                  "name": "lowestUsedTimestamp",
                  "type": "uint64"
                },
                {
                  "components": [
                    {
                      "internalType": "string",
                      "name": "url",
                      "type": "string"
                    },
                    {
                      "internalType": "string",
                      "name": "httpMethod",
                      "type": "string"
                    },
                    {
                      "internalType": "string",
                      "name": "headers",
                      "type": "string"
                    },
                    {
                      "internalType": "string",
                      "name": "queryParams",
                      "type": "string"
                    },
                    {
                      "internalType": "string",
                      "name": "body",
                      "type": "string"
                    },
                    {
                      "internalType": "string",
                      "name": "postProcessJq",
                      "type": "string"
                    },
                    {
                      "internalType": "string",
                      "name": "abiSignature",
                      "type": "string"
                    }
                  ],
                  "internalType": "struct IWeb2Json.RequestBody",
                  "name": "requestBody",
                  "type": "tuple"
                },
                {
                  "components": [
                    {
                      "internalType": "bytes",
                      "name": "abiEncodedData",
                      "type": "bytes"
                    }
                  ],
                  "internalType": "struct IWeb2Json.ResponseBody",
                  "name": "responseBody",
                  "type": "tuple"
                }
              ],
              "internalType": "struct IWeb2Json.Response",
              "name": "data",
              "type": "tuple"
            }
          ],
          "internalType": "struct IWeb2Json.Proof",
          "name": "data",
          "type": "tuple"
        },
        {
          "internalType": "uint256",
          "name": "insuredFlightId",
          "type": "uint256"
        }
      ],
      "name": "checkFlightDelay",
      "outputs": [],
      "stateMutability": "nonpayable",
      "type": "function"
    },
    {
      "inputs": [
        {
          "internalType": "uint256",
          "name": "insuredFlightId",
          "type": "uint256"
        },
        {
          "internalType": "string",
          "name": "flight_no",
          "type": "string"
        },
        {
          "internalType": "uint256",
          "name": "predictedNumber",
          "type": "uint256"
        }
      ],
      "name": "claimInsurance",
      "outputs": [
        {
          "internalType": "uint256",
          "name": "secretNumber",
          "type": "uint256"
        },
        {
          "internalType": "bool",
          "name": "_predictedSuccess",
          "type": "bool"
        }
      ],
      "stateMutability": "nonpayable",
      "type": "function"
    },
    {
      "inputs": [],
      "name": "getAllClaims",
      "outputs": [
        {
          "components": [
            {
              "internalType": "string",
              "name": "aircraftName",
              "type": "string"
            },
            {
              "internalType": "uint256",
              "name": "amountClaimed",
              "type": "uint256"
            },
            {
              "internalType": "uint256",
              "name": "dateClaimed",
              "type": "uint256"
            },
            {
              "internalType": "address",
              "name": "insuree",
              "type": "address"
            },
            {
              "internalType": "uint256",
              "name": "insuranceId",
              "type": "uint256"
            }
          ],
          "internalType": "struct AllClaims[]",
          "name": "",
          "type": "tuple[]"
        }
      ],
      "stateMutability": "view",
      "type": "function"
    },
    {
      "inputs": [],
      "name": "getAllInsureFlights",
      "outputs": [
        {
          "components": [
            {
              "internalType": "string",
              "name": "aircraftIcao",
              "type": "string"
            },
            {
              "internalType": "string",
              "name": "aircraftName",
              "type": "string"
            },
            {
              "internalType": "string",
              "name": "flightDate",
              "type": "string"
            },
            {
              "internalType": "string",
              "name": "departureAirport",
              "type": "string"
            },
            {
              "internalType": "string",
              "name": "arrivalAirport",
              "type": "string"
            },
            {
              "internalType": "uint256",
              "name": "flightDelayedTime",
              "type": "uint256"
            },
            {
              "internalType": "string",
              "name": "flightNo",
              "type": "string"
            },
            {
              "components": [
                {
                  "internalType": "address",
                  "name": "wallet",
                  "type": "address"
                },
                {
                  "internalType": "string",
                  "name": "ticketType",
                  "type": "string"
                },
                {
                  "internalType": "uint256",
                  "name": "ticketPrice",
                  "type": "uint256"
                }
              ],
              "internalType": "struct Passenger[]",
              "name": "passengers",
              "type": "tuple[]"
            },
            {
              "internalType": "uint256",
              "name": "flight_price",
              "type": "uint256"
            },
            {
              "internalType": "string",
              "name": "status",
              "type": "string"
            },
            {
              "internalType": "uint256",
              "name": "lastChecked",
              "type": "uint256"
            },
            {
              "internalType": "address",
              "name": "insurer",
              "type": "address"
            },
            {
              "internalType": "uint256",
              "name": "insuranceId",
              "type": "uint256"
            }
          ],
          "internalType": "struct InsuredFlight[]",
          "name": "",
          "type": "tuple[]"
        }
      ],
      "stateMutability": "view",
      "type": "function"
    },
    {
      "inputs": [
        {
          "components": [
            {
              "internalType": "address",
              "name": "wallet",
              "type": "address"
            },
            {
              "internalType": "string",
              "name": "ticketType",
              "type": "string"
            },
            {
              "internalType": "uint256",
              "name": "ticketPrice",
              "type": "uint256"
            }
          ],
          "internalType": "struct Passenger[]",
          "name": "passengers",
          "type": "tuple[]"
        }
      ],
      "name": "getCostOfInsurance",
      "outputs": [
        {
          "internalType": "uint256",
          "name": "",
          "type": "uint256"
        }
      ],
      "stateMutability": "view",
      "type": "function"
    },
    {
      "inputs": [],
      "name": "getInsurancePrice",
      "outputs": [
        {
          "internalType": "uint256",
          "name": "",
          "type": "uint256"
        }
      ],
      "stateMutability": "view",
      "type": "function"
    },
    {
      "inputs": [],
      "name": "insuranceClaimsIds",
      "outputs": [
        {
          "internalType": "uint256",
          "name": "",
          "type": "uint256"
        }
      ],
      "stateMutability": "view",
      "type": "function"
    },
    {
      "inputs": [],
      "name": "insurance_delay_time",
      "outputs": [
        {
          "internalType": "uint256",
          "name": "",
          "type": "uint256"
        }
      ],
      "stateMutability": "view",
      "type": "function"
    },
    {
      "inputs": [
        {
          "internalType": "string",
          "name": "aircraft_icao",
          "type": "string"
        },
        {
          "internalType": "string",
          "name": "flight_no",
          "type": "string"
        },
        {
          "components": [
            {
              "internalType": "address",
              "name": "wallet",
              "type": "address"
            },
            {
              "internalType": "string",
              "name": "ticketType",
              "type": "string"
            },
            {
              "internalType": "uint256",
              "name": "ticketPrice",
              "type": "uint256"
            }
          ],
          "internalType": "struct Passenger[]",
          "name": "passengers",
          "type": "tuple[]"
        },
        {
          "components": [
            {
              "internalType": "bytes32[]",
              "name": "merkleProof",
              "type": "bytes32[]"
            },
            {
              "components": [
                {
                  "internalType": "bytes32",
                  "name": "attestationType",
                  "type": "bytes32"
                },
                {
                  "internalType": "bytes32",
                  "name": "sourceId",
                  "type": "bytes32"
                },
                {
                  "internalType": "uint64",
                  "name": "votingRound",
                  "type": "uint64"
                },
                {
                  "internalType": "uint64",
                  "name": "lowestUsedTimestamp",
                  "type": "uint64"
                },
                {
                  "components": [
                    {
                      "internalType": "string",
                      "name": "url",
                      "type": "string"
                    },
                    {
                      "internalType": "string",
                      "name": "httpMethod",
                      "type": "string"
                    },
                    {
                      "internalType": "string",
                      "name": "headers",
                      "type": "string"
                    },
                    {
                      "internalType": "string",
                      "name": "queryParams",
                      "type": "string"
                    },
                    {
                      "internalType": "string",
                      "name": "body",
                      "type": "string"
                    },
                    {
                      "internalType": "string",
                      "name": "postProcessJq",
                      "type": "string"
                    },
                    {
                      "internalType": "string",
                      "name": "abiSignature",
                      "type": "string"
                    }
                  ],
                  "internalType": "struct IWeb2Json.RequestBody",
                  "name": "requestBody",
                  "type": "tuple"
                },
                {
                  "components": [
                    {
                      "internalType": "bytes",
                      "name": "abiEncodedData",
                      "type": "bytes"
                    }
                  ],
                  "internalType": "struct IWeb2Json.ResponseBody",
                  "name": "responseBody",
                  "type": "tuple"
                }
              ],
              "internalType": "struct IWeb2Json.Response",
              "name": "data",
              "type": "tuple"
            }
          ],
          "internalType": "struct IWeb2Json.Proof",
          "name": "data",
          "type": "tuple"
        }
      ],
      "name": "insureFlight",
      "outputs": [],
      "stateMutability": "payable",
      "type": "function"
    },
    {
      "inputs": [],
      "name": "insuredFlightIds",
      "outputs": [
        {
          "internalType": "uint256",
          "name": "",
          "type": "uint256"
        }
      ],
      "stateMutability": "view",
      "type": "function"
    },
    {
      "inputs": [
        {
          "internalType": "uint256",
          "name": "",
          "type": "uint256"
        },
        {
          "internalType": "address",
          "name": "",
          "type": "address"
        }
      ],
      "name": "insuredFlightPassengersStatus",
      "outputs": [
        {
          "internalType": "bool",
          "name": "",
          "type": "bool"
        }
      ],
      "stateMutability": "view",
      "type": "function"
    },
    {
      "inputs": [],
      "name": "owner",
      "outputs": [
        {
          "internalType": "address",
          "name": "",
          "type": "address"
        }
      ],
      "stateMutability": "view",
      "type": "function"
    },
    {
      "inputs": [],
      "name": "recieve",
      "outputs": [],
      "stateMutability": "payable",
      "type": "function"
    },
    {
      "inputs": [
        {
          "internalType": "uint256",
          "name": "_insurancePrice",
          "type": "uint256"
        }
      ],
      "name": "setInsurancePrice",
      "outputs": [],
      "stateMutability": "nonpayable",
      "type": "function"
    },
    {
      "inputs": [
        {
          "internalType": "address",
          "name": "to",
          "type": "address"
        }
      ],
      "name": "transferAccumulatedFees",
      "outputs": [],
      "stateMutability": "nonpayable",
      "type": "function"
    }
  ],
  "bytecode": "0x608060405234801561001057600080fd5b50604051613fc3380380613fc383398101604081905261002f916101f3565b6002819055601e600355600160008190558055600a80546001600160a01b0319163317905561005c61008a565b600980546001600160a01b0319166001600160a01b039290921691909117905561008461015b565b5061029c565b600073ad67fe66660fb8dfe9d6b1b4240d8650e30f60196001600160a01b031663159354a26040516020016100e1906020808252600e908201526d2930b73237b6a73ab6b132b92b1960911b604082015260600190565b604051602081830303815290604052805190602001206040518263ffffffff1660e01b815260040161011591815260200190565b602060405180830381865afa158015610132573d6000803e3d6000fd5b505050506040513d601f19601f82011682018060405250810190610156919061020c565b905090565b6009546040805163dbdff2c160e01b815290516000926001600160a01b03169163dbdff2c19160048083019260609291908290030181865afa1580156101a5573d6000803e3d6000fd5b505050506040513d601f19601f820116820180604052508101906101c9919061023c565b505090506014816101da919061027a565b6007805461ffff191661ffff9290921691909117905550565b60006020828403121561020557600080fd5b5051919050565b60006020828403121561021e57600080fd5b81516001600160a01b038116811461023557600080fd5b9392505050565b60008060006060848603121561025157600080fd5b835192506020840151801515811461026857600080fd5b80925050604084015190509250925092565b60008261029757634e487b7160e01b600052601260045260246000fd5b500690565b613d18806102ab6000396000f3fe6080604052600436106101355760003560e01c80638060156b116100ab578063a9e10bf21161006f578063a9e10bf214610182578063c517f06914610389578063cc75384a146103be578063e0d4153e146103d1578063ec091c17146103e7578063fb458f9b1461040757600080fd5b80638060156b146102985780638289b588146102d05780638c774f151461031b5780638da5cb5b14610353578063945b53951461037357600080fd5b80633c9e6140116100fd5780633c9e6140146101d15780633f645bbc146101ef57806351116f47146102205780635b23c27d14610240578063771b00fd14610262578063791b5e0a1461027857600080fd5b806303a072431461013a5780631f69d1c11461016257806322526a5714610184578063293697521461019957806339025768146101bb575b600080fd5b34801561014657600080fd5b5061014f601481565b6040519081526020015b60405180910390f35b34801561016e57600080fd5b5061018261017d366004612cf5565b61041d565b005b34801561019057600080fd5b5060025461014f565b3480156101a557600080fd5b506101ae6104d1565b6040516101599190612de6565b3480156101c757600080fd5b5061014f60035481565b3480156101dd57600080fd5b506101826101ec366004612f5e565b50565b3480156101fb57600080fd5b5061020f61020a366004612f99565b610b34565b604051610159959493929190612fb2565b34801561022c57600080fd5b5061014f61023b3660046131e0565b610bf7565b34801561024c57600080fd5b50610255610c64565b604051610159919061321c565b34801561026e57600080fd5b5061014f60085481565b34801561028457600080fd5b506101826102933660046132c0565b610e01565b3480156102a457600080fd5b506009546102b8906001600160a01b031681565b6040516001600160a01b039091168152602001610159565b3480156102dc57600080fd5b5061030b6102eb366004613304565b600660209081526000928352604080842090915290825290205460ff1681565b6040519015158152602001610159565b34801561032757600080fd5b5061033b610336366004612f99565b611780565b6040516101599c9b9a99989796959493929190613334565b34801561035f57600080fd5b50600a546102b8906001600160a01b031681565b34801561037f57600080fd5b5061014f60015481565b34801561039557600080fd5b506103a96103a4366004613404565b611b9c565b60408051928352901515602083015201610159565b6101826103cc366004613453565b612642565b3480156103dd57600080fd5b5061014f60005481565b3480156103f357600080fd5b50610182610402366004612f99565b612a6c565b34801561041357600080fd5b5061014f60025481565b600a546001600160a01b031633146104505760405162461bcd60e51b8152600401610447906134ff565b60405180910390fd5b6001600160a01b0381166104985760405162461bcd60e51b815260206004820152600f60248201526e496e76616c6964206164647265737360881b6044820152606401610447565b6040516001600160a01b038216904780156108fc02916000818181858888f193505050501580156104cd573d6000803e3d6000fd5b5050565b6060600080546001600160401b038111156104ee576104ee612ff2565b60405190808252806020026020018201604052801561059357816020015b610580604051806101a00160405280606081526020016060815260200160608152602001606081526020016060815260200160008152602001606081526020016060815260200160008152602001606081526020016000815260200160006001600160a01b03168152602001600081525090565b81526020019060019003908161050c5790505b50905060005b600054811015610b2e576000818152600460205260409081902081516101a081019092528054829082906105cc90613540565b80601f01602080910402602001604051908101604052809291908181526020018280546105f890613540565b80156106455780601f1061061a57610100808354040283529160200191610645565b820191906000526020600020905b81548152906001019060200180831161062857829003601f168201915b5050505050815260200160018201805461065e90613540565b80601f016020809104026020016040519081016040528092919081815260200182805461068a90613540565b80156106d75780601f106106ac576101008083540402835291602001916106d7565b820191906000526020600020905b8154815290600101906020018083116106ba57829003601f168201915b505050505081526020016002820180546106f090613540565b80601f016020809104026020016040519081016040528092919081815260200182805461071c90613540565b80156107695780601f1061073e57610100808354040283529160200191610769565b820191906000526020600020905b81548152906001019060200180831161074c57829003601f168201915b5050505050815260200160038201805461078290613540565b80601f01602080910402602001604051908101604052809291908181526020018280546107ae90613540565b80156107fb5780601f106107d0576101008083540402835291602001916107fb565b820191906000526020600020905b8154815290600101906020018083116107de57829003601f168201915b5050505050815260200160048201805461081490613540565b80601f016020809104026020016040519081016040528092919081815260200182805461084090613540565b801561088d5780601f106108625761010080835404028352916020019161088d565b820191906000526020600020905b81548152906001019060200180831161087057829003601f168201915b50505050508152602001600582015481526020016006820180546108b090613540565b80601f01602080910402602001604051908101604052809291908181526020018280546108dc90613540565b80156109295780601f106108fe57610100808354040283529160200191610929565b820191906000526020600020905b81548152906001019060200180831161090c57829003601f168201915b5050505050815260200160078201805480602002602001604051908101604052809291908181526020016000905b82821015610a3b57600084815260209081902060408051606081019091526003850290910180546001600160a01b0316825260018101805492939192918401916109a090613540565b80601f01602080910402602001604051908101604052809291908181526020018280546109cc90613540565b8015610a195780601f106109ee57610100808354040283529160200191610a19565b820191906000526020600020905b8154815290600101906020018083116109fc57829003601f168201915b5050505050815260200160028201548152505081526020019060010190610957565b50505050815260200160088201548152602001600982018054610a5d90613540565b80601f0160208091040260200160405190810160405280929190818152602001828054610a8990613540565b8015610ad65780601f10610aab57610100808354040283529160200191610ad6565b820191906000526020600020905b815481529060010190602001808311610ab957829003601f168201915b5050509183525050600a8201546020820152600b8201546001600160a01b03166040820152600c909101546060909101528251839083908110610b1b57610b1b613574565b6020908102919091010152600101610599565b50919050565b600560205260009081526040902080548190610b4f90613540565b80601f0160208091040260200160405190810160405280929190818152602001828054610b7b90613540565b8015610bc85780601f10610b9d57610100808354040283529160200191610bc8565b820191906000526020600020905b815481529060010190602001808311610bab57829003601f168201915b505050600184015460028501546003860154600490960154949591949093506001600160a01b03909116915085565b600080805b8351811015610c4f576064848281518110610c1957610c19613574565b602002602001015160400151600a610c3191906135a0565b610c3b91906135cd565b610c4590836135e1565b9150600101610bfc565b50600254610c5d90826135e1565b9392505050565b606060006001546001600160401b03811115610c8257610c82612ff2565b604051908082528060200260200182016040528015610cee57816020015b610cdb6040518060a0016040528060608152602001600081526020016000815260200160006001600160a01b03168152602001600081525090565b815260200190600190039081610ca05790505b50905060005b600154811015610b2e5760008181526005602052604090819020815160a08101909252805482908290610d2690613540565b80601f0160208091040260200160405190810160405280929190818152602001828054610d5290613540565b8015610d9f5780601f10610d7457610100808354040283529160200191610d9f565b820191906000526020600020905b815481529060010190602001808311610d8257829003601f168201915b5050509183525050600182015460208201526002820154604082015260038201546001600160a01b031660608201526004909101546080909101528251839083908110610dee57610dee613574565b6020908102919091010152600101610cf4565b60008181526004602052604080822081516101a08101909252805482908290610e2990613540565b80601f0160208091040260200160405190810160405280929190818152602001828054610e5590613540565b8015610ea25780601f10610e7757610100808354040283529160200191610ea2565b820191906000526020600020905b815481529060010190602001808311610e8557829003601f168201915b50505050508152602001600182018054610ebb90613540565b80601f0160208091040260200160405190810160405280929190818152602001828054610ee790613540565b8015610f345780601f10610f0957610100808354040283529160200191610f34565b820191906000526020600020905b815481529060010190602001808311610f1757829003601f168201915b50505050508152602001600282018054610f4d90613540565b80601f0160208091040260200160405190810160405280929190818152602001828054610f7990613540565b8015610fc65780601f10610f9b57610100808354040283529160200191610fc6565b820191906000526020600020905b815481529060010190602001808311610fa957829003601f168201915b50505050508152602001600382018054610fdf90613540565b80601f016020809104026020016040519081016040528092919081815260200182805461100b90613540565b80156110585780601f1061102d57610100808354040283529160200191611058565b820191906000526020600020905b81548152906001019060200180831161103b57829003601f168201915b5050505050815260200160048201805461107190613540565b80601f016020809104026020016040519081016040528092919081815260200182805461109d90613540565b80156110ea5780601f106110bf576101008083540402835291602001916110ea565b820191906000526020600020905b8154815290600101906020018083116110cd57829003601f168201915b505050505081526020016005820154815260200160068201805461110d90613540565b80601f016020809104026020016040519081016040528092919081815260200182805461113990613540565b80156111865780601f1061115b57610100808354040283529160200191611186565b820191906000526020600020905b81548152906001019060200180831161116957829003601f168201915b5050505050815260200160078201805480602002602001604051908101604052809291908181526020016000905b8282101561129857600084815260209081902060408051606081019091526003850290910180546001600160a01b0316825260018101805492939192918401916111fd90613540565b80601f016020809104026020016040519081016040528092919081815260200182805461122990613540565b80156112765780601f1061124b57610100808354040283529160200191611276565b820191906000526020600020905b81548152906001019060200180831161125957829003601f168201915b50505050508152602001600282015481525050815260200190600101906111b4565b505050508152602001600882015481526020016009820180546112ba90613540565b80601f01602080910402602001604051908101604052809291908181526020018280546112e690613540565b80156113335780601f1061130857610100808354040283529160200191611333565b820191906000526020600020905b81548152906001019060200180831161131657829003601f168201915b5050509183525050600a8201546020820152600b8201546001600160a01b03166040820152600c90910154606090910152600054610180820151919250116113b15760405162461bcd60e51b8152602060048201526011602482015270496e76616c696420496e737572616e636560781b6044820152606401610447565b8061016001516001600160a01b0316336001600160a01b031614806114095750336001600160a01b03168160e001516000815181106113f2576113f2613574565b6020026020010151600001516001600160a01b0316145b8061141e5750600a546001600160a01b031633145b6114855760405162461bcd60e51b815260206004820152603260248201527f45697468657220496e7375726572206f722050617373656e6765722063616e20604482015271636865636b20666c696768742064656c617960701b6064820152608401610447565b604051681cd8da19591d5b195960ba1b6020820152602901604051602081830303815290604052805190602001208161012001516040516020016114c991906135f4565b604051602081830303815290604052805190602001201461152c5760405162461bcd60e51b815260206004820152601d60248201527f466c696768742073746174757320616c726561647920757064617465640000006044820152606401610447565b610258816101400151426115409190613610565b1161159c5760405162461bcd60e51b815260206004820152602660248201527f466c6967687420636865636b206973206174203130206d696e7574657320696e6044820152651d195c9d985b60d21b6064820152608401610447565b6115a583612afa565b6115e15760405162461bcd60e51b815260206004820152600d60248201526c24b73b30b634b210383937b7b360991b6044820152606401610447565b60006115f06020850185613623565b6115fe9060a0810190613639565b611608908061364f565b810190611615919061369c565b90506003548160c00151101580156116df57506040516561637469766560d01b6020820152602601604051602081830303815290604052805190602001208160e0015160405160200161166891906135f4565b604051602081830303815290604052805190602001201415806116df5750604051651b185b99195960d21b6020820152602601604051602081830303815290604052805190602001208160e001516040516020016116c691906135f4565b6040516020818303038152906040528051906020012014155b1561171e5760e0810151600084815260046020526040902060090190611705908261383c565b5060c08101516000848152600460205260409020600501555b6000838152600460205260409081902042600a9091015560a083015161012084015191517fad522330e0a333ea20b30192e7bf44fd414759973e0d47d6e02d4b5f0e9ceae4926117729287929091906138fb565b60405180910390a150505050565b60046020526000908152604090208054819061179b90613540565b80601f01602080910402602001604051908101604052809291908181526020018280546117c790613540565b80156118145780601f106117e957610100808354040283529160200191611814565b820191906000526020600020905b8154815290600101906020018083116117f757829003601f168201915b50505050509080600101805461182990613540565b80601f016020809104026020016040519081016040528092919081815260200182805461185590613540565b80156118a25780601f10611877576101008083540402835291602001916118a2565b820191906000526020600020905b81548152906001019060200180831161188557829003601f168201915b5050505050908060020180546118b790613540565b80601f01602080910402602001604051908101604052809291908181526020018280546118e390613540565b80156119305780601f1061190557610100808354040283529160200191611930565b820191906000526020600020905b81548152906001019060200180831161191357829003601f168201915b50505050509080600301805461194590613540565b80601f016020809104026020016040519081016040528092919081815260200182805461197190613540565b80156119be5780601f10611993576101008083540402835291602001916119be565b820191906000526020600020905b8154815290600101906020018083116119a157829003601f168201915b5050505050908060040180546119d390613540565b80601f01602080910402602001604051908101604052809291908181526020018280546119ff90613540565b8015611a4c5780601f10611a2157610100808354040283529160200191611a4c565b820191906000526020600020905b815481529060010190602001808311611a2f57829003601f168201915b505050505090806005015490806006018054611a6790613540565b80601f0160208091040260200160405190810160405280929190818152602001828054611a9390613540565b8015611ae05780601f10611ab557610100808354040283529160200191611ae0565b820191906000526020600020905b815481529060010190602001808311611ac357829003601f168201915b505050505090806008015490806009018054611afb90613540565b80601f0160208091040260200160405190810160405280929190818152602001828054611b2790613540565b8015611b745780601f10611b4957610100808354040283529160200191611b74565b820191906000526020600020905b815481529060010190602001808311611b5757829003601f168201915b50505050600a830154600b840154600c90940154929390926001600160a01b0390911691508c565b600080600060046000878152602001908152602001600020604051806101a0016040529081600082018054611bd090613540565b80601f0160208091040260200160405190810160405280929190818152602001828054611bfc90613540565b8015611c495780601f10611c1e57610100808354040283529160200191611c49565b820191906000526020600020905b815481529060010190602001808311611c2c57829003601f168201915b50505050508152602001600182018054611c6290613540565b80601f0160208091040260200160405190810160405280929190818152602001828054611c8e90613540565b8015611cdb5780601f10611cb057610100808354040283529160200191611cdb565b820191906000526020600020905b815481529060010190602001808311611cbe57829003601f168201915b50505050508152602001600282018054611cf490613540565b80601f0160208091040260200160405190810160405280929190818152602001828054611d2090613540565b8015611d6d5780601f10611d4257610100808354040283529160200191611d6d565b820191906000526020600020905b815481529060010190602001808311611d5057829003601f168201915b50505050508152602001600382018054611d8690613540565b80601f0160208091040260200160405190810160405280929190818152602001828054611db290613540565b8015611dff5780601f10611dd457610100808354040283529160200191611dff565b820191906000526020600020905b815481529060010190602001808311611de257829003601f168201915b50505050508152602001600482018054611e1890613540565b80601f0160208091040260200160405190810160405280929190818152602001828054611e4490613540565b8015611e915780601f10611e6657610100808354040283529160200191611e91565b820191906000526020600020905b815481529060010190602001808311611e7457829003601f168201915b5050505050815260200160058201548152602001600682018054611eb490613540565b80601f0160208091040260200160405190810160405280929190818152602001828054611ee090613540565b8015611f2d5780601f10611f0257610100808354040283529160200191611f2d565b820191906000526020600020905b815481529060010190602001808311611f1057829003601f168201915b5050505050815260200160078201805480602002602001604051908101604052809291908181526020016000905b8282101561203f57600084815260209081902060408051606081019091526003850290910180546001600160a01b031682526001810180549293919291840191611fa490613540565b80601f0160208091040260200160405190810160405280929190818152602001828054611fd090613540565b801561201d5780601f10611ff25761010080835404028352916020019161201d565b820191906000526020600020905b81548152906001019060200180831161200057829003601f168201915b5050505050815260200160028201548152505081526020019060010190611f5b565b5050505081526020016008820154815260200160098201805461206190613540565b80601f016020809104026020016040519081016040528092919081815260200182805461208d90613540565b80156120da5780601f106120af576101008083540402835291602001916120da565b820191906000526020600020905b8154815290600101906020018083116120bd57829003601f168201915b50505050508152602001600a8201548152602001600b820160009054906101000a90046001600160a01b03166001600160a01b03166001600160a01b03168152602001600c8201548152505090508460405160200161213991906135f4565b604051602081830303815290604052805190602001208160c0015160405160200161216491906135f4565b60405160208183030381529060405280519060200120146121c75760405162461bcd60e51b815260206004820152601760248201527f466c69676874204e6f20646f65736e2774206d617463680000000000000000006044820152606401610447565b6003548160a0015110156122125760405162461bcd60e51b8152602060048201526012602482015271119b1a59da1d08139bdd0811195b185e595960721b6044820152606401610447565b600086815260066020908152604080832033845290915290205460ff166122975760405162461bcd60e51b815260206004820152603360248201527f50617373656e676572206e6f7420696e7375726564204f5220496e737572616e60448201527218d948185b1c9958591e481c995919595b5959606a1b6064820152608401610447565b60008681526006602090815260408083203384529091528120805460ff1916905560075461ffff16935084156124735760075461ffff1685036123b0576000336001600160a01b03166064846101000151600a6122f491906135a0565b6122fe91906135cd565b604051600081818185875af1925050503d806000811461233a576040519150601f19603f3d011682016040523d82523d6000602084013e61233f565b606091505b50509050806123825760405162461bcd60e51b815260206004820152600f60248201526e151c985b9cd9995c8819985a5b1959608a1b6044820152606401610447565b6064836101000151600a61239691906135a0565b6123a091906135cd565b91506123aa612b76565b50612576565b60405160009033906706f05b59d3b20000908381818185875af1925050503d80600081146123fa576040519150601f19603f3d011682016040523d82523d6000602084013e6123ff565b606091505b50509050806124475760405162461bcd60e51b8152602060048201526014602482015273496e73756666696369656e742062616c616e636560601b6044820152606401610447565b6064836101000151600a61245b91906135a0565b61246591906135cd565b9150600193506123aa612b76565b600085118015612489575060075461ffff168514155b15612576576000336001600160a01b031660026064856101000151600a6124b091906135a0565b6124ba91906135cd565b6124c491906135cd565b604051600081818185875af1925050503d8060008114612500576040519150601f19603f3d011682016040523d82523d6000602084013e612505565b606091505b50509050806125485760405162461bcd60e51b815260206004820152600f60248201526e151c985b9cd9995c8819985a5b1959608a1b6044820152606401610447565b6064836101000151600a61255c91906135a0565b61256691906135cd565b915060009350612574612b76565b505b60208083015160015460009081526005909252604090912090612599908261383c565b5060018054600090815260056020526040808220830184905582548252808220426002909101558254825280822060030180546001600160a01b03191633179055825482528120600401899055815491906125f383613923565b9091555050604080518881523360208201529081018590527f1527a28ce4fd3db6312cdc84eb52b89b5da4269ae6a4f7b5854029a914425fb99060600160405180910390a15050935093915050565b6000805b835181101561269957606484828151811061266357612663613574565b602002602001015160400151600a61267b91906135a0565b61268591906135cd565b61268f90836135e1565b9150600101612646565b506002546126a790826135e1565b34146126e65760405162461bcd60e51b815260206004820152600e60248201526d125b9d985b1a5908185b5bdd5b9d60921b6044820152606401610447565b6126ef82612afa565b61272b5760405162461bcd60e51b815260206004820152600d60248201526c24b73b30b634b210383937b7b360991b6044820152606401610447565b600061273a6020840184613623565b6127489060a0810190613639565b612752908061364f565b81019061275f919061369c565b604051681cd8da19591d5b195960ba1b6020820152909150602901604051602081830303815290604052805190602001208160e001516040516020016127a591906135f4565b604051602081830303815290604052805190602001201461281b5760405162461bcd60e51b815260206004820152602a60248201527f466c69676874204e6f20646f65736e2774206d617463682061207363686564756044820152691b195908199b1a59da1d60b21b6064820152608401610447565b600080548152600460205260409020612834878261383c565b50805160008054815260046020526040902060010190612854908261383c565b50606081015160008054815260046020526040902060020190612877908261383c565b5060808101516000805481526004602052604090206003019061289a908261383c565b5060a081015160008054815260046020819052604090912001906128be908261383c565b5060c0810151600080548152600460205260408082206005019290925580548152206006016128ed868261383c565b506000805481526004602052604080822060080184905560e08301518254835291206009019061291d908261383c565b506000805481526004602052604080822042600a9091015581548252808220600b0180546001600160a01b031916331790558154808352908220600c01556008805484929061296d9084906135e1565b90915550600090505b8451811015612a145760046000805481526020019081526020016000206007018582815181106129a8576129a8613574565b602090810291909101810151825460018082018555600094855293839020825160039092020180546001600160a01b0319166001600160a01b039092169190911781559181015190928201906129fe908261383c565b5060409190910151600290910155600101612976565b50600080549080612a2483613923565b91905055507fc8025f815ce5846bb23a1e70c00825ff76c450559769399af7e28de99a03405e600054604051612a5c91815260200190565b60405180910390a1505050505050565b600a546001600160a01b03163314612a965760405162461bcd60e51b8152600401610447906134ff565b60008111612af55760405162461bcd60e51b815260206004820152602660248201527f496e737572616e6365207072696365206d75737420626520677265617465722060448201526507468616e20360d41b6064820152608401610447565b600255565b6000612b04612c0e565b6001600160a01b031663d2d3a41f836040518263ffffffff1660e01b8152600401612b2f9190613bb4565b602060405180830381865afa158015612b4c573d6000803e3d6000fd5b505050506040513d601f19601f82011682018060405250810190612b709190613c61565b92915050565b6009546040805163dbdff2c160e01b815290516000926001600160a01b03169163dbdff2c19160048083019260609291908290030181865afa158015612bc0573d6000803e3d6000fd5b505050506040513d601f19601f82011682018060405250810190612be49190613c7c565b50509050601481612bf59190613cb1565b6007805461ffff191661ffff9290921691909117905550565b600073ad67fe66660fb8dfe9d6b1b4240d8650e30f60196001600160a01b031663159354a2604051602001612c66906020808252600f908201526e233231ab32b934b334b1b0ba34b7b760891b604082015260600190565b604051602081830303815290604052805190602001206040518263ffffffff1660e01b8152600401612c9a91815260200190565b602060405180830381865afa158015612cb7573d6000803e3d6000fd5b505050506040513d601f19601f82011682018060405250810190612cdb9190613cc5565b905090565b6001600160a01b03811681146101ec57600080fd5b600060208284031215612d0757600080fd5b8135610c5d81612ce0565b60005b83811015612d2d578181015183820152602001612d15565b50506000910152565b60008151808452612d4e816020860160208601612d12565b601f01601f19169290920160200192915050565b600082825180855260208086019550808260051b84010181860160005b84811015612dd957858303601f19018952815180516001600160a01b0316845284810151606086860181905290612db882870182612d36565b60409384015196909301959095525098840198925090830190600101612d7f565b5090979650505050505050565b600060208083018184528085518083526040925060408601915060408160051b87010184880160005b83811015612f5057603f1989840301855281516101a08151818652612e3682870182612d36565b915050888201518582038a870152612e4e8282612d36565b9150508782015185820389870152612e668282612d36565b91505060608083015186830382880152612e808382612d36565b9250505060808083015186830382880152612e9b8382612d36565b9250505060a080830151818701525060c08083015186830382880152612ec18382612d36565b9250505060e08083015186830382880152612edc8382612d62565b925050506101008083015181870152506101208083015186830382880152612f048382612d36565b9250505061014080830151818701525061016080830151612f2f828801826001600160a01b03169052565b50506101809182015194909101939093529386019390860190600101612e0f565b509098975050505050505050565b600060208284031215612f7057600080fd5b81356001600160401b03811115612f8657600080fd5b82016101008185031215610c5d57600080fd5b600060208284031215612fab57600080fd5b5035919050565b60a081526000612fc560a0830188612d36565b60208301969096525060408101939093526001600160a01b03919091166060830152608090910152919050565b634e487b7160e01b600052604160045260246000fd5b604051606081016001600160401b038111828210171561302a5761302a612ff2565b60405290565b60405161010081016001600160401b038111828210171561302a5761302a612ff2565b604051601f8201601f191681016001600160401b038111828210171561307b5761307b612ff2565b604052919050565b600082601f83011261309457600080fd5b81356001600160401b038111156130ad576130ad612ff2565b6130c0601f8201601f1916602001613053565b8181528460208386010111156130d557600080fd5b816020850160208301376000918101602001919091529392505050565b600082601f83011261310357600080fd5b813560206001600160401b038083111561311f5761311f612ff2565b8260051b61312e838201613053565b938452858101830193838101908886111561314857600080fd5b84880192505b858310156131d4578235848111156131665760008081fd5b88016060818b03601f190181131561317e5760008081fd5b613186613008565b8783013561319381612ce0565b8152604083810135888111156131a95760008081fd5b6131b78e8b83880101613083565b8a840152509190920135908201528252918401919084019061314e565b98975050505050505050565b6000602082840312156131f257600080fd5b81356001600160401b0381111561320857600080fd5b613214848285016130f2565b949350505050565b600060208083018184528085518083526040925060408601915060408160051b87010184880160005b83811015612f5057603f19898403018552815160a0815181865261326b82870182612d36565b838b0151878c0152898401518a8801526060808501516001600160a01b031690880152608093840151939096019290925250509386019390860190600101613245565b600060408284031215610b2e57600080fd5b600080604083850312156132d357600080fd5b82356001600160401b038111156132e957600080fd5b6132f5858286016132ae565b95602094909401359450505050565b6000806040838503121561331757600080fd5b82359150602083013561332981612ce0565b809150509250929050565b6101808152600061334961018083018f612d36565b828103602084015261335b818f612d36565b9050828103604084015261336f818e612d36565b90508281036060840152613383818d612d36565b90508281036080840152613397818c612d36565b90508960a084015282810360c08401526133b1818a612d36565b90508760e08401528281036101008401526133cc8188612d36565b915050846101208301526133ec6101408301856001600160a01b03169052565b826101608301529d9c50505050505050505050505050565b60008060006060848603121561341957600080fd5b8335925060208401356001600160401b0381111561343657600080fd5b61344286828701613083565b925050604084013590509250925092565b6000806000806080858703121561346957600080fd5b84356001600160401b038082111561348057600080fd5b61348c88838901613083565b955060208701359150808211156134a257600080fd5b6134ae88838901613083565b945060408701359150808211156134c457600080fd5b6134d0888389016130f2565b935060608701359150808211156134e657600080fd5b506134f3878288016132ae565b91505092959194509250565b60208082526021908201527f4f6e6c79206f776e65722063616e2063616c6c20746869732066756e6374696f6040820152603760f91b606082015260800190565b600181811c9082168061355457607f821691505b602082108103610b2e57634e487b7160e01b600052602260045260246000fd5b634e487b7160e01b600052603260045260246000fd5b634e487b7160e01b600052601160045260246000fd5b8082028115828204841417612b7057612b7061358a565b634e487b7160e01b600052601260045260246000fd5b6000826135dc576135dc6135b7565b500490565b80820180821115612b7057612b7061358a565b60008251613606818460208701612d12565b9190910192915050565b81810381811115612b7057612b7061358a565b6000823560be1983360301811261360657600080fd5b60008235601e1983360301811261360657600080fd5b6000808335601e1984360301811261366657600080fd5b8301803591506001600160401b0382111561368057600080fd5b60200191503681900382131561369557600080fd5b9250929050565b6000602082840312156136ae57600080fd5b81356001600160401b03808211156136c557600080fd5b9083019061010082860312156136da57600080fd5b6136e2613030565b8235828111156136f157600080fd5b6136fd87828601613083565b82525060208301358281111561371257600080fd5b61371e87828601613083565b60208301525060408301358281111561373657600080fd5b61374287828601613083565b60408301525060608301358281111561375a57600080fd5b61376687828601613083565b60608301525060808301358281111561377e57600080fd5b61378a87828601613083565b60808301525060a0830135828111156137a257600080fd5b6137ae87828601613083565b60a08301525060c083013560c082015260e0830135828111156137d057600080fd5b6137dc87828601613083565b60e08301525095945050505050565b601f821115613837576000816000526020600020601f850160051c810160208610156138145750805b601f850160051c820191505b8181101561383357828155600101613820565b5050505b505050565b81516001600160401b0381111561385557613855612ff2565b613869816138638454613540565b846137eb565b602080601f83116001811461389e57600084156138865750858301515b600019600386901b1c1916600185901b178555613833565b600085815260208120601f198616915b828110156138cd578886015182559484019460019091019084016138ae565b50858210156138eb5787850151600019600388901b60f8161c191681555b5050505050600190811b01905550565b83815282602082015260606040820152600061391a6060830184612d36565b95945050505050565b6000600182016139355761393561358a565b5060010190565b6000823560be1983360301811261395257600080fd5b90910192915050565b80356001600160401b038116811461397257600080fd5b919050565b6000808335601e1984360301811261398e57600080fd5b83016020810192503590506001600160401b038111156139ad57600080fd5b80360382131561369557600080fd5b81835281816020850137506000828201602090810191909152601f909101601f19169091010190565b60008235601e1983360301811261395257600080fd5b6000613a078283613977565b6020855261391a6020860182846139bc565b80358252602081013560208301526000613a356040830161395b565b6001600160401b03808216604086015280613a526060860161395b565b1660608601525050608082013560de19833603018112613a7157600080fd5b60c060808501528201613a848180613977565b60e060c0870152613a9a6101a0870182846139bc565b915050613aaa6020830183613977565b60bf19808885030160e0890152613ac28483856139bc565b9350613ad16040860186613977565b935091508088850301610100890152613aeb8484846139bc565b9350613afa6060860186613977565b935091508088850301610120890152613b148484846139bc565b9350613b236080860186613977565b935091508088850301610140890152613b3d8484846139bc565b9350613b4c60a0860186613977565b935091508088850301610160890152613b668484846139bc565b9350613b7560c0860186613977565b9550925080888503016101808901525050613b918284836139bc565b92505050613ba260a08401846139e5565b84820360a086015261391a82826139fb565b6020815260008235601e19843603018112613bce57600080fd5b83016020810190356001600160401b03811115613bea57600080fd5b8060051b803603831315613bfd57600080fd5b60406020860152606085018290526001600160fb1b03821115613c1f57600080fd5b8083608087013784019150613c399050602085018561393c565b606084830301604085015261391a6080830182613a19565b8051801515811461397257600080fd5b600060208284031215613c7357600080fd5b610c5d82613c51565b600080600060608486031215613c9157600080fd5b83519250613ca160208501613c51565b9150604084015190509250925092565b600082613cc057613cc06135b7565b500690565b600060208284031215613cd757600080fd5b8151610c5d81612ce056fea264697066735822122040014884db0dbc82aeab27d1fe3881d43cc1c108043c2a67822630afb8e8cc2a64736f6c63430008190033",
  "linkReferences": {},
  "deployedLinkReferences": {}
}