{
  "_format": "hh-sol-artifact-1",
  "contractName": "insuredFlightsAgency",
  "sourceName": "contracts/InsuredFlights/InsuredFlightsAgency.sol",
  "abi": [
    {
      "inputs": [
        {
          "internalType": "uint256",
          "name": "_insurancePrice",
          "type": "uint256"
        },
        {
          "internalType": "address",
          "name": "_usdt_address",
          "type": "address"
        }
      ],
      "stateMutability": "nonpayable",
      "type": "constructor"
    },
    {
      "anonymous": false,
      "inputs": [
        {
          "indexed": false,
          "internalType": "uint256",
          "name": "insuredFlightId",
          "type": "uint256"
        },
        {
          "indexed": false,
          "internalType": "address",
          "name": "passenger",
          "type": "address"
        },
        {
          "indexed": false,
          "internalType": "uint256",
          "name": "secretNumber",
          "type": "uint256"
        }
      ],
      "name": "FlightClaimed",
      "type": "event"
    },
    {
      "anonymous": false,
      "inputs": [
        {
          "indexed": false,
          "internalType": "uint256",
          "name": "insuredFlightId",
          "type": "uint256"
        },
        {
          "indexed": false,
          "internalType": "uint256",
          "name": "flightDelayedTime",
          "type": "uint256"
        },
        {
          "indexed": false,
          "internalType": "string",
          "name": "flightStatus",
          "type": "string"
        }
      ],
      "name": "FlightInfoUpdated",
      "type": "event"
    },
    {
      "anonymous": false,
      "inputs": [
        {
          "indexed": false,
          "internalType": "uint256",
          "name": "insuredFlightId",
          "type": "uint256"
        }
      ],
      "name": "FlightInsured",
      "type": "event"
    },
    {
      "inputs": [],
      "name": "INSURANCE_PRICE",
      "outputs": [
        {
          "internalType": "uint256",
          "name": "",
          "type": "uint256"
        }
      ],
      "stateMutability": "view",
      "type": "function"
    },
    {
      "inputs": [
        {
          "components": [
            {
              "internalType": "bytes32[]",
              "name": "merkleProof",
              "type": "bytes32[]"
            },
            {
              "components": [
                {
                  "internalType": "bytes32",
                  "name": "attestationType",
                  "type": "bytes32"
                },
                {
                  "internalType": "bytes32",
                  "name": "sourceId",
                  "type": "bytes32"
                },
                {
                  "internalType": "uint64",
                  "name": "votingRound",
                  "type": "uint64"
                },
                {
                  "internalType": "uint64",
                  "name": "lowestUsedTimestamp",
                  "type": "uint64"
                },
                {
                  "components": [
                    {
                      "internalType": "string",
                      "name": "url",
                      "type": "string"
                    },
                    {
                      "internalType": "string",
                      "name": "httpMethod",
                      "type": "string"
                    },
                    {
                      "internalType": "string",
                      "name": "headers",
                      "type": "string"
                    },
                    {
                      "internalType": "string",
                      "name": "queryParams",
                      "type": "string"
                    },
                    {
                      "internalType": "string",
                      "name": "body",
                      "type": "string"
                    },
                    {
                      "internalType": "string",
                      "name": "postProcessJq",
                      "type": "string"
                    },
                    {
                      "internalType": "string",
                      "name": "abiSignature",
                      "type": "string"
                    }
                  ],
                  "internalType": "struct IWeb2Json.RequestBody",
                  "name": "requestBody",
                  "type": "tuple"
                },
                {
                  "components": [
                    {
                      "internalType": "bytes",
                      "name": "abiEncodedData",
                      "type": "bytes"
                    }
                  ],
                  "internalType": "struct IWeb2Json.ResponseBody",
                  "name": "responseBody",
                  "type": "tuple"
                }
              ],
              "internalType": "struct IWeb2Json.Response",
              "name": "data",
              "type": "tuple"
            }
          ],
          "internalType": "struct IWeb2Json.Proof",
          "name": "data",
          "type": "tuple"
        },
        {
          "internalType": "uint256",
          "name": "insuredFlightId",
          "type": "uint256"
        }
      ],
      "name": "_applyUpdate",
      "outputs": [],
      "stateMutability": "nonpayable",
      "type": "function"
    },
    {
      "inputs": [],
      "name": "_generator",
      "outputs": [
        {
          "internalType": "contract RandomNumberV2Interface",
          "name": "",
          "type": "address"
        }
      ],
      "stateMutability": "view",
      "type": "function"
    },
    {
      "inputs": [
        {
          "internalType": "uint256",
          "name": "",
          "type": "uint256"
        }
      ],
      "name": "_insuranceClaims",
      "outputs": [
        {
          "internalType": "uint256",
          "name": "amountClaimed",
          "type": "uint256"
        },
        {
          "internalType": "uint256",
          "name": "dateClaimed",
          "type": "uint256"
        },
        {
          "internalType": "address",
          "name": "insuree",
          "type": "address"
        },
        {
          "internalType": "uint256",
          "name": "insuranceId",
          "type": "uint256"
        },
        {
          "internalType": "bool",
          "name": "playedPrediction",
          "type": "bool"
        },
        {
          "internalType": "bool",
          "name": "wonPrediction",
          "type": "bool"
        }
      ],
      "stateMutability": "view",
      "type": "function"
    },
    {
      "inputs": [
        {
          "internalType": "uint256",
          "name": "",
          "type": "uint256"
        }
      ],
      "name": "_insuranceFlightPassengers",
      "outputs": [
        {
          "internalType": "address",
          "name": "wallet",
          "type": "address"
        },
        {
          "internalType": "string",
          "name": "ticketType",
          "type": "string"
        },
        {
          "internalType": "uint256",
          "name": "ticketPrice",
          "type": "uint256"
        },
        {
          "internalType": "uint256",
          "name": "insuredFlightId",
          "type": "uint256"
        }
      ],
      "stateMutability": "view",
      "type": "function"
    },
    {
      "inputs": [
        {
          "internalType": "uint256",
          "name": "",
          "type": "uint256"
        }
      ],
      "name": "_insuredFlight",
      "outputs": [
        {
          "internalType": "string",
          "name": "aircraftIcao",
          "type": "string"
        },
        {
          "internalType": "string",
          "name": "aircraftName",
          "type": "string"
        },
        {
          "internalType": "string",
          "name": "flightDate",
          "type": "string"
        },
        {
          "internalType": "string",
          "name": "departureAirport",
          "type": "string"
        },
        {
          "internalType": "string",
          "name": "arrivalAirport",
          "type": "string"
        },
        {
          "internalType": "uint256",
          "name": "flightDelayedTime",
          "type": "uint256"
        },
        {
          "internalType": "string",
          "name": "flightNo",
          "type": "string"
        },
        {
          "internalType": "uint256",
          "name": "passengers",
          "type": "uint256"
        },
        {
          "internalType": "string",
          "name": "status",
          "type": "string"
        },
        {
          "internalType": "uint256",
          "name": "lastChecked",
          "type": "uint256"
        },
        {
          "internalType": "address",
          "name": "insurer",
          "type": "address"
        },
        {
          "internalType": "uint256",
          "name": "insuranceId",
          "type": "uint256"
        }
      ],
      "stateMutability": "view",
      "type": "function"
    },
    {
      "inputs": [
        {
          "internalType": "uint256",
          "name": "",
          "type": "uint256"
        }
      ],
      "name": "_insuredFlightPrice",
      "outputs": [
        {
          "internalType": "uint256",
          "name": "",
          "type": "uint256"
        }
      ],
      "stateMutability": "view",
      "type": "function"
    },
    {
      "inputs": [],
      "name": "_maxNumber",
      "outputs": [
        {
          "internalType": "uint256",
          "name": "",
          "type": "uint256"
        }
      ],
      "stateMutability": "view",
      "type": "function"
    },
    {
      "inputs": [],
      "name": "_totalAmountInsurance",
      "outputs": [
        {
          "internalType": "uint256",
          "name": "",
          "type": "uint256"
        }
      ],
      "stateMutability": "view",
      "type": "function"
    },
    {
      "inputs": [
        {
          "components": [
            {
              "internalType": "string",
              "name": "aircraft_name",
              "type": "string"
            },
            {
              "internalType": "string",
              "name": "aircraft_reg",
              "type": "string"
            },
            {
              "internalType": "string",
              "name": "flight_no",
              "type": "string"
            },
            {
              "internalType": "string",
              "name": "flight_date",
              "type": "string"
            },
            {
              "internalType": "string",
              "name": "departure_airport",
              "type": "string"
            },
            {
              "internalType": "string",
              "name": "arrival_airport",
              "type": "string"
            },
            {
              "internalType": "uint256",
              "name": "flight_delayed_time",
              "type": "uint256"
            },
            {
              "internalType": "string",
              "name": "flight_status",
              "type": "string"
            }
          ],
          "internalType": "struct DataTransportObject",
          "name": "dto",
          "type": "tuple"
        }
      ],
      "name": "abiSignatureHack",
      "outputs": [],
      "stateMutability": "pure",
      "type": "function"
    },
    {
      "inputs": [
        {
          "internalType": "uint256",
          "name": "insuredFlightId",
          "type": "uint256"
        },
        {
          "internalType": "string",
          "name": "flight_no",
          "type": "string"
        },
        {
          "internalType": "uint256",
          "name": "predictedNumber",
          "type": "uint256"
        },
        {
          "internalType": "uint256",
          "name": "passengerindexPosition",
          "type": "uint256"
        },
        {
          "internalType": "bool",
          "name": "usdtMode",
          "type": "bool"
        }
      ],
      "name": "claimInsurance",
      "outputs": [
        {
          "internalType": "uint256",
          "name": "",
          "type": "uint256"
        },
        {
          "internalType": "bool",
          "name": "",
          "type": "bool"
        }
      ],
      "stateMutability": "nonpayable",
      "type": "function"
    },
    {
      "inputs": [
        {
          "components": [
            {
              "internalType": "address",
              "name": "wallet",
              "type": "address"
            },
            {
              "internalType": "string",
              "name": "ticketType",
              "type": "string"
            },
            {
              "internalType": "uint256",
              "name": "ticketPrice",
              "type": "uint256"
            },
            {
              "internalType": "uint256",
              "name": "insuredFlightId",
              "type": "uint256"
            }
          ],
          "internalType": "struct Passenger[]",
          "name": "passengers",
          "type": "tuple[]"
        }
      ],
      "name": "getCostOfInsurance",
      "outputs": [
        {
          "internalType": "uint256",
          "name": "",
          "type": "uint256"
        }
      ],
      "stateMutability": "view",
      "type": "function"
    },
    {
      "inputs": [],
      "name": "getFlightPassengers",
      "outputs": [
        {
          "components": [
            {
              "internalType": "address",
              "name": "wallet",
              "type": "address"
            },
            {
              "internalType": "string",
              "name": "ticketType",
              "type": "string"
            },
            {
              "internalType": "uint256",
              "name": "ticketPrice",
              "type": "uint256"
            },
            {
              "internalType": "uint256",
              "name": "insuredFlightId",
              "type": "uint256"
            }
          ],
          "internalType": "struct Passenger[]",
          "name": "",
          "type": "tuple[]"
        }
      ],
      "stateMutability": "view",
      "type": "function"
    },
    {
      "inputs": [],
      "name": "getFlrUsdPriceWei",
      "outputs": [
        {
          "internalType": "uint256",
          "name": "",
          "type": "uint256"
        },
        {
          "internalType": "uint64",
          "name": "",
          "type": "uint64"
        }
      ],
      "stateMutability": "view",
      "type": "function"
    },
    {
      "inputs": [
        {
          "internalType": "uint256",
          "name": "_insuredClaimId",
          "type": "uint256"
        }
      ],
      "name": "getInsuranceClaim",
      "outputs": [
        {
          "internalType": "uint256",
          "name": "amountClaimed",
          "type": "uint256"
        },
        {
          "internalType": "uint256",
          "name": "dateClaimed",
          "type": "uint256"
        },
        {
          "internalType": "address",
          "name": "insuree",
          "type": "address"
        },
        {
          "internalType": "uint256",
          "name": "insuranceId",
          "type": "uint256"
        }
      ],
      "stateMutability": "view",
      "type": "function"
    },
    {
      "inputs": [],
      "name": "getInsuranceClaimsCount",
      "outputs": [
        {
          "internalType": "uint256",
          "name": "",
          "type": "uint256"
        }
      ],
      "stateMutability": "view",
      "type": "function"
    },
    {
      "inputs": [],
      "name": "getInsurancePrice",
      "outputs": [
        {
          "internalType": "uint256",
          "name": "",
          "type": "uint256"
        }
      ],
      "stateMutability": "view",
      "type": "function"
    },
    {
      "inputs": [
        {
          "internalType": "uint256",
          "name": "insuredFlightId",
          "type": "uint256"
        }
      ],
      "name": "getInsureFlight",
      "outputs": [
        {
          "internalType": "string",
          "name": "aircraftIcao",
          "type": "string"
        },
        {
          "internalType": "string",
          "name": "aircraftName",
          "type": "string"
        },
        {
          "internalType": "string",
          "name": "flightDate",
          "type": "string"
        },
        {
          "internalType": "string",
          "name": "departureAirport",
          "type": "string"
        },
        {
          "internalType": "string",
          "name": "arrivalAirport",
          "type": "string"
        },
        {
          "internalType": "uint256",
          "name": "flightDelayedTime",
          "type": "uint256"
        },
        {
          "internalType": "string",
          "name": "flightNo",
          "type": "string"
        },
        {
          "internalType": "uint256",
          "name": "passengers",
          "type": "uint256"
        },
        {
          "internalType": "string",
          "name": "status",
          "type": "string"
        },
        {
          "internalType": "uint256",
          "name": "lastChecked",
          "type": "uint256"
        },
        {
          "internalType": "address",
          "name": "insurer",
          "type": "address"
        },
        {
          "internalType": "uint256",
          "name": "insuranceId",
          "type": "uint256"
        }
      ],
      "stateMutability": "view",
      "type": "function"
    },
    {
      "inputs": [],
      "name": "getInsuredFlightsCount",
      "outputs": [
        {
          "internalType": "uint256",
          "name": "",
          "type": "uint256"
        }
      ],
      "stateMutability": "view",
      "type": "function"
    },
    {
      "inputs": [
        {
          "internalType": "uint256",
          "name": "amount",
          "type": "uint256"
        }
      ],
      "name": "hasSufficientBalance",
      "outputs": [
        {
          "internalType": "bool",
          "name": "sufficient",
          "type": "bool"
        }
      ],
      "stateMutability": "view",
      "type": "function"
    },
    {
      "inputs": [],
      "name": "insuranceClaimsIds",
      "outputs": [
        {
          "internalType": "uint256",
          "name": "",
          "type": "uint256"
        }
      ],
      "stateMutability": "view",
      "type": "function"
    },
    {
      "inputs": [],
      "name": "insurance_delay_time",
      "outputs": [
        {
          "internalType": "uint256",
          "name": "",
          "type": "uint256"
        }
      ],
      "stateMutability": "view",
      "type": "function"
    },
    {
      "inputs": [
        {
          "internalType": "string",
          "name": "aircraft_icao",
          "type": "string"
        },
        {
          "internalType": "string",
          "name": "flight_no",
          "type": "string"
        },
        {
          "components": [
            {
              "internalType": "address",
              "name": "wallet",
              "type": "address"
            },
            {
              "internalType": "string",
              "name": "ticketType",
              "type": "string"
            },
            {
              "internalType": "uint256",
              "name": "ticketPrice",
              "type": "uint256"
            },
            {
              "internalType": "uint256",
              "name": "insuredFlightId",
              "type": "uint256"
            }
          ],
          "internalType": "struct Passenger[]",
          "name": "passengers",
          "type": "tuple[]"
        },
        {
          "components": [
            {
              "internalType": "bytes32[]",
              "name": "merkleProof",
              "type": "bytes32[]"
            },
            {
              "components": [
                {
                  "internalType": "bytes32",
                  "name": "attestationType",
                  "type": "bytes32"
                },
                {
                  "internalType": "bytes32",
                  "name": "sourceId",
                  "type": "bytes32"
                },
                {
                  "internalType": "uint64",
                  "name": "votingRound",
                  "type": "uint64"
                },
                {
                  "internalType": "uint64",
                  "name": "lowestUsedTimestamp",
                  "type": "uint64"
                },
                {
                  "components": [
                    {
                      "internalType": "string",
                      "name": "url",
                      "type": "string"
                    },
                    {
                      "internalType": "string",
                      "name": "httpMethod",
                      "type": "string"
                    },
                    {
                      "internalType": "string",
                      "name": "headers",
                      "type": "string"
                    },
                    {
                      "internalType": "string",
                      "name": "queryParams",
                      "type": "string"
                    },
                    {
                      "internalType": "string",
                      "name": "body",
                      "type": "string"
                    },
                    {
                      "internalType": "string",
                      "name": "postProcessJq",
                      "type": "string"
                    },
                    {
                      "internalType": "string",
                      "name": "abiSignature",
                      "type": "string"
                    }
                  ],
                  "internalType": "struct IWeb2Json.RequestBody",
                  "name": "requestBody",
                  "type": "tuple"
                },
                {
                  "components": [
                    {
                      "internalType": "bytes",
                      "name": "abiEncodedData",
                      "type": "bytes"
                    }
                  ],
                  "internalType": "struct IWeb2Json.ResponseBody",
                  "name": "responseBody",
                  "type": "tuple"
                }
              ],
              "internalType": "struct IWeb2Json.Response",
              "name": "data",
              "type": "tuple"
            }
          ],
          "internalType": "struct IWeb2Json.Proof",
          "name": "data",
          "type": "tuple"
        }
      ],
      "name": "insureFlight",
      "outputs": [],
      "stateMutability": "payable",
      "type": "function"
    },
    {
      "inputs": [],
      "name": "insuredFlightIds",
      "outputs": [
        {
          "internalType": "uint256",
          "name": "",
          "type": "uint256"
        }
      ],
      "stateMutability": "view",
      "type": "function"
    },
    {
      "inputs": [
        {
          "internalType": "uint256",
          "name": "",
          "type": "uint256"
        },
        {
          "internalType": "address",
          "name": "",
          "type": "address"
        }
      ],
      "name": "insuredFlightPassengersStatus",
      "outputs": [
        {
          "internalType": "bool",
          "name": "",
          "type": "bool"
        }
      ],
      "stateMutability": "view",
      "type": "function"
    },
    {
      "inputs": [],
      "name": "owner",
      "outputs": [
        {
          "internalType": "address",
          "name": "",
          "type": "address"
        }
      ],
      "stateMutability": "view",
      "type": "function"
    },
    {
      "inputs": [
        {
          "internalType": "uint256",
          "name": "_insurancePrice",
          "type": "uint256"
        }
      ],
      "name": "setInsurancePrice",
      "outputs": [],
      "stateMutability": "nonpayable",
      "type": "function"
    },
    {
      "inputs": [
        {
          "internalType": "address",
          "name": "to",
          "type": "address"
        }
      ],
      "name": "transferAccumulatedFees",
      "outputs": [],
      "stateMutability": "nonpayable",
      "type": "function"
    },
    {
      "inputs": [],
      "name": "usdt_address",
      "outputs": [
        {
          "internalType": "address",
          "name": "",
          "type": "address"
        }
      ],
      "stateMutability": "view",
      "type": "function"
    },
    {
      "stateMutability": "payable",
      "type": "receive"
    }
  ],
  "bytecode": "0x608060405234801561001057600080fd5b506040516138e33803806138e383398101604081905261002f9161021e565b6002829055601e600355600480546001600160a01b0383166001600160a01b031991821617909155600d80549091163317905561006a610099565b600c80546001600160a01b0319166001600160a01b039290921691909117905561009261016a565b50506102cc565b600073ad67fe66660fb8dfe9d6b1b4240d8650e30f60196001600160a01b031663159354a26040516020016100f0906020808252600e908201526d2930b73237b6a73ab6b132b92b1960911b604082015260600190565b604051602081830303815290604052805190602001206040518263ffffffff1660e01b815260040161012491815260200190565b602060405180830381865afa158015610141573d6000803e3d6000fd5b505050506040513d601f19601f82011682018060405250810190610165919061024a565b905090565b600c546040805163dbdff2c160e01b815290516000926001600160a01b03169163dbdff2c19160048083019260609291908290030181865afa1580156101b4573d6000803e3d6000fd5b505050506040513d601f19601f820116820180604052508101906101d8919061026c565b505090506014816101e991906102aa565b600a805461ffff191661ffff9290921691909117905550565b80516001600160a01b038116811461021957600080fd5b919050565b6000806040838503121561023157600080fd5b8251915061024160208401610202565b90509250929050565b60006020828403121561025c57600080fd5b61026582610202565b9392505050565b60008060006060848603121561028157600080fd5b835192506020840151801515811461029857600080fd5b80925050604084015190509250925092565b6000826102c757634e487b7160e01b600052601260045260246000fd5b500690565b613608806102db6000396000f3fe6080604052600436106101c65760003560e01c80638060156b116100f7578063a6c6b0cc11610095578063ec091c1711610064578063ec091c17146105ef578063fb458f9b1461060f578063fead08f414610625578063ff8b5c2f1461064757600080fd5b8063a6c6b0cc14610535578063b211b26314610584578063c76fe118146105b9578063e0d4153e146105d957600080fd5b80638c774f15116100d15780638c774f15146104cc5780638da5cb5b146104ec578063945b53951461050c5780639c5886011461052257600080fd5b80638060156b146104415780638289b5881461046157806383e554a2146104ac57600080fd5b806322526a57116101645780633f645bbc1161013e5780633f645bbc14610349578063621690df146103e65780637133b02e146103fb578063771b00fd1461042b57600080fd5b806322526a571461030057806339025768146103155780633c9e61401461032b57600080fd5b80631a889b8d116101a05780631a889b8d146102645780631f69d1c1146102795780631fef30561461029b578063210d595b146102d357600080fd5b806303a07243146101d2578063095a9e8f146101fa5780630d96f5f51461022c57600080fd5b366101cd57005b600080fd5b3480156101de57600080fd5b506101e7601481565b6040519081526020015b60405180910390f35b34801561020657600080fd5b5061020f610667565b604080519283526001600160401b039091166020830152016101f1565b34801561023857600080fd5b5061024c61024736600461266e565b610700565b6040516101f19c9b9a999897969594939291906126d7565b34801561027057600080fd5b506001546101e7565b34801561028557600080fd5b506102996102943660046127bc565b610bca565b005b3480156102a757600080fd5b506004546102bb906001600160a01b031681565b6040516001600160a01b0390911681526020016101f1565b3480156102df57600080fd5b506101e76102ee36600461266e565b60066020526000908152604090205481565b34801561030c57600080fd5b506002546101e7565b34801561032157600080fd5b506101e760035481565b34801561033757600080fd5b506102996103463660046127d9565b50565b34801561035557600080fd5b506103a961036436600461266e565b60076020526000908152604090208054600182015460028301546003840154600490940154929391926001600160a01b03909116919060ff8082169161010090041686565b6040805196875260208701959095526001600160a01b039093169385019390935260608401529015156080830152151560a082015260c0016101f1565b3480156103f257600080fd5b506000546101e7565b34801561040757600080fd5b5061041b61041636600461266e565b610c75565b6040516101f19493929190612814565b34801561043757600080fd5b506101e7600b5481565b34801561044d57600080fd5b50600c546102bb906001600160a01b031681565b34801561046d57600080fd5b5061049c61047c36600461284b565b600960209081526000928352604080842090915290825290205460ff1681565b60405190151581526020016101f1565b3480156104b857600080fd5b5061049c6104c736600461266e565b610d43565b3480156104d857600080fd5b5061024c6104e736600461266e565b610dc0565b3480156104f857600080fd5b50600d546102bb906001600160a01b031681565b34801561051857600080fd5b506101e760015481565b610299610530366004612a8e565b6111dc565b34801561054157600080fd5b5061055561055036600461266e565b6113a6565b6040516101f1949392919093845260208401929092526001600160a01b03166040830152606082015260800190565b34801561059057600080fd5b506105a461059f366004612b48565b61143f565b604080519283529015156020830152016101f1565b3480156105c557600080fd5b506102996105d4366004612bb6565b611467565b3480156105e557600080fd5b506101e760005481565b3480156105fb57600080fd5b5061029961060a36600461266e565b6118e8565b34801561061b57600080fd5b506101e760025481565b34801561063157600080fd5b5061063a611976565b6040516101f19190612bfa565b34801561065357600080fd5b506101e7610662366004612c92565b611a91565b600080665193148bd554d160c21b8161067e611afe565b604051632cff56fb60e11b81526affffffffffffffffffffff19841660048201529091506001600160a01b038216906359feadf6906024016040805180830381865afa1580156106d2573d6000803e3d6000fd5b505050506040513d601f19601f820116820180604052508101906106f69190612ce3565b9350935050509091565b606080606080606060006060600060606000806000808d11801561072657506000548d11155b6107775760405162461bcd60e51b815260206004820152601e60248201527f4e6f20696e737572656420666c6967687420776974682073756368206964000060448201526064015b60405180910390fd5b60008d81526005602081905260409091209081015460078201546009830154600a840154600b8501548554869560018701956002880195600389019560048a0195939460068b019460088c0193926001600160a01b0316918c906107da90612d08565b80601f016020809104026020016040519081016040528092919081815260200182805461080690612d08565b80156108535780601f1061082857610100808354040283529160200191610853565b820191906000526020600020905b81548152906001019060200180831161083657829003601f168201915b50505050509b508a805461086690612d08565b80601f016020809104026020016040519081016040528092919081815260200182805461089290612d08565b80156108df5780601f106108b4576101008083540402835291602001916108df565b820191906000526020600020905b8154815290600101906020018083116108c257829003601f168201915b50505050509a508980546108f290612d08565b80601f016020809104026020016040519081016040528092919081815260200182805461091e90612d08565b801561096b5780601f106109405761010080835404028352916020019161096b565b820191906000526020600020905b81548152906001019060200180831161094e57829003601f168201915b5050505050995088805461097e90612d08565b80601f01602080910402602001604051908101604052809291908181526020018280546109aa90612d08565b80156109f75780601f106109cc576101008083540402835291602001916109f7565b820191906000526020600020905b8154815290600101906020018083116109da57829003601f168201915b50505050509850878054610a0a90612d08565b80601f0160208091040260200160405190810160405280929190818152602001828054610a3690612d08565b8015610a835780601f10610a5857610100808354040283529160200191610a83565b820191906000526020600020905b815481529060010190602001808311610a6657829003601f168201915b50505050509750858054610a9690612d08565b80601f0160208091040260200160405190810160405280929190818152602001828054610ac290612d08565b8015610b0f5780601f10610ae457610100808354040283529160200191610b0f565b820191906000526020600020905b815481529060010190602001808311610af257829003601f168201915b50505050509550838054610b2290612d08565b80601f0160208091040260200160405190810160405280929190818152602001828054610b4e90612d08565b8015610b9b5780601f10610b7057610100808354040283529160200191610b9b565b820191906000526020600020905b815481529060010190602001808311610b7e57829003601f168201915b505050505093509c509c509c509c509c509c509c509c509c509c509c509c505091939597999b5091939597999b565b600d546001600160a01b03163314610bf45760405162461bcd60e51b815260040161076e90612d3c565b6001600160a01b038116610c3c5760405162461bcd60e51b815260206004820152600f60248201526e496e76616c6964206164647265737360881b604482015260640161076e565b6040516001600160a01b038216904780156108fc02916000818181858888f19350505050158015610c71573d6000803e3d6000fd5b5050565b60088181548110610c8557600080fd5b6000918252602090912060049091020180546001820180546001600160a01b03909216935090610cb490612d08565b80601f0160208091040260200160405190810160405280929190818152602001828054610ce090612d08565b8015610d2d5780601f10610d0257610100808354040283529160200191610d2d565b820191906000526020600020905b815481529060010190602001808311610d1057829003601f168201915b5050505050908060020154908060030154905084565b600480546040516370a0823160e01b8152309281019290925260009182916001600160a01b0316906370a0823190602401602060405180830381865afa158015610d91573d6000803e3d6000fd5b505050506040513d601f19601f82011682018060405250810190610db59190612d7d565b929092101592915050565b600560205260009081526040902080548190610ddb90612d08565b80601f0160208091040260200160405190810160405280929190818152602001828054610e0790612d08565b8015610e545780601f10610e2957610100808354040283529160200191610e54565b820191906000526020600020905b815481529060010190602001808311610e3757829003601f168201915b505050505090806001018054610e6990612d08565b80601f0160208091040260200160405190810160405280929190818152602001828054610e9590612d08565b8015610ee25780601f10610eb757610100808354040283529160200191610ee2565b820191906000526020600020905b815481529060010190602001808311610ec557829003601f168201915b505050505090806002018054610ef790612d08565b80601f0160208091040260200160405190810160405280929190818152602001828054610f2390612d08565b8015610f705780601f10610f4557610100808354040283529160200191610f70565b820191906000526020600020905b815481529060010190602001808311610f5357829003601f168201915b505050505090806003018054610f8590612d08565b80601f0160208091040260200160405190810160405280929190818152602001828054610fb190612d08565b8015610ffe5780601f10610fd357610100808354040283529160200191610ffe565b820191906000526020600020905b815481529060010190602001808311610fe157829003601f168201915b50505050509080600401805461101390612d08565b80601f016020809104026020016040519081016040528092919081815260200182805461103f90612d08565b801561108c5780601f106110615761010080835404028352916020019161108c565b820191906000526020600020905b81548152906001019060200180831161106f57829003601f168201915b5050505050908060050154908060060180546110a790612d08565b80601f01602080910402602001604051908101604052809291908181526020018280546110d390612d08565b80156111205780601f106110f557610100808354040283529160200191611120565b820191906000526020600020905b81548152906001019060200180831161110357829003601f168201915b50505050509080600701549080600801805461113b90612d08565b80601f016020809104026020016040519081016040528092919081815260200182805461116790612d08565b80156111b45780601f10611189576101008083540402835291602001916111b4565b820191906000526020600020905b81548152906001019060200180831161119757829003601f168201915b505050506009830154600a840154600b90940154929390926001600160a01b0390911691508c565b6111e582611a91565b34146112245760405162461bcd60e51b815260206004820152600e60248201526d125b9d985b1a5908185b5bdd5b9d60921b604482015260640161076e565b61122d81611bc7565b6112695760405162461bcd60e51b815260206004820152600d60248201526c24b73b30b634b210383937b7b360991b604482015260640161076e565b60006112786020830183612d96565b6112869060a0810190612db6565b6112909080612dcc565b9050116112cc5760405162461bcd60e51b815260206004820152600a602482015269456d707479206461746160b01b604482015260640161076e565b60006112db6020830183612d96565b6112e99060a0810190612db6565b6112f39080612dcc565b8101906113009190612e19565b6040805180820190915260098152681cd8da19591d5b195960ba1b60209182015260e082015180519101209091507f6b5d3a2590399d029e42f38701ccbff2ae97111c4fb79a26cb3cadd8295de3a4146113935760405162461bcd60e51b8152602060048201526014602482015273119b1a59da1d081b9bdd081cd8da19591d5b195960621b604482015260640161076e565b61139f85858386611c43565b5050505050565b6000806000806000851180156113be57506001548511155b61140a5760405162461bcd60e51b815260206004820152601f60248201527f4e6f20696e737572616e636520636c61696d2077697468207375636820696400604482015260640161076e565b505050600091825250600760205260409020805460018201546002830154600390930154919390926001600160a01b03169190565b60008061144d878787611f64565b61145987868686612141565b915091509550959350505050565b6000818152600560205260409020600b01541580159061149957506000805482825260056020526040909120600b0154105b6114d95760405162461bcd60e51b8152602060048201526011602482015270496e76616c696420496e737572616e636560781b604482015260640161076e565b6000818152600560205260409020600a01546001600160a01b03163314806115425750600854158015906115425750336001600160a01b0316600860008154811061152657611526612f68565b60009182526020909120600490910201546001600160a01b0316145b806115575750600d546001600160a01b031633145b6115be5760405162461bcd60e51b815260206004820152603260248201527f45697468657220496e7375726572206f722050617373656e6765722063616e20604482015271636865636b20666c696768742064656c617960701b606482015260840161076e565b7f6b5d3a2590399d029e42f38701ccbff2ae97111c4fb79a26cb3cadd8295de3a4600560008381526020019081526020016000206008016040516116029190612ff1565b6040518091039020146116575760405162461bcd60e51b815260206004820152601d60248201527f466c696768742073746174757320616c72656164792075706461746564000000604482015260640161076e565b600081815260056020526040902060090154610258906116779042613013565b116116d35760405162461bcd60e51b815260206004820152602660248201527f466c6967687420636865636b206973206174203130206d696e7574657320696e6044820152651d195c9d985b60d21b606482015260840161076e565b6116dc82611bc7565b6117185760405162461bcd60e51b815260206004820152600d60248201526c24b73b30b634b210383937b7b360991b604482015260640161076e565b60006117276020840184612d96565b6117359060a0810190612db6565b61173f9080612dcc565b90501161177b5760405162461bcd60e51b815260206004820152600a602482015269456d707479206461746160b01b604482015260640161076e565b600061178a6020840184612d96565b6117989060a0810190612db6565b6117a29080612dcc565b8101906117af9190612e19565b90506003548160c00151101580156117f257507f9651c33eb23976f7c15240e86443dc2ded40546fa9ba457a14abab4090e023b58160e001518051906020012014155b801561182957507fe65c7acc8e7a283a20ab50c3226bc3bf6664a65e41f8eda762213d674c0829628160e001518051906020012014155b1561188a576040518060400160405280600781526020016619195b185e595960ca1b8152506005600084815260200190815260200160002060080190816118709190613076565b5060c0810151600083815260056020819052604090912001555b6000828152600560208190526040918290204260098201559081015491517fad522330e0a333ea20b30192e7bf44fd414759973e0d47d6e02d4b5f0e9ceae4926118db928692600890910190613135565b60405180910390a1505050565b600d546001600160a01b031633146119125760405162461bcd60e51b815260040161076e90612d3c565b600081116119715760405162461bcd60e51b815260206004820152602660248201527f496e737572616e6365207072696365206d75737420626520677265617465722060448201526507468616e20360d41b606482015260840161076e565b600255565b60606008805480602002602001604051908101604052809291908181526020016000905b82821015611a8857600084815260209081902060408051608081019091526004850290910180546001600160a01b0316825260018101805492939192918401916119e390612d08565b80601f0160208091040260200160405190810160405280929190818152602001828054611a0f90612d08565b8015611a5c5780601f10611a3157610100808354040283529160200191611a5c565b820191906000526020600020905b815481529060010190602001808311611a3f57829003601f168201915b50505050508152602001600282015481526020016003820154815250508152602001906001019061199a565b50505050905090565b600080805b8351811015611ae9576064848281518110611ab357611ab3612f68565b602002602001015160400151600a611acb91906131d4565b611ad59190613201565b611adf9083613215565b9150600101611a96565b50600254611af79082613215565b9392505050565b600073ad67fe66660fb8dfe9d6b1b4240d8650e30f60196001600160a01b031663159354a2604051602001611b4d90602080825260069082015265233a39b7ab1960d11b604082015260600190565b604051602081830303815290604052805190602001206040518263ffffffff1660e01b8152600401611b8191815260200190565b602060405180830381865afa158015611b9e573d6000803e3d6000fd5b505050506040513d601f19601f82011682018060405250810190611bc29190613228565b905090565b6000611bd161257e565b6001600160a01b0316630aa05fe3836040518263ffffffff1660e01b8152600401611bfc91906134a0565b602060405180830381865afa158015611c19573d6000803e3d6000fd5b505050506040513d601f19601f82011682018060405250810190611c3d919061353d565b92915050565b600080549080611c528361355a565b909155505060008054808252600560205260408220909190611c748782613076565b508351600083815260056020526040902060010190611c939082613076565b506060840151600083815260056020526040902060020190611cb59082613076565b506080840151600083815260056020526040902060030190611cd79082613076565b5060a0840151600083815260056020526040902060040190611cf99082613076565b5060c0840151600083815260056020819052604090912090810191909155600601611d248682613076565b5082516000838152600560205260409020600781019190915560e0850151600890910190611d529082613076565b506000828152600560205260408120426009820155600a810180546001600160a01b03191633179055600b018390555b8351811015611f10576008848281518110611d9f57611d9f612f68565b602090810291909101810151825460018082018555600094855293839020825160049092020180546001600160a01b0319166001600160a01b03909216919091178155918101519092820190611df59082613076565b50604082015181600201556060820151816003015550506001600960008581526020019081526020016000206000868481518110611e3557611e35612f68565b6020026020010151600001516001600160a01b03166001600160a01b0316815260200190815260200160002060006101000a81548160ff0219169083151502179055506064848281518110611e8c57611e8c612f68565b602002602001015160400151600a611ea491906131d4565b611eae9190613201565b600b6000828254611ebf9190613215565b925050819055506064848281518110611eda57611eda612f68565b602002602001015160400151600a611ef291906131d4565b611efc9190613201565b611f069083613215565b9150600101611d82565b5060008281526006602052604090819020829055517fc8025f815ce5846bb23a1e70c00825ff76c450559769399af7e28de99a03405e90611f549084815260200190565b60405180910390a1505050505050565b81604051602001611f759190613573565b60408051601f198184030181528282528051602091820120600087815260058352929092209192611faa926006019101612ff1565b604051602081830303815290604052805190602001201461200d5760405162461bcd60e51b815260206004820152601760248201527f466c69676874204e6f20646f65736e2774206d61746368000000000000000000604482015260640161076e565b6003546000848152600560208190526040909120015410156120665760405162461bcd60e51b8152602060048201526012602482015271119b1a59da1d08139bdd0811195b185e595960721b604482015260640161076e565b600083815260096020908152604080832033845290915290205460ff166120eb5760405162461bcd60e51b815260206004820152603360248201527f50617373656e676572206e6f7420696e7375726564204f5220496e737572616e60448201527218d948185b1c9958591e481c995919595b5959606a1b606482015260840161076e565b601481111561213c5760405162461bcd60e51b815260206004820152601f60248201527f50726564696374696f6e204e756d626572206d757374206265203c3d20323000604482015260640161076e565b505050565b60008481526009602090815260408083203384529091528120805460ff19169055600a54819061ffff1681808080612177610667565b91509150600088156121dd5782606460088c8154811061219957612199612f68565b906000526020600020906004020160020154600a6121b791906131d4565b6121c19190613201565b6121cb91906131d4565b93506121d684610d43565b905061221d565b606460088b815481106121f2576121f2612f68565b906000526020600020906004020160020154600a61221091906131d4565b61221a9190613201565b94505b60008b6000036122d75781156122aa576004805460405163a9059cbb60e01b81523392810192909252602482018790526001600160a01b03169063a9059cbb906044015b6020604051808303816000875af1158015612280573d6000803e3d6000fd5b505050506040513d601f19601f820116820180604052508101906122a4919061353d565b5061245c565b604051339087156108fc029088906000818181858888f193505050501580156122a4573d6000803e3d6000fd5b8b1561245c57868c036123cf578115612366576004805460405163a9059cbb60e01b81523392810192909252602482018790526001600160a01b03169063a9059cbb906044016020604051808303816000875af115801561233c573d6000803e3d6000fd5b505050506040513d601f19601f82011682018060405250810190612360919061353d565b50612395565b604051339087156108fc029088906000818181858888f19350505050158015612393573d6000803e3d6000fd5b505b6040513390600090671bc16d674ec800009082818181858883f193505050501580156123c5573d6000803e3d6000fd5b506001905061245c565b8115612423576004546001600160a01b031663a9059cbb336123f2600289613201565b6040516001600160e01b031960e085901b1681526001600160a01b0390921660048301526024820152604401612261565b336108fc612432600289613201565b6040518115909202916000818181858888f1935050505015801561245a573d6000803e3d6000fd5b505b600180546000908152600760205260408082208990558254825280822042908401558254825280822060020180546001600160a01b0319163317905591548152206003018d90558b6124af5760006124b2565b60015b6001546000908152600760205260409020600401805460ff1916911515919091179055868c146124e35760006124e6565b60015b60018054600090815260076020526040812060040180549315156101000261ff00199094169390931790925580549161251e8361355a565b919050555061252b6125d6565b604080518e81523360208201529081018890527f1527a28ce4fd3db6312cdc84eb52b89b5da4269ae6a4f7b5854029a914425fb99060600160405180910390a1959c959b50949950505050505050505050565b600073ad67fe66660fb8dfe9d6b1b4240d8650e30f60196001600160a01b031663159354a2604051602001611b4d906020808252600f908201526e233231ab32b934b334b1b0ba34b7b760891b604082015260600190565b600c546040805163dbdff2c160e01b815290516000926001600160a01b03169163dbdff2c19160048083019260609291908290030181865afa158015612620573d6000803e3d6000fd5b505050506040513d601f19601f820116820180604052508101906126449190613585565b5050905060148161265591906135be565b600a805461ffff191661ffff9290921691909117905550565b60006020828403121561268057600080fd5b5035919050565b60005b838110156126a257818101518382015260200161268a565b50506000910152565b600081518084526126c3816020860160208601612687565b601f01601f19169290920160200192915050565b610180815260006126ec61018083018f6126ab565b82810360208401526126fe818f6126ab565b90508281036040840152612712818e6126ab565b90508281036060840152612726818d6126ab565b9050828103608084015261273a818c6126ab565b90508960a084015282810360c0840152612754818a6126ab565b90508760e084015282810361010084015261276f81886126ab565b9150508461012083015261278f6101408301856001600160a01b03169052565b826101608301529d9c50505050505050505050505050565b6001600160a01b038116811461034657600080fd5b6000602082840312156127ce57600080fd5b8135611af7816127a7565b6000602082840312156127eb57600080fd5b81356001600160401b0381111561280157600080fd5b82016101008185031215611af757600080fd5b6001600160a01b0385168152608060208201819052600090612838908301866126ab565b6040830194909452506060015292915050565b6000806040838503121561285e57600080fd5b823591506020830135612870816127a7565b809150509250929050565b634e487b7160e01b600052604160045260246000fd5b604051608081016001600160401b03811182821017156128b3576128b361287b565b60405290565b60405161010081016001600160401b03811182821017156128b3576128b361287b565b604051601f8201601f191681016001600160401b03811182821017156129045761290461287b565b604052919050565b600082601f83011261291d57600080fd5b81356001600160401b038111156129365761293661287b565b612949601f8201601f19166020016128dc565b81815284602083860101111561295e57600080fd5b816020850160208301376000918101602001919091529392505050565b600082601f83011261298c57600080fd5b813560206001600160401b03808311156129a8576129a861287b565b8260051b6129b78382016128dc565b93845285810183019383810190888611156129d157600080fd5b84880192505b85831015612a6a578235848111156129ef5760008081fd5b88016080818b03601f1901811315612a075760008081fd5b612a0f612891565b87830135612a1c816127a7565b815260408381013588811115612a325760008081fd5b612a408e8b8388010161290c565b838b01525060608481013591830191909152919092013590820152825291840191908401906129d7565b98975050505050505050565b600060408284031215612a8857600080fd5b50919050565b60008060008060808587031215612aa457600080fd5b84356001600160401b0380821115612abb57600080fd5b612ac78883890161290c565b95506020870135915080821115612add57600080fd5b612ae98883890161290c565b94506040870135915080821115612aff57600080fd5b612b0b8883890161297b565b93506060870135915080821115612b2157600080fd5b50612b2e87828801612a76565b91505092959194509250565b801515811461034657600080fd5b600080600080600060a08688031215612b6057600080fd5b8535945060208601356001600160401b03811115612b7d57600080fd5b612b898882890161290c565b94505060408601359250606086013591506080860135612ba881612b3a565b809150509295509295909350565b60008060408385031215612bc957600080fd5b82356001600160401b03811115612bdf57600080fd5b612beb85828601612a76565b95602094909401359450505050565b600060208083018184528085518083526040925060408601915060408160051b87010184880160005b83811015612c8457888303603f19018552815180516001600160a01b0316845287810151608089860181905290612c5c828701826126ab565b838a0151878b0152606093840151939096019290925250509386019390860190600101612c23565b509098975050505050505050565b600060208284031215612ca457600080fd5b81356001600160401b03811115612cba57600080fd5b612cc68482850161297b565b949350505050565b6001600160401b038116811461034657600080fd5b60008060408385031215612cf657600080fd5b82519150602083015161287081612cce565b600181811c90821680612d1c57607f821691505b602082108103612a8857634e487b7160e01b600052602260045260246000fd5b60208082526021908201527f4f6e6c79206f776e65722063616e2063616c6c20746869732066756e6374696f6040820152603760f91b606082015260800190565b600060208284031215612d8f57600080fd5b5051919050565b6000823560be19833603018112612dac57600080fd5b9190910192915050565b60008235601e19833603018112612dac57600080fd5b6000808335601e19843603018112612de357600080fd5b8301803591506001600160401b03821115612dfd57600080fd5b602001915036819003821315612e1257600080fd5b9250929050565b600060208284031215612e2b57600080fd5b81356001600160401b0380821115612e4257600080fd5b908301906101008286031215612e5757600080fd5b612e5f6128b9565b823582811115612e6e57600080fd5b612e7a8782860161290c565b825250602083013582811115612e8f57600080fd5b612e9b8782860161290c565b602083015250604083013582811115612eb357600080fd5b612ebf8782860161290c565b604083015250606083013582811115612ed757600080fd5b612ee38782860161290c565b606083015250608083013582811115612efb57600080fd5b612f078782860161290c565b60808301525060a083013582811115612f1f57600080fd5b612f2b8782860161290c565b60a08301525060c083013560c082015260e083013582811115612f4d57600080fd5b612f598782860161290c565b60e08301525095945050505050565b634e487b7160e01b600052603260045260246000fd5b60008154612f8b81612d08565b60018281168015612fa35760018114612fb857612fe7565b60ff1984168752821515830287019450612fe7565b8560005260208060002060005b85811015612fde5781548a820152908401908201612fc5565b50505082870194505b5050505092915050565b6000611af78284612f7e565b634e487b7160e01b600052601160045260246000fd5b81810381811115611c3d57611c3d612ffd565b601f82111561213c576000816000526020600020601f850160051c8101602086101561304f5750805b601f850160051c820191505b8181101561306e5782815560010161305b565b505050505050565b81516001600160401b0381111561308f5761308f61287b565b6130a38161309d8454612d08565b84613026565b602080601f8311600181146130d857600084156130c05750858301515b600019600386901b1c1916600185901b17855561306e565b600085815260208120601f198616915b82811015613107578886015182559484019460019091019084016130e8565b50858210156131255787850151600019600388901b60f8161c191681555b5050505050600190811b01905550565b83815260006020846020840152606060408401526000845461315681612d08565b80606087015260806001808416600081146131785760018114613194576131c4565b60ff19851660808a0152608084151560051b8a010195506131c4565b89600052602060002060005b858110156131bb5781548b82018601529083019088016131a0565b8a016080019650505b50939a9950505050505050505050565b8082028115828204841417611c3d57611c3d612ffd565b634e487b7160e01b600052601260045260246000fd5b600082613210576132106131eb565b500490565b80820180821115611c3d57611c3d612ffd565b60006020828403121561323a57600080fd5b8151611af7816127a7565b6000823560be1983360301811261325b57600080fd5b90910192915050565b6000808335601e1984360301811261327b57600080fd5b83016020810192503590506001600160401b0381111561329a57600080fd5b803603821315612e1257600080fd5b81835281816020850137506000828201602090810191909152601f909101601f19169091010190565b60006132de8283613264565b60e085526132f060e0860182846132a9565b9150506133006020840184613264565b85830360208701526133138382846132a9565b925050506133246040840184613264565b85830360408701526133378382846132a9565b925050506133486060840184613264565b858303606087015261335b8382846132a9565b9250505061336c6080840184613264565b858303608087015261337f8382846132a9565b9250505061339060a0840184613264565b85830360a08701526133a38382846132a9565b925050506133b460c0840184613264565b85830360c08701526133c78382846132a9565b9695505050505050565b60008235601e1983360301811261325b57600080fd5b60006133f38283613264565b602085526134056020860182846132a9565b95945050505050565b80358252602081013560208301526000604082013561342c81612cce565b6001600160401b03908116604085015260608301359061344b82612cce565b16606084015260808201353683900360de1901811261346957600080fd5b60c0608085015261347f60c085018483016132d2565b905061348e60a08401846133d1565b84820360a086015261340582826133e7565b6020815260008235601e198436030181126134ba57600080fd5b83016020810190356001600160401b038111156134d657600080fd5b8060051b8036038313156134e957600080fd5b60406020860152606085018290526001600160fb1b0382111561350b57600080fd5b808360808701378401915061352590506020850185613245565b6060848303016040850152613405608083018261340e565b60006020828403121561354f57600080fd5b8151611af781612b3a565b60006001820161356c5761356c612ffd565b5060010190565b60008251612dac818460208701612687565b60008060006060848603121561359a57600080fd5b8351925060208401516135ac81612b3a565b80925050604084015190509250925092565b6000826135cd576135cd6131eb565b50069056fea26469706673582212207705abff2ab80ea3593b9fdab5b64528c88e8d5d559314aceb6904fa96f6485864736f6c63430008190033",
  "linkReferences": {},
  "deployedLinkReferences": {}
}