{
  "_format": "hh-sol-artifact-1",
  "contractName": "insuredFlightsAgency",
  "sourceName": "contracts/InsuredFlights/InsuredFlightsAgency.sol",
  "abi": [
    {
      "inputs": [
        {
          "internalType": "uint256",
          "name": "_insurancePrice",
          "type": "uint256"
        }
      ],
      "stateMutability": "nonpayable",
      "type": "constructor"
    },
    {
      "anonymous": false,
      "inputs": [
        {
          "indexed": false,
          "internalType": "uint256",
          "name": "insuredFlightId",
          "type": "uint256"
        },
        {
          "indexed": false,
          "internalType": "address",
          "name": "passenger",
          "type": "address"
        }
      ],
      "name": "FlightClaimed",
      "type": "event"
    },
    {
      "anonymous": false,
      "inputs": [
        {
          "indexed": false,
          "internalType": "uint256",
          "name": "insuredFlightId",
          "type": "uint256"
        },
        {
          "indexed": false,
          "internalType": "uint256",
          "name": "flightDelayedTime",
          "type": "uint256"
        },
        {
          "indexed": false,
          "internalType": "string",
          "name": "flightStatus",
          "type": "string"
        }
      ],
      "name": "FlightInfoUpdated",
      "type": "event"
    },
    {
      "anonymous": false,
      "inputs": [
        {
          "indexed": false,
          "internalType": "uint256",
          "name": "insuredFlightId",
          "type": "uint256"
        }
      ],
      "name": "FlightInsured",
      "type": "event"
    },
    {
      "inputs": [],
      "name": "INSURANCE_PRICE",
      "outputs": [
        {
          "internalType": "uint256",
          "name": "",
          "type": "uint256"
        }
      ],
      "stateMutability": "view",
      "type": "function"
    },
    {
      "inputs": [
        {
          "internalType": "uint256",
          "name": "",
          "type": "uint256"
        }
      ],
      "name": "_insuredFlight",
      "outputs": [
        {
          "internalType": "string",
          "name": "aircraftIcao",
          "type": "string"
        },
        {
          "internalType": "string",
          "name": "aircraftName",
          "type": "string"
        },
        {
          "internalType": "string",
          "name": "flightDate",
          "type": "string"
        },
        {
          "internalType": "string",
          "name": "departureAirport",
          "type": "string"
        },
        {
          "internalType": "string",
          "name": "arrivalAirport",
          "type": "string"
        },
        {
          "internalType": "uint256",
          "name": "flightDelayedTime",
          "type": "uint256"
        },
        {
          "internalType": "string",
          "name": "flightNo",
          "type": "string"
        },
        {
          "internalType": "uint256",
          "name": "flight_price",
          "type": "uint256"
        },
        {
          "internalType": "string",
          "name": "status",
          "type": "string"
        },
        {
          "internalType": "uint256",
          "name": "lastChecked",
          "type": "uint256"
        },
        {
          "internalType": "address",
          "name": "insurer",
          "type": "address"
        },
        {
          "internalType": "uint256",
          "name": "insuranceId",
          "type": "uint256"
        }
      ],
      "stateMutability": "view",
      "type": "function"
    },
    {
      "inputs": [
        {
          "components": [
            {
              "internalType": "string",
              "name": "aircraft_name",
              "type": "string"
            },
            {
              "internalType": "string",
              "name": "aircraft_reg",
              "type": "string"
            },
            {
              "internalType": "string",
              "name": "flight_no",
              "type": "string"
            },
            {
              "internalType": "string",
              "name": "flight_date",
              "type": "string"
            },
            {
              "internalType": "string",
              "name": "departure_airport",
              "type": "string"
            },
            {
              "internalType": "string",
              "name": "arrival_airport",
              "type": "string"
            },
            {
              "internalType": "uint256",
              "name": "flight_delayed_time",
              "type": "uint256"
            },
            {
              "internalType": "string",
              "name": "flight_status",
              "type": "string"
            }
          ],
          "internalType": "struct DataTransportObject",
          "name": "dto",
          "type": "tuple"
        }
      ],
      "name": "abiSignatureHack",
      "outputs": [],
      "stateMutability": "pure",
      "type": "function"
    },
    {
      "inputs": [
        {
          "components": [
            {
              "internalType": "bytes32[]",
              "name": "merkleProof",
              "type": "bytes32[]"
            },
            {
              "components": [
                {
                  "internalType": "bytes32",
                  "name": "attestationType",
                  "type": "bytes32"
                },
                {
                  "internalType": "bytes32",
                  "name": "sourceId",
                  "type": "bytes32"
                },
                {
                  "internalType": "uint64",
                  "name": "votingRound",
                  "type": "uint64"
                },
                {
                  "internalType": "uint64",
                  "name": "lowestUsedTimestamp",
                  "type": "uint64"
                },
                {
                  "components": [
                    {
                      "internalType": "string",
                      "name": "url",
                      "type": "string"
                    },
                    {
                      "internalType": "string",
                      "name": "postprocessJq",
                      "type": "string"
                    },
                    {
                      "internalType": "string",
                      "name": "abi_signature",
                      "type": "string"
                    }
                  ],
                  "internalType": "struct IJsonApi.RequestBody",
                  "name": "requestBody",
                  "type": "tuple"
                },
                {
                  "components": [
                    {
                      "internalType": "bytes",
                      "name": "abi_encoded_data",
                      "type": "bytes"
                    }
                  ],
                  "internalType": "struct IJsonApi.ResponseBody",
                  "name": "responseBody",
                  "type": "tuple"
                }
              ],
              "internalType": "struct IJsonApi.Response",
              "name": "data",
              "type": "tuple"
            }
          ],
          "internalType": "struct IJsonApi.Proof",
          "name": "data",
          "type": "tuple"
        },
        {
          "internalType": "uint256",
          "name": "insuredFlightId",
          "type": "uint256"
        }
      ],
      "name": "checkFlightDelay",
      "outputs": [],
      "stateMutability": "nonpayable",
      "type": "function"
    },
    {
      "inputs": [
        {
          "internalType": "uint256",
          "name": "insuredFlightId",
          "type": "uint256"
        },
        {
          "internalType": "address",
          "name": "passenger",
          "type": "address"
        }
      ],
      "name": "checkFlightInsured",
      "outputs": [
        {
          "internalType": "bool",
          "name": "status",
          "type": "bool"
        }
      ],
      "stateMutability": "view",
      "type": "function"
    },
    {
      "inputs": [
        {
          "internalType": "uint256",
          "name": "insuredFlightId",
          "type": "uint256"
        }
      ],
      "name": "claimInsurance",
      "outputs": [],
      "stateMutability": "nonpayable",
      "type": "function"
    },
    {
      "inputs": [],
      "name": "getAllInsureFlights",
      "outputs": [
        {
          "components": [
            {
              "internalType": "string",
              "name": "aircraftIcao",
              "type": "string"
            },
            {
              "internalType": "string",
              "name": "aircraftName",
              "type": "string"
            },
            {
              "internalType": "string",
              "name": "flightDate",
              "type": "string"
            },
            {
              "internalType": "string",
              "name": "departureAirport",
              "type": "string"
            },
            {
              "internalType": "string",
              "name": "arrivalAirport",
              "type": "string"
            },
            {
              "internalType": "uint256",
              "name": "flightDelayedTime",
              "type": "uint256"
            },
            {
              "internalType": "string",
              "name": "flightNo",
              "type": "string"
            },
            {
              "internalType": "address[]",
              "name": "passengers",
              "type": "address[]"
            },
            {
              "internalType": "uint256",
              "name": "flight_price",
              "type": "uint256"
            },
            {
              "internalType": "string",
              "name": "status",
              "type": "string"
            },
            {
              "internalType": "uint256",
              "name": "lastChecked",
              "type": "uint256"
            },
            {
              "internalType": "address",
              "name": "insurer",
              "type": "address"
            },
            {
              "internalType": "uint256",
              "name": "insuranceId",
              "type": "uint256"
            }
          ],
          "internalType": "struct InsuredFlight[]",
          "name": "",
          "type": "tuple[]"
        }
      ],
      "stateMutability": "view",
      "type": "function"
    },
    {
      "inputs": [
        {
          "internalType": "uint256",
          "name": "flight_price",
          "type": "uint256"
        },
        {
          "internalType": "address[]",
          "name": "passengers",
          "type": "address[]"
        }
      ],
      "name": "getCostOfInsurance",
      "outputs": [
        {
          "internalType": "uint256",
          "name": "",
          "type": "uint256"
        }
      ],
      "stateMutability": "view",
      "type": "function"
    },
    {
      "inputs": [],
      "name": "getInsurancePrice",
      "outputs": [
        {
          "internalType": "uint256",
          "name": "",
          "type": "uint256"
        }
      ],
      "stateMutability": "view",
      "type": "function"
    },
    {
      "inputs": [
        {
          "internalType": "uint256",
          "name": "insuredFlightId",
          "type": "uint256"
        }
      ],
      "name": "getInsuredFlight",
      "outputs": [
        {
          "components": [
            {
              "internalType": "string",
              "name": "aircraftIcao",
              "type": "string"
            },
            {
              "internalType": "string",
              "name": "aircraftName",
              "type": "string"
            },
            {
              "internalType": "string",
              "name": "flightDate",
              "type": "string"
            },
            {
              "internalType": "string",
              "name": "departureAirport",
              "type": "string"
            },
            {
              "internalType": "string",
              "name": "arrivalAirport",
              "type": "string"
            },
            {
              "internalType": "uint256",
              "name": "flightDelayedTime",
              "type": "uint256"
            },
            {
              "internalType": "string",
              "name": "flightNo",
              "type": "string"
            },
            {
              "internalType": "address[]",
              "name": "passengers",
              "type": "address[]"
            },
            {
              "internalType": "uint256",
              "name": "flight_price",
              "type": "uint256"
            },
            {
              "internalType": "string",
              "name": "status",
              "type": "string"
            },
            {
              "internalType": "uint256",
              "name": "lastChecked",
              "type": "uint256"
            },
            {
              "internalType": "address",
              "name": "insurer",
              "type": "address"
            },
            {
              "internalType": "uint256",
              "name": "insuranceId",
              "type": "uint256"
            }
          ],
          "internalType": "struct InsuredFlight",
          "name": "",
          "type": "tuple"
        }
      ],
      "stateMutability": "view",
      "type": "function"
    },
    {
      "inputs": [],
      "name": "insurance_delay_time",
      "outputs": [
        {
          "internalType": "uint256",
          "name": "",
          "type": "uint256"
        }
      ],
      "stateMutability": "view",
      "type": "function"
    },
    {
      "inputs": [
        {
          "internalType": "string",
          "name": "aircraft_icao",
          "type": "string"
        },
        {
          "internalType": "string",
          "name": "flight_no",
          "type": "string"
        },
        {
          "internalType": "address[]",
          "name": "passengers",
          "type": "address[]"
        },
        {
          "internalType": "uint256",
          "name": "flight_price",
          "type": "uint256"
        },
        {
          "components": [
            {
              "internalType": "bytes32[]",
              "name": "merkleProof",
              "type": "bytes32[]"
            },
            {
              "components": [
                {
                  "internalType": "bytes32",
                  "name": "attestationType",
                  "type": "bytes32"
                },
                {
                  "internalType": "bytes32",
                  "name": "sourceId",
                  "type": "bytes32"
                },
                {
                  "internalType": "uint64",
                  "name": "votingRound",
                  "type": "uint64"
                },
                {
                  "internalType": "uint64",
                  "name": "lowestUsedTimestamp",
                  "type": "uint64"
                },
                {
                  "components": [
                    {
                      "internalType": "string",
                      "name": "url",
                      "type": "string"
                    },
                    {
                      "internalType": "string",
                      "name": "postprocessJq",
                      "type": "string"
                    },
                    {
                      "internalType": "string",
                      "name": "abi_signature",
                      "type": "string"
                    }
                  ],
                  "internalType": "struct IJsonApi.RequestBody",
                  "name": "requestBody",
                  "type": "tuple"
                },
                {
                  "components": [
                    {
                      "internalType": "bytes",
                      "name": "abi_encoded_data",
                      "type": "bytes"
                    }
                  ],
                  "internalType": "struct IJsonApi.ResponseBody",
                  "name": "responseBody",
                  "type": "tuple"
                }
              ],
              "internalType": "struct IJsonApi.Response",
              "name": "data",
              "type": "tuple"
            }
          ],
          "internalType": "struct IJsonApi.Proof",
          "name": "data",
          "type": "tuple"
        }
      ],
      "name": "insureFlight",
      "outputs": [],
      "stateMutability": "payable",
      "type": "function"
    },
    {
      "inputs": [],
      "name": "insuredFlightIds",
      "outputs": [
        {
          "internalType": "uint256",
          "name": "",
          "type": "uint256"
        }
      ],
      "stateMutability": "view",
      "type": "function"
    },
    {
      "inputs": [
        {
          "internalType": "uint256",
          "name": "",
          "type": "uint256"
        },
        {
          "internalType": "address",
          "name": "",
          "type": "address"
        }
      ],
      "name": "insuredFlightPassengersStatus",
      "outputs": [
        {
          "internalType": "bool",
          "name": "",
          "type": "bool"
        }
      ],
      "stateMutability": "view",
      "type": "function"
    },
    {
      "inputs": [],
      "name": "owner",
      "outputs": [
        {
          "internalType": "address",
          "name": "",
          "type": "address"
        }
      ],
      "stateMutability": "view",
      "type": "function"
    },
    {
      "inputs": [
        {
          "internalType": "uint256",
          "name": "_insurancePrice",
          "type": "uint256"
        }
      ],
      "name": "setInsurancePrice",
      "outputs": [],
      "stateMutability": "nonpayable",
      "type": "function"
    },
    {
      "inputs": [
        {
          "internalType": "address",
          "name": "to",
          "type": "address"
        }
      ],
      "name": "transferAccumulatedFees",
      "outputs": [],
      "stateMutability": "nonpayable",
      "type": "function"
    },
    {
      "inputs": [
        {
          "internalType": "address",
          "name": "newOwner",
          "type": "address"
        }
      ],
      "name": "transferOwnership",
      "outputs": [],
      "stateMutability": "nonpayable",
      "type": "function"
    }
  ],
  "bytecode": "0x6080604052348015600f57600080fd5b506040516133a03803806133a0833981016040819052602c91604f565b6001908155601e600255600055600580546001600160a01b031916331790556067565b600060208284031215606057600080fd5b5051919050565b61332a806100766000396000f3fe6080604052600436106101095760003560e01c80638da5cb5b11610095578063e0d4153e11610064578063e0d4153e14610305578063ec091c171461031b578063f2fde38b1461033b578063f85920d81461035b578063fb458f9b1461037b57600080fd5b80638da5cb5b1461026d5780639fe716af146102a5578063c679aef2146102c5578063ca37a9d7146102f257600080fd5b806339025768116100dc57806339025768146101a65780633c9e6140146101bc5780638289b588146101da578063876050c6146102155780638c774f151461023557600080fd5b8063115e4a411461010e5780631f69d1c11461014357806322526a57146101655780632936975214610184575b600080fd5b34801561011a57600080fd5b5061012e610129366004612863565b610391565b60405190151581526020015b60405180910390f35b34801561014f57600080fd5b5061016361015e36600461288f565b6103be565b005b34801561017157600080fd5b506001545b60405190815260200161013a565b34801561019057600080fd5b50610199610472565b60405161013a9190612a63565b3480156101b257600080fd5b5061017660025481565b3480156101c857600080fd5b506101636101d7366004612ac7565b50565b3480156101e657600080fd5b5061012e6101f5366004612863565b600460209081526000928352604080842090915290825290205460ff1681565b34801561022157600080fd5b50610176610230366004612bfb565b6109bb565b34801561024157600080fd5b50610255610250366004612c42565b6109f5565b60405161013a9c9b9a99989796959493929190612c5b565b34801561027957600080fd5b5060055461028d906001600160a01b031681565b6040516001600160a01b03909116815260200161013a565b3480156102b157600080fd5b506101636102c0366004612d3d565b610e11565b3480156102d157600080fd5b506102e56102e0366004612c42565b61166d565b60405161013a9190612d82565b610163610300366004612e05565b611b7a565b34801561031157600080fd5b5061017660005481565b34801561032757600080fd5b50610163610336366004612c42565b611f33565b34801561034757600080fd5b5061016361035636600461288f565b611fc1565b34801561036757600080fd5b50610163610376366004612c42565b61200d565b34801561038757600080fd5b5061017660015481565b60008281526004602090815260408083206001600160a01b038516845290915290205460ff165b92915050565b6005546001600160a01b031633146103f15760405162461bcd60e51b81526004016103e890612ebc565b60405180910390fd5b6001600160a01b0381166104395760405162461bcd60e51b815260206004820152600f60248201526e496e76616c6964206164647265737360881b60448201526064016103e8565b6040516001600160a01b038216904780156108fc02916000818181858888f1935050505015801561046e573d6000803e3d6000fd5b5050565b60606000805467ffffffffffffffff81111561049057610490612b03565b6040519080825280602002602001820160405280156104c957816020015b6104b661275c565b8152602001906001900390816104ae5790505b50905060005b6000548110156109b5576000818152600360205260409081902081516101a0810190925280548290829061050290612efd565b80601f016020809104026020016040519081016040528092919081815260200182805461052e90612efd565b801561057b5780601f106105505761010080835404028352916020019161057b565b820191906000526020600020905b81548152906001019060200180831161055e57829003601f168201915b5050505050815260200160018201805461059490612efd565b80601f01602080910402602001604051908101604052809291908181526020018280546105c090612efd565b801561060d5780601f106105e25761010080835404028352916020019161060d565b820191906000526020600020905b8154815290600101906020018083116105f057829003601f168201915b5050505050815260200160028201805461062690612efd565b80601f016020809104026020016040519081016040528092919081815260200182805461065290612efd565b801561069f5780601f106106745761010080835404028352916020019161069f565b820191906000526020600020905b81548152906001019060200180831161068257829003601f168201915b505050505081526020016003820180546106b890612efd565b80601f01602080910402602001604051908101604052809291908181526020018280546106e490612efd565b80156107315780601f1061070657610100808354040283529160200191610731565b820191906000526020600020905b81548152906001019060200180831161071457829003601f168201915b5050505050815260200160048201805461074a90612efd565b80601f016020809104026020016040519081016040528092919081815260200182805461077690612efd565b80156107c35780601f10610798576101008083540402835291602001916107c3565b820191906000526020600020905b8154815290600101906020018083116107a657829003601f168201915b50505050508152602001600582015481526020016006820180546107e690612efd565b80601f016020809104026020016040519081016040528092919081815260200182805461081290612efd565b801561085f5780601f106108345761010080835404028352916020019161085f565b820191906000526020600020905b81548152906001019060200180831161084257829003601f168201915b50505050508152602001600782018054806020026020016040519081016040528092919081815260200182805480156108c157602002820191906000526020600020905b81546001600160a01b031681526001909101906020018083116108a3575b50505050508152602001600882015481526020016009820180546108e490612efd565b80601f016020809104026020016040519081016040528092919081815260200182805461091090612efd565b801561095d5780601f106109325761010080835404028352916020019161095d565b820191906000526020600020905b81548152906001019060200180831161094057829003601f168201915b5050509183525050600a8201546020820152600b8201546001600160a01b03166040820152600c9091015460609091015282518390839081106109a2576109a2612f31565b60209081029190910101526001016104cf565b50919050565b600060015460648484516109cf9190612f5d565b6109da90600a612f5d565b6109e49190612f74565b6109ee9190612f96565b9392505050565b600360205260009081526040902080548190610a1090612efd565b80601f0160208091040260200160405190810160405280929190818152602001828054610a3c90612efd565b8015610a895780601f10610a5e57610100808354040283529160200191610a89565b820191906000526020600020905b815481529060010190602001808311610a6c57829003601f168201915b505050505090806001018054610a9e90612efd565b80601f0160208091040260200160405190810160405280929190818152602001828054610aca90612efd565b8015610b175780601f10610aec57610100808354040283529160200191610b17565b820191906000526020600020905b815481529060010190602001808311610afa57829003601f168201915b505050505090806002018054610b2c90612efd565b80601f0160208091040260200160405190810160405280929190818152602001828054610b5890612efd565b8015610ba55780601f10610b7a57610100808354040283529160200191610ba5565b820191906000526020600020905b815481529060010190602001808311610b8857829003601f168201915b505050505090806003018054610bba90612efd565b80601f0160208091040260200160405190810160405280929190818152602001828054610be690612efd565b8015610c335780601f10610c0857610100808354040283529160200191610c33565b820191906000526020600020905b815481529060010190602001808311610c1657829003601f168201915b505050505090806004018054610c4890612efd565b80601f0160208091040260200160405190810160405280929190818152602001828054610c7490612efd565b8015610cc15780601f10610c9657610100808354040283529160200191610cc1565b820191906000526020600020905b815481529060010190602001808311610ca457829003601f168201915b505050505090806005015490806006018054610cdc90612efd565b80601f0160208091040260200160405190810160405280929190818152602001828054610d0890612efd565b8015610d555780601f10610d2a57610100808354040283529160200191610d55565b820191906000526020600020905b815481529060010190602001808311610d3857829003601f168201915b505050505090806008015490806009018054610d7090612efd565b80601f0160208091040260200160405190810160405280929190818152602001828054610d9c90612efd565b8015610de95780601f10610dbe57610100808354040283529160200191610de9565b820191906000526020600020905b815481529060010190602001808311610dcc57829003601f168201915b50505050600a830154600b840154600c90940154929390926001600160a01b0390911691508c565b60008181526003602052604080822081516101a08101909252805482908290610e3990612efd565b80601f0160208091040260200160405190810160405280929190818152602001828054610e6590612efd565b8015610eb25780601f10610e8757610100808354040283529160200191610eb2565b820191906000526020600020905b815481529060010190602001808311610e9557829003601f168201915b50505050508152602001600182018054610ecb90612efd565b80601f0160208091040260200160405190810160405280929190818152602001828054610ef790612efd565b8015610f445780601f10610f1957610100808354040283529160200191610f44565b820191906000526020600020905b815481529060010190602001808311610f2757829003601f168201915b50505050508152602001600282018054610f5d90612efd565b80601f0160208091040260200160405190810160405280929190818152602001828054610f8990612efd565b8015610fd65780601f10610fab57610100808354040283529160200191610fd6565b820191906000526020600020905b815481529060010190602001808311610fb957829003601f168201915b50505050508152602001600382018054610fef90612efd565b80601f016020809104026020016040519081016040528092919081815260200182805461101b90612efd565b80156110685780601f1061103d57610100808354040283529160200191611068565b820191906000526020600020905b81548152906001019060200180831161104b57829003601f168201915b5050505050815260200160048201805461108190612efd565b80601f01602080910402602001604051908101604052809291908181526020018280546110ad90612efd565b80156110fa5780601f106110cf576101008083540402835291602001916110fa565b820191906000526020600020905b8154815290600101906020018083116110dd57829003601f168201915b505050505081526020016005820154815260200160068201805461111d90612efd565b80601f016020809104026020016040519081016040528092919081815260200182805461114990612efd565b80156111965780601f1061116b57610100808354040283529160200191611196565b820191906000526020600020905b81548152906001019060200180831161117957829003601f168201915b50505050508152602001600782018054806020026020016040519081016040528092919081815260200182805480156111f857602002820191906000526020600020905b81546001600160a01b031681526001909101906020018083116111da575b505050505081526020016008820154815260200160098201805461121b90612efd565b80601f016020809104026020016040519081016040528092919081815260200182805461124790612efd565b80156112945780601f1061126957610100808354040283529160200191611294565b820191906000526020600020905b81548152906001019060200180831161127757829003601f168201915b5050509183525050600a8201546020820152600b8201546001600160a01b03166040820152600c90910154606090910152610140810151909150610258906112dc9042612fa9565b116113385760405162461bcd60e51b815260206004820152602660248201527f466c6967687420636865636b206973206174203130206d696e7574657320696e6044820152651d195c9d985b60d21b60648201526084016103e8565b60006113476020850185612fbc565b6113559060a0810190612fdc565b61135f9080612ff2565b81019061136c9190613040565b9050600054826101800151106113b85760405162461bcd60e51b8152602060048201526011602482015270496e76616c696420496e737572616e636560781b60448201526064016103e8565b604051681cd8da19591d5b195960ba1b6020820152602901604051602081830303815290604052805190602001208261012001516040516020016113fc9190613190565b604051602081830303815290604052805190602001201461145f5760405162461bcd60e51b815260206004820152601d60248201527f466c696768742073746174757320616c7265616479207570646174656400000060448201526064016103e8565b8161016001516001600160a01b0316336001600160a01b0316148061149d5750600083815260046020908152604080832033845290915290205460ff165b6115045760405162461bcd60e51b815260206004820152603260248201527f45697468657220496e7375726572206f722050617373656e6765722063616e20604482015271636865636b20666c696768742064656c617960701b60648201526084016103e8565b6002548160c00151101580156115cc57506040516561637469766560d01b6020820152602601604051602081830303815290604052805190602001208160e001516040516020016115559190613190565b604051602081830303815290604052805190602001201415806115cc5750604051651b185b99195960d21b6020820152602601604051602081830303815290604052805190602001208160e001516040516020016115b39190613190565b6040516020818303038152906040528051906020012014155b1561160b5760e08101516000848152600360205260409020600901906115f290826131f3565b5060c08101516000848152600360205260409020600501555b6000838152600360205260409081902042600a9091015560a083015161012084015191517fad522330e0a333ea20b30192e7bf44fd414759973e0d47d6e02d4b5f0e9ceae49261165f9287929091906132b3565b60405180910390a150505050565b61167561275c565b60005482106116bf5760405162461bcd60e51b8152602060048201526016602482015275125b9d985b1a59081a5b9cdd5c995908199b1a59da1d60521b60448201526064016103e8565b6000828152600360205260409081902081516101a081019092528054829082906116e890612efd565b80601f016020809104026020016040519081016040528092919081815260200182805461171490612efd565b80156117615780601f1061173657610100808354040283529160200191611761565b820191906000526020600020905b81548152906001019060200180831161174457829003601f168201915b5050505050815260200160018201805461177a90612efd565b80601f01602080910402602001604051908101604052809291908181526020018280546117a690612efd565b80156117f35780601f106117c8576101008083540402835291602001916117f3565b820191906000526020600020905b8154815290600101906020018083116117d657829003601f168201915b5050505050815260200160028201805461180c90612efd565b80601f016020809104026020016040519081016040528092919081815260200182805461183890612efd565b80156118855780601f1061185a57610100808354040283529160200191611885565b820191906000526020600020905b81548152906001019060200180831161186857829003601f168201915b5050505050815260200160038201805461189e90612efd565b80601f01602080910402602001604051908101604052809291908181526020018280546118ca90612efd565b80156119175780601f106118ec57610100808354040283529160200191611917565b820191906000526020600020905b8154815290600101906020018083116118fa57829003601f168201915b5050505050815260200160048201805461193090612efd565b80601f016020809104026020016040519081016040528092919081815260200182805461195c90612efd565b80156119a95780601f1061197e576101008083540402835291602001916119a9565b820191906000526020600020905b81548152906001019060200180831161198c57829003601f168201915b50505050508152602001600582015481526020016006820180546119cc90612efd565b80601f01602080910402602001604051908101604052809291908181526020018280546119f890612efd565b8015611a455780601f10611a1a57610100808354040283529160200191611a45565b820191906000526020600020905b815481529060010190602001808311611a2857829003601f168201915b5050505050815260200160078201805480602002602001604051908101604052809291908181526020018280548015611aa757602002820191906000526020600020905b81546001600160a01b03168152600190910190602001808311611a89575b5050505050815260200160088201548152602001600982018054611aca90612efd565b80601f0160208091040260200160405190810160405280929190818152602001828054611af690612efd565b8015611b435780601f10611b1857610100808354040283529160200191611b43565b820191906000526020600020905b815481529060010190602001808311611b2657829003601f168201915b5050509183525050600a8201546020820152600b8201546001600160a01b03166040820152600c9091015460609091015292915050565b6001546064838551611b8c9190612f5d565b611b9790600a612f5d565b611ba19190612f74565b611bab9190612f96565b3414611bea5760405162461bcd60e51b815260206004820152600e60248201526d125b9d985b1a5908185b5bdd5b9d60921b60448201526064016103e8565b6000611bf96020830183612fbc565b611c079060a0810190612fdc565b611c119080612ff2565b810190611c1e9190613040565b604051681cd8da19591d5b195960ba1b6020820152909150602901604051602081830303815290604052805190602001208160e00151604051602001611c649190613190565b6040516020818303038152906040528051906020012014611cda5760405162461bcd60e51b815260206004820152602a60248201527f466c69676874204e6f20646f65736e2774206d617463682061207363686564756044820152691b195908199b1a59da1d60b21b60648201526084016103e8565b60005b8451811015611d4757600080548152600460205260408120865160019290889085908110611d0d57611d0d612f31565b6020908102919091018101516001600160a01b03168252810191909152604001600020805460ff1916911515919091179055600101611cdd565b50604051806101a001604052808781526020018260000151815260200182606001518152602001826080015181526020018260a0015181526020018260c0015181526020018681526020018581526020018481526020018260e001518152602001428152602001336001600160a01b0316815260200160005481525060036000805481526020019081526020016000206000820151816000019081611dec91906131f3565b5060208201516001820190611e0190826131f3565b5060408201516002820190611e1690826131f3565b5060608201516003820190611e2b90826131f3565b5060808201516004820190611e4090826131f3565b5060a0820151600582015560c08201516006820190611e5f90826131f3565b5060e08201518051611e7b9160078401916020909101906127cd565b5061010082015160088201556101208201516009820190611e9c90826131f3565b50610140820151600a820155610160820151600b820180546001600160a01b0319166001600160a01b0390921691909117905561018090910151600c90910155600080549080611eeb836132db565b91905055507fc8025f815ce5846bb23a1e70c00825ff76c450559769399af7e28de99a03405e600054604051611f2391815260200190565b60405180910390a1505050505050565b6005546001600160a01b03163314611f5d5760405162461bcd60e51b81526004016103e890612ebc565b60008111611fbc5760405162461bcd60e51b815260206004820152602660248201527f496e737572616e6365207072696365206d75737420626520677265617465722060448201526507468616e20360d41b60648201526084016103e8565b600155565b6005546001600160a01b03163314611feb5760405162461bcd60e51b81526004016103e890612ebc565b600580546001600160a01b0319166001600160a01b0392909216919091179055565b60008181526003602052604080822081516101a0810190925280548290829061203590612efd565b80601f016020809104026020016040519081016040528092919081815260200182805461206190612efd565b80156120ae5780601f10612083576101008083540402835291602001916120ae565b820191906000526020600020905b81548152906001019060200180831161209157829003601f168201915b505050505081526020016001820180546120c790612efd565b80601f01602080910402602001604051908101604052809291908181526020018280546120f390612efd565b80156121405780601f1061211557610100808354040283529160200191612140565b820191906000526020600020905b81548152906001019060200180831161212357829003601f168201915b5050505050815260200160028201805461215990612efd565b80601f016020809104026020016040519081016040528092919081815260200182805461218590612efd565b80156121d25780601f106121a7576101008083540402835291602001916121d2565b820191906000526020600020905b8154815290600101906020018083116121b557829003601f168201915b505050505081526020016003820180546121eb90612efd565b80601f016020809104026020016040519081016040528092919081815260200182805461221790612efd565b80156122645780601f1061223957610100808354040283529160200191612264565b820191906000526020600020905b81548152906001019060200180831161224757829003601f168201915b5050505050815260200160048201805461227d90612efd565b80601f01602080910402602001604051908101604052809291908181526020018280546122a990612efd565b80156122f65780601f106122cb576101008083540402835291602001916122f6565b820191906000526020600020905b8154815290600101906020018083116122d957829003601f168201915b505050505081526020016005820154815260200160068201805461231990612efd565b80601f016020809104026020016040519081016040528092919081815260200182805461234590612efd565b80156123925780601f1061236757610100808354040283529160200191612392565b820191906000526020600020905b81548152906001019060200180831161237557829003601f168201915b50505050508152602001600782018054806020026020016040519081016040528092919081815260200182805480156123f457602002820191906000526020600020905b81546001600160a01b031681526001909101906020018083116123d6575b505050505081526020016008820154815260200160098201805461241790612efd565b80601f016020809104026020016040519081016040528092919081815260200182805461244390612efd565b80156124905780601f1061246557610100808354040283529160200191612490565b820191906000526020600020905b81548152906001019060200180831161247357829003601f168201915b50505050508152602001600a8201548152602001600b820160009054906101000a90046001600160a01b03166001600160a01b03166001600160a01b03168152602001600c8201548152505090506040516020016124fd90681cd8da19591d5b195960ba1b815260090190565b604051602081830303815290604052805190602001208161012001516040516020016125299190613190565b604051602081830303815290604052805190602001200361258c5760405162461bcd60e51b815260206004820181905260248201527f496e737572616e636520636f766572616765206e6f742074726967676572656460448201526064016103e8565b600082815260046020908152604080832033845290915290205460ff166126115760405162461bcd60e51b815260206004820152603360248201527f50617373656e676572206e6f7420696e7375726564204f5220496e737572616e60448201527218d948185b1c9958591e481c995919595b5959606a1b60648201526084016103e8565b6002548160a00151101561265c5760405162461bcd60e51b8152602060048201526012602482015271119b1a59da1d08139bdd0811195b185e595960721b60448201526064016103e8565b60008281526004602090815260408083203380855292528220805460ff1916905561010083015160649061269190600a612f5d565b61269b9190612f74565b604051600081818185875af1925050503d80600081146126d7576040519150601f19603f3d011682016040523d82523d6000602084013e6126dc565b606091505b505090508061271f5760405162461bcd60e51b815260206004820152600f60248201526e151c985b9cd9995c8819985a5b1959608a1b60448201526064016103e8565b604080518481523360208201527fb10ac085223df27be865333b92ef6fed3d39f43691e4f13b018108fbcd8d1b40910160405180910390a1505050565b604051806101a00160405280606081526020016060815260200160608152602001606081526020016060815260200160008152602001606081526020016060815260200160008152602001606081526020016000815260200160006001600160a01b03168152602001600081525090565b828054828255906000526020600020908101928215612822579160200282015b8281111561282257825182546001600160a01b0319166001600160a01b039091161782556020909201916001909101906127ed565b5061282e929150612832565b5090565b5b8082111561282e5760008155600101612833565b80356001600160a01b038116811461285e57600080fd5b919050565b6000806040838503121561287657600080fd5b8235915061288660208401612847565b90509250929050565b6000602082840312156128a157600080fd5b6109ee82612847565b60005b838110156128c55781810151838201526020016128ad565b50506000910152565b600081518084526128e68160208601602086016128aa565b601f01601f19169290920160200192915050565b60008151808452602080850194506020840160005b838110156129345781516001600160a01b03168752958201959082019060010161290f565b509495945050505050565b60006101a08251818552612955828601826128ce565b9150506020830151848203602086015261296f82826128ce565b9150506040830151848203604086015261298982826128ce565b915050606083015184820360608601526129a382826128ce565b915050608083015184820360808601526129bd82826128ce565b91505060a083015160a085015260c083015184820360c08601526129e182826128ce565b91505060e083015184820360e08601526129fb82826128fa565b9150506101008084015181860152506101208084015185830382870152612a2283826128ce565b9250505061014080840151818601525061016080840151612a4d828701826001600160a01b03169052565b5050610180928301519390920192909252919050565b600060208083016020845280855180835260408601915060408160051b87010192506020870160005b82811015612aba57603f19888603018452612aa885835161293f565b94509285019290850190600101612a8c565b5092979650505050505050565b600060208284031215612ad957600080fd5b813567ffffffffffffffff811115612af057600080fd5b820161010081850312156109ee57600080fd5b634e487b7160e01b600052604160045260246000fd5b604051610100810167ffffffffffffffff81118282101715612b3d57612b3d612b03565b60405290565b604051601f8201601f1916810167ffffffffffffffff81118282101715612b6c57612b6c612b03565b604052919050565b600082601f830112612b8557600080fd5b8135602067ffffffffffffffff821115612ba157612ba1612b03565b8160051b612bb0828201612b43565b9283528481018201928281019087851115612bca57600080fd5b83870192505b84831015612bf057612be183612847565b82529183019190830190612bd0565b979650505050505050565b60008060408385031215612c0e57600080fd5b82359150602083013567ffffffffffffffff811115612c2c57600080fd5b612c3885828601612b74565b9150509250929050565b600060208284031215612c5457600080fd5b5035919050565b61018081526000612c7061018083018f6128ce565b8281036020840152612c82818f6128ce565b90508281036040840152612c96818e6128ce565b90508281036060840152612caa818d6128ce565b90508281036080840152612cbe818c6128ce565b90508960a084015282810360c0840152612cd8818a6128ce565b90508760e0840152828103610100840152612cf381886128ce565b91505084610120830152612d136101408301856001600160a01b03169052565b826101608301529d9c50505050505050505050505050565b6000604082840312156109b557600080fd5b60008060408385031215612d5057600080fd5b823567ffffffffffffffff811115612d6757600080fd5b612d7385828601612d2b565b95602094909401359450505050565b6020815260006109ee602083018461293f565b600082601f830112612da657600080fd5b813567ffffffffffffffff811115612dc057612dc0612b03565b612dd3601f8201601f1916602001612b43565b818152846020838601011115612de857600080fd5b816020850160208301376000918101602001919091529392505050565b600080600080600060a08688031215612e1d57600080fd5b853567ffffffffffffffff80821115612e3557600080fd5b612e4189838a01612d95565b96506020880135915080821115612e5757600080fd5b612e6389838a01612d95565b95506040880135915080821115612e7957600080fd5b612e8589838a01612b74565b9450606088013593506080880135915080821115612ea257600080fd5b50612eaf88828901612d2b565b9150509295509295909350565b60208082526021908201527f4f6e6c79206f776e65722063616e2063616c6c20746869732066756e6374696f6040820152603760f91b606082015260800190565b600181811c90821680612f1157607f821691505b6020821081036109b557634e487b7160e01b600052602260045260246000fd5b634e487b7160e01b600052603260045260246000fd5b634e487b7160e01b600052601160045260246000fd5b80820281158282048414176103b8576103b8612f47565b600082612f9157634e487b7160e01b600052601260045260246000fd5b500490565b808201808211156103b8576103b8612f47565b818103818111156103b8576103b8612f47565b6000823560be19833603018112612fd257600080fd5b9190910192915050565b60008235601e19833603018112612fd257600080fd5b6000808335601e1984360301811261300957600080fd5b83018035915067ffffffffffffffff82111561302457600080fd5b60200191503681900382131561303957600080fd5b9250929050565b60006020828403121561305257600080fd5b813567ffffffffffffffff8082111561306a57600080fd5b90830190610100828603121561307f57600080fd5b613087612b19565b82358281111561309657600080fd5b6130a287828601612d95565b8252506020830135828111156130b757600080fd5b6130c387828601612d95565b6020830152506040830135828111156130db57600080fd5b6130e787828601612d95565b6040830152506060830135828111156130ff57600080fd5b61310b87828601612d95565b60608301525060808301358281111561312357600080fd5b61312f87828601612d95565b60808301525060a08301358281111561314757600080fd5b61315387828601612d95565b60a08301525060c083013560c082015260e08301358281111561317557600080fd5b61318187828601612d95565b60e08301525095945050505050565b60008251612fd28184602087016128aa565b601f8211156131ee576000816000526020600020601f850160051c810160208610156131cb5750805b601f850160051c820191505b818110156131ea578281556001016131d7565b5050505b505050565b815167ffffffffffffffff81111561320d5761320d612b03565b6132218161321b8454612efd565b846131a2565b602080601f831160018114613256576000841561323e5750858301515b600019600386901b1c1916600185901b1785556131ea565b600085815260208120601f198616915b8281101561328557888601518255948401946001909101908401613266565b50858210156132a35787850151600019600388901b60f8161c191681555b5050505050600190811b01905550565b8381528260208201526060604082015260006132d260608301846128ce565b95945050505050565b6000600182016132ed576132ed612f47565b506001019056fea2646970667358221220486ae4594e2126dd110e43a458ac7a264e7c2ce0eb4a348f6eaf007b9ed2402764736f6c63430008190033",
  "linkReferences": {},
  "deployedLinkReferences": {}
}