{
  "_format": "hh-sol-artifact-1",
  "contractName": "insuredFlightsAgency",
  "sourceName": "contracts/InsuredFlights/InsuredFlightsAgency.sol",
  "abi": [
    {
      "inputs": [
        {
          "internalType": "uint256",
          "name": "_insurancePrice",
          "type": "uint256"
        }
      ],
      "stateMutability": "nonpayable",
      "type": "constructor"
    },
    {
      "anonymous": false,
      "inputs": [
        {
          "indexed": false,
          "internalType": "uint256",
          "name": "insuredFlightId",
          "type": "uint256"
        },
        {
          "indexed": false,
          "internalType": "address",
          "name": "passenger",
          "type": "address"
        }
      ],
      "name": "FlightClaimed",
      "type": "event"
    },
    {
      "anonymous": false,
      "inputs": [
        {
          "indexed": false,
          "internalType": "uint256",
          "name": "insuredFlightId",
          "type": "uint256"
        },
        {
          "indexed": false,
          "internalType": "uint256",
          "name": "flightDelayedTime",
          "type": "uint256"
        },
        {
          "indexed": false,
          "internalType": "string",
          "name": "flightStatus",
          "type": "string"
        }
      ],
      "name": "FlightInfoUpdated",
      "type": "event"
    },
    {
      "anonymous": false,
      "inputs": [
        {
          "indexed": false,
          "internalType": "uint256",
          "name": "insuredFlightId",
          "type": "uint256"
        }
      ],
      "name": "FlightInsured",
      "type": "event"
    },
    {
      "inputs": [],
      "name": "INSURANCE_PRICE",
      "outputs": [
        {
          "internalType": "uint256",
          "name": "",
          "type": "uint256"
        }
      ],
      "stateMutability": "view",
      "type": "function"
    },
    {
      "inputs": [],
      "name": "_generator",
      "outputs": [
        {
          "internalType": "contract RandomNumberV2Interface",
          "name": "",
          "type": "address"
        }
      ],
      "stateMutability": "view",
      "type": "function"
    },
    {
      "inputs": [
        {
          "internalType": "uint256",
          "name": "",
          "type": "uint256"
        }
      ],
      "name": "_insuredFlight",
      "outputs": [
        {
          "internalType": "string",
          "name": "aircraftIcao",
          "type": "string"
        },
        {
          "internalType": "string",
          "name": "aircraftName",
          "type": "string"
        },
        {
          "internalType": "string",
          "name": "flightDate",
          "type": "string"
        },
        {
          "internalType": "string",
          "name": "departureAirport",
          "type": "string"
        },
        {
          "internalType": "string",
          "name": "arrivalAirport",
          "type": "string"
        },
        {
          "internalType": "uint256",
          "name": "flightDelayedTime",
          "type": "uint256"
        },
        {
          "internalType": "string",
          "name": "flightNo",
          "type": "string"
        },
        {
          "internalType": "uint256",
          "name": "flight_price",
          "type": "uint256"
        },
        {
          "internalType": "string",
          "name": "status",
          "type": "string"
        },
        {
          "internalType": "uint256",
          "name": "lastChecked",
          "type": "uint256"
        },
        {
          "internalType": "address",
          "name": "insurer",
          "type": "address"
        },
        {
          "internalType": "uint256",
          "name": "insuranceId",
          "type": "uint256"
        }
      ],
      "stateMutability": "view",
      "type": "function"
    },
    {
      "inputs": [],
      "name": "_maxNumber",
      "outputs": [
        {
          "internalType": "uint256",
          "name": "",
          "type": "uint256"
        }
      ],
      "stateMutability": "view",
      "type": "function"
    },
    {
      "inputs": [
        {
          "components": [
            {
              "internalType": "string",
              "name": "aircraft_name",
              "type": "string"
            },
            {
              "internalType": "string",
              "name": "aircraft_reg",
              "type": "string"
            },
            {
              "internalType": "string",
              "name": "flight_no",
              "type": "string"
            },
            {
              "internalType": "string",
              "name": "flight_date",
              "type": "string"
            },
            {
              "internalType": "string",
              "name": "departure_airport",
              "type": "string"
            },
            {
              "internalType": "string",
              "name": "arrival_airport",
              "type": "string"
            },
            {
              "internalType": "uint256",
              "name": "flight_delayed_time",
              "type": "uint256"
            },
            {
              "internalType": "string",
              "name": "flight_status",
              "type": "string"
            }
          ],
          "internalType": "struct DataTransportObject",
          "name": "dto",
          "type": "tuple"
        }
      ],
      "name": "abiSignatureHack",
      "outputs": [],
      "stateMutability": "pure",
      "type": "function"
    },
    {
      "inputs": [
        {
          "components": [
            {
              "internalType": "bytes32[]",
              "name": "merkleProof",
              "type": "bytes32[]"
            },
            {
              "components": [
                {
                  "internalType": "bytes32",
                  "name": "attestationType",
                  "type": "bytes32"
                },
                {
                  "internalType": "bytes32",
                  "name": "sourceId",
                  "type": "bytes32"
                },
                {
                  "internalType": "uint64",
                  "name": "votingRound",
                  "type": "uint64"
                },
                {
                  "internalType": "uint64",
                  "name": "lowestUsedTimestamp",
                  "type": "uint64"
                },
                {
                  "components": [
                    {
                      "internalType": "string",
                      "name": "url",
                      "type": "string"
                    },
                    {
                      "internalType": "string",
                      "name": "httpMethod",
                      "type": "string"
                    },
                    {
                      "internalType": "string",
                      "name": "headers",
                      "type": "string"
                    },
                    {
                      "internalType": "string",
                      "name": "queryParams",
                      "type": "string"
                    },
                    {
                      "internalType": "string",
                      "name": "body",
                      "type": "string"
                    },
                    {
                      "internalType": "string",
                      "name": "postProcessJq",
                      "type": "string"
                    },
                    {
                      "internalType": "string",
                      "name": "abiSignature",
                      "type": "string"
                    }
                  ],
                  "internalType": "struct IWeb2Json.RequestBody",
                  "name": "requestBody",
                  "type": "tuple"
                },
                {
                  "components": [
                    {
                      "internalType": "bytes",
                      "name": "abiEncodedData",
                      "type": "bytes"
                    }
                  ],
                  "internalType": "struct IWeb2Json.ResponseBody",
                  "name": "responseBody",
                  "type": "tuple"
                }
              ],
              "internalType": "struct IWeb2Json.Response",
              "name": "data",
              "type": "tuple"
            }
          ],
          "internalType": "struct IWeb2Json.Proof",
          "name": "data",
          "type": "tuple"
        },
        {
          "internalType": "uint256",
          "name": "insuredFlightId",
          "type": "uint256"
        }
      ],
      "name": "checkFlightDelay",
      "outputs": [],
      "stateMutability": "nonpayable",
      "type": "function"
    },
    {
      "inputs": [
        {
          "internalType": "uint256",
          "name": "insuredFlightId",
          "type": "uint256"
        },
        {
          "internalType": "address",
          "name": "passenger",
          "type": "address"
        }
      ],
      "name": "checkFlightInsured",
      "outputs": [
        {
          "internalType": "bool",
          "name": "status",
          "type": "bool"
        }
      ],
      "stateMutability": "view",
      "type": "function"
    },
    {
      "inputs": [
        {
          "internalType": "uint256",
          "name": "insuredFlightId",
          "type": "uint256"
        },
        {
          "internalType": "string",
          "name": "flight_no",
          "type": "string"
        },
        {
          "internalType": "uint256",
          "name": "predictedNumber",
          "type": "uint256"
        }
      ],
      "name": "claimInsurance",
      "outputs": [
        {
          "internalType": "uint256",
          "name": "secretNumber",
          "type": "uint256"
        },
        {
          "internalType": "bool",
          "name": "_predictedSuccess",
          "type": "bool"
        }
      ],
      "stateMutability": "nonpayable",
      "type": "function"
    },
    {
      "inputs": [],
      "name": "getAllInsureFlights",
      "outputs": [
        {
          "components": [
            {
              "internalType": "string",
              "name": "aircraftIcao",
              "type": "string"
            },
            {
              "internalType": "string",
              "name": "aircraftName",
              "type": "string"
            },
            {
              "internalType": "string",
              "name": "flightDate",
              "type": "string"
            },
            {
              "internalType": "string",
              "name": "departureAirport",
              "type": "string"
            },
            {
              "internalType": "string",
              "name": "arrivalAirport",
              "type": "string"
            },
            {
              "internalType": "uint256",
              "name": "flightDelayedTime",
              "type": "uint256"
            },
            {
              "internalType": "string",
              "name": "flightNo",
              "type": "string"
            },
            {
              "components": [
                {
                  "internalType": "address",
                  "name": "wallet",
                  "type": "address"
                },
                {
                  "internalType": "string",
                  "name": "ticketType",
                  "type": "string"
                },
                {
                  "internalType": "uint256",
                  "name": "ticketPrice",
                  "type": "uint256"
                }
              ],
              "internalType": "struct Passenger[]",
              "name": "passengers",
              "type": "tuple[]"
            },
            {
              "internalType": "uint256",
              "name": "flight_price",
              "type": "uint256"
            },
            {
              "internalType": "string",
              "name": "status",
              "type": "string"
            },
            {
              "internalType": "uint256",
              "name": "lastChecked",
              "type": "uint256"
            },
            {
              "internalType": "address",
              "name": "insurer",
              "type": "address"
            },
            {
              "internalType": "uint256",
              "name": "insuranceId",
              "type": "uint256"
            }
          ],
          "internalType": "struct InsuredFlight[]",
          "name": "",
          "type": "tuple[]"
        }
      ],
      "stateMutability": "view",
      "type": "function"
    },
    {
      "inputs": [
        {
          "components": [
            {
              "internalType": "address",
              "name": "wallet",
              "type": "address"
            },
            {
              "internalType": "string",
              "name": "ticketType",
              "type": "string"
            },
            {
              "internalType": "uint256",
              "name": "ticketPrice",
              "type": "uint256"
            }
          ],
          "internalType": "struct Passenger[]",
          "name": "passengers",
          "type": "tuple[]"
        }
      ],
      "name": "getCostOfInsurance",
      "outputs": [
        {
          "internalType": "uint256",
          "name": "",
          "type": "uint256"
        }
      ],
      "stateMutability": "view",
      "type": "function"
    },
    {
      "inputs": [],
      "name": "getInsurancePrice",
      "outputs": [
        {
          "internalType": "uint256",
          "name": "",
          "type": "uint256"
        }
      ],
      "stateMutability": "view",
      "type": "function"
    },
    {
      "inputs": [
        {
          "internalType": "uint256",
          "name": "insuredFlightId",
          "type": "uint256"
        }
      ],
      "name": "getInsuredFlight",
      "outputs": [
        {
          "components": [
            {
              "internalType": "string",
              "name": "aircraftIcao",
              "type": "string"
            },
            {
              "internalType": "string",
              "name": "aircraftName",
              "type": "string"
            },
            {
              "internalType": "string",
              "name": "flightDate",
              "type": "string"
            },
            {
              "internalType": "string",
              "name": "departureAirport",
              "type": "string"
            },
            {
              "internalType": "string",
              "name": "arrivalAirport",
              "type": "string"
            },
            {
              "internalType": "uint256",
              "name": "flightDelayedTime",
              "type": "uint256"
            },
            {
              "internalType": "string",
              "name": "flightNo",
              "type": "string"
            },
            {
              "components": [
                {
                  "internalType": "address",
                  "name": "wallet",
                  "type": "address"
                },
                {
                  "internalType": "string",
                  "name": "ticketType",
                  "type": "string"
                },
                {
                  "internalType": "uint256",
                  "name": "ticketPrice",
                  "type": "uint256"
                }
              ],
              "internalType": "struct Passenger[]",
              "name": "passengers",
              "type": "tuple[]"
            },
            {
              "internalType": "uint256",
              "name": "flight_price",
              "type": "uint256"
            },
            {
              "internalType": "string",
              "name": "status",
              "type": "string"
            },
            {
              "internalType": "uint256",
              "name": "lastChecked",
              "type": "uint256"
            },
            {
              "internalType": "address",
              "name": "insurer",
              "type": "address"
            },
            {
              "internalType": "uint256",
              "name": "insuranceId",
              "type": "uint256"
            }
          ],
          "internalType": "struct InsuredFlight",
          "name": "",
          "type": "tuple"
        }
      ],
      "stateMutability": "view",
      "type": "function"
    },
    {
      "inputs": [],
      "name": "insurance_delay_time",
      "outputs": [
        {
          "internalType": "uint256",
          "name": "",
          "type": "uint256"
        }
      ],
      "stateMutability": "view",
      "type": "function"
    },
    {
      "inputs": [
        {
          "internalType": "string",
          "name": "aircraft_icao",
          "type": "string"
        },
        {
          "internalType": "string",
          "name": "flight_no",
          "type": "string"
        },
        {
          "components": [
            {
              "internalType": "address",
              "name": "wallet",
              "type": "address"
            },
            {
              "internalType": "string",
              "name": "ticketType",
              "type": "string"
            },
            {
              "internalType": "uint256",
              "name": "ticketPrice",
              "type": "uint256"
            }
          ],
          "internalType": "struct Passenger[]",
          "name": "passengers",
          "type": "tuple[]"
        },
        {
          "components": [
            {
              "internalType": "bytes32[]",
              "name": "merkleProof",
              "type": "bytes32[]"
            },
            {
              "components": [
                {
                  "internalType": "bytes32",
                  "name": "attestationType",
                  "type": "bytes32"
                },
                {
                  "internalType": "bytes32",
                  "name": "sourceId",
                  "type": "bytes32"
                },
                {
                  "internalType": "uint64",
                  "name": "votingRound",
                  "type": "uint64"
                },
                {
                  "internalType": "uint64",
                  "name": "lowestUsedTimestamp",
                  "type": "uint64"
                },
                {
                  "components": [
                    {
                      "internalType": "string",
                      "name": "url",
                      "type": "string"
                    },
                    {
                      "internalType": "string",
                      "name": "httpMethod",
                      "type": "string"
                    },
                    {
                      "internalType": "string",
                      "name": "headers",
                      "type": "string"
                    },
                    {
                      "internalType": "string",
                      "name": "queryParams",
                      "type": "string"
                    },
                    {
                      "internalType": "string",
                      "name": "body",
                      "type": "string"
                    },
                    {
                      "internalType": "string",
                      "name": "postProcessJq",
                      "type": "string"
                    },
                    {
                      "internalType": "string",
                      "name": "abiSignature",
                      "type": "string"
                    }
                  ],
                  "internalType": "struct IWeb2Json.RequestBody",
                  "name": "requestBody",
                  "type": "tuple"
                },
                {
                  "components": [
                    {
                      "internalType": "bytes",
                      "name": "abiEncodedData",
                      "type": "bytes"
                    }
                  ],
                  "internalType": "struct IWeb2Json.ResponseBody",
                  "name": "responseBody",
                  "type": "tuple"
                }
              ],
              "internalType": "struct IWeb2Json.Response",
              "name": "data",
              "type": "tuple"
            }
          ],
          "internalType": "struct IWeb2Json.Proof",
          "name": "data",
          "type": "tuple"
        }
      ],
      "name": "insureFlight",
      "outputs": [],
      "stateMutability": "payable",
      "type": "function"
    },
    {
      "inputs": [],
      "name": "insuredFlightIds",
      "outputs": [
        {
          "internalType": "uint256",
          "name": "",
          "type": "uint256"
        }
      ],
      "stateMutability": "view",
      "type": "function"
    },
    {
      "inputs": [
        {
          "internalType": "uint256",
          "name": "",
          "type": "uint256"
        },
        {
          "internalType": "address",
          "name": "",
          "type": "address"
        }
      ],
      "name": "insuredFlightPassengersStatus",
      "outputs": [
        {
          "internalType": "bool",
          "name": "",
          "type": "bool"
        }
      ],
      "stateMutability": "view",
      "type": "function"
    },
    {
      "inputs": [],
      "name": "owner",
      "outputs": [
        {
          "internalType": "address",
          "name": "",
          "type": "address"
        }
      ],
      "stateMutability": "view",
      "type": "function"
    },
    {
      "inputs": [],
      "name": "recieve",
      "outputs": [],
      "stateMutability": "payable",
      "type": "function"
    },
    {
      "inputs": [
        {
          "internalType": "uint256",
          "name": "_insurancePrice",
          "type": "uint256"
        }
      ],
      "name": "setInsurancePrice",
      "outputs": [],
      "stateMutability": "nonpayable",
      "type": "function"
    },
    {
      "inputs": [
        {
          "internalType": "address",
          "name": "to",
          "type": "address"
        }
      ],
      "name": "transferAccumulatedFees",
      "outputs": [],
      "stateMutability": "nonpayable",
      "type": "function"
    },
    {
      "inputs": [
        {
          "internalType": "address",
          "name": "newOwner",
          "type": "address"
        }
      ],
      "name": "transferOwnership",
      "outputs": [],
      "stateMutability": "nonpayable",
      "type": "function"
    }
  ],
  "bytecode": "0x608060405234801561001057600080fd5b506040516142c53803806142c583398101604081905261002f91610201565b6001818155601e600255600055600680546001600160a01b0319163317905561005661008d565b600580546001600160a01b0392909216620100000262010000600160b01b031990921691909117905561008761015e565b506102aa565b600073ad67fe66660fb8dfe9d6b1b4240d8650e30f60196001600160a01b031663159354a26040516020016100e4906020808252600e908201526d2930b73237b6a73ab6b132b92b1960911b604082015260600190565b604051602081830303815290604052805190602001206040518263ffffffff1660e01b815260040161011891815260200190565b602060405180830381865afa158015610135573d6000803e3d6000fd5b505050506040513d601f19601f82011682018060405250810190610159919061021a565b905090565b6000600560029054906101000a90046001600160a01b03166001600160a01b031663dbdff2c16040518163ffffffff1660e01b8152600401606060405180830381865afa1580156101b3573d6000803e3d6000fd5b505050506040513d601f19601f820116820180604052508101906101d7919061024a565b505090506014816101e89190610288565b6005805461ffff191661ffff9290921691909117905550565b60006020828403121561021357600080fd5b5051919050565b60006020828403121561022c57600080fd5b81516001600160a01b038116811461024357600080fd5b9392505050565b60008060006060848603121561025f57600080fd5b835192506020840151801515811461027657600080fd5b80925050604084015190509250925092565b6000826102a557634e487b7160e01b600052601260045260246000fd5b500690565b61400c806102b96000396000f3fe60806040526004361061012a5760003560e01c80638289b588116100ab578063c679aef21161006f578063c679aef21461035a578063cc75384a14610387578063e0d4153e1461039a578063ec091c17146103b0578063f2fde38b146103d0578063fb458f9b146103f057600080fd5b80638289b588146102925780638c774f15146102cd5780638da5cb5b14610305578063a9e10bf2146101a7578063c517f0691461032557600080fd5b806339025768116100f257806339025768146101e05780633c9e6140146101f657806351116f4714610214578063791b5e0a146102345780638060156b1461025457600080fd5b806303a072431461012f578063115e4a41146101575780631f69d1c11461018757806322526a57146101a957806329369752146101be575b600080fd5b34801561013b57600080fd5b50610144601481565b6040519081526020015b60405180910390f35b34801561016357600080fd5b5061017761017236600461306f565b610406565b604051901515815260200161014e565b34801561019357600080fd5b506101a76101a236600461309f565b610433565b005b3480156101b557600080fd5b50600154610144565b3480156101ca57600080fd5b506101d36104e7565b60405161014e91906132b4565b3480156101ec57600080fd5b5061014460025481565b34801561020257600080fd5b506101a7610211366004613318565b50565b34801561022057600080fd5b5061014461022f366004613541565b610ade565b34801561024057600080fd5b506101a761024f36600461358f565b610b4b565b34801561026057600080fd5b5060055461027a906201000090046001600160a01b031681565b6040516001600160a01b03909116815260200161014e565b34801561029e57600080fd5b506101776102ad36600461306f565b600460209081526000928352604080842090915290825290205460ff1681565b3480156102d957600080fd5b506102ed6102e83660046135d3565b6114ca565b60405161014e9c9b9a999897969594939291906135ec565b34801561031157600080fd5b5060065461027a906001600160a01b031681565b34801561033157600080fd5b506103456103403660046136bc565b6118e6565b6040805192835290151560208301520161014e565b34801561036657600080fd5b5061037a6103753660046135d3565b6122ee565b60405161014e919061370b565b6101a761039536600461371e565b6128aa565b3480156103a657600080fd5b5061014460005481565b3480156103bc57600080fd5b506101a76103cb3660046135d3565b612d24565b3480156103dc57600080fd5b506101a76103eb36600461309f565b612db2565b3480156103fc57600080fd5b5061014460015481565b60008281526004602090815260408083206001600160a01b038516845290915290205460ff165b92915050565b6006546001600160a01b031633146104665760405162461bcd60e51b815260040161045d906137ca565b60405180910390fd5b6001600160a01b0381166104ae5760405162461bcd60e51b815260206004820152600f60248201526e496e76616c6964206164647265737360881b604482015260640161045d565b6040516001600160a01b038216904780156108fc02916000818181858888f193505050501580156104e3573d6000803e3d6000fd5b5050565b6060600080546001600160401b0381111561050457610504613353565b60405190808252806020026020018201604052801561053d57816020015b61052a612fe9565b8152602001906001900390816105225790505b50905060005b600054811015610ad8576000818152600360205260409081902081516101a081019092528054829082906105769061380b565b80601f01602080910402602001604051908101604052809291908181526020018280546105a29061380b565b80156105ef5780601f106105c4576101008083540402835291602001916105ef565b820191906000526020600020905b8154815290600101906020018083116105d257829003601f168201915b505050505081526020016001820180546106089061380b565b80601f01602080910402602001604051908101604052809291908181526020018280546106349061380b565b80156106815780601f1061065657610100808354040283529160200191610681565b820191906000526020600020905b81548152906001019060200180831161066457829003601f168201915b5050505050815260200160028201805461069a9061380b565b80601f01602080910402602001604051908101604052809291908181526020018280546106c69061380b565b80156107135780601f106106e857610100808354040283529160200191610713565b820191906000526020600020905b8154815290600101906020018083116106f657829003601f168201915b5050505050815260200160038201805461072c9061380b565b80601f01602080910402602001604051908101604052809291908181526020018280546107589061380b565b80156107a55780601f1061077a576101008083540402835291602001916107a5565b820191906000526020600020905b81548152906001019060200180831161078857829003601f168201915b505050505081526020016004820180546107be9061380b565b80601f01602080910402602001604051908101604052809291908181526020018280546107ea9061380b565b80156108375780601f1061080c57610100808354040283529160200191610837565b820191906000526020600020905b81548152906001019060200180831161081a57829003601f168201915b505050505081526020016005820154815260200160068201805461085a9061380b565b80601f01602080910402602001604051908101604052809291908181526020018280546108869061380b565b80156108d35780601f106108a8576101008083540402835291602001916108d3565b820191906000526020600020905b8154815290600101906020018083116108b657829003601f168201915b5050505050815260200160078201805480602002602001604051908101604052809291908181526020016000905b828210156109e557600084815260209081902060408051606081019091526003850290910180546001600160a01b03168252600181018054929391929184019161094a9061380b565b80601f01602080910402602001604051908101604052809291908181526020018280546109769061380b565b80156109c35780601f10610998576101008083540402835291602001916109c3565b820191906000526020600020905b8154815290600101906020018083116109a657829003601f168201915b5050505050815260200160028201548152505081526020019060010190610901565b50505050815260200160088201548152602001600982018054610a079061380b565b80601f0160208091040260200160405190810160405280929190818152602001828054610a339061380b565b8015610a805780601f10610a5557610100808354040283529160200191610a80565b820191906000526020600020905b815481529060010190602001808311610a6357829003601f168201915b5050509183525050600a8201546020820152600b8201546001600160a01b03166040820152600c909101546060909101528251839083908110610ac557610ac561383f565b6020908102919091010152600101610543565b50919050565b600080805b8351811015610b36576064848281518110610b0057610b0061383f565b602002602001015160400151600a610b18919061386b565b610b229190613898565b610b2c90836138ac565b9150600101610ae3565b50600154610b4490826138ac565b9392505050565b60008181526003602052604080822081516101a08101909252805482908290610b739061380b565b80601f0160208091040260200160405190810160405280929190818152602001828054610b9f9061380b565b8015610bec5780601f10610bc157610100808354040283529160200191610bec565b820191906000526020600020905b815481529060010190602001808311610bcf57829003601f168201915b50505050508152602001600182018054610c059061380b565b80601f0160208091040260200160405190810160405280929190818152602001828054610c319061380b565b8015610c7e5780601f10610c5357610100808354040283529160200191610c7e565b820191906000526020600020905b815481529060010190602001808311610c6157829003601f168201915b50505050508152602001600282018054610c979061380b565b80601f0160208091040260200160405190810160405280929190818152602001828054610cc39061380b565b8015610d105780601f10610ce557610100808354040283529160200191610d10565b820191906000526020600020905b815481529060010190602001808311610cf357829003601f168201915b50505050508152602001600382018054610d299061380b565b80601f0160208091040260200160405190810160405280929190818152602001828054610d559061380b565b8015610da25780601f10610d7757610100808354040283529160200191610da2565b820191906000526020600020905b815481529060010190602001808311610d8557829003601f168201915b50505050508152602001600482018054610dbb9061380b565b80601f0160208091040260200160405190810160405280929190818152602001828054610de79061380b565b8015610e345780601f10610e0957610100808354040283529160200191610e34565b820191906000526020600020905b815481529060010190602001808311610e1757829003601f168201915b5050505050815260200160058201548152602001600682018054610e579061380b565b80601f0160208091040260200160405190810160405280929190818152602001828054610e839061380b565b8015610ed05780601f10610ea557610100808354040283529160200191610ed0565b820191906000526020600020905b815481529060010190602001808311610eb357829003601f168201915b5050505050815260200160078201805480602002602001604051908101604052809291908181526020016000905b82821015610fe257600084815260209081902060408051606081019091526003850290910180546001600160a01b031682526001810180549293919291840191610f479061380b565b80601f0160208091040260200160405190810160405280929190818152602001828054610f739061380b565b8015610fc05780601f10610f9557610100808354040283529160200191610fc0565b820191906000526020600020905b815481529060010190602001808311610fa357829003601f168201915b5050505050815260200160028201548152505081526020019060010190610efe565b505050508152602001600882015481526020016009820180546110049061380b565b80601f01602080910402602001604051908101604052809291908181526020018280546110309061380b565b801561107d5780601f106110525761010080835404028352916020019161107d565b820191906000526020600020905b81548152906001019060200180831161106057829003601f168201915b5050509183525050600a8201546020820152600b8201546001600160a01b03166040820152600c90910154606090910152600054610180820151919250116110fb5760405162461bcd60e51b8152602060048201526011602482015270496e76616c696420496e737572616e636560781b604482015260640161045d565b8061016001516001600160a01b0316336001600160a01b031614806111535750336001600160a01b03168160e0015160008151811061113c5761113c61383f565b6020026020010151600001516001600160a01b0316145b8061116857506006546001600160a01b031633145b6111cf5760405162461bcd60e51b815260206004820152603260248201527f45697468657220496e7375726572206f722050617373656e6765722063616e20604482015271636865636b20666c696768742064656c617960701b606482015260840161045d565b604051681cd8da19591d5b195960ba1b60208201526029016040516020818303038152906040528051906020012081610120015160405160200161121391906138bf565b60405160208183030381529060405280519060200120146112765760405162461bcd60e51b815260206004820152601d60248201527f466c696768742073746174757320616c72656164792075706461746564000000604482015260640161045d565b6102588161014001514261128a91906138db565b116112e65760405162461bcd60e51b815260206004820152602660248201527f466c6967687420636865636b206973206174203130206d696e7574657320696e6044820152651d195c9d985b60d21b606482015260840161045d565b6112ef83612dfe565b61132b5760405162461bcd60e51b815260206004820152600d60248201526c24b73b30b634b210383937b7b360991b604482015260640161045d565b600061133a60208501856138ee565b6113489060a0810190613904565b611352908061391a565b81019061135f9190613967565b90506002548160c001511015801561142957506040516561637469766560d01b6020820152602601604051602081830303815290604052805190602001208160e001516040516020016113b291906138bf565b604051602081830303815290604052805190602001201415806114295750604051651b185b99195960d21b6020820152602601604051602081830303815290604052805190602001208160e0015160405160200161141091906138bf565b6040516020818303038152906040528051906020012014155b156114685760e081015160008481526003602052604090206009019061144f9082613b07565b5060c08101516000848152600360205260409020600501555b6000838152600360205260409081902042600a9091015560a083015161012084015191517fad522330e0a333ea20b30192e7bf44fd414759973e0d47d6e02d4b5f0e9ceae4926114bc928792909190613bc6565b60405180910390a150505050565b6003602052600090815260409020805481906114e59061380b565b80601f01602080910402602001604051908101604052809291908181526020018280546115119061380b565b801561155e5780601f106115335761010080835404028352916020019161155e565b820191906000526020600020905b81548152906001019060200180831161154157829003601f168201915b5050505050908060010180546115739061380b565b80601f016020809104026020016040519081016040528092919081815260200182805461159f9061380b565b80156115ec5780601f106115c1576101008083540402835291602001916115ec565b820191906000526020600020905b8154815290600101906020018083116115cf57829003601f168201915b5050505050908060020180546116019061380b565b80601f016020809104026020016040519081016040528092919081815260200182805461162d9061380b565b801561167a5780601f1061164f5761010080835404028352916020019161167a565b820191906000526020600020905b81548152906001019060200180831161165d57829003601f168201915b50505050509080600301805461168f9061380b565b80601f01602080910402602001604051908101604052809291908181526020018280546116bb9061380b565b80156117085780601f106116dd57610100808354040283529160200191611708565b820191906000526020600020905b8154815290600101906020018083116116eb57829003601f168201915b50505050509080600401805461171d9061380b565b80601f01602080910402602001604051908101604052809291908181526020018280546117499061380b565b80156117965780601f1061176b57610100808354040283529160200191611796565b820191906000526020600020905b81548152906001019060200180831161177957829003601f168201915b5050505050908060050154908060060180546117b19061380b565b80601f01602080910402602001604051908101604052809291908181526020018280546117dd9061380b565b801561182a5780601f106117ff5761010080835404028352916020019161182a565b820191906000526020600020905b81548152906001019060200180831161180d57829003601f168201915b5050505050908060080154908060090180546118459061380b565b80601f01602080910402602001604051908101604052809291908181526020018280546118719061380b565b80156118be5780601f10611893576101008083540402835291602001916118be565b820191906000526020600020905b8154815290600101906020018083116118a157829003601f168201915b50505050600a830154600b840154600c90940154929390926001600160a01b0390911691508c565b600080600060036000878152602001908152602001600020604051806101a001604052908160008201805461191a9061380b565b80601f01602080910402602001604051908101604052809291908181526020018280546119469061380b565b80156119935780601f1061196857610100808354040283529160200191611993565b820191906000526020600020905b81548152906001019060200180831161197657829003601f168201915b505050505081526020016001820180546119ac9061380b565b80601f01602080910402602001604051908101604052809291908181526020018280546119d89061380b565b8015611a255780601f106119fa57610100808354040283529160200191611a25565b820191906000526020600020905b815481529060010190602001808311611a0857829003601f168201915b50505050508152602001600282018054611a3e9061380b565b80601f0160208091040260200160405190810160405280929190818152602001828054611a6a9061380b565b8015611ab75780601f10611a8c57610100808354040283529160200191611ab7565b820191906000526020600020905b815481529060010190602001808311611a9a57829003601f168201915b50505050508152602001600382018054611ad09061380b565b80601f0160208091040260200160405190810160405280929190818152602001828054611afc9061380b565b8015611b495780601f10611b1e57610100808354040283529160200191611b49565b820191906000526020600020905b815481529060010190602001808311611b2c57829003601f168201915b50505050508152602001600482018054611b629061380b565b80601f0160208091040260200160405190810160405280929190818152602001828054611b8e9061380b565b8015611bdb5780601f10611bb057610100808354040283529160200191611bdb565b820191906000526020600020905b815481529060010190602001808311611bbe57829003601f168201915b5050505050815260200160058201548152602001600682018054611bfe9061380b565b80601f0160208091040260200160405190810160405280929190818152602001828054611c2a9061380b565b8015611c775780601f10611c4c57610100808354040283529160200191611c77565b820191906000526020600020905b815481529060010190602001808311611c5a57829003601f168201915b5050505050815260200160078201805480602002602001604051908101604052809291908181526020016000905b82821015611d8957600084815260209081902060408051606081019091526003850290910180546001600160a01b031682526001810180549293919291840191611cee9061380b565b80601f0160208091040260200160405190810160405280929190818152602001828054611d1a9061380b565b8015611d675780601f10611d3c57610100808354040283529160200191611d67565b820191906000526020600020905b815481529060010190602001808311611d4a57829003601f168201915b5050505050815260200160028201548152505081526020019060010190611ca5565b50505050815260200160088201548152602001600982018054611dab9061380b565b80601f0160208091040260200160405190810160405280929190818152602001828054611dd79061380b565b8015611e245780601f10611df957610100808354040283529160200191611e24565b820191906000526020600020905b815481529060010190602001808311611e0757829003601f168201915b50505050508152602001600a8201548152602001600b820160009054906101000a90046001600160a01b03166001600160a01b03166001600160a01b03168152602001600c82015481525050905084604051602001611e8391906138bf565b604051602081830303815290604052805190602001208160c00151604051602001611eae91906138bf565b6040516020818303038152906040528051906020012014611f115760405162461bcd60e51b815260206004820152601760248201527f466c69676874204e6f20646f65736e2774206d61746368000000000000000000604482015260640161045d565b6002548160a001511015611f5c5760405162461bcd60e51b8152602060048201526012602482015271119b1a59da1d08139bdd0811195b185e595960721b604482015260640161045d565b600086815260046020908152604080832033845290915290205460ff16611fe15760405162461bcd60e51b815260206004820152603360248201527f50617373656e676572206e6f7420696e7375726564204f5220496e737572616e60448201527218d948185b1c9958591e481c995919595b5959606a1b606482015260840161045d565b60008681526004602090815260408083203384529091529020805460ff1916905560055461ffff169250831580159061201f575060055461ffff1684145b1561215a576000336001600160a01b03166064836101000151600a612044919061386b565b61204e9190613898565b604051600081818185875af1925050503d806000811461208a576040519150601f19603f3d011682016040523d82523d6000602084013e61208f565b606091505b50509050806120b05760405162461bcd60e51b815260040161045d90613bee565b60405160009033906706f05b59d3b20000908381818185875af1925050503d80600081146120fa576040519150601f19603f3d011682016040523d82523d6000602084013e6120ff565b606091505b50509050806121475760405162461bcd60e51b8152602060048201526014602482015273496e73756666696369656e742062616c616e636560601b604482015260640161045d565b60019350612153612e74565b50506122ad565b600084118015612170575060055461ffff168414155b1561221f576000336001600160a01b031660026064846101000151600a612197919061386b565b6121a19190613898565b6121ab9190613898565b604051600081818185875af1925050503d80600081146121e7576040519150601f19603f3d011682016040523d82523d6000602084013e6121ec565b606091505b505090508061220d5760405162461bcd60e51b815260040161045d90613bee565b60009250612219612e74565b506122ad565b6000336001600160a01b03166064836101000151600a61223f919061386b565b6122499190613898565b604051600081818185875af1925050503d8060008114612285576040519150601f19603f3d011682016040523d82523d6000602084013e61228a565b606091505b50509050806122ab5760405162461bcd60e51b815260040161045d90613bee565b505b604080518781523360208201527fb10ac085223df27be865333b92ef6fed3d39f43691e4f13b018108fbcd8d1b40910160405180910390a150935093915050565b6122f6612fe9565b60005482106123405760405162461bcd60e51b8152602060048201526016602482015275125b9d985b1a59081a5b9cdd5c995908199b1a59da1d60521b604482015260640161045d565b6000828152600360205260409081902081516101a081019092528054829082906123699061380b565b80601f01602080910402602001604051908101604052809291908181526020018280546123959061380b565b80156123e25780601f106123b7576101008083540402835291602001916123e2565b820191906000526020600020905b8154815290600101906020018083116123c557829003601f168201915b505050505081526020016001820180546123fb9061380b565b80601f01602080910402602001604051908101604052809291908181526020018280546124279061380b565b80156124745780601f1061244957610100808354040283529160200191612474565b820191906000526020600020905b81548152906001019060200180831161245757829003601f168201915b5050505050815260200160028201805461248d9061380b565b80601f01602080910402602001604051908101604052809291908181526020018280546124b99061380b565b80156125065780601f106124db57610100808354040283529160200191612506565b820191906000526020600020905b8154815290600101906020018083116124e957829003601f168201915b5050505050815260200160038201805461251f9061380b565b80601f016020809104026020016040519081016040528092919081815260200182805461254b9061380b565b80156125985780601f1061256d57610100808354040283529160200191612598565b820191906000526020600020905b81548152906001019060200180831161257b57829003601f168201915b505050505081526020016004820180546125b19061380b565b80601f01602080910402602001604051908101604052809291908181526020018280546125dd9061380b565b801561262a5780601f106125ff5761010080835404028352916020019161262a565b820191906000526020600020905b81548152906001019060200180831161260d57829003601f168201915b505050505081526020016005820154815260200160068201805461264d9061380b565b80601f01602080910402602001604051908101604052809291908181526020018280546126799061380b565b80156126c65780601f1061269b576101008083540402835291602001916126c6565b820191906000526020600020905b8154815290600101906020018083116126a957829003601f168201915b5050505050815260200160078201805480602002602001604051908101604052809291908181526020016000905b828210156127d857600084815260209081902060408051606081019091526003850290910180546001600160a01b03168252600181018054929391929184019161273d9061380b565b80601f01602080910402602001604051908101604052809291908181526020018280546127699061380b565b80156127b65780601f1061278b576101008083540402835291602001916127b6565b820191906000526020600020905b81548152906001019060200180831161279957829003601f168201915b50505050508152602001600282015481525050815260200190600101906126f4565b505050508152602001600882015481526020016009820180546127fa9061380b565b80601f01602080910402602001604051908101604052809291908181526020018280546128269061380b565b80156128735780601f1061284857610100808354040283529160200191612873565b820191906000526020600020905b81548152906001019060200180831161285657829003601f168201915b5050509183525050600a8201546020820152600b8201546001600160a01b03166040820152600c9091015460609091015292915050565b6000805b83518110156129015760648482815181106128cb576128cb61383f565b602002602001015160400151600a6128e3919061386b565b6128ed9190613898565b6128f790836138ac565b91506001016128ae565b5060015461290f90826138ac565b341461294e5760405162461bcd60e51b815260206004820152600e60248201526d125b9d985b1a5908185b5bdd5b9d60921b604482015260640161045d565b61295782612dfe565b6129935760405162461bcd60e51b815260206004820152600d60248201526c24b73b30b634b210383937b7b360991b604482015260640161045d565b60006129a260208401846138ee565b6129b09060a0810190613904565b6129ba908061391a565b8101906129c79190613967565b604051681cd8da19591d5b195960ba1b6020820152909150602901604051602081830303815290604052805190602001208160e00151604051602001612a0d91906138bf565b6040516020818303038152906040528051906020012014612a835760405162461bcd60e51b815260206004820152602a60248201527f466c69676874204e6f20646f65736e2774206d617463682061207363686564756044820152691b195908199b1a59da1d60b21b606482015260840161045d565b600080548152600360205260409020612a9c8782613b07565b50805160008054815260036020526040902060010190612abc9082613b07565b50606081015160008054815260036020526040902060020190612adf9082613b07565b5060808101516000805481526003602081905260409091200190612b039082613b07565b5060a081015160008054815260036020526040902060040190612b269082613b07565b5060c081015160008054815260036020526040808220600501929092558054815220600601612b558682613b07565b506000805481526003602052604080822060080184905560e083015182548352912060090190612b859082613b07565b506000805481526003602052604080822042600a9091015581548252808220600b0180546001600160a01b031916331790558154808352908220600c01555b8451811015612ccc57600080548152600460205260408120865160019290889085908110612bf457612bf461383f565b6020026020010151600001516001600160a01b03166001600160a01b0316815260200190815260200160002060006101000a81548160ff0219169083151502179055506003600080548152602001908152602001600020600701858281518110612c6057612c6061383f565b602090810291909101810151825460018082018555600094855293839020825160039092020180546001600160a01b0319166001600160a01b03909216919091178155918101519092820190612cb69082613b07565b5060409190910151600290910155600101612bc4565b50600080549080612cdc83613c17565b91905055507fc8025f815ce5846bb23a1e70c00825ff76c450559769399af7e28de99a03405e600054604051612d1491815260200190565b60405180910390a1505050505050565b6006546001600160a01b03163314612d4e5760405162461bcd60e51b815260040161045d906137ca565b60008111612dad5760405162461bcd60e51b815260206004820152602660248201527f496e737572616e6365207072696365206d75737420626520677265617465722060448201526507468616e20360d41b606482015260840161045d565b600155565b6006546001600160a01b03163314612ddc5760405162461bcd60e51b815260040161045d906137ca565b600680546001600160a01b0319166001600160a01b0392909216919091179055565b6000612e08612f17565b6001600160a01b031663d2d3a41f836040518263ffffffff1660e01b8152600401612e339190613ea8565b602060405180830381865afa158015612e50573d6000803e3d6000fd5b505050506040513d601f19601f8201168201806040525081019061042d9190613f55565b6000600560029054906101000a90046001600160a01b03166001600160a01b031663dbdff2c16040518163ffffffff1660e01b8152600401606060405180830381865afa158015612ec9573d6000803e3d6000fd5b505050506040513d601f19601f82011682018060405250810190612eed9190613f70565b50509050601481612efe9190613fa5565b6005805461ffff191661ffff9290921691909117905550565b600073ad67fe66660fb8dfe9d6b1b4240d8650e30f60196001600160a01b031663159354a2604051602001612f6f906020808252600f908201526e233231ab32b934b334b1b0ba34b7b760891b604082015260600190565b604051602081830303815290604052805190602001206040518263ffffffff1660e01b8152600401612fa391815260200190565b602060405180830381865afa158015612fc0573d6000803e3d6000fd5b505050506040513d601f19601f82011682018060405250810190612fe49190613fb9565b905090565b604051806101a00160405280606081526020016060815260200160608152602001606081526020016060815260200160008152602001606081526020016060815260200160008152602001606081526020016000815260200160006001600160a01b03168152602001600081525090565b6001600160a01b038116811461021157600080fd5b6000806040838503121561308257600080fd5b8235915060208301356130948161305a565b809150509250929050565b6000602082840312156130b157600080fd5b8135610b448161305a565b60005b838110156130d75781810151838201526020016130bf565b50506000910152565b600081518084526130f88160208601602086016130bc565b601f01601f19169290920160200192915050565b600082825180855260208086019550808260051b84010181860160005b8481101561318357858303601f19018952815180516001600160a01b0316845284810151606086860181905290613162828701826130e0565b60409384015196909301959095525098840198925090830190600101613129565b5090979650505050505050565b60006101a082518185526131a6828601826130e0565b915050602083015184820360208601526131c082826130e0565b915050604083015184820360408601526131da82826130e0565b915050606083015184820360608601526131f482826130e0565b9150506080830151848203608086015261320e82826130e0565b91505060a083015160a085015260c083015184820360c086015261323282826130e0565b91505060e083015184820360e086015261324c828261310c565b915050610100808401518186015250610120808401518583038287015261327383826130e0565b925050506101408084015181860152506101608084015161329e828701826001600160a01b03169052565b5050610180928301519390920192909252919050565b600060208083016020845280855180835260408601915060408160051b87010192506020870160005b8281101561330b57603f198886030184526132f9858351613190565b945092850192908501906001016132dd565b5092979650505050505050565b60006020828403121561332a57600080fd5b81356001600160401b0381111561334057600080fd5b82016101008185031215610b4457600080fd5b634e487b7160e01b600052604160045260246000fd5b604051606081016001600160401b038111828210171561338b5761338b613353565b60405290565b60405161010081016001600160401b038111828210171561338b5761338b613353565b604051601f8201601f191681016001600160401b03811182821017156133dc576133dc613353565b604052919050565b600082601f8301126133f557600080fd5b81356001600160401b0381111561340e5761340e613353565b613421601f8201601f19166020016133b4565b81815284602083860101111561343657600080fd5b816020850160208301376000918101602001919091529392505050565b600082601f83011261346457600080fd5b813560206001600160401b038083111561348057613480613353565b8260051b61348f8382016133b4565b93845285810183019383810190888611156134a957600080fd5b84880192505b85831015613535578235848111156134c75760008081fd5b88016060818b03601f19018113156134df5760008081fd5b6134e7613369565b878301356134f48161305a565b81526040838101358881111561350a5760008081fd5b6135188e8b838801016133e4565b8a84015250919092013590820152825291840191908401906134af565b98975050505050505050565b60006020828403121561355357600080fd5b81356001600160401b0381111561356957600080fd5b61357584828501613453565b949350505050565b600060408284031215610ad857600080fd5b600080604083850312156135a257600080fd5b82356001600160401b038111156135b857600080fd5b6135c48582860161357d565b95602094909401359450505050565b6000602082840312156135e557600080fd5b5035919050565b6101808152600061360161018083018f6130e0565b8281036020840152613613818f6130e0565b90508281036040840152613627818e6130e0565b9050828103606084015261363b818d6130e0565b9050828103608084015261364f818c6130e0565b90508960a084015282810360c0840152613669818a6130e0565b90508760e084015282810361010084015261368481886130e0565b915050846101208301526136a46101408301856001600160a01b03169052565b826101608301529d9c50505050505050505050505050565b6000806000606084860312156136d157600080fd5b8335925060208401356001600160401b038111156136ee57600080fd5b6136fa868287016133e4565b925050604084013590509250925092565b602081526000610b446020830184613190565b6000806000806080858703121561373457600080fd5b84356001600160401b038082111561374b57600080fd5b613757888389016133e4565b9550602087013591508082111561376d57600080fd5b613779888389016133e4565b9450604087013591508082111561378f57600080fd5b61379b88838901613453565b935060608701359150808211156137b157600080fd5b506137be8782880161357d565b91505092959194509250565b60208082526021908201527f4f6e6c79206f776e65722063616e2063616c6c20746869732066756e6374696f6040820152603760f91b606082015260800190565b600181811c9082168061381f57607f821691505b602082108103610ad857634e487b7160e01b600052602260045260246000fd5b634e487b7160e01b600052603260045260246000fd5b634e487b7160e01b600052601160045260246000fd5b808202811582820484141761042d5761042d613855565b634e487b7160e01b600052601260045260246000fd5b6000826138a7576138a7613882565b500490565b8082018082111561042d5761042d613855565b600082516138d18184602087016130bc565b9190910192915050565b8181038181111561042d5761042d613855565b6000823560be198336030181126138d157600080fd5b60008235601e198336030181126138d157600080fd5b6000808335601e1984360301811261393157600080fd5b8301803591506001600160401b0382111561394b57600080fd5b60200191503681900382131561396057600080fd5b9250929050565b60006020828403121561397957600080fd5b81356001600160401b038082111561399057600080fd5b9083019061010082860312156139a557600080fd5b6139ad613391565b8235828111156139bc57600080fd5b6139c8878286016133e4565b8252506020830135828111156139dd57600080fd5b6139e9878286016133e4565b602083015250604083013582811115613a0157600080fd5b613a0d878286016133e4565b604083015250606083013582811115613a2557600080fd5b613a31878286016133e4565b606083015250608083013582811115613a4957600080fd5b613a55878286016133e4565b60808301525060a083013582811115613a6d57600080fd5b613a79878286016133e4565b60a08301525060c083013560c082015260e083013582811115613a9b57600080fd5b613aa7878286016133e4565b60e08301525095945050505050565b601f821115613b02576000816000526020600020601f850160051c81016020861015613adf5750805b601f850160051c820191505b81811015613afe57828155600101613aeb565b5050505b505050565b81516001600160401b03811115613b2057613b20613353565b613b3481613b2e845461380b565b84613ab6565b602080601f831160018114613b695760008415613b515750858301515b600019600386901b1c1916600185901b178555613afe565b600085815260208120601f198616915b82811015613b9857888601518255948401946001909101908401613b79565b5085821015613bb65787850151600019600388901b60f8161c191681555b5050505050600190811b01905550565b838152826020820152606060408201526000613be560608301846130e0565b95945050505050565b6020808252600f908201526e151c985b9cd9995c8819985a5b1959608a1b604082015260600190565b600060018201613c2957613c29613855565b5060010190565b6000823560be19833603018112613c4657600080fd5b90910192915050565b80356001600160401b0381168114613c6657600080fd5b919050565b6000808335601e19843603018112613c8257600080fd5b83016020810192503590506001600160401b03811115613ca157600080fd5b80360382131561396057600080fd5b81835281816020850137506000828201602090810191909152601f909101601f19169091010190565b60008235601e19833603018112613c4657600080fd5b6000613cfb8283613c6b565b60208552613be5602086018284613cb0565b80358252602081013560208301526000613d2960408301613c4f565b6001600160401b03808216604086015280613d4660608601613c4f565b1660608601525050608082013560de19833603018112613d6557600080fd5b60c060808501528201613d788180613c6b565b60e060c0870152613d8e6101a087018284613cb0565b915050613d9e6020830183613c6b565b60bf19808885030160e0890152613db6848385613cb0565b9350613dc56040860186613c6b565b935091508088850301610100890152613ddf848484613cb0565b9350613dee6060860186613c6b565b935091508088850301610120890152613e08848484613cb0565b9350613e176080860186613c6b565b935091508088850301610140890152613e31848484613cb0565b9350613e4060a0860186613c6b565b935091508088850301610160890152613e5a848484613cb0565b9350613e6960c0860186613c6b565b9550925080888503016101808901525050613e85828483613cb0565b92505050613e9660a0840184613cd9565b84820360a0860152613be58282613cef565b6020815260008235601e19843603018112613ec257600080fd5b83016020810190356001600160401b03811115613ede57600080fd5b8060051b803603831315613ef157600080fd5b60406020860152606085018290526001600160fb1b03821115613f1357600080fd5b8083608087013784019150613f2d90506020850185613c30565b6060848303016040850152613be56080830182613d0d565b80518015158114613c6657600080fd5b600060208284031215613f6757600080fd5b610b4482613f45565b600080600060608486031215613f8557600080fd5b83519250613f9560208501613f45565b9150604084015190509250925092565b600082613fb457613fb4613882565b500690565b600060208284031215613fcb57600080fd5b8151610b448161305a56fea2646970667358221220b131eebf9348e8be6db9c1aa89319ea770db3fdefcace7bd54e29fe47ebaa22f64736f6c63430008190033",
  "linkReferences": {},
  "deployedLinkReferences": {}
}