{
  "_format": "hh-sol-artifact-1",
  "contractName": "TokenStateReader",
  "sourceName": "contracts/proofOfReserves/TokenStateReader.sol",
  "abi": [
    {
      "anonymous": false,
      "inputs": [
        {
          "indexed": false,
          "internalType": "address",
          "name": "tokenAddress",
          "type": "address"
        },
        {
          "indexed": false,
          "internalType": "uint256",
          "name": "totalSupply",
          "type": "uint256"
        }
      ],
      "name": "TotalTokenSupply",
      "type": "event"
    },
    {
      "inputs": [
        {
          "internalType": "contract ERC20",
          "name": "token",
          "type": "address"
        }
      ],
      "name": "broadcastTokenSupply",
      "outputs": [
        {
          "internalType": "uint256",
          "name": "",
          "type": "uint256"
        }
      ],
      "stateMutability": "nonpayable",
      "type": "function"
    }
  ],
  "bytecode": "0x6080604052348015600f57600080fd5b506101e48061001f6000396000f3fe608060405234801561001057600080fd5b506004361061002b5760003560e01c8063a8084fa514610030575b600080fd5b61004361003e366004610165565b610055565b60405190815260200160405180910390f35b60007fada6cc338db1d171628fb0e89fb519e7c2b86c0932b9c0c9ca75322bb32159a282836001600160a01b03166318160ddd6040518163ffffffff1660e01b8152600401602060405180830381865afa1580156100b7573d6000803e3d6000fd5b505050506040513d601f19601f820116820180604052508101906100db9190610195565b604080516001600160a01b03909316835260208301919091520160405180910390a1816001600160a01b03166318160ddd6040518163ffffffff1660e01b8152600401602060405180830381865afa15801561013b573d6000803e3d6000fd5b505050506040513d601f19601f8201168201806040525081019061015f9190610195565b92915050565b60006020828403121561017757600080fd5b81356001600160a01b038116811461018e57600080fd5b9392505050565b6000602082840312156101a757600080fd5b505191905056fea26469706673582212205a2d6b938033582ae3ab081816aecd38b98867a95156c5eb682eca7f6d39b2dd64736f6c63430008190033",
  "linkReferences": {},
  "deployedLinkReferences": {}
}