{
  "_format": "hh-sol-artifact-1",
  "contractName": "LuckySpin",
  "sourceName": "contracts/LuckySpin/LuckySpin.sol",
  "abi": [
    {
      "inputs": [],
      "stateMutability": "nonpayable",
      "type": "constructor"
    },
    {
      "anonymous": false,
      "inputs": [
        {
          "indexed": false,
          "internalType": "address",
          "name": "player",
          "type": "address"
        },
        {
          "indexed": false,
          "internalType": "uint16[]",
          "name": "predictions",
          "type": "uint16[]"
        },
        {
          "indexed": false,
          "internalType": "uint16[]",
          "name": "targets",
          "type": "uint16[]"
        },
        {
          "indexed": false,
          "internalType": "uint16",
          "name": "matches",
          "type": "uint16"
        },
        {
          "indexed": false,
          "internalType": "uint8",
          "name": "result",
          "type": "uint8"
        },
        {
          "indexed": false,
          "internalType": "uint256",
          "name": "prize",
          "type": "uint256"
        },
        {
          "indexed": false,
          "internalType": "uint256",
          "name": "timestamp",
          "type": "uint256"
        }
      ],
      "name": "Spin",
      "type": "event"
    },
    {
      "anonymous": false,
      "inputs": [
        {
          "indexed": false,
          "internalType": "address",
          "name": "player",
          "type": "address"
        },
        {
          "indexed": false,
          "internalType": "uint16[]",
          "name": "predictions",
          "type": "uint16[]"
        },
        {
          "indexed": false,
          "internalType": "uint16[]",
          "name": "targets",
          "type": "uint16[]"
        },
        {
          "indexed": false,
          "internalType": "uint256",
          "name": "prize",
          "type": "uint256"
        }
      ],
      "name": "SpinWinSaved",
      "type": "event"
    },
    {
      "inputs": [],
      "name": "MAX_NUM_PER_SPIN",
      "outputs": [
        {
          "internalType": "uint256",
          "name": "",
          "type": "uint256"
        }
      ],
      "stateMutability": "view",
      "type": "function"
    },
    {
      "inputs": [],
      "name": "MAX_PREDICTIONS",
      "outputs": [
        {
          "internalType": "uint256",
          "name": "",
          "type": "uint256"
        }
      ],
      "stateMutability": "view",
      "type": "function"
    },
    {
      "inputs": [],
      "name": "MAX_STAKE_AMOUNT",
      "outputs": [
        {
          "internalType": "uint256",
          "name": "",
          "type": "uint256"
        }
      ],
      "stateMutability": "view",
      "type": "function"
    },
    {
      "inputs": [
        {
          "internalType": "uint256",
          "name": "amount",
          "type": "uint256"
        }
      ],
      "name": "claimWins",
      "outputs": [],
      "stateMutability": "nonpayable",
      "type": "function"
    },
    {
      "inputs": [
        {
          "internalType": "address",
          "name": "user",
          "type": "address"
        }
      ],
      "name": "getUnpaidWins",
      "outputs": [
        {
          "internalType": "uint256",
          "name": "",
          "type": "uint256"
        }
      ],
      "stateMutability": "view",
      "type": "function"
    },
    {
      "inputs": [
        {
          "internalType": "address",
          "name": "user",
          "type": "address"
        }
      ],
      "name": "getUserSpins",
      "outputs": [
        {
          "components": [
            {
              "internalType": "uint16[]",
              "name": "predictions",
              "type": "uint16[]"
            },
            {
              "internalType": "uint16[]",
              "name": "targets",
              "type": "uint16[]"
            },
            {
              "internalType": "uint16",
              "name": "matches",
              "type": "uint16"
            },
            {
              "internalType": "enum LuckySpin.SpinResult",
              "name": "result",
              "type": "uint8"
            },
            {
              "internalType": "uint256",
              "name": "amount",
              "type": "uint256"
            },
            {
              "internalType": "uint256",
              "name": "prize",
              "type": "uint256"
            },
            {
              "internalType": "uint256",
              "name": "timestamp",
              "type": "uint256"
            }
          ],
          "internalType": "struct LuckySpin.Spins[]",
          "name": "",
          "type": "tuple[]"
        }
      ],
      "stateMutability": "view",
      "type": "function"
    },
    {
      "inputs": [
        {
          "internalType": "uint16[]",
          "name": "predictions",
          "type": "uint16[]"
        }
      ],
      "name": "luckySpin",
      "outputs": [],
      "stateMutability": "payable",
      "type": "function"
    },
    {
      "inputs": [],
      "name": "owner",
      "outputs": [
        {
          "internalType": "address",
          "name": "",
          "type": "address"
        }
      ],
      "stateMutability": "view",
      "type": "function"
    },
    {
      "inputs": [
        {
          "internalType": "address",
          "name": "",
          "type": "address"
        }
      ],
      "name": "unpaidWins",
      "outputs": [
        {
          "internalType": "uint256",
          "name": "",
          "type": "uint256"
        }
      ],
      "stateMutability": "view",
      "type": "function"
    },
    {
      "inputs": [
        {
          "internalType": "address",
          "name": "",
          "type": "address"
        },
        {
          "internalType": "uint256",
          "name": "",
          "type": "uint256"
        }
      ],
      "name": "userSpins",
      "outputs": [
        {
          "internalType": "uint16",
          "name": "matches",
          "type": "uint16"
        },
        {
          "internalType": "enum LuckySpin.SpinResult",
          "name": "result",
          "type": "uint8"
        },
        {
          "internalType": "uint256",
          "name": "amount",
          "type": "uint256"
        },
        {
          "internalType": "uint256",
          "name": "prize",
          "type": "uint256"
        },
        {
          "internalType": "uint256",
          "name": "timestamp",
          "type": "uint256"
        }
      ],
      "stateMutability": "view",
      "type": "function"
    },
    {
      "inputs": [],
      "name": "withdrawAll",
      "outputs": [],
      "stateMutability": "nonpayable",
      "type": "function"
    }
  ],
  "bytecode": "0x608060405234801561001057600080fd5b50610019610048565b600080546001600160a01b03929092166001600160a01b03199283161790556003805490911633179055610149565b600073ad67fe66660fb8dfe9d6b1b4240d8650e30f60196001600160a01b031663159354a260405160200161009f906020808252600e908201526d2930b73237b6a73ab6b132b92b1960911b604082015260600190565b604051602081830303815290604052805190602001206040518263ffffffff1660e01b81526004016100d391815260200190565b602060405180830381865afa1580156100f0573d6000803e3d6000fd5b505050506040513d601f19601f820116820180604052508101906101149190610119565b905090565b60006020828403121561012b57600080fd5b81516001600160a01b038116811461014257600080fd5b9392505050565b61146e806101586000396000f3fe60806040526004361061009c5760003560e01c8063853828b611610064578063853828b6146101475780638da5cb5b1461015c578063a4fcc72214610194578063cc56d69e146101c1578063d53cab66146101d6578063f44fbc4f1461020757600080fd5b80632f92f1f2146100a1578063638b709a146100d0578063707aa105146100fd57806376a2f6dd1461011f57806384cdf45614610132575b600080fd5b3480156100ad57600080fd5b506100bd671bc16d674ec8000081565b6040519081526020015b60405180910390f35b3480156100dc57600080fd5b506100f06100eb366004610f70565b61023d565b6040516100c7919061100a565b34801561010957600080fd5b5061011d6101183660046110d1565b610413565b005b61011d61012d366004611112565b6105b1565b34801561013e57600080fd5b506100bd601481565b34801561015357600080fd5b5061011d610d60565b34801561016857600080fd5b5060035461017c906001600160a01b031681565b6040516001600160a01b0390911681526020016100c7565b3480156101a057600080fd5b506100bd6101af366004610f70565b60026020526000908152604090205481565b3480156101cd57600080fd5b506100bd600581565b3480156101e257600080fd5b506101f66101f13660046111d7565b610e3d565b6040516100c7959493929190611201565b34801561021357600080fd5b506100bd610222366004610f70565b6001600160a01b031660009081526002602052604090205490565b6001600160a01b0381166000908152600160209081526040808320805482518185028101850190935280835260609492939192909184015b8282101561040857838290600052602060002090600602016040518060e00160405290816000820180548060200260200160405190810160405280929190818152602001828054801561030f57602002820191906000526020600020906000905b82829054906101000a900461ffff1661ffff16815260200190600201906020826001010492830192600103820291508084116102d65790505b505050505081526020016001820180548060200260200160405190810160405280929190818152602001828054801561038f57602002820191906000526020600020906000905b82829054906101000a900461ffff1661ffff16815260200190600201906020826001010492830192600103820291508084116103565790505b5050509183525050600282015461ffff8116602083015260409091019062010000900460ff1660018111156103c6576103c6610fd2565b60018111156103d7576103d7610fd2565b8152602001600382015481526020016004820154815260200160058201548152505081526020019060010190610275565b505050509050919050565b600081116104595760405162461bcd60e51b815260206004820152600e60248201526d1253959053125117d05353d5539560921b60448201526064015b60405180910390fd5b336000908152600260205260409020548111156104b05760405162461bcd60e51b8152602060048201526015602482015274105353d5539517d15610d1515114d7d55394105251605a1b6044820152606401610450565b804710156105005760405162461bcd60e51b815260206004820152601860248201527f5041594f55545f46554e44535f554e415641494c41424c4500000000000000006044820152606401610450565b336000908152600260205260408120805483929061051f90849061124b565b9091555050604051600090339083908381818185875af1925050503d8060008114610566576040519150601f19603f3d011682016040523d82523d6000602084013e61056b565b606091505b50509050806105ac5760405162461bcd60e51b815260206004820152600d60248201526c14105653d55517d19052531151609a1b6044820152606401610450565b505b50565b805161ffff81166005146106075760405162461bcd60e51b815260206004820152601860248201527f50524544494354494f4e535f4d5553545f42455f4649564500000000000000006044820152606401610450565b600034116106445760405162461bcd60e51b815260206004820152600a6024820152695a45524f5f56414c554560b01b6044820152606401610450565b671bc16d674ec800003411156106915760405162461bcd60e51b815260206004820152601260248201527113505617d4d51052d157d15610d15151115160721b6044820152606401610450565b60005b8161ffff1681101561073f5760008382815181106106b4576106b4611264565b602002602001015161ffff161180156106eb575060148382815181106106dc576106dc611264565b602002602001015161ffff1611155b6107375760405162461bcd60e51b815260206004820152601760248201527f50524544494354494f4e5f4f55545f4f465f52414e47450000000000000000006044820152606401610450565b600101610694565b5060008161ffff1667ffffffffffffffff81111561075f5761075f6110ea565b604051908082528060200260200182016040528015610788578160200160208202803683370190505b50905060008060008054906101000a90046001600160a01b03166001600160a01b031663dbdff2c16040518163ffffffff1660e01b8152600401606060405180830381865afa1580156107df573d6000803e3d6000fd5b505050506040513d601f19601f82011682018060405250810190610803919061127a565b5091509150806108465760405162461bcd60e51b815260206004820152600e60248201526d524e475f4e4f545f53454355524560901b6044820152606401610450565b6000805b8561ffff168110156109235760005b6040805160208101879052908101839052606081018290523360808201524360a082015260009060c00160408051601f198184030181529190528051602090910120905060006108aa6014836112ce565b6108b59060016112e2565b9050600161ffff82161b85811663ffffffff16600003610905578086179550818986815181106108e7576108e7611264565b602002602001019061ffff16908161ffff168152505050505061091a565b8361090f816112f5565b945050505050610859565b5060010161084a565b50600080610933601460016112e2565b67ffffffffffffffff81111561094b5761094b6110ea565b604051908082528060200260200182016040528015610974578160200160208202803683370190505b50905060005b8761ffff168110156109d9576001828a838151811061099b5761099b611264565b602002602001015161ffff16815181106109b7576109b7611264565b602002602001018181516109cb919061130e565b60ff1690525060010161097a565b5060005b8761ffff16811015610a795760008782815181106109fd576109fd611264565b602002602001015190506000838261ffff1681518110610a1f57610a1f611264565b602002602001015160ff161115610a70576001838261ffff1681518110610a4857610a48611264565b60200260200101818151610a5c9190611327565b60ff1690525083610a6c81611340565b9450505b506001016109dd565b5050600060038261ffff1610610ae3578161ffff16600303610ab3576064610aa2346096611361565b610aac9190611378565b9050610ae3565b8161ffff16600403610ac957503460011b610ae3565b6064610ad63460fa611361565b610ae09190611378565b90505b6000808211610af3576001610af6565b60005b90508115610bf75781471015610b6d573360009081526002602052604081208054849290610b259084906112e2565b90915550506040517f015ff3c642e9e6b4ccd7c82581914e5360b1f01adcb70ef50d3eb6d17f53cabe90610b609033908c908b90879061138c565b60405180910390a1610bf7565b604051600090339084908381818185875af1925050503d8060008114610baf576040519150601f19603f3d011682016040523d82523d6000602084013e610bb4565b606091505b5050905080610bf55760405162461bcd60e51b815260206004820152600d60248201526c14105653d55517d19052531151609a1b6044820152606401610450565b505b60006040518060e001604052808b81526020018981526020018561ffff168152602001836001811115610c2c57610c2c610fd2565b8152346020808301919091526040808301879052426060909301929092523360009081526001808352928120805493840181558152819020835180519495508594600690940290910192610c839284920190610e96565b506020828101518051610c9c9260018501920190610e96565b50604082015160028201805461ffff90921661ffff1983168117825560608501519262ffffff19161762010000836001811115610cdb57610cdb610fd2565b02179055506080820151816003015560a0820151816004015560c0820151816005015550507fa3afc3b4a9332885b787e4c0379f686ec7a065026432eea34d86cd28b4eb3284338b8a87866001811115610d3757610d37610fd2565b8842604051610d4c97969594939291906113d4565b60405180910390a150505050505050505050565b6003546001600160a01b03163314610da65760405162461bcd60e51b81526020600482015260096024820152682727aa2fa0a226a4a760b91b6044820152606401610450565b6003546040516000916001600160a01b03169047908381818185875af1925050503d8060008114610df3576040519150601f19603f3d011682016040523d82523d6000602084013e610df8565b606091505b50509050806105ae5760405162461bcd60e51b815260206004820152601160248201527015d2551211149055d05317d19052531151607a1b6044820152606401610450565b60016020528160005260406000208181548110610e5957600080fd5b6000918252602090912060069091020160028101546003820154600483015460059093015461ffff831695506201000090920460ff169350919085565b82805482825590600052602060002090600f01601090048101928215610f2f5791602002820160005b83821115610eff57835183826101000a81548161ffff021916908361ffff1602179055509260200192600201602081600101049283019260010302610ebf565b8015610f2d5782816101000a81549061ffff0219169055600201602081600101049283019260010302610eff565b505b50610f3b929150610f3f565b5090565b5b80821115610f3b5760008155600101610f40565b80356001600160a01b0381168114610f6b57600080fd5b919050565b600060208284031215610f8257600080fd5b610f8b82610f54565b9392505050565b60008151808452602080850194506020840160005b83811015610fc757815161ffff1687529582019590820190600101610fa7565b509495945050505050565b634e487b7160e01b600052602160045260246000fd5b6002811061100657634e487b7160e01b600052602160045260246000fd5b9052565b600060208083018184528085518083526040925060408601915060408160051b87010184880160005b838110156110c357603f19898403018552815160e0815181865261105982870182610f92565b915050888201518582038a8701526110718282610f92565b91505061ffff88830151168886015260608083015161109282880182610fe8565b50506080828101519086015260a0808301519086015260c09182015191909401529386019390860190600101611033565b509098975050505050505050565b6000602082840312156110e357600080fd5b5035919050565b634e487b7160e01b600052604160045260246000fd5b803561ffff81168114610f6b57600080fd5b6000602080838503121561112557600080fd5b823567ffffffffffffffff8082111561113d57600080fd5b818501915085601f83011261115157600080fd5b813581811115611163576111636110ea565b8060051b604051601f19603f83011681018181108582111715611188576111886110ea565b6040529182528482019250838101850191888311156111a657600080fd5b938501935b828510156111cb576111bc85611100565b845293850193928501926111ab565b98975050505050505050565b600080604083850312156111ea57600080fd5b6111f383610f54565b946020939093013593505050565b61ffff8616815260a081016112196020830187610fe8565b8460408301528360608301528260808301529695505050505050565b634e487b7160e01b600052601160045260246000fd5b8181038181111561125e5761125e611235565b92915050565b634e487b7160e01b600052603260045260246000fd5b60008060006060848603121561128f57600080fd5b83519250602084015180151581146112a657600080fd5b80925050604084015190509250925092565b634e487b7160e01b600052601260045260246000fd5b6000826112dd576112dd6112b8565b500690565b8082018082111561125e5761125e611235565b60006001820161130757611307611235565b5060010190565b60ff818116838216019081111561125e5761125e611235565b60ff828116828216039081111561125e5761125e611235565b600061ffff80831681810361135757611357611235565b6001019392505050565b808202811582820484141761125e5761125e611235565b600082611387576113876112b8565b500490565b6001600160a01b03851681526080602082018190526000906113b090830186610f92565b82810360408401526113c28186610f92565b91505082606083015295945050505050565b6001600160a01b038816815260e0602082018190526000906113f890830189610f92565b828103604084015261140a8189610f92565b91505061ffff8616606083015260ff851660808301528360a08301528260c08301529897505050505050505056fea26469706673582212200b4c0eaa6284bc6cb266d56350eb327059c8ce869f220d581a21029fddbed55564736f6c63430008190033",
  "linkReferences": {},
  "deployedLinkReferences": {}
}