{
  "_format": "hh-sol-artifact-1",
  "contractName": "StarWarsCharacterList",
  "sourceName": "contracts/fdcExample/JsonApi.sol",
  "abi": [
    {
      "inputs": [
        {
          "components": [
            {
              "internalType": "string",
              "name": "name",
              "type": "string"
            },
            {
              "internalType": "uint256",
              "name": "height",
              "type": "uint256"
            },
            {
              "internalType": "uint256",
              "name": "mass",
              "type": "uint256"
            },
            {
              "internalType": "uint256",
              "name": "numberOfMovies",
              "type": "uint256"
            },
            {
              "internalType": "uint256",
              "name": "apiUid",
              "type": "uint256"
            }
          ],
          "internalType": "struct DataTransportObject",
          "name": "dto",
          "type": "tuple"
        }
      ],
      "name": "abiSignatureHack",
      "outputs": [],
      "stateMutability": "pure",
      "type": "function"
    },
    {
      "inputs": [
        {
          "components": [
            {
              "internalType": "bytes32[]",
              "name": "merkleProof",
              "type": "bytes32[]"
            },
            {
              "components": [
                {
                  "internalType": "bytes32",
                  "name": "attestationType",
                  "type": "bytes32"
                },
                {
                  "internalType": "bytes32",
                  "name": "sourceId",
                  "type": "bytes32"
                },
                {
                  "internalType": "uint64",
                  "name": "votingRound",
                  "type": "uint64"
                },
                {
                  "internalType": "uint64",
                  "name": "lowestUsedTimestamp",
                  "type": "uint64"
                },
                {
                  "components": [
                    {
                      "internalType": "string",
                      "name": "url",
                      "type": "string"
                    },
                    {
                      "internalType": "string",
                      "name": "postprocessJq",
                      "type": "string"
                    },
                    {
                      "internalType": "string",
                      "name": "abi_signature",
                      "type": "string"
                    }
                  ],
                  "internalType": "struct IJsonApi.RequestBody",
                  "name": "requestBody",
                  "type": "tuple"
                },
                {
                  "components": [
                    {
                      "internalType": "bytes",
                      "name": "abi_encoded_data",
                      "type": "bytes"
                    }
                  ],
                  "internalType": "struct IJsonApi.ResponseBody",
                  "name": "responseBody",
                  "type": "tuple"
                }
              ],
              "internalType": "struct IJsonApi.Response",
              "name": "data",
              "type": "tuple"
            }
          ],
          "internalType": "struct IJsonApi.Proof",
          "name": "data",
          "type": "tuple"
        }
      ],
      "name": "addCharacter",
      "outputs": [],
      "stateMutability": "nonpayable",
      "type": "function"
    },
    {
      "inputs": [
        {
          "internalType": "uint256",
          "name": "",
          "type": "uint256"
        }
      ],
      "name": "characterIds",
      "outputs": [
        {
          "internalType": "uint256",
          "name": "",
          "type": "uint256"
        }
      ],
      "stateMutability": "view",
      "type": "function"
    },
    {
      "inputs": [
        {
          "internalType": "uint256",
          "name": "",
          "type": "uint256"
        }
      ],
      "name": "characters",
      "outputs": [
        {
          "internalType": "string",
          "name": "name",
          "type": "string"
        },
        {
          "internalType": "uint256",
          "name": "numberOfMovies",
          "type": "uint256"
        },
        {
          "internalType": "uint256",
          "name": "apiUid",
          "type": "uint256"
        },
        {
          "internalType": "uint256",
          "name": "bmi",
          "type": "uint256"
        }
      ],
      "stateMutability": "view",
      "type": "function"
    },
    {
      "inputs": [],
      "name": "getAllCharacters",
      "outputs": [
        {
          "components": [
            {
              "internalType": "string",
              "name": "name",
              "type": "string"
            },
            {
              "internalType": "uint256",
              "name": "numberOfMovies",
              "type": "uint256"
            },
            {
              "internalType": "uint256",
              "name": "apiUid",
              "type": "uint256"
            },
            {
              "internalType": "uint256",
              "name": "bmi",
              "type": "uint256"
            }
          ],
          "internalType": "struct StarWarsCharacter[]",
          "name": "",
          "type": "tuple[]"
        }
      ],
      "stateMutability": "view",
      "type": "function"
    }
  ],
  "bytecode": "0x6080604052348015600f57600080fd5b50610d968061001f6000396000f3fe608060405234801561001057600080fd5b50600436106100575760003560e01c80634810bc591461005c5780636c2e1c941461008857806370e9d1251461009d57806383e56dca146100ae578063c1e35b48146100c3575b600080fd5b61006f61006a3660046105ad565b6100e4565b60405161007f949392919061060c565b60405180910390f35b61009b61009636600461063b565b610194565b005b61009b6100ab36600461067d565b50565b6100b6610369565b60405161007f91906106b8565b6100d66100d13660046105ad565b61050b565b60405190815260200161007f565b6000602081905290815260409020805481906100ff90610745565b80601f016020809104026020016040519081016040528092919081815260200182805461012b90610745565b80156101785780601f1061014d57610100808354040283529160200191610178565b820191906000526020600020905b81548152906001019060200180831161015b57829003601f168201915b5050505050908060010154908060020154908060030154905084565b61019d8161052c565b6101de5760405162461bcd60e51b815260206004820152600d60248201526c24b73b30b634b210383937b7b360991b60448201526064015b60405180910390fd5b60006101ed6020830183610779565b6101fb9060a0810190610799565b61020590806107af565b810190610212919061086d565b6080810151600090815260208190526040902060020154909150156102795760405162461bcd60e51b815260206004820152601860248201527f43686172616374657220616c726561647920657869737473000000000000000060448201526064016101d5565b60006040518060800160405280836000015181526020018360600151815260200183608001518152602001836020015184602001516102b89190610952565b60408501516102c8906064610952565b6102d3906064610952565b6102dd9190610977565b90526080830151600090815260208190526040902081519192508291819061030590826109ea565b50602082015160018083019190915560408301516002830155606090920151600390910155608090920151825480840184556000939093527fb10e2d527612073b26eecdfd717e6a320cf44b4afac2b0732d9fcbe2b7fa0cf6909201919091555050565b60015460609060009067ffffffffffffffff81111561038a5761038a6107fd565b6040519080825280602002602001820160405280156103e657816020015b6103d36040518060800160405280606081526020016000815260200160008152602001600081525090565b8152602001906001900390816103a85790505b50905060005b600154811015610505576000806001838154811061040c5761040c610aaa565b9060005260206000200154815260200190815260200160002060405180608001604052908160008201805461044090610745565b80601f016020809104026020016040519081016040528092919081815260200182805461046c90610745565b80156104b95780601f1061048e576101008083540402835291602001916104b9565b820191906000526020600020905b81548152906001019060200180831161049c57829003601f168201915b5050505050815260200160018201548152602001600282015481526020016003820154815250508282815181106104f2576104f2610aaa565b60209081029190910101526001016103ec565b50919050565b6001818154811061051b57600080fd5b600091825260209091200154905081565b60405163d0f18f8560e01b81526000907307ad8508c9173dc845817472ca0484035abfa3c89063d0f18f8590610566908590600401610ca0565b602060405180830381865afa158015610583573d6000803e3d6000fd5b505050506040513d601f19601f820116820180604052508101906105a79190610d3e565b92915050565b6000602082840312156105bf57600080fd5b5035919050565b6000815180845260005b818110156105ec576020818501810151868301820152016105d0565b506000602082860101526020601f19601f83011685010191505092915050565b60808152600061061f60808301876105c6565b6020830195909552506040810192909252606090910152919050565b60006020828403121561064d57600080fd5b813567ffffffffffffffff81111561066457600080fd5b82016040818503121561067657600080fd5b9392505050565b60006020828403121561068f57600080fd5b813567ffffffffffffffff8111156106a657600080fd5b820160a0818503121561067657600080fd5b600060208083018184528085518083526040925060408601915060408160051b87010184880160005b8381101561073757603f19898403018552815160808151818652610707828701826105c6565b838b0151878c0152898401518a8801526060938401519390960192909252505093860193908601906001016106e1565b509098975050505050505050565b600181811c9082168061075957607f821691505b60208210810361050557634e487b7160e01b600052602260045260246000fd5b6000823560be1983360301811261078f57600080fd5b9190910192915050565b60008235601e1983360301811261078f57600080fd5b6000808335601e198436030181126107c657600080fd5b83018035915067ffffffffffffffff8211156107e157600080fd5b6020019150368190038213156107f657600080fd5b9250929050565b634e487b7160e01b600052604160045260246000fd5b60405160a0810167ffffffffffffffff81118282101715610836576108366107fd565b60405290565b604051601f8201601f1916810167ffffffffffffffff81118282101715610865576108656107fd565b604052919050565b6000602080838503121561088057600080fd5b823567ffffffffffffffff8082111561089857600080fd5b9084019060a082870312156108ac57600080fd5b6108b4610813565b8235828111156108c357600080fd5b8301601f810188136108d457600080fd5b8035838111156108e6576108e66107fd565b6108f8601f8201601f1916870161083c565b9350808452888682840101111561090e57600080fd5b808683018786013760009084018601525090815281830135928101929092526040808201359083015260608082013590830152608090810135908201529392505050565b80820281158282048414176105a757634e487b7160e01b600052601160045260246000fd5b60008261099457634e487b7160e01b600052601260045260246000fd5b500490565b601f8211156109e5576000816000526020600020601f850160051c810160208610156109c25750805b601f850160051c820191505b818110156109e1578281556001016109ce565b5050505b505050565b815167ffffffffffffffff811115610a0457610a046107fd565b610a1881610a128454610745565b84610999565b602080601f831160018114610a4d5760008415610a355750858301515b600019600386901b1c1916600185901b1785556109e1565b600085815260208120601f198616915b82811015610a7c57888601518255948401946001909101908401610a5d565b5085821015610a9a5787850151600019600388901b60f8161c191681555b5050505050600190811b01905550565b634e487b7160e01b600052603260045260246000fd5b6000823560be19833603018112610ad657600080fd5b90910192915050565b803567ffffffffffffffff81168114610af757600080fd5b919050565b6000808335601e19843603018112610b1357600080fd5b830160208101925035905067ffffffffffffffff811115610b3357600080fd5b8036038213156107f657600080fd5b81835281816020850137506000828201602090810191909152601f909101601f19169091010190565b60008235601e19833603018112610ad657600080fd5b6000610b8d8283610afc565b60208552610b9f602086018284610b42565b95945050505050565b80358252602081013560208301526000610bc460408301610adf565b67ffffffffffffffff808216604086015280610be260608601610adf565b16606086015250506080820135605e19833603018112610c0157600080fd5b60c060808501528201610c148180610afc565b606060c0870152610c2a61012087018284610b42565b915050610c3a6020830183610afc565b60bf19808885030160e0890152610c52848385610b42565b9350610c616040860186610afc565b9550925080888503016101008901525050610c7d828483610b42565b92505050610c8e60a0840184610b6b565b84820360a0860152610b9f8282610b81565b6020815260008235601e19843603018112610cba57600080fd5b830160208101903567ffffffffffffffff811115610cd757600080fd5b8060051b803603831315610cea57600080fd5b60406020860152606085018290526001600160fb1b03821115610d0c57600080fd5b8083608087013784019150610d2690506020850185610ac0565b6060848303016040850152610b9f6080830182610ba8565b600060208284031215610d5057600080fd5b8151801515811461067657600080fdfea2646970667358221220cf67e3a5552b1f1ea19d18ba68860ce497b401a78d5acf0634f49b6a21227fd464736f6c63430008190033",
  "linkReferences": {},
  "deployedLinkReferences": {}
}