{
  "_format": "hh-sol-artifact-1",
  "contractName": "PaymentRegistry",
  "sourceName": "contracts/fdcExample/Payment.sol",
  "abi": [
    {
      "inputs": [
        {
          "components": [
            {
              "internalType": "bytes32[]",
              "name": "merkleProof",
              "type": "bytes32[]"
            },
            {
              "components": [
                {
                  "internalType": "bytes32",
                  "name": "attestationType",
                  "type": "bytes32"
                },
                {
                  "internalType": "bytes32",
                  "name": "sourceId",
                  "type": "bytes32"
                },
                {
                  "internalType": "uint64",
                  "name": "votingRound",
                  "type": "uint64"
                },
                {
                  "internalType": "uint64",
                  "name": "lowestUsedTimestamp",
                  "type": "uint64"
                },
                {
                  "components": [
                    {
                      "internalType": "bytes32",
                      "name": "transactionId",
                      "type": "bytes32"
                    },
                    {
                      "internalType": "uint256",
                      "name": "inUtxo",
                      "type": "uint256"
                    },
                    {
                      "internalType": "uint256",
                      "name": "utxo",
                      "type": "uint256"
                    }
                  ],
                  "internalType": "struct IPayment.RequestBody",
                  "name": "requestBody",
                  "type": "tuple"
                },
                {
                  "components": [
                    {
                      "internalType": "uint64",
                      "name": "blockNumber",
                      "type": "uint64"
                    },
                    {
                      "internalType": "uint64",
                      "name": "blockTimestamp",
                      "type": "uint64"
                    },
                    {
                      "internalType": "bytes32",
                      "name": "sourceAddressHash",
                      "type": "bytes32"
                    },
                    {
                      "internalType": "bytes32",
                      "name": "sourceAddressesRoot",
                      "type": "bytes32"
                    },
                    {
                      "internalType": "bytes32",
                      "name": "receivingAddressHash",
                      "type": "bytes32"
                    },
                    {
                      "internalType": "bytes32",
                      "name": "intendedReceivingAddressHash",
                      "type": "bytes32"
                    },
                    {
                      "internalType": "int256",
                      "name": "spentAmount",
                      "type": "int256"
                    },
                    {
                      "internalType": "int256",
                      "name": "intendedSpentAmount",
                      "type": "int256"
                    },
                    {
                      "internalType": "int256",
                      "name": "receivedAmount",
                      "type": "int256"
                    },
                    {
                      "internalType": "int256",
                      "name": "intendedReceivedAmount",
                      "type": "int256"
                    },
                    {
                      "internalType": "bytes32",
                      "name": "standardPaymentReference",
                      "type": "bytes32"
                    },
                    {
                      "internalType": "bool",
                      "name": "oneToOne",
                      "type": "bool"
                    },
                    {
                      "internalType": "uint8",
                      "name": "status",
                      "type": "uint8"
                    }
                  ],
                  "internalType": "struct IPayment.ResponseBody",
                  "name": "responseBody",
                  "type": "tuple"
                }
              ],
              "internalType": "struct IPayment.Response",
              "name": "data",
              "type": "tuple"
            }
          ],
          "internalType": "struct IPayment.Proof",
          "name": "transaction",
          "type": "tuple"
        }
      ],
      "name": "isPaymentProofValid",
      "outputs": [
        {
          "internalType": "bool",
          "name": "",
          "type": "bool"
        }
      ],
      "stateMutability": "view",
      "type": "function"
    },
    {
      "inputs": [
        {
          "components": [
            {
              "internalType": "bytes32[]",
              "name": "merkleProof",
              "type": "bytes32[]"
            },
            {
              "components": [
                {
                  "internalType": "bytes32",
                  "name": "attestationType",
                  "type": "bytes32"
                },
                {
                  "internalType": "bytes32",
                  "name": "sourceId",
                  "type": "bytes32"
                },
                {
                  "internalType": "uint64",
                  "name": "votingRound",
                  "type": "uint64"
                },
                {
                  "internalType": "uint64",
                  "name": "lowestUsedTimestamp",
                  "type": "uint64"
                },
                {
                  "components": [
                    {
                      "internalType": "bytes32",
                      "name": "transactionId",
                      "type": "bytes32"
                    },
                    {
                      "internalType": "uint256",
                      "name": "inUtxo",
                      "type": "uint256"
                    },
                    {
                      "internalType": "uint256",
                      "name": "utxo",
                      "type": "uint256"
                    }
                  ],
                  "internalType": "struct IPayment.RequestBody",
                  "name": "requestBody",
                  "type": "tuple"
                },
                {
                  "components": [
                    {
                      "internalType": "uint64",
                      "name": "blockNumber",
                      "type": "uint64"
                    },
                    {
                      "internalType": "uint64",
                      "name": "blockTimestamp",
                      "type": "uint64"
                    },
                    {
                      "internalType": "bytes32",
                      "name": "sourceAddressHash",
                      "type": "bytes32"
                    },
                    {
                      "internalType": "bytes32",
                      "name": "sourceAddressesRoot",
                      "type": "bytes32"
                    },
                    {
                      "internalType": "bytes32",
                      "name": "receivingAddressHash",
                      "type": "bytes32"
                    },
                    {
                      "internalType": "bytes32",
                      "name": "intendedReceivingAddressHash",
                      "type": "bytes32"
                    },
                    {
                      "internalType": "int256",
                      "name": "spentAmount",
                      "type": "int256"
                    },
                    {
                      "internalType": "int256",
                      "name": "intendedSpentAmount",
                      "type": "int256"
                    },
                    {
                      "internalType": "int256",
                      "name": "receivedAmount",
                      "type": "int256"
                    },
                    {
                      "internalType": "int256",
                      "name": "intendedReceivedAmount",
                      "type": "int256"
                    },
                    {
                      "internalType": "bytes32",
                      "name": "standardPaymentReference",
                      "type": "bytes32"
                    },
                    {
                      "internalType": "bool",
                      "name": "oneToOne",
                      "type": "bool"
                    },
                    {
                      "internalType": "uint8",
                      "name": "status",
                      "type": "uint8"
                    }
                  ],
                  "internalType": "struct IPayment.ResponseBody",
                  "name": "responseBody",
                  "type": "tuple"
                }
              ],
              "internalType": "struct IPayment.Response",
              "name": "data",
              "type": "tuple"
            }
          ],
          "internalType": "struct IPayment.Proof",
          "name": "_transaction",
          "type": "tuple"
        }
      ],
      "name": "registerPayment",
      "outputs": [],
      "stateMutability": "nonpayable",
      "type": "function"
    },
    {
      "inputs": [
        {
          "internalType": "uint256",
          "name": "",
          "type": "uint256"
        }
      ],
      "name": "verifiedPayments",
      "outputs": [
        {
          "internalType": "uint64",
          "name": "blockNumber",
          "type": "uint64"
        },
        {
          "internalType": "uint64",
          "name": "blockTimestamp",
          "type": "uint64"
        },
        {
          "internalType": "bytes32",
          "name": "sourceAddressHash",
          "type": "bytes32"
        },
        {
          "internalType": "bytes32",
          "name": "receivingAddressHash",
          "type": "bytes32"
        },
        {
          "internalType": "int256",
          "name": "spentAmount",
          "type": "int256"
        },
        {
          "internalType": "bytes32",
          "name": "standardPaymentReference",
          "type": "bytes32"
        },
        {
          "internalType": "uint8",
          "name": "status",
          "type": "uint8"
        }
      ],
      "stateMutability": "view",
      "type": "function"
    }
  ],
  "bytecode": "0x6080604052348015600f57600080fd5b506107e78061001f6000396000f3fe608060405234801561001057600080fd5b50600436106100415760003560e01c80634469740814610046578063a823a3a81461006e578063ffcd7b32146100c5575b600080fd5b6100596100543660046104d6565b6100da565b60405190151581526020015b60405180910390f35b61008161007c366004610512565b61015c565b6040805167ffffffffffffffff9889168152979096166020880152948601939093526060850191909152608084015260a083015260ff1660c082015260e001610065565b6100d86100d33660046104d6565b6101be565b005b6000806100e5610404565b60405163a7a3797560e01b81529091506001600160a01b0382169063a7a37975906101149086906004016106a1565b602060405180830381865afa158015610131573d6000803e3d6000fd5b505050506040513d601f19601f820116820180604052508101906101559190610735565b9392505050565b6000818154811061016c57600080fd5b600091825260209091206006909102018054600182015460028301546003840154600485015460059095015467ffffffffffffffff8086169750600160401b9095049094169492939192909160ff1687565b6101c7816100da565b6102175760405162461bcd60e51b815260206004820152601960248201527f496e76616c6964207472616e73616374696f6e2070726f6f6600000000000000604482015260640160405180910390fd5b6040805160e081019091526000908061023861012085016101008601610752565b67ffffffffffffffff16815260200161025961014085016101208601610752565b67ffffffffffffffff168152610140840135602082015261018084013560408201526101c08401356060820152610240840135608082015260a0016102a66102a08501610280860161076d565b60ff90811690915260008054600181018255908052825160069091027f290decd9548b62a8d60345a988386fc84ba6bc95484008f6362f93160ef3e56381018054602086015167ffffffffffffffff908116600160401b026fffffffffffffffffffffffffffffffff199092169416939093179290921790915560408301517f290decd9548b62a8d60345a988386fc84ba6bc95484008f6362f93160ef3e56482015560608301517f290decd9548b62a8d60345a988386fc84ba6bc95484008f6362f93160ef3e56582015560808301517f290decd9548b62a8d60345a988386fc84ba6bc95484008f6362f93160ef3e56682015560a08301517f290decd9548b62a8d60345a988386fc84ba6bc95484008f6362f93160ef3e56782015560c0909201517f290decd9548b62a8d60345a988386fc84ba6bc95484008f6362f93160ef3e56890920180549290911660ff199092169190911790555050565b600073ad67fe66660fb8dfe9d6b1b4240d8650e30f60196001600160a01b031663159354a260405160200161045c906020808252600f908201526e233231ab32b934b334b1b0ba34b7b760891b604082015260600190565b604051602081830303815290604052805190602001206040518263ffffffff1660e01b815260040161049091815260200190565b602060405180830381865afa1580156104ad573d6000803e3d6000fd5b505050506040513d601f19601f820116820180604052508101906104d19190610788565b905090565b6000602082840312156104e857600080fd5b813567ffffffffffffffff8111156104ff57600080fd5b82016102a0818503121561015557600080fd5b60006020828403121561052457600080fd5b5035919050565b803567ffffffffffffffff8116811461054357600080fd5b919050565b801515811461055657600080fd5b50565b803561054381610548565b803560ff8116811461054357600080fd5b803582526020810135602083015261058f6040820161052b565b67ffffffffffffffff8082166040850152806105ad6060850161052b565b16606085015250506080810135608083015260a081013560a083015260c081013560c08301526105f460e083016105e660e0840161052b565b67ffffffffffffffff169052565b61010061060281830161052b565b67ffffffffffffffff169083015261012081810135908301526101408082013590830152610160808201359083015261018080820135908301526101a080820135908301526101c080820135908301526101e0808201359083015261020080820135908301526102208082013590830152610240610681818301610559565b151590830152610260610695828201610564565b60ff1692019190915250565b6020815260008235601e198436030181126106bb57600080fd5b830160208101903567ffffffffffffffff8111156106d857600080fd5b8060051b8036038313156106eb57600080fd5b6102a060208601526102c085018290526102e06001600160fb1b0383111561071257600080fd5b8184828801376107286040870160208901610575565b9401909301949350505050565b60006020828403121561074757600080fd5b815161015581610548565b60006020828403121561076457600080fd5b6101558261052b565b60006020828403121561077f57600080fd5b61015582610564565b60006020828403121561079a57600080fd5b81516001600160a01b038116811461015557600080fdfea2646970667358221220e0d6a14fed65bb2905c4e841e52578c4b5702716b244393a808b79793659c31264736f6c63430008190033",
  "linkReferences": {},
  "deployedLinkReferences": {}
}