{
  "_format": "hh-sol-artifact-1",
  "contractName": "insuredFlightsAgency",
  "sourceName": "contracts/InsuredFlights/InsuredFlightsAgency.sol",
  "abi": [
    {
      "inputs": [
        {
          "internalType": "uint256",
          "name": "_insurancePrice",
          "type": "uint256"
        },
        {
          "internalType": "address",
          "name": "_usdt_address",
          "type": "address"
        }
      ],
      "stateMutability": "nonpayable",
      "type": "constructor"
    },
    {
      "anonymous": false,
      "inputs": [
        {
          "indexed": false,
          "internalType": "uint256",
          "name": "insuredFlightId",
          "type": "uint256"
        },
        {
          "indexed": false,
          "internalType": "address",
          "name": "passenger",
          "type": "address"
        },
        {
          "indexed": false,
          "internalType": "uint256",
          "name": "secretNumber",
          "type": "uint256"
        }
      ],
      "name": "FlightClaimed",
      "type": "event"
    },
    {
      "anonymous": false,
      "inputs": [
        {
          "indexed": false,
          "internalType": "uint256",
          "name": "insuredFlightId",
          "type": "uint256"
        },
        {
          "indexed": false,
          "internalType": "uint256",
          "name": "flightDelayedTime",
          "type": "uint256"
        },
        {
          "indexed": false,
          "internalType": "string",
          "name": "flightStatus",
          "type": "string"
        }
      ],
      "name": "FlightInfoUpdated",
      "type": "event"
    },
    {
      "anonymous": false,
      "inputs": [
        {
          "indexed": false,
          "internalType": "uint256",
          "name": "insuredFlightId",
          "type": "uint256"
        }
      ],
      "name": "FlightInsured",
      "type": "event"
    },
    {
      "inputs": [],
      "name": "INSURANCE_PRICE",
      "outputs": [
        {
          "internalType": "uint256",
          "name": "",
          "type": "uint256"
        }
      ],
      "stateMutability": "view",
      "type": "function"
    },
    {
      "inputs": [
        {
          "components": [
            {
              "internalType": "bytes32[]",
              "name": "merkleProof",
              "type": "bytes32[]"
            },
            {
              "components": [
                {
                  "internalType": "bytes32",
                  "name": "attestationType",
                  "type": "bytes32"
                },
                {
                  "internalType": "bytes32",
                  "name": "sourceId",
                  "type": "bytes32"
                },
                {
                  "internalType": "uint64",
                  "name": "votingRound",
                  "type": "uint64"
                },
                {
                  "internalType": "uint64",
                  "name": "lowestUsedTimestamp",
                  "type": "uint64"
                },
                {
                  "components": [
                    {
                      "internalType": "string",
                      "name": "url",
                      "type": "string"
                    },
                    {
                      "internalType": "string",
                      "name": "httpMethod",
                      "type": "string"
                    },
                    {
                      "internalType": "string",
                      "name": "headers",
                      "type": "string"
                    },
                    {
                      "internalType": "string",
                      "name": "queryParams",
                      "type": "string"
                    },
                    {
                      "internalType": "string",
                      "name": "body",
                      "type": "string"
                    },
                    {
                      "internalType": "string",
                      "name": "postProcessJq",
                      "type": "string"
                    },
                    {
                      "internalType": "string",
                      "name": "abiSignature",
                      "type": "string"
                    }
                  ],
                  "internalType": "struct IWeb2Json.RequestBody",
                  "name": "requestBody",
                  "type": "tuple"
                },
                {
                  "components": [
                    {
                      "internalType": "bytes",
                      "name": "abiEncodedData",
                      "type": "bytes"
                    }
                  ],
                  "internalType": "struct IWeb2Json.ResponseBody",
                  "name": "responseBody",
                  "type": "tuple"
                }
              ],
              "internalType": "struct IWeb2Json.Response",
              "name": "data",
              "type": "tuple"
            }
          ],
          "internalType": "struct IWeb2Json.Proof",
          "name": "data",
          "type": "tuple"
        },
        {
          "internalType": "uint256",
          "name": "insuredFlightId",
          "type": "uint256"
        }
      ],
      "name": "_applyUpdate",
      "outputs": [],
      "stateMutability": "nonpayable",
      "type": "function"
    },
    {
      "inputs": [],
      "name": "_generator",
      "outputs": [
        {
          "internalType": "contract RandomNumberV2Interface",
          "name": "",
          "type": "address"
        }
      ],
      "stateMutability": "view",
      "type": "function"
    },
    {
      "inputs": [
        {
          "internalType": "uint256",
          "name": "",
          "type": "uint256"
        }
      ],
      "name": "_insuranceClaims",
      "outputs": [
        {
          "internalType": "uint256",
          "name": "amountClaimed",
          "type": "uint256"
        },
        {
          "internalType": "uint256",
          "name": "dateClaimed",
          "type": "uint256"
        },
        {
          "internalType": "address",
          "name": "insuree",
          "type": "address"
        },
        {
          "internalType": "uint256",
          "name": "insuranceId",
          "type": "uint256"
        },
        {
          "internalType": "bool",
          "name": "playedPrediction",
          "type": "bool"
        },
        {
          "internalType": "bool",
          "name": "wonPrediction",
          "type": "bool"
        }
      ],
      "stateMutability": "view",
      "type": "function"
    },
    {
      "inputs": [
        {
          "internalType": "uint256",
          "name": "",
          "type": "uint256"
        }
      ],
      "name": "_insuranceFlightPassengers",
      "outputs": [
        {
          "internalType": "address",
          "name": "wallet",
          "type": "address"
        },
        {
          "internalType": "string",
          "name": "ticketType",
          "type": "string"
        },
        {
          "internalType": "uint256",
          "name": "ticketPrice",
          "type": "uint256"
        },
        {
          "internalType": "uint256",
          "name": "insuredFlightId",
          "type": "uint256"
        }
      ],
      "stateMutability": "view",
      "type": "function"
    },
    {
      "inputs": [
        {
          "internalType": "uint256",
          "name": "",
          "type": "uint256"
        }
      ],
      "name": "_insuredFlight",
      "outputs": [
        {
          "internalType": "string",
          "name": "aircraftIcao",
          "type": "string"
        },
        {
          "internalType": "string",
          "name": "aircraftName",
          "type": "string"
        },
        {
          "internalType": "string",
          "name": "flightDate",
          "type": "string"
        },
        {
          "internalType": "string",
          "name": "departureAirport",
          "type": "string"
        },
        {
          "internalType": "string",
          "name": "arrivalAirport",
          "type": "string"
        },
        {
          "internalType": "uint256",
          "name": "flightDelayedTime",
          "type": "uint256"
        },
        {
          "internalType": "string",
          "name": "flightNo",
          "type": "string"
        },
        {
          "internalType": "uint256",
          "name": "passengers",
          "type": "uint256"
        },
        {
          "internalType": "string",
          "name": "status",
          "type": "string"
        },
        {
          "internalType": "uint256",
          "name": "lastChecked",
          "type": "uint256"
        },
        {
          "internalType": "address",
          "name": "insurer",
          "type": "address"
        },
        {
          "internalType": "uint256",
          "name": "insuranceId",
          "type": "uint256"
        }
      ],
      "stateMutability": "view",
      "type": "function"
    },
    {
      "inputs": [
        {
          "internalType": "uint256",
          "name": "",
          "type": "uint256"
        }
      ],
      "name": "_insuredFlightPrice",
      "outputs": [
        {
          "internalType": "uint256",
          "name": "",
          "type": "uint256"
        }
      ],
      "stateMutability": "view",
      "type": "function"
    },
    {
      "inputs": [],
      "name": "_maxNumber",
      "outputs": [
        {
          "internalType": "uint256",
          "name": "",
          "type": "uint256"
        }
      ],
      "stateMutability": "view",
      "type": "function"
    },
    {
      "inputs": [],
      "name": "_totalAmountInsurance",
      "outputs": [
        {
          "internalType": "uint256",
          "name": "",
          "type": "uint256"
        }
      ],
      "stateMutability": "view",
      "type": "function"
    },
    {
      "inputs": [
        {
          "components": [
            {
              "internalType": "string",
              "name": "aircraft_name",
              "type": "string"
            },
            {
              "internalType": "string",
              "name": "aircraft_reg",
              "type": "string"
            },
            {
              "internalType": "string",
              "name": "flight_no",
              "type": "string"
            },
            {
              "internalType": "string",
              "name": "flight_date",
              "type": "string"
            },
            {
              "internalType": "string",
              "name": "departure_airport",
              "type": "string"
            },
            {
              "internalType": "string",
              "name": "arrival_airport",
              "type": "string"
            },
            {
              "internalType": "uint256",
              "name": "flight_delayed_time",
              "type": "uint256"
            },
            {
              "internalType": "string",
              "name": "flight_status",
              "type": "string"
            }
          ],
          "internalType": "struct DataTransportObject",
          "name": "dto",
          "type": "tuple"
        }
      ],
      "name": "abiSignatureHack",
      "outputs": [],
      "stateMutability": "pure",
      "type": "function"
    },
    {
      "inputs": [
        {
          "internalType": "uint256",
          "name": "insuredFlightId",
          "type": "uint256"
        },
        {
          "internalType": "string",
          "name": "flight_no",
          "type": "string"
        },
        {
          "internalType": "uint256",
          "name": "predictedNumber",
          "type": "uint256"
        },
        {
          "internalType": "uint256",
          "name": "passengerindexPosition",
          "type": "uint256"
        },
        {
          "internalType": "bool",
          "name": "usdtMode",
          "type": "bool"
        }
      ],
      "name": "claimInsurance",
      "outputs": [
        {
          "internalType": "uint256",
          "name": "",
          "type": "uint256"
        },
        {
          "internalType": "bool",
          "name": "",
          "type": "bool"
        }
      ],
      "stateMutability": "nonpayable",
      "type": "function"
    },
    {
      "inputs": [
        {
          "components": [
            {
              "internalType": "address",
              "name": "wallet",
              "type": "address"
            },
            {
              "internalType": "string",
              "name": "ticketType",
              "type": "string"
            },
            {
              "internalType": "uint256",
              "name": "ticketPrice",
              "type": "uint256"
            },
            {
              "internalType": "uint256",
              "name": "insuredFlightId",
              "type": "uint256"
            }
          ],
          "internalType": "struct Passenger[]",
          "name": "passengers",
          "type": "tuple[]"
        }
      ],
      "name": "getCostOfInsurance",
      "outputs": [
        {
          "internalType": "uint256",
          "name": "",
          "type": "uint256"
        }
      ],
      "stateMutability": "view",
      "type": "function"
    },
    {
      "inputs": [],
      "name": "getFlightPassengers",
      "outputs": [
        {
          "components": [
            {
              "internalType": "address",
              "name": "wallet",
              "type": "address"
            },
            {
              "internalType": "string",
              "name": "ticketType",
              "type": "string"
            },
            {
              "internalType": "uint256",
              "name": "ticketPrice",
              "type": "uint256"
            },
            {
              "internalType": "uint256",
              "name": "insuredFlightId",
              "type": "uint256"
            }
          ],
          "internalType": "struct Passenger[]",
          "name": "",
          "type": "tuple[]"
        }
      ],
      "stateMutability": "view",
      "type": "function"
    },
    {
      "inputs": [],
      "name": "getFlrUsdPriceWei",
      "outputs": [
        {
          "internalType": "uint256",
          "name": "",
          "type": "uint256"
        },
        {
          "internalType": "uint64",
          "name": "",
          "type": "uint64"
        }
      ],
      "stateMutability": "view",
      "type": "function"
    },
    {
      "inputs": [
        {
          "internalType": "uint256",
          "name": "_insuredClaimId",
          "type": "uint256"
        }
      ],
      "name": "getInsuranceClaim",
      "outputs": [
        {
          "internalType": "uint256",
          "name": "amountClaimed",
          "type": "uint256"
        },
        {
          "internalType": "uint256",
          "name": "dateClaimed",
          "type": "uint256"
        },
        {
          "internalType": "address",
          "name": "insuree",
          "type": "address"
        },
        {
          "internalType": "uint256",
          "name": "insuranceId",
          "type": "uint256"
        }
      ],
      "stateMutability": "view",
      "type": "function"
    },
    {
      "inputs": [],
      "name": "getInsuranceClaimsCount",
      "outputs": [
        {
          "internalType": "uint256",
          "name": "",
          "type": "uint256"
        }
      ],
      "stateMutability": "view",
      "type": "function"
    },
    {
      "inputs": [],
      "name": "getInsurancePrice",
      "outputs": [
        {
          "internalType": "uint256",
          "name": "",
          "type": "uint256"
        }
      ],
      "stateMutability": "view",
      "type": "function"
    },
    {
      "inputs": [
        {
          "internalType": "uint256",
          "name": "insuredFlightId",
          "type": "uint256"
        }
      ],
      "name": "getInsureFlight",
      "outputs": [
        {
          "internalType": "string",
          "name": "aircraftIcao",
          "type": "string"
        },
        {
          "internalType": "string",
          "name": "aircraftName",
          "type": "string"
        },
        {
          "internalType": "string",
          "name": "flightDate",
          "type": "string"
        },
        {
          "internalType": "string",
          "name": "departureAirport",
          "type": "string"
        },
        {
          "internalType": "string",
          "name": "arrivalAirport",
          "type": "string"
        },
        {
          "internalType": "uint256",
          "name": "flightDelayedTime",
          "type": "uint256"
        },
        {
          "internalType": "string",
          "name": "flightNo",
          "type": "string"
        },
        {
          "internalType": "uint256",
          "name": "passengers",
          "type": "uint256"
        },
        {
          "internalType": "string",
          "name": "status",
          "type": "string"
        },
        {
          "internalType": "uint256",
          "name": "lastChecked",
          "type": "uint256"
        },
        {
          "internalType": "address",
          "name": "insurer",
          "type": "address"
        },
        {
          "internalType": "uint256",
          "name": "insuranceId",
          "type": "uint256"
        }
      ],
      "stateMutability": "view",
      "type": "function"
    },
    {
      "inputs": [],
      "name": "getInsuredFlightsCount",
      "outputs": [
        {
          "internalType": "uint256",
          "name": "",
          "type": "uint256"
        }
      ],
      "stateMutability": "view",
      "type": "function"
    },
    {
      "inputs": [
        {
          "internalType": "uint256",
          "name": "amount",
          "type": "uint256"
        }
      ],
      "name": "hasSufficientBalance",
      "outputs": [
        {
          "internalType": "bool",
          "name": "sufficient",
          "type": "bool"
        }
      ],
      "stateMutability": "view",
      "type": "function"
    },
    {
      "inputs": [],
      "name": "insuranceClaimsIds",
      "outputs": [
        {
          "internalType": "uint256",
          "name": "",
          "type": "uint256"
        }
      ],
      "stateMutability": "view",
      "type": "function"
    },
    {
      "inputs": [],
      "name": "insurance_delay_time",
      "outputs": [
        {
          "internalType": "uint256",
          "name": "",
          "type": "uint256"
        }
      ],
      "stateMutability": "view",
      "type": "function"
    },
    {
      "inputs": [
        {
          "internalType": "string",
          "name": "aircraft_icao",
          "type": "string"
        },
        {
          "internalType": "string",
          "name": "flight_no",
          "type": "string"
        },
        {
          "components": [
            {
              "internalType": "address",
              "name": "wallet",
              "type": "address"
            },
            {
              "internalType": "string",
              "name": "ticketType",
              "type": "string"
            },
            {
              "internalType": "uint256",
              "name": "ticketPrice",
              "type": "uint256"
            },
            {
              "internalType": "uint256",
              "name": "insuredFlightId",
              "type": "uint256"
            }
          ],
          "internalType": "struct Passenger[]",
          "name": "passengers",
          "type": "tuple[]"
        },
        {
          "components": [
            {
              "internalType": "bytes32[]",
              "name": "merkleProof",
              "type": "bytes32[]"
            },
            {
              "components": [
                {
                  "internalType": "bytes32",
                  "name": "attestationType",
                  "type": "bytes32"
                },
                {
                  "internalType": "bytes32",
                  "name": "sourceId",
                  "type": "bytes32"
                },
                {
                  "internalType": "uint64",
                  "name": "votingRound",
                  "type": "uint64"
                },
                {
                  "internalType": "uint64",
                  "name": "lowestUsedTimestamp",
                  "type": "uint64"
                },
                {
                  "components": [
                    {
                      "internalType": "string",
                      "name": "url",
                      "type": "string"
                    },
                    {
                      "internalType": "string",
                      "name": "httpMethod",
                      "type": "string"
                    },
                    {
                      "internalType": "string",
                      "name": "headers",
                      "type": "string"
                    },
                    {
                      "internalType": "string",
                      "name": "queryParams",
                      "type": "string"
                    },
                    {
                      "internalType": "string",
                      "name": "body",
                      "type": "string"
                    },
                    {
                      "internalType": "string",
                      "name": "postProcessJq",
                      "type": "string"
                    },
                    {
                      "internalType": "string",
                      "name": "abiSignature",
                      "type": "string"
                    }
                  ],
                  "internalType": "struct IWeb2Json.RequestBody",
                  "name": "requestBody",
                  "type": "tuple"
                },
                {
                  "components": [
                    {
                      "internalType": "bytes",
                      "name": "abiEncodedData",
                      "type": "bytes"
                    }
                  ],
                  "internalType": "struct IWeb2Json.ResponseBody",
                  "name": "responseBody",
                  "type": "tuple"
                }
              ],
              "internalType": "struct IWeb2Json.Response",
              "name": "data",
              "type": "tuple"
            }
          ],
          "internalType": "struct IWeb2Json.Proof",
          "name": "data",
          "type": "tuple"
        }
      ],
      "name": "insureFlight",
      "outputs": [],
      "stateMutability": "payable",
      "type": "function"
    },
    {
      "inputs": [],
      "name": "insuredFlightIds",
      "outputs": [
        {
          "internalType": "uint256",
          "name": "",
          "type": "uint256"
        }
      ],
      "stateMutability": "view",
      "type": "function"
    },
    {
      "inputs": [
        {
          "internalType": "uint256",
          "name": "",
          "type": "uint256"
        },
        {
          "internalType": "address",
          "name": "",
          "type": "address"
        }
      ],
      "name": "insuredFlightPassengersStatus",
      "outputs": [
        {
          "internalType": "bool",
          "name": "",
          "type": "bool"
        }
      ],
      "stateMutability": "view",
      "type": "function"
    },
    {
      "inputs": [],
      "name": "owner",
      "outputs": [
        {
          "internalType": "address",
          "name": "",
          "type": "address"
        }
      ],
      "stateMutability": "view",
      "type": "function"
    },
    {
      "inputs": [
        {
          "internalType": "uint256",
          "name": "_insurancePrice",
          "type": "uint256"
        }
      ],
      "name": "setInsurancePrice",
      "outputs": [],
      "stateMutability": "nonpayable",
      "type": "function"
    },
    {
      "inputs": [
        {
          "internalType": "address",
          "name": "to",
          "type": "address"
        }
      ],
      "name": "transferAccumulatedFees",
      "outputs": [],
      "stateMutability": "nonpayable",
      "type": "function"
    },
    {
      "inputs": [],
      "name": "usdt_address",
      "outputs": [
        {
          "internalType": "address",
          "name": "",
          "type": "address"
        }
      ],
      "stateMutability": "view",
      "type": "function"
    },
    {
      "stateMutability": "payable",
      "type": "receive"
    }
  ],
  "bytecode": "0x608060405234801561001057600080fd5b5060405161390638038061390683398101604081905261002f9161021e565b6002829055601e600355600480546001600160a01b0383166001600160a01b031991821617909155600d80549091163317905561006a610099565b600c80546001600160a01b0319166001600160a01b039290921691909117905561009261016a565b50506102cc565b600073ad67fe66660fb8dfe9d6b1b4240d8650e30f60196001600160a01b031663159354a26040516020016100f0906020808252600e908201526d2930b73237b6a73ab6b132b92b1960911b604082015260600190565b604051602081830303815290604052805190602001206040518263ffffffff1660e01b815260040161012491815260200190565b602060405180830381865afa158015610141573d6000803e3d6000fd5b505050506040513d601f19601f82011682018060405250810190610165919061024a565b905090565b600c546040805163dbdff2c160e01b815290516000926001600160a01b03169163dbdff2c19160048083019260609291908290030181865afa1580156101b4573d6000803e3d6000fd5b505050506040513d601f19601f820116820180604052508101906101d8919061026c565b505090506014816101e991906102aa565b600a805461ffff191661ffff9290921691909117905550565b80516001600160a01b038116811461021957600080fd5b919050565b6000806040838503121561023157600080fd5b8251915061024160208401610202565b90509250929050565b60006020828403121561025c57600080fd5b61026582610202565b9392505050565b60008060006060848603121561028157600080fd5b835192506020840151801515811461029857600080fd5b80925050604084015190509250925092565b6000826102c757634e487b7160e01b600052601260045260246000fd5b500690565b61362b806102db6000396000f3fe6080604052600436106101c65760003560e01c80638060156b116100f7578063a6c6b0cc11610095578063ec091c1711610064578063ec091c17146105ef578063fb458f9b1461060f578063fead08f414610625578063ff8b5c2f1461064757600080fd5b8063a6c6b0cc14610535578063b211b26314610584578063c76fe118146105b9578063e0d4153e146105d957600080fd5b80638c774f15116100d15780638c774f15146104cc5780638da5cb5b146104ec578063945b53951461050c5780639c5886011461052257600080fd5b80638060156b146104415780638289b5881461046157806383e554a2146104ac57600080fd5b806322526a57116101645780633f645bbc1161013e5780633f645bbc14610349578063621690df146103e65780637133b02e146103fb578063771b00fd1461042b57600080fd5b806322526a571461030057806339025768146103155780633c9e61401461032b57600080fd5b80631a889b8d116101a05780631a889b8d146102645780631f69d1c1146102795780631fef30561461029b578063210d595b146102d357600080fd5b806303a07243146101d2578063095a9e8f146101fa5780630d96f5f51461022c57600080fd5b366101cd57005b600080fd5b3480156101de57600080fd5b506101e7601481565b6040519081526020015b60405180910390f35b34801561020657600080fd5b5061020f610667565b604080519283526001600160401b039091166020830152016101f1565b34801561023857600080fd5b5061024c610247366004612691565b610700565b6040516101f19c9b9a999897969594939291906126fa565b34801561027057600080fd5b506001546101e7565b34801561028557600080fd5b506102996102943660046127df565b610bca565b005b3480156102a757600080fd5b506004546102bb906001600160a01b031681565b6040516001600160a01b0390911681526020016101f1565b3480156102df57600080fd5b506101e76102ee366004612691565b60066020526000908152604090205481565b34801561030c57600080fd5b506002546101e7565b34801561032157600080fd5b506101e760035481565b34801561033757600080fd5b506102996103463660046127fc565b50565b34801561035557600080fd5b506103a9610364366004612691565b60076020526000908152604090208054600182015460028301546003840154600490940154929391926001600160a01b03909116919060ff8082169161010090041686565b6040805196875260208701959095526001600160a01b039093169385019390935260608401529015156080830152151560a082015260c0016101f1565b3480156103f257600080fd5b506000546101e7565b34801561040757600080fd5b5061041b610416366004612691565b610c75565b6040516101f19493929190612837565b34801561043757600080fd5b506101e7600b5481565b34801561044d57600080fd5b50600c546102bb906001600160a01b031681565b34801561046d57600080fd5b5061049c61047c36600461286e565b600960209081526000928352604080842090915290825290205460ff1681565b60405190151581526020016101f1565b3480156104b857600080fd5b5061049c6104c7366004612691565b610d43565b3480156104d857600080fd5b5061024c6104e7366004612691565b610dc0565b3480156104f857600080fd5b50600d546102bb906001600160a01b031681565b34801561051857600080fd5b506101e760015481565b610299610530366004612ab1565b6111dc565b34801561054157600080fd5b50610555610550366004612691565b6113a6565b6040516101f1949392919093845260208401929092526001600160a01b03166040830152606082015260800190565b34801561059057600080fd5b506105a461059f366004612b6b565b61143f565b604080519283529015156020830152016101f1565b3480156105c557600080fd5b506102996105d4366004612bd9565b611467565b3480156105e557600080fd5b506101e760005481565b3480156105fb57600080fd5b5061029961060a366004612691565b6118e8565b34801561061b57600080fd5b506101e760025481565b34801561063157600080fd5b5061063a611976565b6040516101f19190612c1d565b34801561065357600080fd5b506101e7610662366004612cb5565b611a91565b600080665193148bd554d160c21b8161067e611afe565b604051632cff56fb60e11b81526affffffffffffffffffffff19841660048201529091506001600160a01b038216906359feadf6906024016040805180830381865afa1580156106d2573d6000803e3d6000fd5b505050506040513d601f19601f820116820180604052508101906106f69190612d06565b9350935050509091565b606080606080606060006060600060606000806000808d11801561072657506000548d11155b6107775760405162461bcd60e51b815260206004820152601e60248201527f4e6f20696e737572656420666c6967687420776974682073756368206964000060448201526064015b60405180910390fd5b60008d81526005602081905260409091209081015460078201546009830154600a840154600b8501548554869560018701956002880195600389019560048a0195939460068b019460088c0193926001600160a01b0316918c906107da90612d2b565b80601f016020809104026020016040519081016040528092919081815260200182805461080690612d2b565b80156108535780601f1061082857610100808354040283529160200191610853565b820191906000526020600020905b81548152906001019060200180831161083657829003601f168201915b50505050509b508a805461086690612d2b565b80601f016020809104026020016040519081016040528092919081815260200182805461089290612d2b565b80156108df5780601f106108b4576101008083540402835291602001916108df565b820191906000526020600020905b8154815290600101906020018083116108c257829003601f168201915b50505050509a508980546108f290612d2b565b80601f016020809104026020016040519081016040528092919081815260200182805461091e90612d2b565b801561096b5780601f106109405761010080835404028352916020019161096b565b820191906000526020600020905b81548152906001019060200180831161094e57829003601f168201915b5050505050995088805461097e90612d2b565b80601f01602080910402602001604051908101604052809291908181526020018280546109aa90612d2b565b80156109f75780601f106109cc576101008083540402835291602001916109f7565b820191906000526020600020905b8154815290600101906020018083116109da57829003601f168201915b50505050509850878054610a0a90612d2b565b80601f0160208091040260200160405190810160405280929190818152602001828054610a3690612d2b565b8015610a835780601f10610a5857610100808354040283529160200191610a83565b820191906000526020600020905b815481529060010190602001808311610a6657829003601f168201915b50505050509750858054610a9690612d2b565b80601f0160208091040260200160405190810160405280929190818152602001828054610ac290612d2b565b8015610b0f5780601f10610ae457610100808354040283529160200191610b0f565b820191906000526020600020905b815481529060010190602001808311610af257829003601f168201915b50505050509550838054610b2290612d2b565b80601f0160208091040260200160405190810160405280929190818152602001828054610b4e90612d2b565b8015610b9b5780601f10610b7057610100808354040283529160200191610b9b565b820191906000526020600020905b815481529060010190602001808311610b7e57829003601f168201915b505050505093509c509c509c509c509c509c509c509c509c509c509c509c505091939597999b5091939597999b565b600d546001600160a01b03163314610bf45760405162461bcd60e51b815260040161076e90612d5f565b6001600160a01b038116610c3c5760405162461bcd60e51b815260206004820152600f60248201526e496e76616c6964206164647265737360881b604482015260640161076e565b6040516001600160a01b038216904780156108fc02916000818181858888f19350505050158015610c71573d6000803e3d6000fd5b5050565b60088181548110610c8557600080fd5b6000918252602090912060049091020180546001820180546001600160a01b03909216935090610cb490612d2b565b80601f0160208091040260200160405190810160405280929190818152602001828054610ce090612d2b565b8015610d2d5780601f10610d0257610100808354040283529160200191610d2d565b820191906000526020600020905b815481529060010190602001808311610d1057829003601f168201915b5050505050908060020154908060030154905084565b600480546040516370a0823160e01b8152309281019290925260009182916001600160a01b0316906370a0823190602401602060405180830381865afa158015610d91573d6000803e3d6000fd5b505050506040513d601f19601f82011682018060405250810190610db59190612da0565b929092101592915050565b600560205260009081526040902080548190610ddb90612d2b565b80601f0160208091040260200160405190810160405280929190818152602001828054610e0790612d2b565b8015610e545780601f10610e2957610100808354040283529160200191610e54565b820191906000526020600020905b815481529060010190602001808311610e3757829003601f168201915b505050505090806001018054610e6990612d2b565b80601f0160208091040260200160405190810160405280929190818152602001828054610e9590612d2b565b8015610ee25780601f10610eb757610100808354040283529160200191610ee2565b820191906000526020600020905b815481529060010190602001808311610ec557829003601f168201915b505050505090806002018054610ef790612d2b565b80601f0160208091040260200160405190810160405280929190818152602001828054610f2390612d2b565b8015610f705780601f10610f4557610100808354040283529160200191610f70565b820191906000526020600020905b815481529060010190602001808311610f5357829003601f168201915b505050505090806003018054610f8590612d2b565b80601f0160208091040260200160405190810160405280929190818152602001828054610fb190612d2b565b8015610ffe5780601f10610fd357610100808354040283529160200191610ffe565b820191906000526020600020905b815481529060010190602001808311610fe157829003601f168201915b50505050509080600401805461101390612d2b565b80601f016020809104026020016040519081016040528092919081815260200182805461103f90612d2b565b801561108c5780601f106110615761010080835404028352916020019161108c565b820191906000526020600020905b81548152906001019060200180831161106f57829003601f168201915b5050505050908060050154908060060180546110a790612d2b565b80601f01602080910402602001604051908101604052809291908181526020018280546110d390612d2b565b80156111205780601f106110f557610100808354040283529160200191611120565b820191906000526020600020905b81548152906001019060200180831161110357829003601f168201915b50505050509080600701549080600801805461113b90612d2b565b80601f016020809104026020016040519081016040528092919081815260200182805461116790612d2b565b80156111b45780601f10611189576101008083540402835291602001916111b4565b820191906000526020600020905b81548152906001019060200180831161119757829003601f168201915b505050506009830154600a840154600b90940154929390926001600160a01b0390911691508c565b6111e582611a91565b34146112245760405162461bcd60e51b815260206004820152600e60248201526d125b9d985b1a5908185b5bdd5b9d60921b604482015260640161076e565b61122d81611bc7565b6112695760405162461bcd60e51b815260206004820152600d60248201526c24b73b30b634b210383937b7b360991b604482015260640161076e565b60006112786020830183612db9565b6112869060a0810190612dd9565b6112909080612def565b9050116112cc5760405162461bcd60e51b815260206004820152600a602482015269456d707479206461746160b01b604482015260640161076e565b60006112db6020830183612db9565b6112e99060a0810190612dd9565b6112f39080612def565b8101906113009190612e3c565b6040805180820190915260098152681cd8da19591d5b195960ba1b60209182015260e082015180519101209091507f6b5d3a2590399d029e42f38701ccbff2ae97111c4fb79a26cb3cadd8295de3a4146113935760405162461bcd60e51b8152602060048201526014602482015273119b1a59da1d081b9bdd081cd8da19591d5b195960621b604482015260640161076e565b61139f85858386611c43565b5050505050565b6000806000806000851180156113be57506001548511155b61140a5760405162461bcd60e51b815260206004820152601f60248201527f4e6f20696e737572616e636520636c61696d2077697468207375636820696400604482015260640161076e565b505050600091825250600760205260409020805460018201546002830154600390930154919390926001600160a01b03169190565b60008061144d878787611f87565b61145987868686612164565b915091509550959350505050565b6000818152600560205260409020600b01541580159061149957506000805482825260056020526040909120600b0154105b6114d95760405162461bcd60e51b8152602060048201526011602482015270496e76616c696420496e737572616e636560781b604482015260640161076e565b6000818152600560205260409020600a01546001600160a01b03163314806115425750600854158015906115425750336001600160a01b0316600860008154811061152657611526612f8b565b60009182526020909120600490910201546001600160a01b0316145b806115575750600d546001600160a01b031633145b6115be5760405162461bcd60e51b815260206004820152603260248201527f45697468657220496e7375726572206f722050617373656e6765722063616e20604482015271636865636b20666c696768742064656c617960701b606482015260840161076e565b7f6b5d3a2590399d029e42f38701ccbff2ae97111c4fb79a26cb3cadd8295de3a4600560008381526020019081526020016000206008016040516116029190613014565b6040518091039020146116575760405162461bcd60e51b815260206004820152601d60248201527f466c696768742073746174757320616c72656164792075706461746564000000604482015260640161076e565b600081815260056020526040902060090154610258906116779042613036565b116116d35760405162461bcd60e51b815260206004820152602660248201527f466c6967687420636865636b206973206174203130206d696e7574657320696e6044820152651d195c9d985b60d21b606482015260840161076e565b6116dc82611bc7565b6117185760405162461bcd60e51b815260206004820152600d60248201526c24b73b30b634b210383937b7b360991b604482015260640161076e565b60006117276020840184612db9565b6117359060a0810190612dd9565b61173f9080612def565b90501161177b5760405162461bcd60e51b815260206004820152600a602482015269456d707479206461746160b01b604482015260640161076e565b600061178a6020840184612db9565b6117989060a0810190612dd9565b6117a29080612def565b8101906117af9190612e3c565b90506003548160c00151101580156117f257507f9651c33eb23976f7c15240e86443dc2ded40546fa9ba457a14abab4090e023b58160e001518051906020012014155b801561182957507fe65c7acc8e7a283a20ab50c3226bc3bf6664a65e41f8eda762213d674c0829628160e001518051906020012014155b1561188a576040518060400160405280600781526020016619195b185e595960ca1b8152506005600084815260200190815260200160002060080190816118709190613099565b5060c0810151600083815260056020819052604090912001555b6000828152600560208190526040918290204260098201559081015491517fad522330e0a333ea20b30192e7bf44fd414759973e0d47d6e02d4b5f0e9ceae4926118db928692600890910190613158565b60405180910390a1505050565b600d546001600160a01b031633146119125760405162461bcd60e51b815260040161076e90612d5f565b600081116119715760405162461bcd60e51b815260206004820152602660248201527f496e737572616e6365207072696365206d75737420626520677265617465722060448201526507468616e20360d41b606482015260840161076e565b600255565b60606008805480602002602001604051908101604052809291908181526020016000905b82821015611a8857600084815260209081902060408051608081019091526004850290910180546001600160a01b0316825260018101805492939192918401916119e390612d2b565b80601f0160208091040260200160405190810160405280929190818152602001828054611a0f90612d2b565b8015611a5c5780601f10611a3157610100808354040283529160200191611a5c565b820191906000526020600020905b815481529060010190602001808311611a3f57829003601f168201915b50505050508152602001600282015481526020016003820154815250508152602001906001019061199a565b50505050905090565b600080805b8351811015611ae9576064848281518110611ab357611ab3612f8b565b602002602001015160400151600a611acb91906131f7565b611ad59190613224565b611adf9083613238565b9150600101611a96565b50600254611af79082613238565b9392505050565b600073ad67fe66660fb8dfe9d6b1b4240d8650e30f60196001600160a01b031663159354a2604051602001611b4d90602080825260069082015265233a39b7ab1960d11b604082015260600190565b604051602081830303815290604052805190602001206040518263ffffffff1660e01b8152600401611b8191815260200190565b602060405180830381865afa158015611b9e573d6000803e3d6000fd5b505050506040513d601f19601f82011682018060405250810190611bc2919061324b565b905090565b6000611bd16125a1565b6001600160a01b0316630aa05fe3836040518263ffffffff1660e01b8152600401611bfc91906134c3565b602060405180830381865afa158015611c19573d6000803e3d6000fd5b505050506040513d601f19601f82011682018060405250810190611c3d9190613560565b92915050565b600080549080611c528361357d565b909155505060008054808252600560205260408220909190611c748782613099565b508351600083815260056020526040902060010190611c939082613099565b506060840151600083815260056020526040902060020190611cb59082613099565b506080840151600083815260056020526040902060030190611cd79082613099565b5060a0840151600083815260056020526040902060040190611cf99082613099565b5060c0840151600083815260056020819052604090912090810191909155600601611d248682613099565b5082516000838152600560205260409020600781019190915560e0850151600890910190611d529082613099565b506000828152600560205260408120426009820155600a810180546001600160a01b03191633179055600b018390555b8351811015611f335782848281518110611d9e57611d9e612f8b565b602002602001015160600181815250506008848281518110611dc257611dc2612f8b565b602090810291909101810151825460018082018555600094855293839020825160049092020180546001600160a01b0319166001600160a01b03909216919091178155918101519092820190611e189082613099565b50604082015181600201556060820151816003015550506001600960008581526020019081526020016000206000868481518110611e5857611e58612f8b565b6020026020010151600001516001600160a01b03166001600160a01b0316815260200190815260200160002060006101000a81548160ff0219169083151502179055506064848281518110611eaf57611eaf612f8b565b602002602001015160400151600a611ec791906131f7565b611ed19190613224565b600b6000828254611ee29190613238565b925050819055506064848281518110611efd57611efd612f8b565b602002602001015160400151600a611f1591906131f7565b611f1f9190613224565b611f299083613238565b9150600101611d82565b5060008281526006602052604090819020829055517fc8025f815ce5846bb23a1e70c00825ff76c450559769399af7e28de99a03405e90611f779084815260200190565b60405180910390a1505050505050565b81604051602001611f989190613596565b60408051601f198184030181528282528051602091820120600087815260058352929092209192611fcd926006019101613014565b60405160208183030381529060405280519060200120146120305760405162461bcd60e51b815260206004820152601760248201527f466c69676874204e6f20646f65736e2774206d61746368000000000000000000604482015260640161076e565b6003546000848152600560208190526040909120015410156120895760405162461bcd60e51b8152602060048201526012602482015271119b1a59da1d08139bdd0811195b185e595960721b604482015260640161076e565b600083815260096020908152604080832033845290915290205460ff1661210e5760405162461bcd60e51b815260206004820152603360248201527f50617373656e676572206e6f7420696e7375726564204f5220496e737572616e60448201527218d948185b1c9958591e481c995919595b5959606a1b606482015260840161076e565b601481111561215f5760405162461bcd60e51b815260206004820152601f60248201527f50726564696374696f6e204e756d626572206d757374206265203c3d20323000604482015260640161076e565b505050565b60008481526009602090815260408083203384529091528120805460ff19169055600a54819061ffff168180808061219a610667565b91509150600088156122005782606460088c815481106121bc576121bc612f8b565b906000526020600020906004020160020154600a6121da91906131f7565b6121e49190613224565b6121ee91906131f7565b93506121f984610d43565b9050612240565b606460088b8154811061221557612215612f8b565b906000526020600020906004020160020154600a61223391906131f7565b61223d9190613224565b94505b60008b6000036122fa5781156122cd576004805460405163a9059cbb60e01b81523392810192909252602482018790526001600160a01b03169063a9059cbb906044015b6020604051808303816000875af11580156122a3573d6000803e3d6000fd5b505050506040513d601f19601f820116820180604052508101906122c79190613560565b5061247f565b604051339087156108fc029088906000818181858888f193505050501580156122c7573d6000803e3d6000fd5b8b1561247f57868c036123f2578115612389576004805460405163a9059cbb60e01b81523392810192909252602482018790526001600160a01b03169063a9059cbb906044016020604051808303816000875af115801561235f573d6000803e3d6000fd5b505050506040513d601f19601f820116820180604052508101906123839190613560565b506123b8565b604051339087156108fc029088906000818181858888f193505050501580156123b6573d6000803e3d6000fd5b505b6040513390600090671bc16d674ec800009082818181858883f193505050501580156123e8573d6000803e3d6000fd5b506001905061247f565b8115612446576004546001600160a01b031663a9059cbb33612415600289613224565b6040516001600160e01b031960e085901b1681526001600160a01b0390921660048301526024820152604401612284565b336108fc612455600289613224565b6040518115909202916000818181858888f1935050505015801561247d573d6000803e3d6000fd5b505b600180546000908152600760205260408082208990558254825280822042908401558254825280822060020180546001600160a01b0319163317905591548152206003018d90558b6124d25760006124d5565b60015b6001546000908152600760205260409020600401805460ff1916911515919091179055868c14612506576000612509565b60015b60018054600090815260076020526040812060040180549315156101000261ff0019909416939093179092558054916125418361357d565b919050555061254e6125f9565b604080518e81523360208201529081018890527f1527a28ce4fd3db6312cdc84eb52b89b5da4269ae6a4f7b5854029a914425fb99060600160405180910390a1959c959b50949950505050505050505050565b600073ad67fe66660fb8dfe9d6b1b4240d8650e30f60196001600160a01b031663159354a2604051602001611b4d906020808252600f908201526e233231ab32b934b334b1b0ba34b7b760891b604082015260600190565b600c546040805163dbdff2c160e01b815290516000926001600160a01b03169163dbdff2c19160048083019260609291908290030181865afa158015612643573d6000803e3d6000fd5b505050506040513d601f19601f8201168201806040525081019061266791906135a8565b5050905060148161267891906135e1565b600a805461ffff191661ffff9290921691909117905550565b6000602082840312156126a357600080fd5b5035919050565b60005b838110156126c55781810151838201526020016126ad565b50506000910152565b600081518084526126e68160208601602086016126aa565b601f01601f19169290920160200192915050565b6101808152600061270f61018083018f6126ce565b8281036020840152612721818f6126ce565b90508281036040840152612735818e6126ce565b90508281036060840152612749818d6126ce565b9050828103608084015261275d818c6126ce565b90508960a084015282810360c0840152612777818a6126ce565b90508760e084015282810361010084015261279281886126ce565b915050846101208301526127b26101408301856001600160a01b03169052565b826101608301529d9c50505050505050505050505050565b6001600160a01b038116811461034657600080fd5b6000602082840312156127f157600080fd5b8135611af7816127ca565b60006020828403121561280e57600080fd5b81356001600160401b0381111561282457600080fd5b82016101008185031215611af757600080fd5b6001600160a01b038516815260806020820181905260009061285b908301866126ce565b6040830194909452506060015292915050565b6000806040838503121561288157600080fd5b823591506020830135612893816127ca565b809150509250929050565b634e487b7160e01b600052604160045260246000fd5b604051608081016001600160401b03811182821017156128d6576128d661289e565b60405290565b60405161010081016001600160401b03811182821017156128d6576128d661289e565b604051601f8201601f191681016001600160401b03811182821017156129275761292761289e565b604052919050565b600082601f83011261294057600080fd5b81356001600160401b038111156129595761295961289e565b61296c601f8201601f19166020016128ff565b81815284602083860101111561298157600080fd5b816020850160208301376000918101602001919091529392505050565b600082601f8301126129af57600080fd5b813560206001600160401b03808311156129cb576129cb61289e565b8260051b6129da8382016128ff565b93845285810183019383810190888611156129f457600080fd5b84880192505b85831015612a8d57823584811115612a125760008081fd5b88016080818b03601f1901811315612a2a5760008081fd5b612a326128b4565b87830135612a3f816127ca565b815260408381013588811115612a555760008081fd5b612a638e8b8388010161292f565b838b01525060608481013591830191909152919092013590820152825291840191908401906129fa565b98975050505050505050565b600060408284031215612aab57600080fd5b50919050565b60008060008060808587031215612ac757600080fd5b84356001600160401b0380821115612ade57600080fd5b612aea8883890161292f565b95506020870135915080821115612b0057600080fd5b612b0c8883890161292f565b94506040870135915080821115612b2257600080fd5b612b2e8883890161299e565b93506060870135915080821115612b4457600080fd5b50612b5187828801612a99565b91505092959194509250565b801515811461034657600080fd5b600080600080600060a08688031215612b8357600080fd5b8535945060208601356001600160401b03811115612ba057600080fd5b612bac8882890161292f565b94505060408601359250606086013591506080860135612bcb81612b5d565b809150509295509295909350565b60008060408385031215612bec57600080fd5b82356001600160401b03811115612c0257600080fd5b612c0e85828601612a99565b95602094909401359450505050565b600060208083018184528085518083526040925060408601915060408160051b87010184880160005b83811015612ca757888303603f19018552815180516001600160a01b0316845287810151608089860181905290612c7f828701826126ce565b838a0151878b0152606093840151939096019290925250509386019390860190600101612c46565b509098975050505050505050565b600060208284031215612cc757600080fd5b81356001600160401b03811115612cdd57600080fd5b612ce98482850161299e565b949350505050565b6001600160401b038116811461034657600080fd5b60008060408385031215612d1957600080fd5b82519150602083015161289381612cf1565b600181811c90821680612d3f57607f821691505b602082108103612aab57634e487b7160e01b600052602260045260246000fd5b60208082526021908201527f4f6e6c79206f776e65722063616e2063616c6c20746869732066756e6374696f6040820152603760f91b606082015260800190565b600060208284031215612db257600080fd5b5051919050565b6000823560be19833603018112612dcf57600080fd5b9190910192915050565b60008235601e19833603018112612dcf57600080fd5b6000808335601e19843603018112612e0657600080fd5b8301803591506001600160401b03821115612e2057600080fd5b602001915036819003821315612e3557600080fd5b9250929050565b600060208284031215612e4e57600080fd5b81356001600160401b0380821115612e6557600080fd5b908301906101008286031215612e7a57600080fd5b612e826128dc565b823582811115612e9157600080fd5b612e9d8782860161292f565b825250602083013582811115612eb257600080fd5b612ebe8782860161292f565b602083015250604083013582811115612ed657600080fd5b612ee28782860161292f565b604083015250606083013582811115612efa57600080fd5b612f068782860161292f565b606083015250608083013582811115612f1e57600080fd5b612f2a8782860161292f565b60808301525060a083013582811115612f4257600080fd5b612f4e8782860161292f565b60a08301525060c083013560c082015260e083013582811115612f7057600080fd5b612f7c8782860161292f565b60e08301525095945050505050565b634e487b7160e01b600052603260045260246000fd5b60008154612fae81612d2b565b60018281168015612fc65760018114612fdb5761300a565b60ff198416875282151583028701945061300a565b8560005260208060002060005b858110156130015781548a820152908401908201612fe8565b50505082870194505b5050505092915050565b6000611af78284612fa1565b634e487b7160e01b600052601160045260246000fd5b81810381811115611c3d57611c3d613020565b601f82111561215f576000816000526020600020601f850160051c810160208610156130725750805b601f850160051c820191505b818110156130915782815560010161307e565b505050505050565b81516001600160401b038111156130b2576130b261289e565b6130c6816130c08454612d2b565b84613049565b602080601f8311600181146130fb57600084156130e35750858301515b600019600386901b1c1916600185901b178555613091565b600085815260208120601f198616915b8281101561312a5788860151825594840194600190910190840161310b565b50858210156131485787850151600019600388901b60f8161c191681555b5050505050600190811b01905550565b83815260006020846020840152606060408401526000845461317981612d2b565b806060870152608060018084166000811461319b57600181146131b7576131e7565b60ff19851660808a0152608084151560051b8a010195506131e7565b89600052602060002060005b858110156131de5781548b82018601529083019088016131c3565b8a016080019650505b50939a9950505050505050505050565b8082028115828204841417611c3d57611c3d613020565b634e487b7160e01b600052601260045260246000fd5b6000826132335761323361320e565b500490565b80820180821115611c3d57611c3d613020565b60006020828403121561325d57600080fd5b8151611af7816127ca565b6000823560be1983360301811261327e57600080fd5b90910192915050565b6000808335601e1984360301811261329e57600080fd5b83016020810192503590506001600160401b038111156132bd57600080fd5b803603821315612e3557600080fd5b81835281816020850137506000828201602090810191909152601f909101601f19169091010190565b60006133018283613287565b60e0855261331360e0860182846132cc565b9150506133236020840184613287565b85830360208701526133368382846132cc565b925050506133476040840184613287565b858303604087015261335a8382846132cc565b9250505061336b6060840184613287565b858303606087015261337e8382846132cc565b9250505061338f6080840184613287565b85830360808701526133a28382846132cc565b925050506133b360a0840184613287565b85830360a08701526133c68382846132cc565b925050506133d760c0840184613287565b85830360c08701526133ea8382846132cc565b9695505050505050565b60008235601e1983360301811261327e57600080fd5b60006134168283613287565b602085526134286020860182846132cc565b95945050505050565b80358252602081013560208301526000604082013561344f81612cf1565b6001600160401b03908116604085015260608301359061346e82612cf1565b16606084015260808201353683900360de1901811261348c57600080fd5b60c060808501526134a260c085018483016132f5565b90506134b160a08401846133f4565b84820360a0860152613428828261340a565b6020815260008235601e198436030181126134dd57600080fd5b83016020810190356001600160401b038111156134f957600080fd5b8060051b80360383131561350c57600080fd5b60406020860152606085018290526001600160fb1b0382111561352e57600080fd5b808360808701378401915061354890506020850185613268565b60608483030160408501526134286080830182613431565b60006020828403121561357257600080fd5b8151611af781612b5d565b60006001820161358f5761358f613020565b5060010190565b60008251612dcf8184602087016126aa565b6000806000606084860312156135bd57600080fd5b8351925060208401516135cf81612b5d565b80925050604084015190509250925092565b6000826135f0576135f061320e565b50069056fea2646970667358221220d739bf072f2c1f6b290c0ce730916502ad98a6a20ceeb122465fcfc7ca263cdb64736f6c63430008190033",
  "linkReferences": {},
  "deployedLinkReferences": {}
}