{
  "_format": "hh-sol-artifact-1",
  "contractName": "ProofOfReserves",
  "sourceName": "contracts/proofOfReserves/ProofOfReserves.sol",
  "abi": [
    {
      "inputs": [],
      "stateMutability": "nonpayable",
      "type": "constructor"
    },
    {
      "inputs": [
        {
          "internalType": "address",
          "name": "owner",
          "type": "address"
        }
      ],
      "name": "OwnableInvalidOwner",
      "type": "error"
    },
    {
      "inputs": [
        {
          "internalType": "address",
          "name": "account",
          "type": "address"
        }
      ],
      "name": "OwnableUnauthorizedAccount",
      "type": "error"
    },
    {
      "anonymous": false,
      "inputs": [
        {
          "indexed": false,
          "internalType": "address",
          "name": "reader",
          "type": "address"
        },
        {
          "indexed": false,
          "internalType": "address",
          "name": "token",
          "type": "address"
        },
        {
          "indexed": false,
          "internalType": "uint256",
          "name": "totalSupply",
          "type": "uint256"
        }
      ],
      "name": "BadPair",
      "type": "event"
    },
    {
      "anonymous": false,
      "inputs": [
        {
          "indexed": false,
          "internalType": "address",
          "name": "reader",
          "type": "address"
        },
        {
          "indexed": false,
          "internalType": "address",
          "name": "token",
          "type": "address"
        },
        {
          "indexed": false,
          "internalType": "uint256",
          "name": "totalSupply",
          "type": "uint256"
        }
      ],
      "name": "GoodPair",
      "type": "event"
    },
    {
      "anonymous": false,
      "inputs": [
        {
          "indexed": true,
          "internalType": "address",
          "name": "previousOwner",
          "type": "address"
        },
        {
          "indexed": true,
          "internalType": "address",
          "name": "newOwner",
          "type": "address"
        }
      ],
      "name": "OwnershipTransferred",
      "type": "event"
    },
    {
      "inputs": [
        {
          "components": [
            {
              "internalType": "uint256",
              "name": "reserves",
              "type": "uint256"
            }
          ],
          "internalType": "struct DataTransportObject",
          "name": "dto",
          "type": "tuple"
        }
      ],
      "name": "abiSignatureHack",
      "outputs": [],
      "stateMutability": "pure",
      "type": "function"
    },
    {
      "inputs": [],
      "name": "debugClaimedReserves",
      "outputs": [
        {
          "internalType": "uint256",
          "name": "",
          "type": "uint256"
        }
      ],
      "stateMutability": "view",
      "type": "function"
    },
    {
      "inputs": [],
      "name": "debugTokenReserves",
      "outputs": [
        {
          "internalType": "uint256",
          "name": "",
          "type": "uint256"
        }
      ],
      "stateMutability": "view",
      "type": "function"
    },
    {
      "inputs": [],
      "name": "owner",
      "outputs": [
        {
          "internalType": "address",
          "name": "",
          "type": "address"
        }
      ],
      "stateMutability": "view",
      "type": "function"
    },
    {
      "inputs": [],
      "name": "renounceOwnership",
      "outputs": [],
      "stateMutability": "nonpayable",
      "type": "function"
    },
    {
      "inputs": [
        {
          "internalType": "address",
          "name": "",
          "type": "address"
        }
      ],
      "name": "tokenStateReaders",
      "outputs": [
        {
          "internalType": "address",
          "name": "",
          "type": "address"
        }
      ],
      "stateMutability": "view",
      "type": "function"
    },
    {
      "inputs": [
        {
          "internalType": "address",
          "name": "newOwner",
          "type": "address"
        }
      ],
      "name": "transferOwnership",
      "outputs": [],
      "stateMutability": "nonpayable",
      "type": "function"
    },
    {
      "inputs": [
        {
          "internalType": "address",
          "name": "readerAddress",
          "type": "address"
        },
        {
          "internalType": "address",
          "name": "tokenAddress",
          "type": "address"
        }
      ],
      "name": "updateAddress",
      "outputs": [],
      "stateMutability": "nonpayable",
      "type": "function"
    },
    {
      "inputs": [
        {
          "components": [
            {
              "internalType": "bytes32[]",
              "name": "merkleProof",
              "type": "bytes32[]"
            },
            {
              "components": [
                {
                  "internalType": "bytes32",
                  "name": "attestationType",
                  "type": "bytes32"
                },
                {
                  "internalType": "bytes32",
                  "name": "sourceId",
                  "type": "bytes32"
                },
                {
                  "internalType": "uint64",
                  "name": "votingRound",
                  "type": "uint64"
                },
                {
                  "internalType": "uint64",
                  "name": "lowestUsedTimestamp",
                  "type": "uint64"
                },
                {
                  "components": [
                    {
                      "internalType": "string",
                      "name": "url",
                      "type": "string"
                    },
                    {
                      "internalType": "string",
                      "name": "postprocessJq",
                      "type": "string"
                    },
                    {
                      "internalType": "string",
                      "name": "abi_signature",
                      "type": "string"
                    }
                  ],
                  "internalType": "struct IJsonApi.RequestBody",
                  "name": "requestBody",
                  "type": "tuple"
                },
                {
                  "components": [
                    {
                      "internalType": "bytes",
                      "name": "abi_encoded_data",
                      "type": "bytes"
                    }
                  ],
                  "internalType": "struct IJsonApi.ResponseBody",
                  "name": "responseBody",
                  "type": "tuple"
                }
              ],
              "internalType": "struct IJsonApi.Response",
              "name": "data",
              "type": "tuple"
            }
          ],
          "internalType": "struct IJsonApi.Proof",
          "name": "jsonProof",
          "type": "tuple"
        },
        {
          "components": [
            {
              "internalType": "bytes32[]",
              "name": "merkleProof",
              "type": "bytes32[]"
            },
            {
              "components": [
                {
                  "internalType": "bytes32",
                  "name": "attestationType",
                  "type": "bytes32"
                },
                {
                  "internalType": "bytes32",
                  "name": "sourceId",
                  "type": "bytes32"
                },
                {
                  "internalType": "uint64",
                  "name": "votingRound",
                  "type": "uint64"
                },
                {
                  "internalType": "uint64",
                  "name": "lowestUsedTimestamp",
                  "type": "uint64"
                },
                {
                  "components": [
                    {
                      "internalType": "bytes32",
                      "name": "transactionHash",
                      "type": "bytes32"
                    },
                    {
                      "internalType": "uint16",
                      "name": "requiredConfirmations",
                      "type": "uint16"
                    },
                    {
                      "internalType": "bool",
                      "name": "provideInput",
                      "type": "bool"
                    },
                    {
                      "internalType": "bool",
                      "name": "listEvents",
                      "type": "bool"
                    },
                    {
                      "internalType": "uint32[]",
                      "name": "logIndices",
                      "type": "uint32[]"
                    }
                  ],
                  "internalType": "struct IEVMTransaction.RequestBody",
                  "name": "requestBody",
                  "type": "tuple"
                },
                {
                  "components": [
                    {
                      "internalType": "uint64",
                      "name": "blockNumber",
                      "type": "uint64"
                    },
                    {
                      "internalType": "uint64",
                      "name": "timestamp",
                      "type": "uint64"
                    },
                    {
                      "internalType": "address",
                      "name": "sourceAddress",
                      "type": "address"
                    },
                    {
                      "internalType": "bool",
                      "name": "isDeployment",
                      "type": "bool"
                    },
                    {
                      "internalType": "address",
                      "name": "receivingAddress",
                      "type": "address"
                    },
                    {
                      "internalType": "uint256",
                      "name": "value",
                      "type": "uint256"
                    },
                    {
                      "internalType": "bytes",
                      "name": "input",
                      "type": "bytes"
                    },
                    {
                      "internalType": "uint8",
                      "name": "status",
                      "type": "uint8"
                    },
                    {
                      "components": [
                        {
                          "internalType": "uint32",
                          "name": "logIndex",
                          "type": "uint32"
                        },
                        {
                          "internalType": "address",
                          "name": "emitterAddress",
                          "type": "address"
                        },
                        {
                          "internalType": "bytes32[]",
                          "name": "topics",
                          "type": "bytes32[]"
                        },
                        {
                          "internalType": "bytes",
                          "name": "data",
                          "type": "bytes"
                        },
                        {
                          "internalType": "bool",
                          "name": "removed",
                          "type": "bool"
                        }
                      ],
                      "internalType": "struct IEVMTransaction.Event[]",
                      "name": "events",
                      "type": "tuple[]"
                    }
                  ],
                  "internalType": "struct IEVMTransaction.ResponseBody",
                  "name": "responseBody",
                  "type": "tuple"
                }
              ],
              "internalType": "struct IEVMTransaction.Response",
              "name": "data",
              "type": "tuple"
            }
          ],
          "internalType": "struct IEVMTransaction.Proof[]",
          "name": "transactionProofs",
          "type": "tuple[]"
        }
      ],
      "name": "verifyReserves",
      "outputs": [
        {
          "internalType": "bool",
          "name": "",
          "type": "bool"
        }
      ],
      "stateMutability": "nonpayable",
      "type": "function"
    }
  ],
  "bytecode": "0x608060405260006001556000600255348015601957600080fd5b503380603f57604051631e4fbdf760e01b81526000600482015260240160405180910390fd5b604681604b565b50609b565b600080546001600160a01b038381166001600160a01b0319831681178455604051919092169283917f8be0079c531659141344cd1fd0a4f28419497f9722a3daafe3b4186f6b6457e09190a35050565b6112ad806100aa6000396000f3fe608060405234801561001057600080fd5b50600436106100935760003560e01c80639bfa882e116100665780639bfa882e146101005780639d20a7b314610113578063aab3e7b11461012a578063b2de1a9714610133578063f2fde38b1461015c57600080fd5b806321996fad14610098578063715018a6146100ab57806375534adb146100b35780638da5cb5b146100db575b600080fd5b6100a96100a6366004610700565b50565b005b6100a961016f565b6100c66100c1366004610718565b610183565b60405190151581526020015b60405180910390f35b6000546001600160a01b03165b6040516001600160a01b0390911681526020016100d2565b6100a961010e3660046107de565b610200565b61011c60025481565b6040519081526020016100d2565b61011c60015481565b6100e8610141366004610817565b6003602052600090815260409020546001600160a01b031681565b6100a961016a366004610817565b610236565b610177610276565b61018160006102a3565b565b60008061018f856102f3565b90506000805b848110156101dd576101c98686838181106101b2576101b261083b565b90506020028101906101c49190610851565b610380565b6101d39083610887565b9150600101610195565b5060018190556101f582670de0b6b3a764000061089a565b101595945050505050565b610208610276565b6001600160a01b03918216600090815260036020526040902080546001600160a01b03191691909216179055565b61023e610276565b6001600160a01b03811661026d57604051631e4fbdf760e01b8152600060048201526024015b60405180910390fd5b6100a6816102a3565b6000546001600160a01b031633146101815760405163118cdaa760e01b8152336004820152602401610264565b600080546001600160a01b038381166001600160a01b0319831681178455604051919092169283917f8be0079c531659141344cd1fd0a4f28419497f9722a3daafe3b4186f6b6457e09190a35050565b60006102fe82610578565b61033f5760405162461bcd60e51b815260206004820152601260248201527124b73b30b634b2103539b7b710383937b7b360711b6044820152606401610264565b600061034e60208401846108b1565b61035c9060a08101906108c7565b61036690806108dd565b8101906103739190610998565b5160028190559392505050565b600061038b826105f9565b6103d75760405162461bcd60e51b815260206004820152601960248201527f496e76616c6964207472616e73616374696f6e2070726f6f66000000000000006044820152606401610264565b6000805b6103e860208501856108b1565b6103f69060a08101906109d9565b610405906101008101906109f0565b905081101561057157600061041d60208601866108b1565b61042b9060a08101906109d9565b61043a906101008101906109f0565b8381811061044a5761044a61083b565b905060200281019061045c9190610a39565b61046590610aeb565b9050600081602001519050600080836060015180602001905181019061048b9190610bf0565b6001600160a01b038581166000908152600360205260409020549294509092508381169116148015610514576104c18288610887565b604080516001600160a01b038088168252861660208201529081018490529097507f23807ec8adde9ed2d40a8f89cc62d5b6c7633d4f11154dea3db40759cb2a33279060600160405180910390a1610560565b604080516001600160a01b038087168252851660208201529081018390527fce9a98bbf34313728304c9f16f22360017ba6e95aafd57ed4f6073a08bdff68e9060600160405180910390a15b5050600190930192506103db915050565b5092915050565b60405163d0f18f8560e01b815260009073206d83e3a24523de1e43ab56ac8f7b9b10f6ab899063d0f18f85906105b2908590600401610de8565b602060405180830381865afa1580156105cf573d6000803e3d6000fd5b505050506040513d601f19601f820116820180604052508101906105f39190610eb8565b92915050565b600061060361062e565b6001600160a01b03166358fbe9e1836040518263ffffffff1660e01b81526004016105b29190611129565b600073ad67fe66660fb8dfe9d6b1b4240d8650e30f60196001600160a01b031663159354a2604051602001610686906020808252600f908201526e233231ab32b934b334b1b0ba34b7b760891b604082015260600190565b604051602081830303815290604052805190602001206040518263ffffffff1660e01b81526004016106ba91815260200190565b602060405180830381865afa1580156106d7573d6000803e3d6000fd5b505050506040513d601f19601f820116820180604052508101906106fb919061125a565b905090565b60006020828403121561071257600080fd5b50919050565b60008060006040848603121561072d57600080fd5b83356001600160401b038082111561074457600080fd5b908501906040828803121561075857600080fd5b9093506020850135908082111561076e57600080fd5b818601915086601f83011261078257600080fd5b81358181111561079157600080fd5b8760208260051b85010111156107a657600080fd5b6020830194508093505050509250925092565b6001600160a01b03811681146100a657600080fd5b80356107d9816107b9565b919050565b600080604083850312156107f157600080fd5b82356107fc816107b9565b9150602083013561080c816107b9565b809150509250929050565b60006020828403121561082957600080fd5b8135610834816107b9565b9392505050565b634e487b7160e01b600052603260045260246000fd5b60008235603e1983360301811261086757600080fd5b9190910192915050565b634e487b7160e01b600052601160045260246000fd5b808201808211156105f3576105f3610871565b80820281158282048414176105f3576105f3610871565b6000823560be1983360301811261086757600080fd5b60008235601e1983360301811261086757600080fd5b6000808335601e198436030181126108f457600080fd5b8301803591506001600160401b0382111561090e57600080fd5b60200191503681900382131561092357600080fd5b9250929050565b634e487b7160e01b600052604160045260246000fd5b60405160a081016001600160401b03811182821017156109625761096261092a565b60405290565b604051601f8201601f191681016001600160401b03811182821017156109905761099061092a565b604052919050565b6000602082840312156109aa57600080fd5b604051602081018181106001600160401b03821117156109cc576109cc61092a565b6040529135825250919050565b6000823561011e1983360301811261086757600080fd5b6000808335601e19843603018112610a0757600080fd5b8301803591506001600160401b03821115610a2157600080fd5b6020019150600581901b360382131561092357600080fd5b60008235609e1983360301811261086757600080fd5b803563ffffffff811681146107d957600080fd5b600082601f830112610a7457600080fd5b81356001600160401b03811115610a8d57610a8d61092a565b610aa0601f8201601f1916602001610968565b818152846020838601011115610ab557600080fd5b816020850160208301376000918101602001919091529392505050565b80151581146100a657600080fd5b80356107d981610ad2565b600060a08236031215610afd57600080fd5b610b05610940565b610b0e83610a4f565b8152602080840135610b1f816107b9565b8282015260408401356001600160401b0380821115610b3d57600080fd5b9085019036601f830112610b5057600080fd5b813581811115610b6257610b6261092a565b8060051b610b71858201610968565b9182528381018501918581019036841115610b8b57600080fd5b948601945b83861015610ba957853582529486019490860190610b90565b60408801525050506060860135925080831115610bc557600080fd5b5050610bd336828601610a63565b606083015250610be560808401610ae0565b608082015292915050565b60008060408385031215610c0357600080fd5b8251610c0e816107b9565b6020939093015192949293505050565b6000808335601e19843603018112610c3557600080fd5b83016020810192503590506001600160401b03811115610c5457600080fd5b8060051b360382131561092357600080fd5b81835260006001600160fb1b03831115610c7f57600080fd5b8260051b80836020870137939093016020019392505050565b6000823560be19833603018112610cae57600080fd5b90910192915050565b80356001600160401b03811681146107d957600080fd5b6000808335601e19843603018112610ce557600080fd5b83016020810192503590506001600160401b03811115610d0457600080fd5b80360382131561092357600080fd5b81835281816020850137506000828201602090810191909152601f909101601f19169091010190565b6000610d488283610cce565b60608552610d5a606086018284610d13565b915050610d6a6020840184610cce565b8583036020870152610d7d838284610d13565b92505050610d8e6040840184610cce565b8583036040870152610da1838284610d13565b9695505050505050565b60008235601e19833603018112610cae57600080fd5b6000610dcd8283610cce565b60208552610ddf602086018284610d13565b95945050505050565b602081526000610df88384610c1e565b60406020850152610e0d606085018284610c66565b915050610e1d6020850185610c98565b601f198483030160408501528035825260208101356020830152610e4360408201610cb7565b6001600160401b03808216604085015280610e6060608501610cb7565b16606085015250506080810135605e19823603018112610e7f57600080fd5b60c06080840152610e9560c08401838301610d3c565b9050610ea460a0830183610dab565b915082810360a0840152610da18183610dc1565b600060208284031215610eca57600080fd5b815161083481610ad2565b60008235609e19833603018112610cae57600080fd5b8183526000602080850194508260005b85811015610f245763ffffffff610f1183610a4f565b1687529582019590820190600101610efb565b509495945050505050565b6000823561011e19833603018112610cae57600080fd5b803560ff811681146107d957600080fd5b60008383855260208086019550808560051b8301018460005b8781101561102e57848303601f19018952610f8b8288610ed5565b60a063ffffffff610f9b83610a4f565b16855285820135610fab816107b9565b6001600160a01b0316858701526040610fc683820184610c1e565b8383890152610fd88489018284610c66565b93505050506060610feb81840184610cce565b87840383890152610ffd848284610d13565b9350505050608080830135925061101383610ad2565b91151594909101939093529783019790830190600101610f70565b5090979650505050505050565b600061012061105a8461104d85610cb7565b6001600160401b03169052565b61106660208401610cb7565b6001600160401b03166020850152611080604084016107ce565b6001600160a01b0316604085015261109a60608401610ae0565b151560608501526110ad608084016107ce565b6001600160a01b0316608085015260a083810135908501526110d260c0840184610cce565b8260c08701526110e58387018284610d13565b925050506110f560e08401610f46565b60ff1660e085015261010061110c84820185610c1e565b8684038388015261111e848284610f57565b979650505050505050565b6000602080835261113a8485610c1e565b60408386015261114e606086018284610c66565b91505061115d82860186610c98565b601f1985830301604086015280358252828101358383015261118160408201610cb7565b6001600160401b0380821660408501528061119e60608501610cb7565b16606085015250506111b36080820182610ed5565b60c06080840152803560c084015283810135935061ffff84168085146111d857600080fd5b60e0840152604081013593506111ed84610ad2565b92151561010083015260608301359261120584610ad2565b83151561012084015261121b6080820182610c1e565b9450905060a061014084015261123661016084018583610eeb565b93505061124660a0820182610f2f565b905081830360a0830152610da1838261103b565b60006020828403121561126c57600080fd5b8151610834816107b956fea26469706673582212204e325a5c5b407838cf0c10c43e3c11e208d1d440cfeeb44bd91cf8b823120a1164736f6c63430008190033",
  "linkReferences": {},
  "deployedLinkReferences": {}
}