{
  "_format": "hh-sol-artifact-1",
  "contractName": "TransferEventListener",
  "sourceName": "contracts/fdcExample/EVMTransaction.sol",
  "abi": [
    {
      "inputs": [],
      "name": "USDC_CONTRACT",
      "outputs": [
        {
          "internalType": "address",
          "name": "",
          "type": "address"
        }
      ],
      "stateMutability": "view",
      "type": "function"
    },
    {
      "inputs": [
        {
          "components": [
            {
              "internalType": "bytes32[]",
              "name": "merkleProof",
              "type": "bytes32[]"
            },
            {
              "components": [
                {
                  "internalType": "bytes32",
                  "name": "attestationType",
                  "type": "bytes32"
                },
                {
                  "internalType": "bytes32",
                  "name": "sourceId",
                  "type": "bytes32"
                },
                {
                  "internalType": "uint64",
                  "name": "votingRound",
                  "type": "uint64"
                },
                {
                  "internalType": "uint64",
                  "name": "lowestUsedTimestamp",
                  "type": "uint64"
                },
                {
                  "components": [
                    {
                      "internalType": "bytes32",
                      "name": "transactionHash",
                      "type": "bytes32"
                    },
                    {
                      "internalType": "uint16",
                      "name": "requiredConfirmations",
                      "type": "uint16"
                    },
                    {
                      "internalType": "bool",
                      "name": "provideInput",
                      "type": "bool"
                    },
                    {
                      "internalType": "bool",
                      "name": "listEvents",
                      "type": "bool"
                    },
                    {
                      "internalType": "uint32[]",
                      "name": "logIndices",
                      "type": "uint32[]"
                    }
                  ],
                  "internalType": "struct IEVMTransaction.RequestBody",
                  "name": "requestBody",
                  "type": "tuple"
                },
                {
                  "components": [
                    {
                      "internalType": "uint64",
                      "name": "blockNumber",
                      "type": "uint64"
                    },
                    {
                      "internalType": "uint64",
                      "name": "timestamp",
                      "type": "uint64"
                    },
                    {
                      "internalType": "address",
                      "name": "sourceAddress",
                      "type": "address"
                    },
                    {
                      "internalType": "bool",
                      "name": "isDeployment",
                      "type": "bool"
                    },
                    {
                      "internalType": "address",
                      "name": "receivingAddress",
                      "type": "address"
                    },
                    {
                      "internalType": "uint256",
                      "name": "value",
                      "type": "uint256"
                    },
                    {
                      "internalType": "bytes",
                      "name": "input",
                      "type": "bytes"
                    },
                    {
                      "internalType": "uint8",
                      "name": "status",
                      "type": "uint8"
                    },
                    {
                      "components": [
                        {
                          "internalType": "uint32",
                          "name": "logIndex",
                          "type": "uint32"
                        },
                        {
                          "internalType": "address",
                          "name": "emitterAddress",
                          "type": "address"
                        },
                        {
                          "internalType": "bytes32[]",
                          "name": "topics",
                          "type": "bytes32[]"
                        },
                        {
                          "internalType": "bytes",
                          "name": "data",
                          "type": "bytes"
                        },
                        {
                          "internalType": "bool",
                          "name": "removed",
                          "type": "bool"
                        }
                      ],
                      "internalType": "struct IEVMTransaction.Event[]",
                      "name": "events",
                      "type": "tuple[]"
                    }
                  ],
                  "internalType": "struct IEVMTransaction.ResponseBody",
                  "name": "responseBody",
                  "type": "tuple"
                }
              ],
              "internalType": "struct IEVMTransaction.Response",
              "name": "data",
              "type": "tuple"
            }
          ],
          "internalType": "struct IEVMTransaction.Proof",
          "name": "_transaction",
          "type": "tuple"
        }
      ],
      "name": "collectTransferEvents",
      "outputs": [],
      "stateMutability": "nonpayable",
      "type": "function"
    },
    {
      "inputs": [],
      "name": "getTokenTransfers",
      "outputs": [
        {
          "components": [
            {
              "internalType": "address",
              "name": "from",
              "type": "address"
            },
            {
              "internalType": "address",
              "name": "to",
              "type": "address"
            },
            {
              "internalType": "uint256",
              "name": "value",
              "type": "uint256"
            }
          ],
          "internalType": "struct TokenTransfer[]",
          "name": "",
          "type": "tuple[]"
        }
      ],
      "stateMutability": "view",
      "type": "function"
    },
    {
      "inputs": [
        {
          "components": [
            {
              "internalType": "bytes32[]",
              "name": "merkleProof",
              "type": "bytes32[]"
            },
            {
              "components": [
                {
                  "internalType": "bytes32",
                  "name": "attestationType",
                  "type": "bytes32"
                },
                {
                  "internalType": "bytes32",
                  "name": "sourceId",
                  "type": "bytes32"
                },
                {
                  "internalType": "uint64",
                  "name": "votingRound",
                  "type": "uint64"
                },
                {
                  "internalType": "uint64",
                  "name": "lowestUsedTimestamp",
                  "type": "uint64"
                },
                {
                  "components": [
                    {
                      "internalType": "bytes32",
                      "name": "transactionHash",
                      "type": "bytes32"
                    },
                    {
                      "internalType": "uint16",
                      "name": "requiredConfirmations",
                      "type": "uint16"
                    },
                    {
                      "internalType": "bool",
                      "name": "provideInput",
                      "type": "bool"
                    },
                    {
                      "internalType": "bool",
                      "name": "listEvents",
                      "type": "bool"
                    },
                    {
                      "internalType": "uint32[]",
                      "name": "logIndices",
                      "type": "uint32[]"
                    }
                  ],
                  "internalType": "struct IEVMTransaction.RequestBody",
                  "name": "requestBody",
                  "type": "tuple"
                },
                {
                  "components": [
                    {
                      "internalType": "uint64",
                      "name": "blockNumber",
                      "type": "uint64"
                    },
                    {
                      "internalType": "uint64",
                      "name": "timestamp",
                      "type": "uint64"
                    },
                    {
                      "internalType": "address",
                      "name": "sourceAddress",
                      "type": "address"
                    },
                    {
                      "internalType": "bool",
                      "name": "isDeployment",
                      "type": "bool"
                    },
                    {
                      "internalType": "address",
                      "name": "receivingAddress",
                      "type": "address"
                    },
                    {
                      "internalType": "uint256",
                      "name": "value",
                      "type": "uint256"
                    },
                    {
                      "internalType": "bytes",
                      "name": "input",
                      "type": "bytes"
                    },
                    {
                      "internalType": "uint8",
                      "name": "status",
                      "type": "uint8"
                    },
                    {
                      "components": [
                        {
                          "internalType": "uint32",
                          "name": "logIndex",
                          "type": "uint32"
                        },
                        {
                          "internalType": "address",
                          "name": "emitterAddress",
                          "type": "address"
                        },
                        {
                          "internalType": "bytes32[]",
                          "name": "topics",
                          "type": "bytes32[]"
                        },
                        {
                          "internalType": "bytes",
                          "name": "data",
                          "type": "bytes"
                        },
                        {
                          "internalType": "bool",
                          "name": "removed",
                          "type": "bool"
                        }
                      ],
                      "internalType": "struct IEVMTransaction.Event[]",
                      "name": "events",
                      "type": "tuple[]"
                    }
                  ],
                  "internalType": "struct IEVMTransaction.ResponseBody",
                  "name": "responseBody",
                  "type": "tuple"
                }
              ],
              "internalType": "struct IEVMTransaction.Response",
              "name": "data",
              "type": "tuple"
            }
          ],
          "internalType": "struct IEVMTransaction.Proof",
          "name": "transaction",
          "type": "tuple"
        }
      ],
      "name": "isEVMTransactionProofValid",
      "outputs": [
        {
          "internalType": "bool",
          "name": "",
          "type": "bool"
        }
      ],
      "stateMutability": "view",
      "type": "function"
    },
    {
      "inputs": [
        {
          "internalType": "uint256",
          "name": "",
          "type": "uint256"
        }
      ],
      "name": "tokenTransfers",
      "outputs": [
        {
          "internalType": "address",
          "name": "from",
          "type": "address"
        },
        {
          "internalType": "address",
          "name": "to",
          "type": "address"
        },
        {
          "internalType": "uint256",
          "name": "value",
          "type": "uint256"
        }
      ],
      "stateMutability": "view",
      "type": "function"
    }
  ],
  "bytecode": "0x6080604052348015600f57600080fd5b50610f658061001f6000396000f3fe608060405234801561001057600080fd5b50600436106100575760003560e01c806309f5dc911461005c57806313e6e6b61461008457806336dc60fe146100995780634196ff01146100d2578063e49523ff14610105575b600080fd5b61006f61006a366004610694565b61011a565b60405190151581526020015b60405180910390f35b610097610092366004610694565b61019c565b005b6100ac6100a73660046106ce565b610482565b604080516001600160a01b0394851681529390921660208401529082015260600161007b565b6100ed731c7d4b196cb0c7b01d743fbc6116a902379c723881565b6040516001600160a01b03909116815260200161007b565b61010d6104c2565b60405161007b91906106e7565b6000806101256105c2565b6040516358fbe9e160e01b81529091506001600160a01b038216906358fbe9e190610154908690600401610b04565b602060405180830381865afa158015610171573d6000803e3d6000fd5b505050506040513d601f19601f820116820180604052508101906101959190610c4e565b9392505050565b6101a58161011a565b6101f55760405162461bcd60e51b815260206004820152601960248201527f496e76616c6964207472616e73616374696f6e2070726f6f6600000000000000604482015260640160405180910390fd5b60005b6102056020830183610c6b565b6102139060a0810190610c8b565b61022290610100810190610ca2565b905081101561047e57600061023a6020840184610c6b565b6102489060a0810190610c8b565b61025790610100810190610ca2565b8381811061026757610267610ceb565b90506020028101906102799190610d01565b61028290610df4565b60208101519091506001600160a01b0316731c7d4b196cb0c7b01d743fbc6116a902379c7238146102b35750610476565b604081015151158061033557506040516020016102fd907f5472616e7366657228616464726573732c616464726573732c75696e743235368152602960f81b602082015260210190565b60405160208183030381529060405280519060200120816040015160008151811061032a5761032a610ceb565b602002602001015114155b156103405750610476565b6000816040015160018151811061035957610359610ceb565b602002602001015160001c90506000826040015160028151811061037f5761037f610ceb565b602002602001015160001c9050600083606001518060200190518101906103a69190610ef9565b604080516060810182526001600160a01b0395861681529385166020850190815290840191825260008054600181018255908052935160039094027f290decd9548b62a8d60345a988386fc84ba6bc95484008f6362f93160ef3e563810180549587166001600160a01b031996871617905590517f290decd9548b62a8d60345a988386fc84ba6bc95484008f6362f93160ef3e56482018054919096169416939093179093555090517f290decd9548b62a8d60345a988386fc84ba6bc95484008f6362f93160ef3e56590910155505b6001016101f8565b5050565b6000818154811061049257600080fd5b60009182526020909120600390910201805460018201546002909201546001600160a01b03918216935091169083565b60008054606091906001600160401b038111156104e1576104e1610d17565b60405190808252806020026020018201604052801561052c57816020015b60408051606081018252600080825260208083018290529282015282526000199092019101816104ff5790505b50905060005b6000548110156105bc576000818154811061054f5761054f610ceb565b600091825260209182902060408051606081018252600390930290910180546001600160a01b039081168452600182015416938301939093526002909201549181019190915282518390839081106105a9576105a9610ceb565b6020908102919091010152600101610532565b50919050565b600073ad67fe66660fb8dfe9d6b1b4240d8650e30f60196001600160a01b031663159354a260405160200161061a906020808252600f908201526e233231ab32b934b334b1b0ba34b7b760891b604082015260600190565b604051602081830303815290604052805190602001206040518263ffffffff1660e01b815260040161064e91815260200190565b602060405180830381865afa15801561066b573d6000803e3d6000fd5b505050506040513d601f19601f8201168201806040525081019061068f9190610f12565b905090565b6000602082840312156106a657600080fd5b81356001600160401b038111156106bc57600080fd5b82016040818503121561019557600080fd5b6000602082840312156106e057600080fd5b5035919050565b602080825282518282018190526000919060409081850190868401855b8281101561073f57815180516001600160a01b0390811686528782015116878601528501518585015260609093019290850190600101610704565b5091979650505050505050565b6000808335601e1984360301811261076357600080fd5b83016020810192503590506001600160401b0381111561078257600080fd5b8060051b360382131561079457600080fd5b9250929050565b81835260006001600160fb1b038311156107b457600080fd5b8260051b80836020870137939093016020019392505050565b80356001600160401b03811681146107e457600080fd5b919050565b60008235609e198336030181126107ff57600080fd5b90910192915050565b801515811461081657600080fd5b50565b80356107e481610808565b803563ffffffff811681146107e457600080fd5b8183526000602080850194508260005b858110156108715763ffffffff61085e83610824565b1687529582019590820190600101610848565b509495945050505050565b6000823561011e198336030181126107ff57600080fd5b6001600160a01b038116811461081657600080fd5b80356107e481610893565b6000808335601e198436030181126108ca57600080fd5b83016020810192503590506001600160401b038111156108e957600080fd5b80360382131561079457600080fd5b81835281816020850137506000828201602090810191909152601f909101601f19169091010190565b803560ff811681146107e457600080fd5b60008383855260208086019550808560051b8301018460005b87811015610a0957848303601f1901895261096682886107e9565b60a063ffffffff61097683610824565b1685528582013561098681610893565b6001600160a01b03168587015260406109a18382018461074c565b83838901526109b3848901828461079b565b935050505060606109c6818401846108b3565b878403838901526109d88482846108f8565b935050505060808083013592506109ee83610808565b9115159490910193909352978301979083019060010161094b565b5090979650505050505050565b6000610120610a3584610a28856107cd565b6001600160401b03169052565b610a41602084016107cd565b6001600160401b03166020850152610a5b604084016108a8565b6001600160a01b03166040850152610a7560608401610819565b15156060850152610a88608084016108a8565b6001600160a01b0316608085015260a08381013590850152610aad60c08401846108b3565b8260c0870152610ac083870182846108f8565b92505050610ad060e08401610921565b60ff1660e0850152610100610ae78482018561074c565b86840383880152610af9848284610932565b979650505050505050565b60006020808352610b15848561074c565b604083860152610b2960608601828461079b565b9150508185013560be19863603018112610b4257600080fd5b8581019050601f19858303016040860152803582528281013583830152610b6b604082016107cd565b6001600160401b03808216604085015280610b88606085016107cd565b1660608501525050610b9d60808201826107e9565b60c06080840152803560c084015283810135935061ffff8416808514610bc257600080fd5b60e084015260408101359350610bd784610808565b921515610100830152606083013592610bef84610808565b831515610120840152610c05608082018261074c565b9450905060a0610140840152610c2061016084018583610838565b935050610c3060a082018261087c565b905081830360a0830152610c448382610a16565b9695505050505050565b600060208284031215610c6057600080fd5b815161019581610808565b6000823560be19833603018112610c8157600080fd5b9190910192915050565b6000823561011e19833603018112610c8157600080fd5b6000808335601e19843603018112610cb957600080fd5b8301803591506001600160401b03821115610cd357600080fd5b6020019150600581901b360382131561079457600080fd5b634e487b7160e01b600052603260045260246000fd5b60008235609e19833603018112610c8157600080fd5b634e487b7160e01b600052604160045260246000fd5b60405160a081016001600160401b0381118282101715610d4f57610d4f610d17565b60405290565b604051601f8201601f191681016001600160401b0381118282101715610d7d57610d7d610d17565b604052919050565b600082601f830112610d9657600080fd5b81356001600160401b03811115610daf57610daf610d17565b610dc2601f8201601f1916602001610d55565b818152846020838601011115610dd757600080fd5b816020850160208301376000918101602001919091529392505050565b600060a08236031215610e0657600080fd5b610e0e610d2d565b610e1783610824565b8152602080840135610e2881610893565b8282015260408401356001600160401b0380821115610e4657600080fd5b9085019036601f830112610e5957600080fd5b813581811115610e6b57610e6b610d17565b8060051b610e7a858201610d55565b9182528381018501918581019036841115610e9457600080fd5b948601945b83861015610eb257853582529486019490860190610e99565b60408801525050506060860135925080831115610ece57600080fd5b5050610edc36828601610d85565b606083015250610eee60808401610819565b608082015292915050565b600060208284031215610f0b57600080fd5b5051919050565b600060208284031215610f2457600080fd5b81516101958161089356fea26469706673582212209a0bbc26b75ad5c53aebae6f646ec5e2407c9c922db47dcf9f0095380132d80764736f6c63430008190033",
  "linkReferences": {},
  "deployedLinkReferences": {}
}