{
  "_format": "hh-sol-artifact-1",
  "contractName": "AddressRegistry",
  "sourceName": "contracts/fdcExample/AddressValidity.sol",
  "abi": [
    {
      "inputs": [
        {
          "components": [
            {
              "internalType": "bytes32[]",
              "name": "merkleProof",
              "type": "bytes32[]"
            },
            {
              "components": [
                {
                  "internalType": "bytes32",
                  "name": "attestationType",
                  "type": "bytes32"
                },
                {
                  "internalType": "bytes32",
                  "name": "sourceId",
                  "type": "bytes32"
                },
                {
                  "internalType": "uint64",
                  "name": "votingRound",
                  "type": "uint64"
                },
                {
                  "internalType": "uint64",
                  "name": "lowestUsedTimestamp",
                  "type": "uint64"
                },
                {
                  "components": [
                    {
                      "internalType": "string",
                      "name": "addressStr",
                      "type": "string"
                    }
                  ],
                  "internalType": "struct IAddressValidity.RequestBody",
                  "name": "requestBody",
                  "type": "tuple"
                },
                {
                  "components": [
                    {
                      "internalType": "bool",
                      "name": "isValid",
                      "type": "bool"
                    },
                    {
                      "internalType": "string",
                      "name": "standardAddress",
                      "type": "string"
                    },
                    {
                      "internalType": "bytes32",
                      "name": "standardAddressHash",
                      "type": "bytes32"
                    }
                  ],
                  "internalType": "struct IAddressValidity.ResponseBody",
                  "name": "responseBody",
                  "type": "tuple"
                }
              ],
              "internalType": "struct IAddressValidity.Response",
              "name": "data",
              "type": "tuple"
            }
          ],
          "internalType": "struct IAddressValidity.Proof",
          "name": "transaction",
          "type": "tuple"
        }
      ],
      "name": "isAddressValidityProofValid",
      "outputs": [
        {
          "internalType": "bool",
          "name": "",
          "type": "bool"
        }
      ],
      "stateMutability": "view",
      "type": "function"
    },
    {
      "inputs": [
        {
          "components": [
            {
              "internalType": "bytes32[]",
              "name": "merkleProof",
              "type": "bytes32[]"
            },
            {
              "components": [
                {
                  "internalType": "bytes32",
                  "name": "attestationType",
                  "type": "bytes32"
                },
                {
                  "internalType": "bytes32",
                  "name": "sourceId",
                  "type": "bytes32"
                },
                {
                  "internalType": "uint64",
                  "name": "votingRound",
                  "type": "uint64"
                },
                {
                  "internalType": "uint64",
                  "name": "lowestUsedTimestamp",
                  "type": "uint64"
                },
                {
                  "components": [
                    {
                      "internalType": "string",
                      "name": "addressStr",
                      "type": "string"
                    }
                  ],
                  "internalType": "struct IAddressValidity.RequestBody",
                  "name": "requestBody",
                  "type": "tuple"
                },
                {
                  "components": [
                    {
                      "internalType": "bool",
                      "name": "isValid",
                      "type": "bool"
                    },
                    {
                      "internalType": "string",
                      "name": "standardAddress",
                      "type": "string"
                    },
                    {
                      "internalType": "bytes32",
                      "name": "standardAddressHash",
                      "type": "bytes32"
                    }
                  ],
                  "internalType": "struct IAddressValidity.ResponseBody",
                  "name": "responseBody",
                  "type": "tuple"
                }
              ],
              "internalType": "struct IAddressValidity.Response",
              "name": "data",
              "type": "tuple"
            }
          ],
          "internalType": "struct IAddressValidity.Proof",
          "name": "_transaction",
          "type": "tuple"
        }
      ],
      "name": "registerAddress",
      "outputs": [],
      "stateMutability": "nonpayable",
      "type": "function"
    },
    {
      "inputs": [
        {
          "internalType": "uint256",
          "name": "",
          "type": "uint256"
        }
      ],
      "name": "verifiedAddresses",
      "outputs": [
        {
          "internalType": "string",
          "name": "",
          "type": "string"
        }
      ],
      "stateMutability": "view",
      "type": "function"
    }
  ],
  "bytecode": "0x6080604052348015600f57600080fd5b50610a3c8061001f6000396000f3fe608060405234801561001057600080fd5b50600436106100415760003560e01c80630ec52cf114610046578063215a06ae1461006f57806342e4984314610092575b600080fd5b610059610054366004610348565b6100a7565b60405161006691906103a7565b60405180910390f35b61008261007d366004610679565b610153565b6040519015158152602001610066565b6100a56100a0366004610679565b6101d5565b005b600081815481106100b757600080fd5b9060005260206000200160009150905080546100d29061076d565b80601f01602080910402602001604051908101604052809291908181526020018280546100fe9061076d565b801561014b5780601f106101205761010080835404028352916020019161014b565b820191906000526020600020905b81548152906001019060200180831161012e57829003601f168201915b505050505081565b60008061015e610276565b60405163f34ef58760e01b81529091506001600160a01b0382169063f34ef5879061018d9086906004016107dc565b602060405180830381865afa1580156101aa573d6000803e3d6000fd5b505050506040513d601f19601f820116820180604052508101906101ce91906108b0565b9392505050565b6101de81610153565b61022e5760405162461bcd60e51b815260206004820152601960248201527f496e76616c6964207472616e73616374696f6e2070726f6f6600000000000000604482015260640160405180910390fd5b60208101516080015151600080546001810182559080527f290decd9548b62a8d60345a988386fc84ba6bc95484008f6362f93160ef3e56301610271828261091d565b505050565b600073ad67fe66660fb8dfe9d6b1b4240d8650e30f60196001600160a01b031663159354a26040516020016102ce906020808252600f908201526e233231ab32b934b334b1b0ba34b7b760891b604082015260600190565b604051602081830303815290604052805190602001206040518263ffffffff1660e01b815260040161030291815260200190565b602060405180830381865afa15801561031f573d6000803e3d6000fd5b505050506040513d601f19601f8201168201806040525081019061034391906109dd565b905090565b60006020828403121561035a57600080fd5b5035919050565b6000815180845260005b818110156103875760208185018101518683018201520161036b565b506000602082860101526020601f19601f83011685010191505092915050565b6020815260006101ce6020830184610361565b634e487b7160e01b600052604160045260246000fd5b60405160c0810167ffffffffffffffff811182821017156103f3576103f36103ba565b60405290565b6040805190810167ffffffffffffffff811182821017156103f3576103f36103ba565b604051601f8201601f1916810167ffffffffffffffff81118282101715610445576104456103ba565b604052919050565b803567ffffffffffffffff8116811461046557600080fd5b919050565b600082601f83011261047b57600080fd5b813567ffffffffffffffff811115610495576104956103ba565b6104a8601f8201601f191660200161041c565b8181528460208386010111156104bd57600080fd5b816020850160208301376000918101602001919091529392505050565b6000602082840312156104ec57600080fd5b6040516020810167ffffffffffffffff8282108183111715610510576105106103ba565b81604052829350843591508082111561052857600080fd5b506105358582860161046a565b8252505092915050565b801515811461054d57600080fd5b50565b60006060828403121561056257600080fd5b6040516060810167ffffffffffffffff8282108183111715610586576105866103ba565b816040528293508435915061059a8261053f565b908252602084013590808211156105b057600080fd5b506105bd8582860161046a565b602083015250604083013560408201525092915050565b600060c082840312156105e657600080fd5b6105ee6103d0565b9050813581526020820135602082015261060a6040830161044d565b604082015261061b6060830161044d565b6060820152608082013567ffffffffffffffff8082111561063b57600080fd5b610647858386016104da565b608084015260a084013591508082111561066057600080fd5b5061066d84828501610550565b60a08301525092915050565b6000602080838503121561068c57600080fd5b823567ffffffffffffffff808211156106a457600080fd5b90840190604082870312156106b857600080fd5b6106c06103f9565b8235828111156106cf57600080fd5b8301601f810188136106e057600080fd5b8035838111156106f2576106f26103ba565b8060051b61070187820161041c565b918252828101870191878101908b84111561071b57600080fd5b938801935b8385101561073957843582529388019390880190610720565b855250505050828401358281111561075057600080fd5b61075c888286016105d4565b948201949094529695505050505050565b600181811c9082168061078157607f821691505b6020821081036107a157634e487b7160e01b600052602260045260246000fd5b50919050565b80511515825260006020820151606060208501526107c86060850182610361565b604093840151949093019390935250919050565b6020808252825160408383015280516060840181905260009291820190839060808601905b808310156108215783518252928401926001929092019190840190610801565b50838701519250601f198682030160408701528251815283830151848201526040830151915067ffffffffffffffff8083166040830152806060850151166060830152506080830151915060c06080820152815191508360c082015261088a60e0820183610361565b935060a0830151925080840360a082015250506108a782826107a7565b95945050505050565b6000602082840312156108c257600080fd5b81516101ce8161053f565b601f821115610271576000816000526020600020601f850160051c810160208610156108f65750805b601f850160051c820191505b8181101561091557828155600101610902565b505050505050565b815167ffffffffffffffff811115610937576109376103ba565b61094b81610945845461076d565b846108cd565b602080601f83116001811461098057600084156109685750858301515b600019600386901b1c1916600185901b178555610915565b600085815260208120601f198616915b828110156109af57888601518255948401946001909101908401610990565b50858210156109cd5787850151600019600388901b60f8161c191681555b5050505050600190811b01905550565b6000602082840312156109ef57600080fd5b81516001600160a01b03811681146101ce57600080fdfea26469706673582212205992082c9ca9ef618618b3c6902f2afb23259db217b18e758e13138300f3aeed64736f6c63430008190033",
  "linkReferences": {},
  "deployedLinkReferences": {}
}