{
  "_format": "hh-sol-artifact-1",
  "contractName": "BattleShip",
  "sourceName": "contracts/BattleShip/BattleShip.sol",
  "abi": [
    {
      "inputs": [],
      "stateMutability": "nonpayable",
      "type": "constructor"
    },
    {
      "anonymous": false,
      "inputs": [
        {
          "indexed": false,
          "internalType": "address",
          "name": "player",
          "type": "address"
        },
        {
          "indexed": false,
          "internalType": "uint16",
          "name": "prediction",
          "type": "uint16"
        },
        {
          "indexed": false,
          "internalType": "uint16",
          "name": "target",
          "type": "uint16"
        },
        {
          "indexed": false,
          "internalType": "uint8",
          "name": "result",
          "type": "uint8"
        },
        {
          "indexed": false,
          "internalType": "uint256",
          "name": "prize",
          "type": "uint256"
        },
        {
          "indexed": false,
          "internalType": "uint256",
          "name": "timestamp",
          "type": "uint256"
        }
      ],
      "name": "DroneDropped",
      "type": "event"
    },
    {
      "inputs": [],
      "name": "MAX_DROPS",
      "outputs": [
        {
          "internalType": "uint256",
          "name": "",
          "type": "uint256"
        }
      ],
      "stateMutability": "view",
      "type": "function"
    },
    {
      "inputs": [],
      "name": "MAX_DROP_AMOUNT",
      "outputs": [
        {
          "internalType": "uint256",
          "name": "",
          "type": "uint256"
        }
      ],
      "stateMutability": "view",
      "type": "function"
    },
    {
      "inputs": [
        {
          "internalType": "uint256",
          "name": "amount",
          "type": "uint256"
        }
      ],
      "name": "claimWins",
      "outputs": [],
      "stateMutability": "nonpayable",
      "type": "function"
    },
    {
      "inputs": [
        {
          "internalType": "uint16",
          "name": "prediction",
          "type": "uint16"
        }
      ],
      "name": "dropDrone",
      "outputs": [],
      "stateMutability": "payable",
      "type": "function"
    },
    {
      "inputs": [
        {
          "internalType": "address",
          "name": "user",
          "type": "address"
        }
      ],
      "name": "getUnpaidWins",
      "outputs": [
        {
          "internalType": "uint256",
          "name": "",
          "type": "uint256"
        }
      ],
      "stateMutability": "view",
      "type": "function"
    },
    {
      "inputs": [
        {
          "internalType": "address",
          "name": "user",
          "type": "address"
        }
      ],
      "name": "getUserDroneBattles",
      "outputs": [
        {
          "components": [
            {
              "internalType": "uint16",
              "name": "prediction",
              "type": "uint16"
            },
            {
              "internalType": "uint16",
              "name": "target",
              "type": "uint16"
            },
            {
              "internalType": "enum BattleShip.DroneDropResult",
              "name": "result",
              "type": "uint8"
            },
            {
              "internalType": "uint256",
              "name": "amount",
              "type": "uint256"
            },
            {
              "internalType": "uint256",
              "name": "prize",
              "type": "uint256"
            },
            {
              "internalType": "uint256",
              "name": "timestamp",
              "type": "uint256"
            }
          ],
          "internalType": "struct BattleShip.DroneBattle[]",
          "name": "",
          "type": "tuple[]"
        }
      ],
      "stateMutability": "view",
      "type": "function"
    },
    {
      "inputs": [],
      "name": "owner",
      "outputs": [
        {
          "internalType": "address",
          "name": "",
          "type": "address"
        }
      ],
      "stateMutability": "view",
      "type": "function"
    },
    {
      "inputs": [
        {
          "internalType": "address",
          "name": "",
          "type": "address"
        }
      ],
      "name": "unpaidWins",
      "outputs": [
        {
          "internalType": "uint256",
          "name": "",
          "type": "uint256"
        }
      ],
      "stateMutability": "view",
      "type": "function"
    },
    {
      "inputs": [
        {
          "internalType": "address",
          "name": "",
          "type": "address"
        },
        {
          "internalType": "uint256",
          "name": "",
          "type": "uint256"
        }
      ],
      "name": "userDroneBattles",
      "outputs": [
        {
          "internalType": "uint16",
          "name": "prediction",
          "type": "uint16"
        },
        {
          "internalType": "uint16",
          "name": "target",
          "type": "uint16"
        },
        {
          "internalType": "enum BattleShip.DroneDropResult",
          "name": "result",
          "type": "uint8"
        },
        {
          "internalType": "uint256",
          "name": "amount",
          "type": "uint256"
        },
        {
          "internalType": "uint256",
          "name": "prize",
          "type": "uint256"
        },
        {
          "internalType": "uint256",
          "name": "timestamp",
          "type": "uint256"
        }
      ],
      "stateMutability": "view",
      "type": "function"
    },
    {
      "inputs": [],
      "name": "withdrawAll",
      "outputs": [],
      "stateMutability": "nonpayable",
      "type": "function"
    }
  ],
  "bytecode": "0x608060405234801561001057600080fd5b50610019610048565b600080546001600160a01b03929092166001600160a01b03199283161790556005805490911633179055610149565b600073ad67fe66660fb8dfe9d6b1b4240d8650e30f60196001600160a01b031663159354a260405160200161009f906020808252600e908201526d2930b73237b6a73ab6b132b92b1960911b604082015260600190565b604051602081830303815290604052805190602001206040518263ffffffff1660e01b81526004016100d391815260200190565b602060405180830381865afa1580156100f0573d6000803e3d6000fd5b505050506040513d601f19601f820116820180604052508101906101149190610119565b905090565b60006020828403121561012b57600080fd5b81516001600160a01b038116811461014257600080fd5b9392505050565b610da5806101586000396000f3fe6080604052600436106100915760003560e01c806393feb4461161005957806393feb44614610153578063948bc25314610176578063a4fcc72214610192578063eeca97ff146101bf578063f44fbc4f146101ec57600080fd5b80632bade99514610096578063707aa105146100ab57806372a41546146100cb578063853828b6146101065780638da5cb5b1461011b575b600080fd5b6100a96100a4366004610b12565b610222565b005b3480156100b757600080fd5b506100a96100c6366004610b3d565b610705565b3480156100d757600080fd5b506100eb6100e6366004610b72565b6108f1565b6040516100fd96959493929190610bd4565b60405180910390f35b34801561011257600080fd5b506100a9610952565b34801561012757600080fd5b5060055461013b906001600160a01b031681565b6040516001600160a01b0390911681526020016100fd565b34801561015f57600080fd5b50610168600f81565b6040519081526020016100fd565b34801561018257600080fd5b50610168671bc16d674ec8000081565b34801561019e57600080fd5b506101686101ad366004610c11565b60026020526000908152604090205481565b3480156101cb57600080fd5b506101df6101da366004610c11565b610a2f565b6040516100fd9190610c2c565b3480156101f857600080fd5b50610168610207366004610c11565b6001600160a01b031660009081526002602052604090205490565b600034116102645760405162461bcd60e51b815260206004820152600a6024820152695a45524f5f56414c554560b01b60448201526064015b60405180910390fd5b671bc16d674ec800003411156102b05760405162461bcd60e51b815260206004820152601160248201527013505617d11493d417d15610d151511151607a1b604482015260640161025b565b600f8161ffff1611156103055760405162461bcd60e51b815260206004820152601760248201527f50524544494354494f4e5f4f55545f4f465f52414e4745000000000000000000604482015260640161025b565b600080546040805163dbdff2c160e01b8152905183926001600160a01b03169163dbdff2c19160048083019260609291908290030181865afa15801561034f573d6000803e3d6000fd5b505050506040513d601f19601f820116820180604052508101906103739190610cb4565b5091509150806103b65760405162461bcd60e51b815260206004820152600e60248201526d524e475f4e4f545f53454355524560901b604482015260640161025b565b3360009081526004602052604081205460ff16156103e95733600090815260036020526040902054600161ffff9091161b175b6000805b604080516020810187905290810183905233606082015243608082015260009060a00160408051601f19818403018152919052805160209091012090506000610438600f6001610d08565b6104429083610d21565b9050600161ffff82161b85811663ffffffff166000036104665750915061047b9050565b8461047081610d43565b9550505050506103ed565b336000908152600360209081526040808320805461ffff191661ffff8681169182179092556004909352908320805460ff191660011790558291908916036105865750600090503460011b478111156104f85733600090815260026020526040812080548392906104ed908490610d08565b9091555061058e9050565b604051600090339083908381818185875af1925050503d806000811461053a576040519150601f19603f3d011682016040523d82523d6000602084013e61053f565b606091505b50509050806105805760405162461bcd60e51b815260206004820152600d60248201526c14105653d55517d19052531151609a1b604482015260640161025b565b5061058e565b506001905060005b60006040518060c001604052808a61ffff1681526020018561ffff1681526020018460018111156105c1576105c1610b9c565b81523460208083019190915260408083018690524260609093019290925233600090815260018083528382208054808301825590835291839020855160049093020180549386015161ffff908116620100000263ffffffff199095169316929092179290921780825592840151939450849390929091839164ff0000000019169064010000000090849081111561065a5761065a610b9c565b0217905550606082015181600101556080820151816002015560a0820151816003015550507f1d1fe94ddee8355338079df903a4e7fad877b4d83022180f0ff17957034ee8d4338a868660018111156106b5576106b5610b9c565b604080516001600160a01b0395909516855261ffff9384166020860152919092169083015260ff166060820152608081018490524260a082015260c00160405180910390a1505050505050505050565b600081116107465760405162461bcd60e51b815260206004820152600e60248201526d1253959053125117d05353d5539560921b604482015260640161025b565b336000908152600260205260409020546107995760405162461bcd60e51b81526020600482015260146024820152731393d7d4105653d55517d195539114d7d3d5d15160621b604482015260640161025b565b336000908152600260205260409020548111156107f05760405162461bcd60e51b8152602060048201526015602482015274105353d5539517d15610d1515114d7d55394105251605a1b604482015260640161025b565b804710156108405760405162461bcd60e51b815260206004820152601860248201527f5041594f55545f46554e44535f554e415641494c41424c450000000000000000604482015260640161025b565b336000908152600260205260408120805483929061085f908490610d5c565b9091555050604051600090339083908381818185875af1925050503d80600081146108a6576040519150601f19603f3d011682016040523d82523d6000602084013e6108ab565b606091505b50509050806108ec5760405162461bcd60e51b815260206004820152600d60248201526c14105653d55517d19052531151609a1b604482015260640161025b565b505b50565b6001602052816000526040600020818154811061090d57600080fd5b6000918252602090912060049091020180546001820154600283015460039093015461ffff808416965062010000840416945064010000000090920460ff1692909186565b6005546001600160a01b031633146109985760405162461bcd60e51b81526020600482015260096024820152682727aa2fa0a226a4a760b91b604482015260640161025b565b6005546040516000916001600160a01b03169047908381818185875af1925050503d80600081146109e5576040519150601f19603f3d011682016040523d82523d6000602084013e6109ea565b606091505b50509050806108ee5760405162461bcd60e51b815260206004820152601160248201527015d2551211149055d05317d19052531151607a1b604482015260640161025b565b6001600160a01b0381166000908152600160209081526040808320805482518185028101850190935280835260609492939192909184015b82821015610b075760008481526020908190206040805160c08101825260048602909201805461ffff80821685526201000082041694840194909452919290830190640100000000900460ff166001811115610ac557610ac5610b9c565b6001811115610ad657610ad6610b9c565b8152602001600182015481526020016002820154815260200160038201548152505081526020019060010190610a67565b505050509050919050565b600060208284031215610b2457600080fd5b813561ffff81168114610b3657600080fd5b9392505050565b600060208284031215610b4f57600080fd5b5035919050565b80356001600160a01b0381168114610b6d57600080fd5b919050565b60008060408385031215610b8557600080fd5b610b8e83610b56565b946020939093013593505050565b634e487b7160e01b600052602160045260246000fd5b60028110610bd057634e487b7160e01b600052602160045260246000fd5b9052565b61ffff87811682528616602082015260c08101610bf46040830187610bb2565b8460608301528360808301528260a0830152979650505050505050565b600060208284031215610c2357600080fd5b610b3682610b56565b602080825282518282018190526000919060409081850190868401855b82811015610ca7578151805161ffff908116865287820151168786015285810151610c7687870182610bb2565b50606081810151908601526080808201519086015260a0908101519085015260c09093019290850190600101610c49565b5091979650505050505050565b600080600060608486031215610cc957600080fd5b8351925060208401518015158114610ce057600080fd5b80925050604084015190509250925092565b634e487b7160e01b600052601160045260246000fd5b80820180821115610d1b57610d1b610cf2565b92915050565b600082610d3e57634e487b7160e01b600052601260045260246000fd5b500690565b600060018201610d5557610d55610cf2565b5060010190565b81810381811115610d1b57610d1b610cf256fea26469706673582212202ae5ec98c38982404fb7f1586ce97a6dbe3d0fdfd36c05a1fdb11c535e6ce07064736f6c63430008190033",
  "linkReferences": {},
  "deployedLinkReferences": {}
}